:020000040800F2
:1000000000200020D9630008CB9400080564000894
:10001000056400080564000805640008000000008D
:100020000000000000000000000000007D600008EB
:100030000564000800000000ED5F0008F95D00089D
:10004000B1630008B1630008B1630008B163000840
:10005000B1630008B1630008B1630008B163000830
:10006000B1630008B1630008B1630008B163000820
:10007000B1630008B1630008B1630008B163000810
:10008000B1630008B1630008B1630008B163000800
:10009000B1630008B1630008B1630008B1630008F0
:1000A000B1630008B1630008B1630008B1630008E0
:1000B000B1630008B1630008B1630008B1630008D0
:1000C000B1630008B1630008B1630008B1630008C0
:1000D000B1630008B1630008B1630008B1630008B0
:1000E000B1630008B1630008B1630008B1630008A0
:1000F000B1630008B1630008B1630008B163000890
:10010000B1630008B1630008B1630008B16300087F
:10011000B1630008B1630008B1630008B16300086F
:10012000B1630008B1630008B1630008B16300085F
:10013000B1630008B1630008B1630008B16300084F
:10014000B1630008B1630008B1630008B16300083F
:10015000B1630008B1630008B1630008B16300082F
:10016000B1630008B1630008B1630008B16300081F
:10017000B1630008B1630008B1630008B16300080F
:10018000B1630008B1630008B1630008B1630008FF
:10019000B1630008B1630008B1630008B1630008EF
:1001A000B1630008B1630008B1630008B1630008DF
:1001B000B1630008B1630008B1630008B1630008CF
:0401C000B16300081F
:0401C400FFFFFFFF3B
:1001C80081F0004102E000BF83F0004330B54FEA00
:1001D80041044FEA430594EA050F08BF90EA020F6D
:1001E8001FBF54EA000C55EA020C7FEA645C7FEA00
:1001F800655C00F0E2804FEA5454D4EB5555B8BF23
:100208006D420CDD2C4480EA020281EA030382EA93
:10021800000083EA010180EA020281EA0303362D25
:1002280088BF30BD11F0004F4FEA01314FF4801CF8
:100238004CEA113102D0404261EB410113F0004F0A
:100248004FEA03334CEA133302D0524263EB4303C1
:1002580094EA050F00F0A780A4F10104D5F1200E5F
:100268000DDB02FA0EFC22FA05F2801841F10001BA
:1002780003FA0EF2801843FA05F359410EE0A5F18E
:1002880020050EF1200E012A03FA0EFC28BF4CF0BF
:10029800020C43FA05F3C01851EBE37101F0004575
:1002A80007D54FF0000EDCF1000C7EEB00006EEB82
:1002B8000101B1F5801F1BD3B1F5001F0CD349080C
:1002C8005FEA30004FEA3C0C04F101044FEA445263
:1002D80012F5800F80F09A80BCF1004F08BF5FEAEA
:1002E800500C50F1000041EB045141EA050130BDCA
:1002F8005FEA4C0C404141EB0101013C28BFB1F5DC
:10030800801FE9D291F0000F04BF01460020B1FA26
:1003180081F308BF2033A3F10B03B3F120020CDAF9
:100328000C3208DD02F1140CC2F10C0201FA0CF0D7
:1003380021FA02F10CE002F11402D8BFC2F1200C3C
:1003480001FA02F120FA0CFCDCBF41EA0C019040F2
:10035800E41AA2BF01EB0451294330BD6FEA04043B
:100368001F3C1CDA0C340EDC04F11404C4F1200226
:1003780020FA04F001FA02F340EA030021FA04F338
:1003880045EA030130BDC4F10C04C4F1200220FA8F
:1003980002F001FA04F340EA0300294630BD21FACD
:1003A80004F0294630BD94F0000F83F4801306BF93
:1003B80081F480110134013D4EE77FEA645C18BF87
:1003C8007FEA655C29D094EA050F08BF90EA020F1E
:1003D80005D054EA000C04BF1946104630BD91EA16
:1003E800030F1EBF0021002030BD5FEA545C05D119
:1003F8004000494128BF41F0004130BD14F5800458
:100408003CBF01F5801130BD01F0004545F0FE41CB
:1004180041F470014FF0000030BD7FEA645C1ABF00
:10042800194610467FEA655C1CBF0B46024650EA37
:10043800013406BF52EA033591EA030F41F4002163
:1004480030BD00BF90F0000F04BF0021704730B5E9
:100458004FF4806404F132044FF000054FF00001BE
:1004680050E700BF90F0000F04BF0021704730B57F
:100478004FF4806404F1320410F0004548BF404254
:100488004FF000013EE700BF42004FEAE2014FEAA9
:1004980031014FEA02701FBF12F07F4393F07F4F84
:1004A80081F06051704732F07F4208BF704793F087
:1004B8007F4F04BF41F40021704730B54FF460749A
:1004C80001F0004521F000411CE700BF50EA01029D
:1004D80008BF704730B54FF000050AE050EA010246
:1004E80008BF704730B511F0004502D5404261EBB6
:1004F80041014FF4806404F132045FEA915C3FF4F7
:10050800D8AE4FF003025FEADC0C18BF03325FEA93
:10051800DC0C18BF033202EBDC02C2F1200300FA44
:1005280003FC20FA02F001FA03FE40EA0E0021FA69
:1005380002F11444BDE600BF70B54FF0FF0C4CF457
:10054800E06C1CEA11541DBF1CEA135594EA0C0F09
:1005580095EA0C0F00F0DEF82C4481EA030621EA44
:100568004C5123EA4C5350EA013518BF52EA03357F
:1005780041F4801143F4801338D0A0FB02CE4FF031
:100588000005E1FB02E506F00042E0FB03E54FF061
:100598000006E1FB03569CF0000F18BF4EF0010E59
:1005A800A4F1FF04B6F5007F64F5407404D25FEA55
:1005B8004E0E6D4146EB060642EAC62141EA555108
:1005C8004FEAC52040EA5E504FEACE2EB4F1FD0C4A
:1005D80088BFBCF5E06F1ED8BEF1004F08BF5FEAC8
:1005E800500E50F1000041EB045170BD06F000467A
:1005F80046EA010140EA020081EA0301B4EB5C0427
:10060800C2BFD4EB0C0541EA045170BD41F480111E
:100618004FF0000E013C00F3AB8014F1360FDEBF43
:10062800002001F0004170BDC4F10004203C35DA1F
:100638000C341BDC04F11404C4F1200500FA05F3A2
:1006480020FA04F001FA05F240EA020001F0004243
:1006580021F0004110EBD37021FA04F642EB0601B9
:100668005EEA430E08BF20EAD37070BDC4F10C04E3
:10067800C4F1200500FA04F320FA05F001FA04F2A7
:1006880040EA020001F0004110EBD37041F1000193
:100698005EEA430E08BF20EAD37070BDC4F120059E
:1006A80000FA05F24EEA020E20FA04F301FA05F206
:1006B80043EA020321FA04F001F0004121FA04F2AE
:1006C80020EA020000EBD3705EEA430E08BF20EA7E
:1006D800D37070BD94F0000F0FD101F000464000B8
:1006E80041EB010111F4801F08BF013CF7D041EA3A
:1006F800060195F0000F18BF704703F0004652003E
:1007080043EB030313F4801F08BF013DF7D043EA0E
:100718000603704794EA0C0F0CEA135518BF95EAC4
:100728000C0F0CD050EA410618BF52EA4306D1D14B
:1007380081EA030101F000414FF0000070BD50EA6A
:10074800410606BF1046194652EA430619D094EAF4
:100758000C0F02D150EA013613D195EA0C0F05D1DE
:1007680052EA03361CBF104619460AD181EA030132
:1007780001F0004141F0FE4141F470014FF00000EA
:1007880070BD41F0FE4141F4780170BD70B54FF085
:10079800FF0C4CF4E06C1CEA11541DBF1CEA135505
:1007A80094EA0C0F95EA0C0F00F0A7F8A4EB0504E7
:1007B80081EA030E52EA03354FEA013100F08880DE
:1007C8004FEA03334FF0805545EA131343EA1263A7
:1007D8004FEA022245EA111545EA10654FEA00265C
:1007E8000EF000419D4208BF964244F1FD0404F515
:1007F800407402D25B084FEA3202B61A65EB030571
:100808005B084FEA32024FF480104FF4002CB6EB2D
:10081800020E75EB030E22BFB61A754640EA0C00AD
:100828005B084FEA3202B6EB020E75EB030E22BFED
:10083800B61A754640EA5C005B084FEA3202B6EB2E
:10084800020E75EB030E22BFB61A754640EA9C00ED
:100858005B084FEA3202B6EB020E75EB030E22BFBD
:10086800B61A754640EADC0055EA060E18D04FEA7B
:10087800051545EA16754FEA06164FEAC30343EA1B
:1008880052734FEAC2025FEA1C1CC0D111F4801FE8
:100898000BD141EA00014FF000004FF0004CB6E7E1
:1008A80011F4801F04BF01430020B4F1FD0C88BF80
:1008B800BCF5E06F3FF6AFAEB5EB030C04BFB6EB8B
:1008C800020C5FEA500C50F1000041EB045170BD7E
:1008D8000EF0004E4EEA113114EB5C04C2BFD4EBAB
:1008E8000C0541EA045170BD41F480114FF0000E2F
:1008F800013C90E645EA060E8DE60CEA135594EAAB
:100908000C0F08BF95EA0C0F3FF43BAF94EA0C0FAD
:100918000AD150EA01347FF434AF95EA0C0F7FF422
:1009280025AF104619462CE795EA0C0F06D152EA76
:1009380003353FF4FDAE1046194622E750EA41065A
:1009480018BF52EA43067FF4C5AE50EA41047FF46B
:100958000DAF52EA43057FF4EBAE12E74FEA4102CE
:10096800B2F1E04324BFB3F5001CDCF1FE5C0DD905
:1009780001F0004C4FEAC0024CEA5070B2F1004F4F
:1009880040EB830008BF20F00100704711F0804F52
:1009980021D113F13872BCBF01F00040704741F417
:1009A80080114FEA5252C2F11802C2F1200C10FA1B
:1009B8000CF320FA02F018BF40F001004FEAC123FF
:1009C8004FEAD32303FA0CFC40EA0C0023FA02F3A3
:1009D8004FEA4303CCE77FEA625307D150EA013379
:1009E8001EBF4FF0FE4040F44000704701F0004049
:1009F80040F0FE4040F40000704700BF53B94AB9C8
:100A0800002908BF00281CBF4FF0FF314FF0FF300E
:100A180000F078B9ADF1080C6DE904CE00F006F8E5
:100A2800DDF804E0DDE9022304B070472DE9F04762
:100A3800089D0E4604468E46002B4CD18A429446A9
:100A480067D9B2FA82F252B101FA02F3C2F1200177
:100A580020FA01F10CFA02FC41EA030E94404FEA35
:100A68001C48210CBEFBF8F61FFA8CF708FB16E3AE
:100A780041EA034306FB07F199420AD91CEB030339
:100A880006F1FF3080F01E81994240F21B81023E40
:100A980063445B1AA4B2B3FBF8F008FB103344EAD2
:100AA800034400FB07F7A7420AD91CEB040400F132
:100AB800FF3380F00981A74240F20681644402387E
:100AC800E41B40EA064000211DB1D4400023C5E9DB
:100AD8000043BDE8F0878B4208D9002D00F0EF8075
:100AE8000021C5E900060846BDE8F087B3FA83F19E
:100AF800002949D1B34202D3824200F2FF80841A0E
:100B080066EB030301209E46002DE2D0C5E9004EA6
:100B1800DFE702B9FFDEB2FA82F2002A40F08E80E7
:100B2800A1EB0C064FEA1C471FFA8CF30121B6FB18
:100B3800F7FE07FB1E60260C46EA004603FB0EF094
:100B4800B04208D91CEB06060EF1FF3802D2B042BB
:100B580000F2D080C646361AA4B2B6FBF7F007FBFF
:100B6800106644EA064400FB03F3A34208D91CEBD1
:100B7800040400F1FF3602D2A34200F2B8803046E6
:100B8800E41A40EA0E409FE7C1F1200722FA07F471
:100B98008B40234306FA01FC26FA07F420FA07F6ED
:100BA80046EA0C064FEA134900FA01F8B4FBF9FECD
:100BB800300C1FFA83FC09FB1E4440EA04440EFB78
:100BC8000CF0A04202FA01F20AD91C190EF1FF3A00
:100BD80080F08B80A04240F28880AEF1020E1C4467
:100BE800241AB6B2B4FBF9F009FB104446EA0444EF
:100BF80000FB0CFCA44507D91C1900F1FF3670D284
:100C0800A4456ED902381C4440EA0E40A0FB02E617
:100C1800A4EB0C04B442F446B14659D356D0002D87
:100C28006ED0B8EB0C0364EB0904CB4004FA07F769
:100C38001F43CC40C5E9007400214AE7C2F12000F7
:100C480024FA00F10CFA02FC06FA02F326FA00F084
:100C58004FEA1C4741EA0306B0FBF7F11FFA8CF391
:100C680007FB110E300C40EA0E4001FB03FE8645DF
:100C780004FA02F408D91CEB000001F1FF3832D263
:100C8800864530D902396044A0EB0E00B6B2B0FBFD
:100C9800F7FE07FB1E0046EA00460EFB03F0B042D3
:100CA80009D91CEB06060EF1FF3818D2B04216D946
:100CB800AEF1020E6644361A4EEA014137E729467C
:100CC800284606E70646E4E61846F9E6F045A6D2C1
:100CD800BEEB020C66EB0303013899469FE7C64654
:100CE800E9E7304690E74146CEE7D64678E76444E0
:100CF800023845E7AEF1020E66442CE7084603E7E2
:100D08002946E6E6704700BF4FF0FF3C06E000BF0B
:100D18004FF0010C02E000BF4FF0010C4DF804CD7C
:100D28004FEA410C7FEA6C5C4FEA430C18BF7FEA3C
:100D38006C5C1BD001B050EA410C0CBF52EA430C6A
:100D480091EA030F02BF90EA020F0020704710F1EA
:100D5800000F91EA030F58BF994208BF90422CBF79
:100D6800D8176FEAE37040F0010070474FEA410C72
:100D78007FEA6C5C02D150EA013C07D14FEA430C90
:100D88007FEA6C5CD6D152EA033CD3D05DF8040B01
:100D9800704700BF8446104662468C461946634633
:100DA80000E000BF01B5FFF7B7FF002848BF10F10A
:100DB800000F01BD4DF808EDFFF7F4FF0CBF01204F
:100DC80000205DF808FB00BF4DF808EDFFF7EAFFCB
:100DD80034BF012000205DF808FB00BF4DF808ED86
:100DE800FFF7E0FF94BF012000205DF808FB00BF7B
:100DF8004DF808EDFFF7CEFF94BF012000205DF805
:100E080008FB00BF4DF808EDFFF7C4FF34BF012011
:100E180000205DF808FB00BF4FEA410C7FEA6C5CDC
:100E280002D150EA013C0AD14FEA430C7FEA6C5CDC
:100E380002D152EA033C02D14FF0000070474FF054
:100E4800010070474FEA410212F5001215D211D580
:100E58006FF47873B3EB625212D94FEAC12343F0AF
:100E6800004343EA505311F0004F23FA02F018BF31
:100E7800404270474FF00000704750EA013005D1FA
:100E880011F0004008BF6FF0004070474FF00000BD
:100E9800704700BF10F8012B11F8013B012A28BF49
:100EA8009A42F7D0D01A7047034613F8012B002A4C
:100EB800FBD1181A0138704710B52DED0A8BB6EE24
:100EC800008A61EE087A044617EE900AF0EE409A1E
:100ED800B0EE609AFFF7D8FA4FA3D3E90023FFF7E3
:100EE8002BFB4F4B0022FFF751FCFFF737FDFFF7B5
:100EF800CBFA41EC100B41EC1A0B01F041FB51EC21
:100F0800100BFFF72BFD69EE087A08EE900A17EE32
:100F1800900AFFF7B9FA40A3D3E90023FFF70CFBC7
:100F28003F4B0022FFF732FCFFF718FDFFF7ACFA42
:100F380041EC100B41EC1C0B01F022FB51EC100BA7
:100F4800FFF70CFD69EE887A09EE100A17EE900A91
:100F5800FFF79AFA30A3D3E90023FFF7EDFA304BF5
:100F68000022FFF713FCFFF7F9FCFFF78DFA41ECBD
:100F7800100B41EC1B0B01F003FB51EC100BFFF7BE
:100F8800EDFCB0EE4A0AF0EE6A0A08EE100A01F02B
:100F98003FFB51EC100BFFF7E1FCB0EE4C0AF0EE12
:100FA8006C0A0AEE100A01F033FB51EC100BFFF744
:100FB800D5FCB0EE4B0AF0EE6B0A09EE900A01F090
:100FC80027FB51EC100BFFF7C9FC2AEE296A07EE44
:100FD800900A28EE897A67EEC66A29EE0A9AE7EE41
:100FE800086A27EE277A68EEA98AA6EE087AC4ED81
:100FF800006A84ED017A28EE887A28EE498AA9EEFB
:10100800277AA8EEA78A84ED027A84ED038ABDECDC
:101018000A8B10BDAFF30080182D4454FB21094002
:1010280000806640000000002DE9F04F91ED037A42
:10103800D0ED037A2DED028B77EE677A85B0054601
:1010480017EE900A0C46FFF71FFA77A3D3E900239F
:10105800FFF772FA764B0022FFF798FBFFF77EFC4A
:10106800FFF712FA41EC100B01F0D2FAA0688DEDEF
:10107800000BFFF709FA6CA3D3E90023FFF75CFA2A
:101088006B4B0022FFF782FBFFF768FCFFF7FCF9C8
:1010980041EC100B01F074FAA8688DED020BFFF714
:1010A800F3F961A3D3E90023FFF746FA604B002266
:1010B800FFF76CFBFFF752FCFFF7E6F941EC100B6A
:1010C80001F05EFAA0685BEC10ABFFF7DDF956A300
:1010D800D3E90023FFF730FA554B0022FFF756FB00
:1010E800FFF73CFCFFF7D0F941EC100B01F090FA48
:1010F800A86859EC108BFFF7C7F94BA3D3E9002375
:10110800FFF71AFA4A4B0022FFF740FBFFF726FCCD
:10111800FFF7BAF941EC100B01F07AFAA06857EC26
:10112800106BFFF7B1F940A3D3E90023FFF704FAE6
:101138003F4B0022FFF72AFBFFF710FCFFF7A4F94B
:1011480041EC100B01F01CFA304653EC102B3946D9
:10115800FFF7F2F994ED037AD5ED037A77EE677A23
:10116800064617EE900A0F46FFF78EF92EA3D3E92D
:101178000023FFF7E1F92E4B0022FFF707FBFFF7EB
:10118800EDFBFFF781F941EC100B01F0F9F942464C
:101198004B465046594655EC104BFFF7CDF9FFF733
:1011A800DDFBFFF771F92246804689462B4630461B
:1011B8003946FFF7C1F902460B4640464946FFF754
:1011C80003F8FFF7CBFBFFF75FF9DDE9022341ECFA
:1011D800180BDDE90001FFF7AFF9FFF7BFFBFFF7D9
:1011E80053F9B0EE481AF0EE681A41EC100B07F00C
:1011F800A1F951EC100BFFF7B1FBFFF745F90C4BC8
:101208000022FFF799F908A3D3E90023FFF7BEFAF4
:10121800FFF7A4FB00EE100A05B0BDEC028BBDE899
:10122800F08F00BFAFF30080182D4454FB21094014
:1012380000806640000000002DE9F84391ED027A35
:10124800D0ED027A77EE677A2DED048B054617EE1E
:10125800900A0C46FFF718F963A3D3E90023FFF7B8
:101268006BF9654B0022FFF791FAFFF777FB07EE62
:10127800900AB6EE008A67EE887A9FED599B17EEC2
:10128800900AFFF701F941EC100B01F0C1F9B0EE3B
:10129800491AF0EE691A01F003FA94ED037AD5EDD4
:1012A800037A77EE677A57EC106B17EE900AFFF720
:1012B800EBF84DA3D3E90023FFF73EF94E4B00228C
:1012C800FFF764FAFFF74AFB07EE900AA86827EED3
:1012D800888AFFF7D9F844A3D3E90023FFF72CF94C
:1012E800454B0022FFF752FAFFF738FBFFF7CCF81F
:1012F80041EC100B01F044F9A06859EC108BFFF792
:10130800C3F839A3D3E90023FFF716F93A4B0022B3
:10131800FFF73CFAFFF722FBFFF7B6F841EC100B9A
:1013280001F02EF9404653EC102B4946FFF704F91B
:10133800044618EE100A0D46FFF7A6F841EC100B0C
:1013480001F066F9B0EE491AF0EE691A01F0A8F951
:10135800204653EC102B2946FFF7EEF804460D46BD
:1013680030463946FFF7FAFAFFF78EF802460B4681
:1013780020462946FEF72AFFFFF7F0FA09EE100A81
:10138800FFF782F841EC100B07F0D6F8F7EE007A79
:1013980077EEC97AB0EE408AF0EE608A17EE900ACE
:1013A800FFF772F841EC100B07F0C6F8B0EE401AE0
:1013B800F0EE601AB0EE480AF0EE680A07F0BAF8E4
:1013C8000BA3D3E9002351EC100BFFF7B5F8FFF797
:1013D800C5FABDEC048B00EE100ABDE8F88300BF27
:1013E8000000000000000040182D4454FB21094073
:1013F80000000000AE4D684100806640000000001B
:101408002DE9F04F2DED028BADF5317D02238DF8DE
:101418002431A54B4A930022A44B4B931146A44B6D
:101428008DF8102130A84C939FED9D8B08F0DEFBC2
:1014380041F288328DED008B002330A806F0E2FFE0
:10144800DFF87C9230A807F02BF841F288328DED56
:10145800008B002330A806F0D5FF964C002200230D
:10146800204606F09DFB014670B1007903913EAB22
:1014780000EB8000142203EB800008F00EFC0399B7
:10148800084608F0DCFBE9E79DF81031002BD9D0BD
:1014980027220FA808F00FFC022708F0A5FB0A2254
:1014A8000023FFF7ABFA844A8DF847701368C31A14
:1014B8000F930123C2E900018DF846306422ADF88C
:1014C800403048A942F2107343A88DF84820ADF87F
:1014D8004230FFF7B1FEBCEEC00A48A910EE103A40
:1014E80043A8ADF84430FFF79FFDDFED740AB0EE76
:1014F800401A0BA8B0EE600AFFF7DEFC10220BA919
:101508000DF1520008F0C9FB9DF847509DF84800BE
:10151800DDF84A10DDF84E200F9BBDF840A0BDF85D
:1015280042E0BDF844C09DF846609DF862808DF8A1
:101538006F5000248DF87000CDF87210CDF8762029
:101548000DF1520110220DF17A006AAD1993ADF830
:1015580068A0ADF86AE0ADF86CC0DFF868A18DF856
:1015680049408DF86E608DF871408DF88A8008F0DA
:1015780094FB272219A9284608F08FFB6FF07B03FC
:101588008DF8A5319AF80C308DF8A6413B408DF8BE
:10159800A74115D1DAF81020002A69D0147804F090
:1015A8000104FD228DF89E210DF5E771272211F81F
:1015B800010918B9013AD2B2012AF8D10A2604E081
:1015C800FE228DF89E2106260E220121002C14BF32
:1015D800084620468DF8A00100208DF8A1019AF850
:1015E80006008DF89F2100EB010E4FF0190C8AF8C8
:1015F80006E09DF89EE18DF8A3118DF8A4C18DF841
:10160800A2018DF820E08DF821209BB384238DF86A
:1016180022008DF823108DF824C08DF825304FF660
:10162800FF73ADF834311FFA86FB0DF121080BF179
:10163800FF3B18F8010B4DA91FFA8BFB07F02EF999
:10164800BBF1010FF3D1BDF834319DF89FB1ADF86E
:101658001630A8460DF11601BBF1000F34D018F86A
:10166800010B0BF1FF3B07F019F91FFA8BFBF1E7B0
:101678001C4696E79DF8A0218DF8222084228DF83B
:1016880023308DF824008DF825108DF826C08DF8AC
:1016980027208DF828308DF82930C0E7AFF3008077
:1016A8000000000000000000582A5642FAC21F41FC
:1016B80000002041DC010020B002002000000000F2
:1016C80085AE67BB3C050020552007F0E7F89DF87C
:1016D8009F210B88AB540DF2A9119DF89F21180A80
:1016E8008854ADF89C31002C55D0DAF810A0BAF126
:1016F800000F50D09AF80030D8074CD59AF801302E
:101708008DF8B232DAE9022306A9CDE906230DF2F3
:10171800B32006229DF89F4108F0BFFADAE90232A9
:10172800013342F10002CAE902325A4B5A4A5B4974
:10173800CDE94F395A4BCDE951235A4BCDE95313D3
:10174800594B559303F17453A3F52303A3F692431E
:1017580020220AF110014DA85693CDE94DBB03F0A4
:10176800F1F9324608A94DA803F0ECF922462946BA
:101778004DA803F0E7F9022229194DA803F0E2F970
:101788000DF2B2214DA8072203F0DCF90DF2B921C0
:101798004DA807F091F89DF89E11699B9DF89F61EF
:1017A8009DF8A2E19DF8A3C19DF8A401FE29C3F309
:1017B8001722C3F307233BD03446012CE6B20AD9DB
:1017C80004F1FF3A0DF5CE7808EB0A0B9BF80CB044
:1017D800BBF1000F5BD08DF88C109DF8A0118DF82F
:1017E8008E108DF893309DF8A1118DF88F1013127B
:1017F80012148DF892008DF89520294622460DF195
:1018080096008DF894308DF88D608DF890E08DF805
:1018180091C008F042FA04F10A009DF8A04123ABF8
:1018280014F0010418444FF0090518BF0D2418E0FE
:101838008DF88C108DF89000294632460DF19200F3
:101848008DF891308DF88D608DF88EE08DF88FC011
:1018580008F023FA9DF89F0123AB063018440525AC
:101868000024BDF89C3103701B0A43702CB122463A
:101878000DF2B221023008F010FAA91903342144FC
:1018880023A803F039FA002F3FF406AEDAE55446F0
:1018980093E700BF67E6096A72F36E3C7F520E5108
:1018A8003AF54FA58C68059BABD9831F0000000053
:1018B8002DE9F04F2DED028B9FEDAB8B9BB0814650
:1018C8008A4615461C460026287810B9304600F08E
:1018D800C9BD6B1C2528029306D05146C84700286D
:1018E800C0F2C08501362EE2182200210CA808F0AB
:1018F800E2F96B78252B59D06A1C174612F8013B80
:101908002B2B00F08B8079D8202B00F08C80232B98
:1019180000F08E809DF8383003F04402442A03D149
:101928006FF386138DF838309DF838300A9743F0F6
:1019380080038DF838303B782A2B7ED19DF83930DA
:1019480043F001038DF839307B1C0A931A782E2A4C
:101958009DF839200CBF0121002161F341028DF867
:1019680039200BD15A1C0A925A782A2A7BD19DF821
:10197800392042F004028DF839200233194611F853
:10198800010B6C2800F0CF807DD8682800F0848097
:101998006A2800F0D2804C2800F0D6809DF83920C3
:1019A8006FF3C6028DF83920194680E0AA1C02920E
:1019B8008DF83B309DF83930DF0740F1788154F8D5
:1019C80004BBBBF1000F07DA9DF8382042F004028F
:1019D8008DF83820CBF1000B580740F1718154F88D
:1019E800048BB8F1000F80F270819DF839306FF3E5
:1019F80041038DF839304FF0FF3866E12D2B06D0C2
:101A0800302B87D19DF8383043F0400303E09DF830
:101A1800383043F004038DF838306EE79DF83830DD
:101A280043F00803F7E79DF8383043F01003F2E776
:101A38009DF8383043F02003EDE70AA803F0DCF9FD
:101A48000A9BBB4281D09DF838700F90C7F34001C4
:101A580041EAD072520062F07F0207F07D010A432A
:101A68008DF8382071E70AA803F0C6F99DF83830D8
:101A78001090C3F3400242EAD07060F341038DF83E
:101A880038300A9B7AE774289DF8392059D07A288B
:101A980084D11346062241E05A78682A9DF83920F5
:101AA8003AD1012161F3C6028DF83920991C0B4601
:101AB80013F8012B0293782A8DF83B2000F2CD8091
:101AC800572A55D8412A04D0A2F14503022B00F227
:101AD800C4809DF83A30042161F302038DF83A304E
:101AE80002F0DF03A3F141089DF83920D8F1000383
:101AF80043EB080363F3C7128DF83920D3B21206FB
:101B080000F1D38003F07802182A40F0A3806FF325
:101B1800C6038DF839308AE01346022262F3C60301
:101B28008DF83930C3E75A786C2A9DF8392001D1ED
:101B38000421B7E713460322F0E79DF83930052260
:101B4800ECE713460722E9E7BDF8383023F4F04301
:101B580023F0020343F4804343F00203ADF8383026
:101B6800A5E700BFAFF300800000000000000008F8
:101B7800A2F15803202B70D801A151F823F000BF1F
:101B88003B1C0008631C0008631C0008631C000859
:101B9800631C0008631C0008631C0008631C000821
:101BA800631C0008DB1A0008631C00083B1C0008C3
:101BB8000D1C0008DB1A0008DB1A0008DB1A0008F5
:101BC800631C00080D1C0008631C0008631C000847
:101BD800631C0008631C0008711C00083B1C0008FB
:101BE800951C0008631C0008631C0008951C00086D
:101BF800631C00083B1C0008631C0008631C0008E9
:101C08003B1C00089DF83A30012161F302038DF86E
:101C18003A309DF8393003F07803402B02BF9DF825
:101C2800381041F001018DF83810632A05D00023DF
:101C380006E09DF83A300221E7E7003B18BF012390
:101C48009DF83820C2F340010B4363F341028DF83D
:101C58003820AFE613F0380FE9D09DF8383043F05C
:101C680001038DF83830E2E79DF83A30032262F339
:101C780002038DF83A309DF8393003F07803A3F168
:101C8800400CDCF1000343EB0C03D9E79DF83A3034
:101C9800032262F302038DF83A309DF8393013F0CD
:101CA800780F14BF01230023CAE70123C8E79DF971
:101CB8003820002AB4BFDDF83CB04FF0FF3B8BE67C
:101CC80099077FF598AEDDF840809DF8391000231C
:101CD800CDE90F339DF83A3003F00702042A09D101
:101CE8008A0707D49DF93920002AB4BF4FF00D08A0
:101CF8004FF0060803F00703012BC1F3C30137D1E6
:101D0800CB1E042B21D8DFE803F0030909202000AB
:101D180054F8043BDA17CDE90C3206E0073424F016
:101D28000704F4E80223CDE90C239DF83870BB07BB
:101D380054D0029B2A465146484607F004F800282A
:101D4800C0F290830644029DBEE554F8043B012985
:101D58004FEAE372CDE90C3205D19DF830300C938F
:101D680000230D93E1E70229DFD1BDF93030D1E737
:101D7800022B23D1CB1E042B13D8DFE803F0030A70
:101D88000A12120020680C900022231D0D921C4696
:101D9800CBE7E31D23F00703B3EC027B8DED0C7B4F
:101DA800F5E754F8043B0C9301294FF000030D9319
:101DB800D3D00229B9D1BDF83030D0E7042B07D1F0
:101DC800073424F00704F4E80223CDE90C23ACE738
:101DD800032B04BF54F8043B0C93A6E79DF83B2063
:101DE800782AB0D8572A00F28C80252A00F0D480AF
:101DF800242AA8D9412A03D0A2F14503022BA2D84C
:101E0800DDE90C13002BC0F2B781380700F1B68169
:101E180017F0100718BF2027C3F30A55C3F313039D
:101E2800CDE90813002D40F0AB8151EA030014BF3F
:101E380001200020DB0243EA5153C902462A45EA41
:101E4800010E43EAE57C08BF66225EEA0C0CCDE988
:101E5800081300F00382002840F0CB81DDE9080177
:101E68004FF0000C41F00041A5F2FE3509916346A0
:101E78004FF0050E15F1020FC0F2C281BCF1000F40
:101E880001D0CDE90801002DDDE9080100F3CD817D
:101E980009980899C5F1040C1C3500FA05F5ACF150
:101EA800200E21FA0CF120FA0EFE294341EA0E0118
:101EB80020FA0CF0CDE9081002F0DF01472940F0C4
:101EC800D481DD1C02DB984580F2CB81023AB8F15F
:101ED800000FD2B201DD08F1FF389DF838108806EE
:101EE80000F1C381B8F1000FD4BF00210121662A97
:101EF800039140F0BC8113EB080140F1BA81002145
:101F0800BAE1A2F15803202B3FF61DAF01A050F80B
:101F180023F000BF232100084F1D00084F1D0008B3
:101F28004F1D00084F1D00084F1D00084F1D0008D9
:101F38004F1D00084F1D0008091E00084F1D00080E
:101F4800CD1F0008C3200008091E0008091E00084C
:101F5800091E00084F1D0008C32000084F1D000877
:101F68004F1D00084F1D00084F1D0008592100088B
:101F780023210008272100084F1D00084F1D0008D5
:101F8800A71F00084F1D0008232100084F1D000847
:101F98004F1D000823210008514610469EE4B8F161
:101FA800000F0C9A09DB41461046039207F09EFE8B
:101FB800039A0027151862B9C5E610460392FEF782
:101FC80073FFF5E70C9B8DF84C3000270DF14D059C
:101FD80013AAAB1A07B101339DF83A00C10640F1C4
:101FE800358202330F9940060B4444BF10995B18A1
:101FF800BBF1000F23DDABEB030B9DF8383059071D
:10200800C3F380081BD4580640F13682002F00F035
:102018003682514638460392C8470028C0F22282C9
:10202800039A474601364FF030085E445B46002B62
:10203800A6EB0B000BF1FF3B00F30C82064647B101
:10204800514638460392C8470028C0F20B82039ACB
:1020580001369DF83A30590640F165829DF93930CC
:10206800002BA6EB020680F219821746B846F31930
:1020780017F8010B702840F00582109F1E461F4478
:10208800BB1B002B00F348822B464246514648466C
:1020980006F059FE0028C0F2E58130440646834424
:1020A800ABEB0603002B7FF74EAE51462020C84706
:1020B8000028C0F2D7810136F2E73D072BD417F08C
:1020C800100718BF2027DDE90C23002B05DA524240
:1020D80063EB4303CDE90C232D270DF16503009332
:1020E8000EAADDE90C0113AB02F09CFE0246B8F122
:1020F800000F0DF16505FFF65EAF9DF83810AB1ABD
:102108006FF3861198458DF838107FF654AFA8EB19
:1021180003030F934FE72B27D5E70027DDE70C983C
:10212800002800F08F810DF1650300930EAA13AB10
:10213800002102F077FEBDF83A3003F0EF0343F4D4
:10214800F04343F010030246ADF83A300027CEE7DB
:102158000C9B07293FF6F7ADDFE801F00C04060CED
:1021680008080C0C1E70EEE51E80ECE5F217C3E9BA
:102178000062E8E51E60E6E52D274DE62B274BE6D5
:1021880040F2FF70854231D10132B948D2B20B43D7
:10219800125C02F003021BD1012A11D149238DF8E8
:1021A8004C304E238DF84D3046238DF84E309DF837
:1021B80038306FF386138DF838300DF14F0507E787
:1021C80069238DF84C306E238DF84D306623ECE78B
:1021D800012A07BF4E2341226E2361220CBF8DF8CE
:1021E8004C308DF84C308DF84D20DEE7002021E68C
:1021F800013D49185B41002BFADACDE908132DE6B9
:10220800400840EAC1704908B1F1333FAC4605F1D6
:102218000105F5D20EFB01F5A0FB0E012944013B97
:102228000CF102054FF0010C24E6023041F10001E7
:10223800CDE9080108A8CDE9032306F055FD049B64
:10224800039ADDE90810013D01334918404100288F
:1022580005F1FF35F9DACDE9081014E600231D462B
:1022680016E6A8EB0308662237E600213FE608F1E8
:1022780001011029A8BF10218DED0A8B10200790AD
:102288000D46DDE90A01A5B9089D4019099D41EBF4
:102298000501B1F1805F1BD2CDE90801662A40F043
:1022A8009980002B23DC30218DF84C100DF14D0561
:1022B8002FE0400840EAC1704908CDE90A010AA8A0
:1022C800CDE90423013D06F00FFDDDE90423D8E73D
:1022D800400840EAC1704908CDE9080108A8CDE9DD
:1022E800042306F001FD059B049A0133D6E713ADDC
:1022F800079900290BDD07A908A8CDE9042306F0F2
:102308000BFD059B05F8010B013B049AF0D10F93D7
:1023180000239DF83810890602D4B8F1000F1DDD9E
:102328002E2105F8011B9BB1B8F1000F16DD5942AB
:102338004145A8BF41469DF83A000F910029A8EBF6
:102348000108D4BF0021012161F345108DF83A003E
:10235800B8F1000F02DD0799002956DC039900291E
:1023680063D1CDF8408002F0DF01452921D1002B4F
:102378002946B8BF5B4201F8022BB4BF2D222B229D
:10238800632B6A7009DD642093FBF0F202F1300CD4
:10239800E91C85F802C000FB12330A200D4693FBA6
:1023A800F0F200FB123302F1300C303305F802CBA7
:1023B8004B700F9B002B43DC109B002BD4BF0023DA
:1023C80001239DF83A2063F3861200238DF83A2002
:1023D8002B70FDE507A908A8CDE9042306F09CFCAD
:1023E800DDE904239DF838108DF84C00302818BF1B
:1023F80003F1FF33880602D4B8F1000F12DD2E2155
:102408008DF84D100DF14E05A2E707A908A8CDE9F2
:10241800042306F081FC08F1FF38DDE9042305F800
:10242800010B95E70DF14D0598E70021109128461D
:1024380015F8011D3029FAD02E2918BF054692E754
:102448000123BEE70B4D07466A1FC2E5010748BFD7
:102458000133C7E5514640460392C8470028039A0E
:10246800BFF6E4AD1BB0BDEC028BBDE8F08F00BF3A
:10247800ADAF00087AA700084FF02008D5E54FF067
:102488003008D2E55146C8470028BFF6EFADE9E766
:1024980051460392C8470028039AE3DB1078374B6C
:1024A800C35C5B07174606EB020802F10102EFD492
:1024B8009DF83A300F9E990607D4B044002EA8EB39
:1024C800060206F1FF360FDC904638782E2808D130
:1024D8005146C8470028C5DB002E08F1010809DC71
:1024E8000137A8EB07060EE051463020C847002800
:1024F800E4DAB7E751463020C847013EEAE75146DB
:10250800C8470028AEDB1D4AB846F31917F8010B77
:10251800125C5207F3D4B0E551463020C847002872
:10252800A0DB0136ACE5D80601D4190707D551461A
:1025380030200392C847002894DB039A01369DF89F
:102548003A30DB0608D59DF83B0003925146C84750
:10255800002887DB039A01360F9F3744BB1B002BEB
:1025680001DC2B4692E5514630200392C8470028EB
:10257800FFF678AF039A0136F0E700BFAEAF000868
:1025880051EC100B204A21F00043934220DD00B5A6
:102598001E4A934285B009DD10EE102A0B46FDF75E
:1025A80013FE41EC100B05B05DF804FB684600F023
:1025B800BFFF00F0030001289DED021B9DED000BFD
:1025C8000AD0022816D090B1012001F045FFEAE7B1
:1025D8009FED0B1B01F0D4B901F03EFF53EC102B1B
:1025E80003F1004300EE903A05B05DF804FB01F0FA
:1025F800C7F9D8E701F0C4F9F0E700BFAFF30080EE
:102608000000000000000000FB21E93FFFFFEF7F12
:1026180051EC100B204A21F00043934227DD00B50E
:102628001E4A934285B009DD10EE102A0B46FDF7CD
:10263800CBFD41EC100B05B05DF804FB684600F0DB
:1026480077FF00F0030001289DED021B9DED000BB4
:1026580012D0022817D090B101F092F953EC102B48
:1026680003F1004300EE903A05B05DF804FB9FEDDE
:10267800081B002001F0F0BE01F082F9DBE7012021
:1026880001F0EAFED7E7012001F0E6FEE6E700BF29
:102698000000000000000000FB21E93FFFFFEF7F82
:1026A800F8B52DED028B57EC106B55EC114B00F083
:1026B800A3F9634BB0EE408AF0EE608A93F90030DC
:1026C80001332AD022462B4620462946FEF7A4FB92
:1026D80018BB32463B4630463946FEF79DFB00287C
:1026E80044D10022002330463946FEF763FBD8B1B7
:1026F8000022002320462946FEF75CFB00283DD136
:1027080045EC104B06F024F838B120462946002243
:102718000023FEF759FB00285CD1B0EE480AF0EE22
:10272800680ABDEC028BF8BDB0EE480AF0EE680A04
:1027380006F00EF858B351EC180B00220023FEF7F0
:1027480039FB0028E9D047EC106B06F001F80028A7
:10275800E3D045EC104B05F0FBFF0028DDD006F078
:10276800BAFE22239FED2E8B0360D6E7204629462A
:1027780000220023FEF71EFB0028CED09FED2A8BF7
:10278800B0EE480AF0EE680ABDEC028BF8BD47ECE3
:10279800106B05F0DDFF0028CDD045EC104B05F09F
:1027A800D7FF0028C7D053EC182B18EE100A19468B
:1027B800FEF732FB20BB06F08EFE034622221A608B
:1027C8003046394600220023FEF7FEFA48B99FED4D
:1027D800188BA2E706F07FFE21239FED178B03607D
:1027E8009BE745EC104B05F0BFFF224651EC100B60
:1027F8002B46FEF7DFFA0028E9D19FED0F8B8CE717
:1028080006F069FE002200232121016010461946C6
:10281800FDF7BCFF41EC180B7FE700BFAFF300806A
:102828000000000000000000000000000000F03F71
:10283800000000000000F07F000000000000F0FF32
:10284800900000200000000051EC110B43422DE9DC
:10285800F0470343644E21F0004E4EEAD373B3426F
:1028680055EC104B3ED86342234325F0004A4AEA10
:10287800D373B342A94635D801F1404303F5801319
:1028880003433ED08F1707F002075AEA040347EACA
:10289800D5772FD05EEA000337D0B64544D0B2458D
:1028A80033D0AAEB0E0EBEF1747F4FEA2E5338DAFE
:1028B800002945DA3C3343DA9FED3D0B012F5DD00B
:1028C800022F4AD0A7B151EC100B3BA3D3E9002348
:1028D800FDF77AFC3AA3D3E90023FDF775FC41EC38
:1028E800100B05E022462B46FDF770FC41EC100B5F
:1028F800BDE8F087022F0ED0032FF9D19FED320BE0
:10290800F6E7BDE8F04701F067BEB9F1000F05DB57
:102918009FED2F0BECE79FED2A0BE9E79FED2E0BC0
:10292800E6E79FED2B0BC9E7F24507F1FF372ED0FD
:10293800022F34D82D4B03EBC70797ED000BD7E7D1
:1029480002460B4620462946FDF720FF41EC100BB6
:1029580005F0F4FE01F040FEB0E717A3D3E9002329
:1029680051EC100BFDF730FC02460B4614A1D1E9DF
:102978000001FDF729FC41EC100BB9E710EE901AA5
:1029880053EC102B01F1004343EC102BB0E7022F5E
:1029980008D8174B03EBC70797ED000BA8E79FED87
:1029A800040BA5E79FED0E0BA2E700BFAFF3008075
:1029B8000000000000000000075C143326A6A13CBC
:1029C800182D4454FB210940182D4454FB2109C0FB
:1029D800182D4454FB21F93F182D4454FB21F9BF0D
:1029E800182D4454FB21E93F0000F07FD0A10008D6
:1029F800B8A10008000000002DE9F04F57EC116B5A
:102A08002DED0C8B27F0004A5AEA060287B03DD01C
:102A180055EC104B724925F00048884510EE102AF5
:102A2800A9462CDC11EE103ABB4636D08A4526DC86
:102A38006B498A4521D0B9F1000F39DB002100919B
:102A4800002B51D1664B9A4500F0A280654B9A4500
:102A580000F0B080BBF1804F00F0C084624B9B4512
:102A680042D1B9F1000F3FDB45EC104B07B0BDEC8C
:102A78000C8BBDE8F04F05F099BD002BDBD008F1B9
:102A8800404808F5801858EA020309D19FED500B19
:102A980007B0BDEC0C8BBDE8F08F0CB9C245C7DDA3
:102AA800524807B0BDEC0C8BBDE8F04F01F0B0BF49
:102AB8004F498A4500F38580A1F154718A450FDD9D
:102AC8004FEA2A51A1F2FF31142940F39B84C1F146
:102AD800340123FA01F000FA01F1994200F0ED8483
:102AE80000210091002BB1D045EC104B029205F06B
:102AF80025FE029A5ABBB8F1000F04D0394B29F0D1
:102B080040429A4223D1BBF1000F07DA53EC102B55
:102B180034490020FDF73AFE41EC100BB9F1000FE3
:102B2800B6DA009B08F1404808F5801858EA030314
:102B380040F08D8453EC102B10461946FDF744FBEA
:102B480002460B46FDF722FE41EC100BA0E7009A67
:102B58004FEAD973013B0493134335D0254B9A456B
:102B68004CDD03F104739A45234B40F3DB8398450E
:102B780040F36083BBF1000F40F3608316A3D3E9F1
:102B8800002310461946FDF7D7FC41EC100B7FE7F0
:102B980008F1404303F5801313433FF477AF164B16
:102BA800984540F37A83BBF1000FC0F2478347ECA6
:102BB800106B6DE7BBF1000FC0F21A8445EC104BA7
:102BC80066E7022100913BE722462B46B4E700BFA7
:102BD800000000000000F03F9C7500883CE4377E50
:102BE8000000F07F0000F03F0000E03FCCA50008A7
:102BF800FFFF3F430000E041FFFFEF3FE44B09EADE
:102C08000303002253B951EC100BE24BFDF794FC7F
:102C180041EC100B10EE908A6FF034024FEA285303
:102C2800A3F2FF339A18DC4B0592C8F3130848F057
:102C38007F54984544F4401407DDD84B984540F339
:102C4800148401320592A4F580149FEDB96B9FEDB1
:102C5800BA7B53EC162BB0EE47CAF0EE67CA0025D4
:102C6800B0EE47DAF0EE67DA5BEC10ABA3465046FD
:102C7800594643EC1A2BFDF7A7FA53EC1A2B80465A
:102C8800894650465946FDF7A1FA02460B460020F0
:102C9800C349FDF77BFD41EC1B0B404653EC1B2B56
:102CA8004946FDF749FC41EC180B0A460146CDE9B7
:102CB80002120021029164104BEC19AB44F000544D
:102CC800DDE902AB04F500230020591904460D463E
:102CD80002460B4650465946FDF72EFC02460B4667
:102CE80040464946FDF770FA53EC1A2B8046894650
:102CF80020462946FDF768FA02460B4651EC190BA7
:102D0800FDF762FA52465B46FDF716FC02460B4693
:102D180040464946FDF758FA53EC1B2BFDF70CFCCF
:102D280053EC182B41EC190B51EC180BFDF704FC74
:102D380083A3D3E9002304460D46FDF7FDFB82A3D8
:102D4800D3E90023FDF742FA22462B46FDF7F4FBB0
:102D58007FA3D3E90023FDF739FA22462B46FDF776
:102D6800EBFB7DA3D3E90023FDF730FA22462B467F
:102D7800FDF7E2FB7AA3D3E90023FDF727FA224601
:102D88002B46FDF7D9FB78A3D3E90023FDF71EFAFC
:102D98002246804689462B4620462946FDF7CCFB2D
:102DA80002460B4640464946FDF7C6FB52460446D6
:102DB8000D465B4651EC180BFDF708FA53EC192B3E
:102DC800FDF7BAFB22462B46FDF700FA524680462D
:102DD80089465B4650465946FDF7AEFB02460B4610
:102DE80043EC1A2B6F4B0022FDF7F0F942464B4695
:102DF800FDF7ECF900240D4622462B46504659466D
:102E0800FDF79AFB674B82468B46002220462946EF
:102E1800FDF7DAF953EC1A2BFDF7D6F902460B4603
:102E280040464946FDF7D0F953EC182BFDF784FBD3
:102E380022462B4604460D4651EC190BFDF77CFB48
:102E480002460B4620462946FDF7C0F980468946CA
:102E580042464B4650465946FDF7B8F944A3D3E9D4
:102E68000023002004460D46FDF766FB524641EC60
:102E7800190B5B4620462946FDF7A6F902460B4684
:102E880040464946FDF7A0F93BA3D3E90023FDF7E7
:102E980053FB02460B462046294614461D4638A3D6
:102EA800D3E90023FDF748FB02460B462046294696
:102EB800FDF78CF953EC1D2BFDF788F98046059832
:102EC8008946FDF7CFFA424682468B464B4651EC7F
:102ED800190BFDF77BF953EC1C2BFDF777F95246DC
:102EE8005B46FDF773F952465B46002004460D46E3
:102EF800FDF76AF953EC1C2BFDF766F953EC192B17
:102F0800FDF762F902460B4640464946FDF75CF973
:102F1800009B049A013B134382468B4640F0B681DE
:102F28009FED197BB0EE478AF0EE678A3CE000BF60
:102F3800000000000000F03F00000000000000005A
:102F4800EF4E454A287ECA3F65DBC9934A86CD3F86
:102F580001411DA96074D13F4D268F515555D53F6C
:102F6800FFAB6FDBB66DDB3F033333333333E33F04
:102F7800000000E009C7EE3FFD033ADC09C7EE3F59
:102F8800F5015B14E02F3EBE000000000000F0BF1A
:102F98000000F07F000040438E98030079B60B00D4
:102FA8000000F03F000008400023CDE900670093CF
:102FB800DDE90089304642464B463946FDF704F9BB
:102FC80022462B46FDF7B8FA32463B4606460F46E0
:102FD80050465946FDF7B0FA02460B463046394688
:102FE800FDF7F4F842464B4606460F46204629466A
:102FF800FDF7A2FA04460D462B46304639462246CE
:10300800FDF7E4F8C24B9942804689468A4640F368
:10301800188101F13F4303F5E003034340F00782C1
:10302800A3A3D3E9002330463946FDF7CFF802467B
:103038000B46404649469046994622462B46FDF7A0
:10304800C3F802460B4640464946FDF7DBFE00281A
:1030580040F0ED81CAF30A534FF48012A3F2FE3315
:1030680042FA03F35344AB49C3F30A52A2F2FF32C4
:1030780041FA02FCC3F3130141F48011C2F11402B6
:1030880041FA02F2002023EA0C01BAF1000F009283
:103098000B46024602DA0099494200912046294629
:1030A800FDF792F8009B1B05029302460B46044667
:1030B8000D4630463946FDF789F889464FF0000835
:1030C8007DA3D3E9002340464946FDF735FA224659
:1030D8002B4682468B4640464946FDF775F8024620
:1030E8000B4630463946FDF76FF875A3D3E9002340
:1030F800FDF722FA74A3D3E9002304460D4640469F
:103108004946FDF719FA02460B4620462946FDF7BF
:103118005DF806460F4632463B4650465946FDF78F
:1031280055F852465B4604460D46FDF74DF80246F3
:103138000B4630463946FDF747F822468046894611
:103148002B4620462946FDF7F7F961A3D3E900236A
:1031580006460F46FDF7F0F95FA3D3E90023FDF714
:1031680033F832463B46FDF7E7F95DA3D3E9002380
:10317800FDF72CF832463B46FDF7DEF95AA3D3E9B2
:103188000023FDF721F832463B46FDF7D5F958A351
:10319800D3E90023FDF71AF832463B46FDF7CCF990
:1031A80002460B4620462946FDF70EF806460F460E
:1031B80032463B4620462946FDF7BEF902460B46F5
:1031C8003046394616461F4600224FF08043FCF72A
:1031D800FBFF02460B4630463946FDF7D7FA424612
:1031E80006460F464B4620462946FDF7A5F94246B6
:1031F8004B46FCF7EBFF02460B4630463946FCF7D8
:10320800E3FF22462B46FCF7DFFF02460B46002071
:103218004149FCF7D9FF029A0B461344B3F5801FC6
:10322800C0F24381194653EC182BFDF785F941ECA0
:10323800100B2DE4BBF1000FFFF6A0AC9FED2E0B99
:1032480026E4DFF8DCC021F00043634540F3E78063
:10325800324B0B4403430AD122462B46FCF7B4FFFA
:1032680032463B46FDF7C4FD00283FF4F3AE24A3E5
:10327800D3E9002351EC180BFDF75EF920A3D3E93D
:103288000023FDF759F941EC100B01E49FED1E7B7B
:10329800B0EE478AF0EE678A86E6BBF1000FCDDA1A
:1032A80007F1004300EE106A00EE903AFFF7F0BB1A
:1032B800FE822B654715973C00000000432EE63F31
:1032C800EF39FAFE422EE63F396CA80C615C20BE4D
:1032D800D0A4BE726937663EF16BD2C541BDBB3E14
:1032E8002CDE25AF6A56113F93BDBE166CC1663FF2
:1032F8003E5555555555C53F0000000000000000DB
:1033080059F3F8C21F6EA501000000000000F03F4D
:10331800FFFF8F40FFFF0F000000F03F00346F3FBA
:10332800FFCB9040984585DB7D4B98453FF722AC15
:1033380051EC100B7A4B0022FCF746FF68A3D3E947
:10334800002304460D46FDF7F7F867A3D3E90023E9
:1033580082468B4620462946FDF7EEF8714B41EC34
:10336800180B002220462946FDF7E6F802460B46D0
:103378005FA1D1E90001FCF727FF22462B46FDF7A4
:10338800DBF802460B4600206749FCF71DFF224682
:10339800804689462B4620462946FDF7CDF8024649
:1033A8000B4640464946FDF7C7F853A3D3E9002327
:1033B800FDF7C2F802460B4651EC180BFCF704FF68
:1033C8008046894642464B4650465946FCF7FEFE23
:1033D800002052465B4604460D4691E522462B46A0
:1033E80020462946FDF7A8F841EC100BFFF750BB23
:1033F8004B49002022462B46FDF7C8F941EC100B3B
:10340800FFF746BB002B44D1C1F114014AFA01F081
:1034180000FA01F151455AD00093FFF717BB424A11
:1034280093425BDCDDE900120291009146E634A389
:10343800D3E9002351EC180BFDF77EF830A3D3E94C
:103448000023FDF779F841EC100BFFF721BB009B37
:10345800012B7FF41DAB10EE901A10EE102A01F12B
:10346800004343EC102BFFF713BB9FED277BB0EE17
:1034780047CAF0EE67CA9FED267BB0EE47DAF0EE5A
:1034880067DA9FED257B4FF4802553EC172BFFF768
:10349800EBBB45EC104B009205F050F9009A002A5E
:1034A8007FF492AB0092FFF726BB41EC100B00981B
:1034B80001F0B6FA51EC100BB5E600F00100C0F1CE
:1034C80002010091002B3FF4C1AAFFF70DBB00F0E9
:1034D8000100C0F102030093FFF7B8BA1B15BBE562
:1034E800000000604715F73F44DF5DF80BAE543E1F
:1034F800555555555555D53FFE822B654715F73F10
:103508009C7500883CE4377E0000004003B8E23F29
:1035180006D0CF43EBFD4C3E000000000000F83F12
:103528000000F03F0000D03F0000E03F0000000036
:103538002DE9F04F53EC102B2DED048B9E4923F011
:1035480000458D4289B0044640F388809B498D42EE
:103558001F462BDC002F194610EE100A8CA3D3E966
:10356800002340F3B881FCF72FFE954B9D4280461F
:10357800894600F08B8088A3D3E90023FCF724FE5A
:1035880002460B46C4E9002340464946FCF71CFEA8
:1035980081A3D3E90023FCF717FEC4E90201012641
:1035A800304609B0BDEC048BBDE8F08F85498D42EB
:1035B80040F38E8084498D425DDC2E15A6F21646B6
:1035C80010EE100AA5EB065190468946FDF73AFC25
:1035D800FCF748FF02460B4640464946CDE9022320
:1035E800FCF7F2FD794B0022FCF7A6FF89468046DE
:1035F800FDF728FC0546FCF735FF02460B4640461A
:103608004946CDE90423FCF7DFFD704B0022FCF7A7
:1036180093FF02460B46CDE9062300220023FDF75F
:10362800C9FB002800F05581002D0CBF012302239F
:10363800674A0192022200922146324602A800F00F
:10364800DFFA002F0646ABDA6268E36802F100424F
:1036580003F100436260E3604642A1E700200021D5
:103668000026C4E90201304684ED000B09B0BDEC28
:10367800048BBDE8F08F10EE100A1946FCF7A4FD84
:103688000026C4E90201C4E9000189E744A3D3E99B
:103698000023FCF799FD44A3D3E90023804689461B
:1036A800FCF792FD02460B46C4E900234046494612
:1036B800FCF78AFD3CA3D3E90023FCF785FD01262E
:1036C800C4E90201304609B0BDEC048BBDE8F08FB7
:1036D80005F034F859EC108B10EE100A34A3D3E936
:1036E80000234946FCF728FF3A4B0022FCF76EFD01
:1036F800FDF7A8FB0646FCF7B5FE02460B4643EC71
:10370800182B23A3D3E90023B0EE489AF0EE689A69
:10371800FCF712FF02460B4640464946FCF754FDAB
:103728001DA3D3E9002382468B4651EC180BFCF706
:1037380003FF1F2E41EC180B50DC02460B46504687
:103748005946FCF741FD244B721E804653F822303F
:10375800AB4289464AD042464B46C4E900895046A6
:103768005946FCF731FD53EC182BFCF72DFD002FC3
:10377800C4E90201BFF614AF09F10043C4E90083AC
:1037880001F10043C4E90203764209E7AFF3008080
:1037980000004054FB21F93F3163621A61B4D03D07
:1037A8000000601A61B4D03D7370032E8A19A33BE0
:1037B80083C8C96D305FE43FFB21E93F7BD90240F4
:1037C800FB21F93FFB213941FFFFEF7F00007041EA
:1037D80050A600080000E03FD0A5000802460B46AE
:1037E80050465946FCF7F0FC80468946C9F30A530F
:1037F800C3EB1553102B4FEA2555ACDD56A3D3E97F
:10380800002351EC190BFCF797FE80468946424687
:103818004B4650465946FCF7D7FC02460B465046E5
:10382800594692469B46FCF7CFFC42464B46FCF76E
:10383800CBFC4BA3D3E900238046894651EC190BF6
:10384800FCF77AFE42464B46FCF7BEFC0B460246A6
:103858005946504643EC182BFCF7B6FCC1F30A5303
:10386800ED1A312D804689467FF775AF3FA3D3E91E
:10387800002351EC190BFCF75FFE8046894642464F
:103888004B4650465946FCF79FFC02460B465046AD
:10389800594692469B46FCF797FC42464B46FCF736
:1038A80093FC34A3D3E900238046894651EC190BD5
:1038B800FCF742FE42464B46FCF786FC02460B46A6
:1038C8005046594643EC182BFCF77EFC8046894647
:1038D80041E70323ACE6FCF779FC234B9D42804685
:1038E800894616D01AA3D3E90023FCF76FFC0246D9
:1038F8000B46C4E9002340464946FCF765FC14A37F
:10390800D3E90023FCF762FC4FF0FF36C4E902015B
:1039180046E611A3D3E90023FCF758FC10A3D3E92A
:10392800002380468946FCF751FC02460B46C4E951
:10393800002340464946FCF747FC09A3D3E9002386
:10394800FCF744FC4FF0FF36C4E9020128E600BF4B
:103958003163621A61B4D03D0000601A61B4D03D91
:103968007370032E8A19A33BFB21F93F0000002E38
:103978008A19A33BC14920259A837B39000000009E
:103988002DE9F84F57EC106B27F00049B9F1795F32
:103998002DED048B5BEC11AB71DA10EE100A394691
:1039A800FDF750FA002800F0F68032463B463046D4
:1039B8003946FCF7C1FD7CA3D3E9002304460D4634
:1039C800FCF7BAFD7AA3D3E90023FCF7FFFB2246F4
:1039D8002B46FCF7B1FD78A3D3E90023FCF7F4FBF1
:1039E80022462B46FCF7A8FD75A3D3E90023FCF774
:1039F800EDFB22462B46FCF79FFD73A3D3E900237A
:103A0800FCF7E2FB22462B46FCF796FD70A3D3E9B0
:103A18000023FCF7DBFB22462B46FCF78DFD41EC2F
:103A2800180B714B002220462946FCF785FD53EC04
:103A3800182B8046894620462946FCF77DFD5246CC
:103A48005B4604460D4630463946FCF775FD02468E
:103A58000B4620462946FCF7B7FB02460B46404674
:103A68004946FCF7B1FB02460B4600205F49FCF7CC
:103A7800ABFBBDEC048B41EC100BBDE8F88F10EEEE
:103A8800102A10EE100A3B463946FCF755FD46A3AE
:103A9800D3E9002304460D46FCF74EFD44A3D3E9C1
:103AA8000023FCF793FB22462B46FCF745FD42A377
:103AB800D3E90023FCF788FB22462B46FCF73CFDA4
:103AC8003FA3D3E90023FCF781FB22462B46FCF7F2
:103AD80033FD3DA3D3E90023FCF776FB22462B46B2
:103AE800FCF72AFD3AA3D3E90023FCF76FFB2B462A
:103AF8002246FCF721FD3E4B994541EC180B90DD21
:103B08003C4B99453CDC0022A9F5001337490020BD
:103B180090469946FCF758FB41EC190B324B0022B2
:103B280020462946FCF708FD42464B46FCF74CFB6D
:103B380053EC182B8046894620462946FCF7FCFCA6
:103B480052465B4604460D4630463946FCF7F4FCBF
:103B580002460B4620462946FCF736FB02460B4632
:103B680040464946FCF730FB02460B4651EC190B20
:103B7800FCF72AFBBDEC048B41EC100BBDE8F88F79
:103B88009FED157BDFF87090B0EE479AF0EE679ADC
:103B98004FF00008C2E7BDEC048B9FED110BBDE8A8
:103BA800F88F00BFAFF30080D43888BEE9FAA8BD0B
:103BB800C4B1B4BD9EEE213EAD529C804F7E923E74
:103BC8009015CB19A001FA3E7751C1166CC1563F2A
:103BD8004C5555555555A53F000000000000E73FDE
:103BE800000000000000F03F0000E03F0000F03F50
:103BF8003233D33F0000E93F0000D23F000000000D
:103C08002DE9F04FADF5197D1C4608930B91BB4B80
:103C1800A299049053F821100591631E12F1140F14
:103C28000393C0F24F83B649D31E81FB0301DB1710
:103C3800C3EBA10307930133A3EB8303DB00D31882
:103C48000693079A039BD41A059AD6181AD40136F4
:103C5800A39F264420AD4FF000084FF0000908E06C
:103C680057F82400FCF7FEFB0134B442E5E80201F2
:103C780008D0002CF4DA013440464946B442E5E85D
:103C88000201F6D1059B002BC0F2CA83089BDDF820
:103C98000C90DA000292059A1A440192049A20A91B
:103CA80001EBC30A0DF5E07B02EBC308039B002B75
:103CB800C0F2AC81049E57460024002577E9022310
:103CC800F6E80201FCF738FC02460B462046294676
:103CD800FCF77CFA464504460D46EFD1019B09F1F5
:103CE80001099945EBE802450AF1080ADED1049A70
:103CF800029B13449B46059B0BA901EB83020CA96D
:103D08000A921A4601EB8303083B09930192019A30
:103D180098A901EBC203002A53E9284529DD0DF5CE
:103D2800E07A0AEBC2080DF13009764B00222046F2
:103D38002946FCF701FCFDF785F8FCF793FB724B6D
:103D4800002206460F46FCF7F7FB02460B462046C4
:103D58002946FCF739FAFDF775F878E9022349F89E
:103D6800040B39463046FCF731FAD04504460D4677
:103D7800DBD1DDF8189045EC104B484600F050FEBA
:103D880055EC104B00224FF07F5310EE100A2946D5
:103D9800FCF7D2FB41EC100B00F0B6FD5B4B51EC8D
:103DA800100B0022FCF7C8FB02460B4620462946AA
:103DB800FCF70AFA0D460446FDF744F88046FCF77E
:103DC80051FB0B46024629462046FCF7FDF94B46B7
:103DD800002B06460F4640F39B80019A511E0CAA01
:103DE800C9F1180352F8212042FA03F000FA03F34C
:103DF800D31AC9F117050CAA43FA05F5002D42F8A4
:103E08002130804400F38E8000220023304639465A
:103E1800FCF7D0FF002800F05F82019B059A03F1B0
:103E2800FF3A524510DC03F180430CAA013B0A9883
:103E380002EB8303002253F80419834242EA010289
:103E4800F9D1002A40F0E580059B0CAA013B52F805
:103E58002330002B40F0D580099A012352F8041929
:103E680001330029FAD0019AD3180293531C9946BA
:103E7800019A08990A449046079A02EB030A0AF144
:103E8800804AA39A0AF1FF3A02EB8A0A20AA02EBB7
:103E9800C80870AA02EBC30301935AF8040FFCF791
:103EA800E1FA0B46039902460029C8E90023474670
:103EB80008F108081EDB049E0024002501E077E9CC
:103EC8000223F6E80201FCF737FB02460B462046C0
:103ED8002946FCF77BF95E4504460D46EFD1019B68
:103EE800E3E802450193029B09F101099945D4DDF4
:103EF80001930CE700240025F1E700BF58A700084C
:103F0800ABAAAA2A0000703E0000704100002040C1
:103F18006ED1019B0CAA013B52F82350ED15002DE0
:103F28007FF772AF019B002B08F1010840F3D281A3
:103F38000C9C002C59D1019B012B28D00CA90122E3
:103F480051F8044F531C44B9019A9A421FD051F8B2
:103F5800044F1A46531C002CF6D00CA9C4F18074E7
:103F680041F822400199994210DD0CAA0CA852F898
:103F7800232000EB830300EB81006FF07F4100E01A
:103F88001A688A1A43F8042B8342F9D10124069B44
:103F9800002B0EDD012B00F06881022B09D1019B5B
:103FA8005A1E0CAB0CA953F82230C3F3150341F881
:103FB8002230022D7FF428AF32463B46B449002018
:103FC800FCF702F906460F46002C3FF41DAF069891
:103FD8009FEDAB0B00F024FD3046394653EC102B17
:103FE800FCF7F2F806460F460EE701230022B4E775
:103FF800A84B0022FCF7FCFE002840F05181054642
:1040080002E7019B01339946029331E7002400251A
:1040180064E6069B0495A3F118020CABCDF81C804E
:1040280053F82A30069273B9019B03F18043023B8F
:104038000CA901EB830353F804190AF1FF3A183A63
:104048000029F8D006929FED8E0B069800F0E8FC48
:10405800BAF1000F55EC104BC0F2D88170AB03EBEE
:10406800CA0B0CAA0AF10103089302EB8306DFF8D6
:1040780028924FEACA0306930BF108074FF000088D
:1040880056F8040DFCF7EEF922462B46FCF754FAD5
:104098004B4667E90201424620462946FCF74CFA9E
:1040A8000CAB9E4204460D46EAD148ABCDE902333B
:1040B800CDF804B0CDF824A0D346DDF814A04FF015
:1040C8000009BAF1000FC0F202816FA3D3E90023FF
:1040D800DFF8C881019F00260024002503E04E4533
:1040E80010DCF8E80223F7E80201FCF725FA02469B
:1040F8000B4620462946FCF769F80136B2450446C6
:104108000D46ECDA029BE3E802450293019B0BF1B2
:10411800FF3B083BBBF1FF3F09F101090193D0D1F7
:10412800A29BDDF824A0022B1EDC002B00F30A81E1
:1041380013D1069C039D08342C440020002174E907
:104148000223FCF743F8AC42F9D1049B13B101F107
:10415800004319460B9BC3E90001079B03F00700C6
:104168000DF5197DBDE8F08FA29B032BF5D1BAF1AF
:10417800000F00F06781039A069BD318D3E9004526
:1041880002EBCA0B7BE902672046294632463B46CA
:10419800FCF71CF8A046A94604460D4622462B46C5
:1041A80030463946FCF710F84B464246FCF70EF805
:1041B800039B5B45CBE90201CBE90045E2D1BAF1AB
:1041C800010F40F33F81039A069B0AF1005A0AF156
:1041D800FF3A13444FEACA01D3E9004501F1080A3E
:1041E800019192440DF5947B7AE9026720462946AD
:1041F80032463B46FBF7EAFFA046A94604460D4671
:1042080022462B4630463946FBF7DEFF42464B46F0
:10421800FBF7DCFFD345CAE90201CAE90045E3D14F
:10422800019C039B10341C4403F11005002000215D
:1042380074E90223FBF7CAFFA542F9D1039BD3E92E
:104248000067D3E90245049B002B40F0B9800B9B23
:10425800C3E90401C3E90067C3E90245079B03F00A
:1042680007000DF5197DBDE8F08F019B5A1E0CABB8
:104278000CA953F82230C3F3160341F8223098E60C
:10428800000000000000F03F00000040FB21F93F63
:104298000000F03F0000E03F0000703EF0A1000881
:1042A800019B002B08F10108C8BF02253FF740AE6B
:1042B80032463B4665490020FBF786FF0225064645
:1042C8000F46A1E500216FF017030791B7E400241A
:1042D800002517E700245AE647EC106B069E049564
:1042E8007042CDF81C8000F09BFB55EC104B584BEE
:1042F80010EE100A00222946FCF77AFD002855D056
:10430800544B019F00221836204629460696FCF792
:1043180013F9FCF797FD0646FCF7A4F84C4B00226E
:10432800FCF70AF90B46024629462046FBF74CFFE4
:10433800FCF788FD07F1010A0CAB43F8270043F8A6
:104348002A6080E6039D089A002005EBC20400213C
:1043580074E90223FBF73AFFA542F9D1049B002B2D
:1043680044D10B9BC3E900010B4603990246D1E9EE
:104378000001FBF729FFBAF1000F0DDD4AAD01245A
:10438800F5E802230134FBF721FFA245F8DA049B84
:1043980013B101F1004319460B9BC3E90201079BC6
:1043A80003F007000DF5197DBDE8F08F204629467A
:1043B800FCF748FD019B0CAA9A4642F8230042E606
:1043C80032460B9E07F10043C6E9002305F100437E
:1043D800F36001F100437361079B3061224603F0EB
:1043E8000700B2600DF5197DBDE8F08F0B9A01F159
:1043F800004353600B46039910600246D1E900015F
:10440800FBF7E2FEBAF1000FB8DCC2E7A29B022B71
:104418000ADC002B11DC7FF4A0AE0020002194E61A
:10442800089BDB00029362E4A29B032B7FF495AE0A
:1044380048AB00200021039300E748AB002000218F
:1044480003938BE700200021F8E600BF0000F03F4F
:10445800000070410000703E2DE9F04F55EC104B04
:1044680085B025F00043B3F1795F8DED001B039013
:1044780007DA10EE100A2946FCF7E4FC002800F0E1
:10448800898022462B4620462946FCF755F80646E1
:104498000F4632463B4620462946FCF74DF843A3D3
:1044A800D3E9002382468B4630463946FCF744F868
:1044B80040A3D3E90023FBF787FE32463B46FCF7CF
:1044C8003BF83EA3D3E90023FBF780FE32463B4688
:1044D800FCF732F83BA3D3E90023FBF775FE32461D
:1044E8003B46FCF729F839A3D3E90023FBF76EFE16
:1044F800039B80468946ABB3DDE900012A4B0022C5
:10450800FCF71AF842464B468046894650465946BB
:10451800FCF712F802460B4640464946FBF754FEA4
:1045280032463B46FCF708F8DDE90023FBF74CFE72
:104538001BA3D3E9002306460F4650465946FBF70E
:10454800FBFF02460B4630463946FBF73FFE024664
:104558000B4620462946FBF737FE41EC100B05B009
:10456800BDE8F08F02460B4630463946FBF7E4FFBC
:104578000BA3D3E90023FBF727FE52465B46FBF764
:10458800DBFF22462B46FBF721FE41EC100B05B062
:10459800BDE8F08F45EC104B05B0BDE8F08F00BFCB
:1045A800495555555555C53F0000E03F7CD5CF5A74
:1045B8003AD9E53DEB9C2B8AE6E55A3E7DFEB1579C
:1045C800E31DC73ED561C119A0012A3FA6F8101105
:1045D8001111813F000000002DE9F84F55EC104BF8
:1045E800BF4B25F000469E42AA4617DDBD4B9E42B2
:1045F8000ADC07D0BAF1000F40F3CC809FED9C0B8A
:10460800BDE8F88F002CF5D022462B4620462946D7
:10461800FBF7DCFD41EC100BBDE8F88FB24B9E4276
:1046280000F3BC80A3F1DE739E4240F3A1804FF0FB
:10463800FF3B22462B4620462946FBF77DFF0246D4
:104648000B4680468946FBF777FF8BA3D3E9002307
:1046580006460F46FBF770FF89A3D3E90023FBF753
:10466800B5FD32463B46FBF767FF87A3D3E9002336
:10467800FBF7ACFD32463B46FBF75EFF84A3D3E96C
:104688000023FBF7A3FD32463B46FBF755FF82A309
:10469800D3E90023FBF79AFD32463B46FBF74CFF74
:1046A8007FA3D3E90023FBF791FD42464B46FBF776
:1046B80043FF7DA3D3E90023804689463046394627
:1046C800FBF73AFF7AA3D3E90023FBF77DFD3246D7
:1046D8003B46FBF731FF78A3D3E90023FBF774FDD2
:1046E80032463B46FBF728FF75A3D3E90023FBF7C7
:1046F8006BFD32463B46FBF71FFF73A3D3E900234C
:10470800FBF762FD32463B46FBF716FF02460B46B7
:1047180040464946FBF75AFD22462B46FBF70CFF5D
:10472800BBF1FF3F02460B465BD0704A704B02EB71
:10473800CB0203EBCB0BD2E90023FBF745FD224666
:104748002B46FBF741FD02460B46DBE90001FBF770
:104758003BFDBAF1000F41EC100BBFF65DAF10EE58
:10476800901A024601F1004343EC102BBDE8F88F84
:1047780057A3D3E9002310EE100A2946FBF726FDBC
:104788005C4B0022FCF73EFB00283FF450AF45ECA1
:10479800104B41E79FED500BBDE8F88F03F0CEFFBB
:1047A800554B9E4255EC104B23DCA3F550239E42FB
:1047B8004EDC10EE102A2B4610EE100A2946FBF7A5
:1047C80005FD4C4B0022FBF7FFFC02460B4620463A
:1047D800294614461D464FF0000B00224FF0804337
:1047E8001FE020462946FBF7EFFC41EC100BBDE823
:1047F800F88F424B9E421FDA414B0022294610EEA9
:10480800100AFBF7E1FC02460B46204629461446EF
:104818001D4600223A4B4FF0020BFBF78DFE354B3D
:104828000022FBF7D3FC02460B4620462946FBF73D
:10483800ADFF04460D46FCE62B46324910EE102A21
:104848000020FBF7A3FF4FF0030B04460D46F0E6EC
:10485800284B0022294610EE100AFBF7B5FC024649
:104868000B46204629464FF0010B14461D46D6E755
:10487800182D4454FB21F93F11DA22E33AAD903F59
:10488800EB0D76244B7BA93F513DD0A0660DB13F7F
:104898006E204CC5CD45B73FFF8300922449C23FE7
:1048A8000D5555555555D53F2F6C6A2C44B4A2BFAC
:1048B8009AFDDE522DDEAD3F6D9A74AFF2B0B33F74
:1048C800711623FEC671BC3FC4EB98999999C93FEC
:1048D8009C7500883CE4377E182D4454FB21F9BFB1
:1048E800FFFF0F440000F07FFFFFDB3F48A20008F6
:1048F80028A200080000F03FFFFFF23F00800340BD
:104908000000F83F0000F0BF51EC100BF8B5C1F300
:104918000A53A3F2FF35132D10EE106A0C4630DC53
:10492800002D1EDB384F2F4101EA070303432DD02A
:1049380033A3D3E90023FBF749FC00220023FCF74B
:1049480061FA48B1002C04DA4FF4801343FA05F5F4
:104958002C4424EA070400262346324643EC102B55
:10496800F8BD27A3D3E90023FBF730FC002200237E
:10497800FCF748FA0028EFD0002C29DB0026344643
:10498800EAE7332D05DDB5F5806F19D041EC100B42
:10499800F8BDA3F213434FF0FF37DF400742F5D0CD
:1049A80017A3D3E90023FBF711FC00220023FCF72F
:1049B80029FA0028D0D0002C13DB26EA0706CBE71B
:1049C80010EE102A0B46FBF701FC41EC100BF8BD6A
:1049D80024F000430D4A1E43002E18BF144600263B
:1049E800BAE7142D08D00123C5F1340503FA05F5FB
:1049F800AE1928BFE418E0E70134DEE7AFF3008022
:104A08009C7500883CE4377EFFFF0F000000F0BF74
:104A18009FED010B704700BF000000000000F87F09
:104A280038B553EC102BC3F30A5104469C4689BB96
:104A380010EE101A23F0004C5CEA010129D0194647
:104A480000223D4B3D4D10EE100AFBF775FDAC42C0
:104A580002460B4616DB8C46C1F30A51363921440F
:104A680040F2FE70814221DC002947DC11F1350F4C
:104A780034DA4CF250318C4218DC002B26A1D1E9F3
:104A8800000144DB24A3D3E90023FBF755FD41ECE7
:104A9800100B38BD40F2FF708142E0D110EE100AD1
:104AA8001946FBF793FB41EC100B38BD002B1CA1FA
:104AB800D1E9000107DB1AA3D3E90023FBF73CFD8A
:104AC80041EC100B38BD18A1D1E9000114A3D3E9BA
:104AD8000023FBF731FD41EC100BF3E72CF0FF4C02
:104AE8002CF4E00C36314CEA0153104619460022EA
:104AF800134BFBF721FD41EC100B38BD2CF0FF4C9C
:104B08002CF4E00C4CEA015343EC102B38BD08A1FF
:104B1800D1E90001B6E700BF59F3F8C21F6EA5013D
:104B28009C7500883CE4377E9C7500883CE437FE21
:104B380059F3F8C21F6EA58100005043B03CFFFF37
:104B48000000903C2DE9F04F0568D3005B19036025
:104B580028BF4368DFB024BF0133436000F1280356
:104B68000C9300F14003044689461646C5F3C50573
:104B78000D93002E00F0BA80C5F14007B7420C9B98
:104B880028BF3746494658193A463D4405F085F846
:104B9800402DB944A6EB0706EBD10EAB22461946C9
:104BA80092F82B00087092F82A00487092F82900B1
:104BB800887092F82800C8700D980432904201F16C
:104BC8000401EDD1A2680192E2680292226903927F
:104BD80062690492A2690592E2690692226A0792C2
:104BE8001EA9626A089208460022013253F8045B43
:104BF80040F8045B102AF8D18B6B0F464FEAF3405C
:104C080080EA734080EA93207B6A3F6851F8045F2A
:104C18003B4418444FEAB54383EAF51383EAD503C6
:104C280001320344402ACB63E6D1324B0B93DDE9D2
:104C38000272DDE906EC049B019DDDF820B00598C1
:104C48000A934FF000080B9B53F8041B0B934FEA91
:104C5800F02383EAB01383EA706A1EAB53F8283056
:104C680019440AEB01032CEA000A00EA0E018AEA59
:104C78000101194487EA020359442B404FEA753A67
:104C880007EA020B83EA0B0B8AEAB50A0A9B0A9227
:104C98008AEAB55A08F10108DA440B44B8F1400F22
:104CA80009935144E3461AD1019B0B44A360029B2C
:104CB8002B44E360039B3B442361049B13446361DF
:104CC800099A059B1344A361069B0344E361079B70
:104CD80073442362089B63446362002549E73A46AC
:104CE800F4462F4686460D460998ACE75FB0BDE806
:104CF800F08F00BF78A2000870B5064E044645182C
:104D0800AC4206D0306814F8011B83685B6898478A
:104D1800F6E770BD38050020D0B596B004F064FF02
:104D28000A220023FBF76AFE154BC3E90001154868
:104D380002F0E4FC144B18600026002700246FF0F2
:104D48000803CDE903341149114B124800944FF47C
:104D58008052CDE90667CDE9014402F0A9FE22465A
:104D6800214608A804F042FF42F21072CDE900671C
:104D7800002308A803F046FB08A803F091FBF3E71B
:104D8800B00200206EA700083805002000080020A7
:104D980009140008F00100200B6801330B60014B77
:104DA8001B68184700000020014B1860704700BFBF
:104DB8000000002007B50B46002102460191034878
:104DC80001A9FCF775FD03B05DF804FBA14D0008CF
:104DD80030B585B0CDE901010446002501A9054893
:104DE8000395FCF765FDDDE902309842B8BF25540C
:104DF80005B030BD47890008F0B5094E0168024684
:104E08000A2700200C46013123789D5D6D0701D4E7
:104E18001460F0BD07FB0033A3F13000F2E700BFD8
:104E2800AEAF00082DE9F84F15469A46D378224AC6
:104E380013F802B06F2B80460F460BF0030B29D0F6
:104E480024D8582B14BF0A261026DDF8289032469D
:104E5800002340463946FBF7D1FD092AD4B21ED8B3
:104E68003034B045E4B277F1000309F8014D01D3BD
:104E7800D14511D82B789B0605D5082E15D1AB78CE
:104E880043F00803AB704846BDE8F88F03F0F7031A
:104E9800702BD7E70826D8E780460F46D7E7BBF13F
:104EA800010F0CBF37345734DBE7102EEBD1AB784A
:104EB80043F01003E6E700BFAEAF00084FF0100262
:104EC800EFF3118382F31188BFF36F8F83F3118897
:104ED800BFF36F8F024B034A1A600020704700BF70
:104EE800840000200024F40030B51049104889B02F
:104EF800002204F07BFE0F4D0F4900220023CDE96C
:104F0800062300240E23CDE90334CDE901440B4BDD
:104F180000944FF44072284602F0CAFD084928461A
:104F280004F029FD204609B030BD00BF4D4F0008F0
:104F3800B8020020F0020020801800201953000851
:104F48007BA70008014802F05DBE00BFCC0100202D
:104F5800F0B505460F4E002003460246012715F816
:104F6800014B0CB18B4200D3F0BD252C02D182F04D
:104F78000102F4E7002AF2D014F806C01CF0030F6F
:104F8800EDD0732C04BF07FA03F21043013300225B
:104F9800E5E700BFAEAF000810B50B4B00221A7052
:104FA8000A4B0B4A1A604FF47A7000F0C5FC00F007
:104FB80073FA084803F0E3FEBDE8104006490748C5
:104FC8000423282204F092BCC1070020040000201A
:104FD800C58D0008A8050020802A0020B005002003
:104FE80010B54FF01003EFF3118483F31188BFF36A
:104FF8006F8F044803F0D3FE84F31188BFF36F8FDB
:1050080010BD00BFA8050020064BBFF35B8F53E817
:10501800002F013243E800210029F8D1BFF35B8F4C
:10502800704700BFA00500200020064BBFF35B8F30
:10503800024653E8000F43E800210029F9D1BFF3E5
:105048005B8F7047A0050020F8B5FFF7EDFF0A4C0D
:105058000A4D2D1B07462D110026AE4200DBF8BD78
:1050680063685B792BB123681B6913B13946204605
:10507800984701361034F0E7E4A00008F4A00008CF
:10508800044A054B9B1AB1EBD30F34BF52F83100D9
:1050980000207047BCA00008E4A00008094A436843
:1050A800801A10B50011084C1960013001221871DE
:1050B8005A71237813B9054802F0A4FD012323701F
:1050C80010BD00BFE4A00008C0070020CC010020EC
:1050D80070B5124BBFF35B8F53E8005F6A1C43E85F
:1050E80000210029F8D1BFF35B8F2DB90C4C0D4E70
:1050F800361B3611B54200DB70BD237B53B12368E4
:105108009B690BB1204698476368042219682046BA
:10511800FFF7C4FF01351034ECE700BFA4050020F9
:10512800E4A00008F4A00008174B984273B50446A1
:1051380002D3164B984221D315480022002301A917
:1051480002F056FC0546E0B90122019BBFF35B8FD4
:1051580053E8001F43E800200028F9D1BFF35B8F14
:10516800019E331D1F221846214604F0ACFD7E2205
:10517800034686F8232086F824501C46204602B0B1
:1051880070BD044BF9E700BF149D0008B0B00008DB
:10519800B005002083A7000848B1054B984205D305
:1051A800A03398422CBF0020012070470020704790
:1051B800802A00202DE9F04F474B1B7885B0044624
:1051C80003B900B3FFF70CFF054678B1BFF35B8F57
:1051D800424B53E8002F013A43E800210029F8D157
:1051E800BFF35B8F9CB1284603F0E0FE2CB93C4B23
:1051F8001B68002B01DDFFF727FF3A4803F0CDFDC0
:10520800041E18BF0124204605B0BDE8F08F364BB8
:105218001B78E3B92B7ADB0719D403F0DAFE0746CB
:10522800284603F0A1FE01463846FFF791FEDFF855
:10523800D8802E4BDFF8D4B0A3EB0803DB08039328
:105248002B4BA3EB080306464FEAD30A36B9294E7F
:10525800294FBF1B3F114FF000083AE0B6FA86F11C
:10526800C1F11F094946284603F081FE234B9842A5
:10527800014602D3224A90421AD30846FFF78CFF10
:105288000246A8B91F4B994212D06B890399C3F300
:1052980089138B4238BF58F833204FEA8A1343F0FA
:1052A8000103ADF8003049463B46584603F0CFFDB0
:1052B800012303FA09F126EA0106C7E773685B7957
:1052C80023B1336829465B683046984708F10108DE
:1052D8001036B845F2DB86E7C00700209C050020A1
:1052E800A0050020A8050020C1070020E4A00008B0
:1052F800BCA00008E4A00008F4A00008149D000861
:10530800B0B0000883A70008BCA000089DA700084B
:1053180010B5FFF7DDFE02F089FE0C4B186030B1C6
:105328000B4B1B68092B02DD0A4802F06BFC094C89
:105338000020FFF73FFF0028FAD14FF0FF324FF06F
:10534800FF33204602F07EFCF2E700BFD0050020C4
:105358009C050020CC010020294B37B51B684181F2
:1053680004469847E0604FF01003EFF3118583F38C
:105378001188BFF36F8F2348214603F004FD85F39E
:105388001188BFF36F8FBFF35B8F1F4B53E8002F5C
:10539800013243E800210029F8D1BFF35B8F1B4A93
:1053A800127882B14FF01003EFF3118483F3118860
:1053B800BFF36F8F0020FFF7FDFE84F31188BFF362
:1053C8006F8F03B030BD124A1B681268002AF8D0EC
:1053D800012B0AD100220023CDE900230D4842F217
:1053E8001072002303F00EF8EBE70A2BE9D1094805
:1053F80004F008FC084803B0BDE8304002F002BCE5
:1054080004000020A80500209C050020C1070020FA
:10541800D0050020B8020020CC010020F8B50E4FBE
:105428003D7875B90D4C0E4EFFF752FE361B3611FE
:10543800B54207DB0020FFF7BDFE0028FAD10123A3
:105448003B70F8BD63685B791BB1236820465B69D4
:10545800984701351034EBE7C1070020E4A00008A5
:10546800F4A0000807B504380190BFF35B8F50E83B
:10547800003F5A1E40E800210029F8D1BFF35B8F96
:10548800012B03D1034801A904F04CFA03B05DF8DD
:1054980004FB00BFB00500202023024902481A4639
:1054A80004F024BA202B0020D405002037B50023AF
:1054B800094D01930120FFF77DFE0446FFF7A4FD87
:1054C8000022002301A9284602F092FA08B1002C14
:1054D800F0D1019803B030BDD405002007B50023F2
:1054E800019307480022002301A902F081FA10B1B4
:1054F800FFF7DCFF0190019803B05DF804FB00BFE3
:10550800D4050020F0B5037A85B0DC0701901ED4DD
:10551800457A2D091BD0002426460198314603F010
:1055280026FD0746FFF738FE70B134B9019B2946BE
:105538001869FFF70DFD044648B124FA06F3D907A8
:1055480002D53846FFF78EFF0136AE42E5D3019B00
:105558001A7A920704D55B69084C0393039B2BB90D
:10556800064801A904F0DEF905B0F0BD1D6803A9DD
:10557800204604F0D7F90395F0E700BFD4050020D2
:105588000EB403B503AB014653F8042B044801934A
:10559800FCF78EF902B05DF804EB03B0704700BF6A
:1055A8008F9300082DE9F0471D46089B1746DA0639
:1055B80004460E4605D499064CBF2B492B49FFF7E4
:1055C800DFFFDFF8B0904FF00008A8452DDBDFF8CB
:1055D800A880DFF8A890DFF89CA00025BD4232D251
:1055E800725D49462046FFF7CBFF0135102D23D1C8
:1055F8001F49DFF88080DFF88890DFF888A0204610
:10560800FFF7BEFF0025AF4229D9725D12F80930B5
:1056180013F0970F08BF2E2251462046FFF7B0FF20
:105628000135102D14D1BDE8F08749462046FFF713
:10563800A7FF08F10108C8E76A07CFD151462046FD
:10564800FFF79EFFCAE741462046FFF799FFCCE7E0
:105658006B07D8D141462046FFF792FFD3E7414672
:105668002046FFF78DFFDBE7E1A70008E0A7000869
:10567800EDA70008EBA70008E9A70008E3A70008C2
:10568800AEAF0008EFA700082DE9F04F87B011F082
:1056980002069DF84080BDF948900592074601F042
:1056A800010A01F0080507D011F0440F39D1344937
:1056B8001A46FFF765FF0646BAF1000F0AD0314BCC
:1056C800314953F82820314B3846002A08BF1A467A
:1056D800FFF756FF3DB12E4B2E4953F82820384688
:1056E800FFF74EFF0546B9F1000F16DB059B002BAF
:1056F80043D0012303FA08F8274B284C18F0100F61
:1057080018BF1C4649469DF84400FFF7B9FC2146DE
:1057180002463846FFF734FF0544A81907B0BDE82C
:10572800F08F1F4A116831B31E4A4FF4616614683E
:10573800B3FBF4F34FF47A7BB3FBF1F4B4FBF6F26A
:1057480006FB124601FB14340BFB04F44FF03C0C2F
:10575800B4FBF1FEB6FBFCF301FB1E440CFB136625
:105768000BFB04F40096B4FBF1F1CDE901E10E491D
:10577800FFF706FF9FE708469DE7084CC2E700BF12
:1057880000A8000878A3000825A80008F2A70008C8
:105798008CA3000828A80008FCA70008F7A70008A1
:1057A800F4050020F805002009A8000838B50C46C3
:1057B800E107054603D5084A0849FFF7E1FEE20676
:1057C80008D4A30628464CBF05490649BDE8384019
:1057D800FFF7D6BE38BD00BFF2A7000825A800080D
:1057E800E1A70008E0A700082DE9F0478B7A13F03D
:1057F80007088AB005460E46174622D00A7A498914
:10580800C3F3C203C1F38911D243CDE900830291E6
:10581800F36802F001023946FFF736FF8146347A11
:10582800E44314F001040ED02946304603F041FC4D
:10583800B8F1000F2BD0424639462846FFF7B6FF8D
:1058480025E0C146EBE7B8F1000F26D12746EB6803
:10585800069306AA3B46A968304603F016FC069A4A
:105868006B681A603AB1AB68134413F8014CA4F1A1
:105878000A035C425C41284603F078FD069B1F44FE
:10588800002BE4D11CB114492846FFF779FE2846BD
:105898000AB0BDE8F04703F069BD304603F099FB54
:1058A8000E4902462846FFF76BFE4FF0100A05AA7C
:1058B800234606A93046CDF814A003F0E6FB059A66
:1058C800002AB8D04B46009706A92846FFF76AFE7B
:1058D800059B1C44EBE700BF2EA8000825A800087C
:1058E80073B542F20F738B4228BF0B4605680F4A07
:1058F80004460521684603F042F863680C495B6872
:1059080006460B22284603F0C7FB63683246694601
:1059180028465B6803F0C0FB636806495B681B2286
:10592800284603F0B9FB02B070BD00BFDCAE00082A
:105938006CA8000850A80008084A10B50123084CB4
:1059480013600021A04204D801B11360054B186010
:1059580010BD40085B000121F4E700BFF8050020F6
:1059680040420F00F4050020F8B5074F0D460446E5
:105978004618B44201D12846F8BD386814F8011B0E
:1059880083685B689847F4E710060020014803F035
:10599800EDBC00BFBCA300080148FFF7A1BF00BFD2
:1059A800BCA3000808B5034801F0A8FE024B186024
:1059B80008BD00BF78A800081006002010B50846EA
:1059C8000C4603F0C4FA054821460F22FFF70CFFE6
:1059D8002046BDE8104003F0E9BA00BFBCA30008A8
:1059E80038B5044C044DAC4200D338BD54F8043BE0
:1059F8009847F8E7BCA00008BCA0000838B5054CDB
:105A0800256804EB850405B938BD54F80439013D0F
:105A18009847F8E7B4A0000808B5064801F06EFEFC
:105A2800054B1860054801F027F80448FFF7BCF952
:105A3800002008BD78A8000814060020495A00086C
:105A48000A2838B5074D044604D1286883680D2113
:105A58005B68984728688368E1B25B689847204686
:105A680038BD00BF140600202DE9F8430D4F044649
:105A78000E4615464FF0010802F10409B44201DB55
:105A8800BDE8F8837A6908FA04F333EA020207D119
:105A98007B6155F834301BB159F8341020469847CB
:105AA8000134EBE7003C0140044A012311688340BC
:105AB8000B431360024B185600F0ECBA003C01404F
:105AC800AEA800081F2807DC044901220B6802FA67
