:020000040800F2
:1000000000290020ED6300089D9500081964000890
:100010001964000819640008196400080000000051
:1000200000000000000000000000000091600008D7
:10003000196400080000000001600008395E000833
:10004000C5630008C5630008C5630008C5630008F0
:10005000C5630008C5630008C5630008C5630008E0
:10006000C5630008C5630008C5630008C5630008D0
:10007000C5630008C5630008C5630008C5630008C0
:10008000C5630008C5630008C5630008C5630008B0
:10009000C5630008C5630008C5630008C5630008A0
:1000A000C5630008C5630008C5630008C563000890
:1000B000C5630008C5630008C5630008C563000880
:1000C000C5630008C5630008C5630008C563000870
:1000D000C5630008C5630008C5630008C563000860
:1000E000C5630008C5630008C5630008C563000850
:1000F000C5630008C5630008C5630008C563000840
:10010000C5630008C5630008C5630008C56300082F
:10011000C5630008C5630008C5630008C56300081F
:10012000C5630008C5630008C5630008C56300080F
:10013000C5630008C5630008C5630008C5630008FF
:10014000C5630008C5630008C5630008C5630008EF
:10015000C5630008C5630008C5630008C5630008DF
:10016000C5630008C5630008C5630008C5630008CF
:10017000C5630008C5630008C5630008C5630008BF
:08018000C5630008C563000817
:1001880081F0004102E000BF83F0004330B54FEA40
:1001980041044FEA430594EA050F08BF90EA020FAD
:1001A8001FBF54EA000C55EA020C7FEA645C7FEA40
:1001B800655C00F0E2804FEA5454D4EB5555B8BF63
:1001C8006D420CDD2C4480EA020281EA030382EAD4
:1001D800000083EA010180EA020281EA0303362D66
:1001E80088BF30BD11F0004F4FEA01314FF4801C39
:1001F8004CEA113102D0404261EB410113F0004F4B
:100208004FEA03334CEA133302D0524263EB430301
:1002180094EA050F00F0A780A4F10104D5F1200E9F
:100228000DDB02FA0EFC22FA05F2801841F10001FA
:1002380003FA0EF2801843FA05F359410EE0A5F1CE
:1002480020050EF1200E012A03FA0EFC28BF4CF0FF
:10025800020C43FA05F3C01851EBE37101F00045B5
:1002680007D54FF0000EDCF1000C7EEB00006EEBC2
:100278000101B1F5801F1BD3B1F5001F0CD349084C
:100288005FEA30004FEA3C0C04F101044FEA4452A3
:1002980012F5800F80F09A80BCF1004F08BF5FEA2A
:1002A800500C50F1000041EB045141EA050130BD0A
:1002B8005FEA4C0C404141EB0101013C28BFB1F51C
:1002C800801FE9D291F0000F04BF01460020B1FA67
:1002D80081F308BF2033A3F10B03B3F120020CDA3A
:1002E8000C3208DD02F1140CC2F10C0201FA0CF018
:1002F80021FA02F10CE002F11402D8BFC2F1200C7D
:1003080001FA02F120FA0CFCDCBF41EA0C01904032
:10031800E41AA2BF01EB0451294330BD6FEA04047B
:100328001F3C1CDA0C340EDC04F11404C4F1200266
:1003380020FA04F001FA02F340EA030021FA04F378
:1003480045EA030130BDC4F10C04C4F1200220FACF
:1003580002F001FA04F340EA0300294630BD21FA0D
:1003680004F0294630BD94F0000F83F4801306BFD3
:1003780081F480110134013D4EE77FEA645C18BFC7
:100388007FEA655C29D094EA050F08BF90EA020F5E
:1003980005D054EA000C04BF1946104630BD91EA56
:1003A800030F1EBF0021002030BD5FEA545C05D159
:1003B8004000494128BF41F0004130BD14F5800498
:1003C8003CBF01F5801130BD01F0004545F0FE410C
:1003D80041F470014FF0000030BD7FEA645C1ABF41
:1003E800194610467FEA655C1CBF0B46024650EA78
:1003F800013406BF52EA033591EA030F41F40021A4
:1004080030BD00BF90F0000F04BF0021704730B529
:100418004FF4806404F132044FF000054FF00001FE
:1004280050E700BF90F0000F04BF0021704730B5BF
:100438004FF4806404F1320410F0004548BF404294
:100448004FF000013EE700BF42004FEAE2014FEAE9
:1004580031014FEA02701FBF12F07F4393F07F4FC4
:1004680081F06051704732F07F4208BF704793F0C7
:100478007F4F04BF41F40021704730B54FF46074DA
:1004880001F0004521F000411CE700BF50EA0102DD
:1004980008BF704730B54FF000050AE050EA010286
:1004A80008BF704730B511F0004502D5404261EBF6
:1004B80041014FF4806404F132045FEA915C3FF437
:1004C800D8AE4FF003025FEADC0C18BF03325FEAD4
:1004D800DC0C18BF033202EBDC02C2F1200300FA85
:1004E80003FC20FA02F001FA03FE40EA0E0021FAAA
:1004F80002F11444BDE600BF70B54FF0FF0C4CF498
:10050800E06C1CEA11541DBF1CEA135594EA0C0F49
:1005180095EA0C0F00F0DEF82C4481EA030621EA84
:100528004C5123EA4C5350EA013518BF52EA0335BF
:1005380041F4801143F4801338D0A0FB02CE4FF071
:100548000005E1FB02E506F00042E0FB03E54FF0A1
:100558000006E1FB03569CF0000F18BF4EF0010E99
:10056800A4F1FF04B6F5007F64F5407404D25FEA95
:100578004E0E6D4146EB060642EAC62141EA555148
:100588004FEAC52040EA5E504FEACE2EB4F1FD0C8A
:1005980088BFBCF5E06F1ED8BEF1004F08BF5FEA08
:1005A800500E50F1000041EB045170BD06F00046BA
:1005B80046EA010140EA020081EA0301B4EB5C0467
:1005C800C2BFD4EB0C0541EA045170BD41F480115F
:1005D8004FF0000E013C00F3AB8014F1360FDEBF84
:1005E800002001F0004170BDC4F10004203C35DA60
:1005F8000C341BDC04F11404C4F1200500FA05F3E3
:1006080020FA04F001FA05F240EA020001F0004283
:1006180021F0004110EBD37021FA04F642EB0601F9
:100628005EEA430E08BF20EAD37070BDC4F10C0423
:10063800C4F1200500FA04F320FA05F001FA04F2E7
:1006480040EA020001F0004110EBD37041F10001D3
:100658005EEA430E08BF20EAD37070BDC4F12005DE
:1006680000FA05F24EEA020E20FA04F301FA05F246
:1006780043EA020321FA04F001F0004121FA04F2EE
:1006880020EA020000EBD3705EEA430E08BF20EABE
:10069800D37070BD94F0000F0FD101F000464000F8
:1006A80041EB010111F4801F08BF013CF7D041EA7A
:1006B800060195F0000F18BF704703F0004652007E
:1006C80043EB030313F4801F08BF013DF7D043EA4F
:1006D8000603704794EA0C0F0CEA135518BF95EA05
:1006E8000C0F0CD050EA410618BF52EA4306D1D18C
:1006F80081EA030101F000414FF0000070BD50EAAB
:10070800410606BF1046194652EA430619D094EA34
:100718000C0F02D150EA013613D195EA0C0F05D11E
:1007280052EA03361CBF104619460AD181EA030172
:1007380001F0004141F0FE4141F470014FF000002A
:1007480070BD41F0FE4141F4780170BD70B54FF0C5
:10075800FF0C4CF4E06C1CEA11541DBF1CEA135545
:1007680094EA0C0F95EA0C0F00F0A7F8A4EB050427
:1007780081EA030E52EA03354FEA013100F088801E
:100788004FEA03334FF0805545EA131343EA1263E7
:100798004FEA022245EA111545EA10654FEA00269C
:1007A8000EF000419D4208BF964244F1FD0404F555
:1007B800407402D25B084FEA3202B61A65EB0305B1
:1007C8005B084FEA32024FF480104FF4002CB6EB6E
:1007D800020E75EB030E22BFB61A754640EA0C00EE
:1007E8005B084FEA3202B6EB020E75EB030E22BF2E
:1007F800B61A754640EA5C005B084FEA3202B6EB6F
:10080800020E75EB030E22BFB61A754640EA9C002D
:100818005B084FEA3202B6EB020E75EB030E22BFFD
:10082800B61A754640EADC0055EA060E18D04FEABB
:10083800051545EA16754FEA06164FEAC30343EA5B
:1008480052734FEAC2025FEA1C1CC0D111F4801F28
:100858000BD141EA00014FF000004FF0004CB6E721
:1008680011F4801F04BF01430020B4F1FD0C88BFC0
:10087800BCF5E06F3FF6AFAEB5EB030C04BFB6EBCB
:10088800020C5FEA500C50F1000041EB045170BDBE
:100898000EF0004E4EEA113114EB5C04C2BFD4EBEB
:1008A8000C0541EA045170BD41F480114FF0000E6F
:1008B800013C90E645EA060E8DE60CEA135594EAEB
:1008C8000C0F08BF95EA0C0F3FF43BAF94EA0C0FEE
:1008D8000AD150EA01347FF434AF95EA0C0F7FF463
:1008E80025AF104619462CE795EA0C0F06D152EAB7
:1008F80003353FF4FDAE1046194622E750EA41069B
:1009080018BF52EA43067FF4C5AE50EA41047FF4AB
:100918000DAF52EA43057FF4EBAE12E74FEA41020E
:10092800B2F1E04324BFB3F5001CDCF1FE5C0DD945
:1009380001F0004C4FEAC0024CEA5070B2F1004F8F
:1009480040EB830008BF20F00100704711F0804F92
:1009580021D113F13872BCBF01F00040704741F457
:1009680080114FEA5252C2F11802C2F1200C10FA5B
:100978000CF320FA02F018BF40F001004FEAC1233F
:100988004FEAD32303FA0CFC40EA0C0023FA02F3E3
:100998004FEA4303CCE77FEA625307D150EA0133B9
:1009A8001EBF4FF0FE4040F44000704701F0004089
:1009B80040F0FE4040F40000704700BF53B94AB908
:1009C800002908BF00281CBF4FF0FF314FF0FF304F
:1009D80000F078B9ADF1080C6DE904CE00F006F826
:1009E800DDF804E0DDE9022304B070472DE9F047A3
:1009F800089D0E4604468E46002B4CD18A429446EA
:100A080067D9B2FA82F252B101FA02F3C2F12001B7
:100A180020FA01F10CFA02FC41EA030E94404FEA75
:100A28001C48210CBEFBF8F61FFA8CF708FB16E3EE
:100A380041EA034306FB07F199420AD91CEB030379
:100A480006F1FF3080F01E81994240F21B81023E80
:100A580063445B1AA4B2B3FBF8F008FB103344EA12
:100A6800034400FB07F7A7420AD91CEB040400F172
:100A7800FF3380F00981A74240F2068164440238BE
:100A8800E41B40EA064000211DB1D4400023C5E91B
:100A98000043BDE8F0878B4208D9002D00F0EF80B5
:100AA8000021C5E900060846BDE8F087B3FA83F1DE
:100AB800002949D1B34202D3824200F2FF80841A4E
:100AC80066EB030301209E46002DE2D0C5E9004EE7
:100AD800DFE702B9FFDEB2FA82F2002A40F08E8028
:100AE800A1EB0C064FEA1C471FFA8CF30121B6FB59
:100AF800F7FE07FB1E60260C46EA004603FB0EF0D5
:100B0800B04208D91CEB06060EF1FF3802D2B042FB
:100B180000F2D080C646361AA4B2B6FBF7F007FB3F
:100B2800106644EA064400FB03F3A34208D91CEB11
:100B3800040400F1FF3602D2A34200F2B880304626
:100B4800E41A40EA0E409FE7C1F1200722FA07F4B1
:100B58008B40234306FA01FC26FA07F420FA07F62D
:100B680046EA0C064FEA134900FA01F8B4FBF9FE0D
:100B7800300C1FFA83FC09FB1E4440EA04440EFBB8
:100B88000CF0A04202FA01F20AD91C190EF1FF3A40
:100B980080F08B80A04240F28880AEF1020E1C44A7
:100BA800241AB6B2B4FBF9F009FB104446EA04442F
:100BB80000FB0CFCA44507D91C1900F1FF3670D2C4
:100BC800A4456ED902381C4440EA0E40A0FB02E658
:100BD800A4EB0C04B442F446B14659D356D0002DC8
:100BE8006ED0B8EB0C0364EB0904CB4004FA07F7AA
:100BF8001F43CC40C5E9007400214AE7C2F1200038
:100C080024FA00F10CFA02FC06FA02F326FA00F0C4
:100C18004FEA1C4741EA0306B0FBF7F11FFA8CF3D1
:100C280007FB110E300C40EA0E4001FB03FE86451F
:100C380004FA02F408D91CEB000001F1FF3832D2A3
:100C4800864530D902396044A0EB0E00B6B2B0FB3D
:100C5800F7FE07FB1E0046EA00460EFB03F0B04213
:100C680009D91CEB06060EF1FF3818D2B04216D986
:100C7800AEF1020E6644361A4EEA014137E72946BC
:100C8800284606E70646E4E61846F9E6F045A6D201
:100C9800BEEB020C66EB0303013899469FE7C64694
:100CA800E9E7304690E74146CEE7D64678E7644420
:100CB800023845E7AEF1020E66442CE7084603E722
:100CC8002946E6E6704700BF4FF0FF3C06E000BF4C
:100CD8004FF0010C02E000BF4FF0010C4DF804CDBD
:100CE8004FEA410C7FEA6C5C4FEA430C18BF7FEA7D
:100CF8006C5C1BD001B050EA410C0CBF52EA430CAB
:100D080091EA030F02BF90EA020F0020704710F12A
:100D1800000F91EA030F58BF994208BF90422CBFB9
:100D2800D8176FEAE37040F0010070474FEA410CB2
:100D38007FEA6C5C02D150EA013C07D14FEA430CD0
:100D48007FEA6C5CD6D152EA033CD3D05DF8040B41
:100D5800704700BF8446104662468C461946634673
:100D680000E000BF01B5FFF7B7FF002848BF10F14A
:100D7800000F01BD4DF808EDFFF7F4FF0CBF01208F
:100D880000205DF808FB00BF4DF808EDFFF7EAFF0B
:100D980034BF012000205DF808FB00BF4DF808EDC6
:100DA800FFF7E0FF94BF012000205DF808FB00BFBB
:100DB8004DF808EDFFF7CEFF94BF012000205DF845
:100DC80008FB00BF4DF808EDFFF7C4FF34BF012052
:100DD80000205DF808FB00BF4FEA410C7FEA6C5C1D
:100DE80002D150EA013C0AD14FEA430C7FEA6C5C1D
:100DF80002D152EA033C02D14FF0000070474FF095
:100E0800010070474FEA410212F5001215D211D5C0
:100E18006FF47873B3EB625212D94FEAC12343F0EF
:100E2800004343EA505311F0004F23FA02F018BF71
:100E3800404270474FF00000704750EA013005D13A
:100E480011F0004008BF6FF0004070474FF00000FD
:100E5800704700BF10F8012B11F8013B012A28BF89
:100E68009A42F7D0D01A7047034613F8012B002A8C
:100E7800FBD1181A013870472DE9F04F91ED037A2C
:100E8800D0ED037A2DED028B77EE677A85B00546B3
:100E980017EE900A0C46FFF7D7FA77A3D3E9002399
:100EA800FFF72AFB764B0022FFF750FCFFF736FDD1
:100EB800FFF7CAFA41EC100B01F0B2F8A0688DED0B
:100EC800000BFFF7C1FA6CA3D3E90023FFF714FB6B
:100ED8006B4B0022FFF73AFCFFF720FDFFF7B4FA4F
:100EE80041EC100B01F054F8A8688DED020BFFF7E8
:100EF800ABFA61A3D3E90023FFF7FEFA604B0022A7
:100F0800FFF724FCFFF70AFDFFF79EFA41EC100BF0
:100F180001F03EF8A0685BEC10ABFFF795FA56A31A
:100F2800D3E90023FFF7E8FA554B0022FFF70EFC40
:100F3800FFF7F4FCFFF788FA41EC100B01F070F8AA
:100F4800A86859EC108BFFF77FFA4BA3D3E900236D
:100F5800FFF7D2FA4A4B0022FFF7F8FBFFF7DEFC57
:100F6800FFF772FA41EC100B01F05AF8A06857EC41
:100F7800106BFFF769FA40A3D3E90023FFF7BCFA27
:100F88003F4B0022FFF7E2FBFFF7C8FCFFF75CFAD4
:100F980041EC100B00F0FCFF304653EC102B3946A7
:100FA800FFF7AAFA94ED037AD5ED037A77EE677A1C
:100FB800064617EE900A0F46FFF746FA2EA3D3E926
:100FC8000023FFF799FA2E4B0022FFF7BFFBFFF72C
:100FD800A5FCFFF739FA41EC100B00F0D9FF4246A7
:100FE8004B465046594655EC104BFFF785FAFFF72C
:100FF80095FCFFF729FA2246804689462B4630465B
:101008003946FFF779FA02460B4640464946FFF74C
:10101800BBF8FFF783FCFFF717FADDE9022341EC81
:10102800180BDDE90001FFF767FAFFF777FCFFF718
:101038000BFAB0EE481AF0EE681A41EC100B07F004
:10104800ADF851EC100BFFF769FCFFF7FDF90C4BFD
:101058000022FFF751FA08A3D3E90023FFF776FB34
:10106800FFF75CFC00EE100A05B0BDEC028BBDE892
:10107800F08F00BFAFF30080182D4454FB210940C6
:1010880000806640000000002DE9F84391ED027AE7
:10109800D0ED027A77EE677A2DED048B054617EED0
:1010A800900A0C46FFF7D0F963A3D3E90023FFF7B2
:1010B80023FA654B0022FFF749FBFFF72FFC07EEE9
:1010C800900AB6EE008A67EE887A9FED599B17EE74
:1010D800900AFFF7B9F941EC100B00F0A1FFB0EE50
:1010E800491AF0EE691A00F0E3FF94ED037AD5EDA2
:1010F800037A77EE677A57EC106B17EE900AFFF7D2
:10110800A3F94DA3D3E90023FFF7F6F94E4B0022CC
:10111800FFF71CFBFFF702FC07EE900AA86827EE12
:10112800888AFFF791F944A3D3E90023FFF7E4F98C
:10113800454B0022FFF70AFBFFF7F0FBFFF784F9A6
:1011480041EC100B00F024FFA06859EC108BFFF75E
:101158007BF939A3D3E90023FFF7CEF93A4B0022F4
:10116800FFF7F4FAFFF7DAFBFFF76EF941EC100B23
:1011780000F00EFF404653EC102B4946FFF7BCF930
:10118800044618EE100A0D46FFF75EF941EC100B05
:1011980000F046FFB0EE491AF0EE691A00F088FF39
:1011A800204653EC102B2946FFF7A6F904460D46B6
:1011B80030463946FFF7B2FBFFF746F902460B46C1
:1011C80020462946FEF7E2FFFFF7A8FB09EE100AC2
:1011D800FFF73AF941EC100B06F0E2FFF7EE007A60
:1011E80077EEC97AB0EE408AF0EE608A17EE900A80
:1011F800FFF72AF941EC100B06F0D2FFB0EE401AC7
:10120800F0EE601AB0EE480AF0EE680A06F0C6FF83
:101218000BA3D3E9002351EC100BFFF76DF9FFF78F
:101228007DFBBDEC048B00EE100ABDE8F88300BF1F
:101238000000000000000040182D4454FB21094024
:1012480000000000AE4D68410080664000000000CC
:1012580070B5064614200D4608F071FE0671044666
:10126800A868FFF7DFF814A3D3E90023FFF76EFAA5
:10127800FFF754FBA060E868FFF7D4F80EA3D3E9A2
:101288000023FFF763FAFFF749FBE0602869FFF7DF
:10129800C9F8074B0022FFF759FAFFF73FFB214631
:1012A8002061BDE87040034808F09FBCAFF30080A0
:1012B80000408F40F401002000000000D01263417C
:1012C8002DE9F04F2DED028B9FEDAB8B9BB0814646
:1012D8008A4615461C460026287810B9304600F084
:1012E800C9BD6B1C2528029306D05146C847002863
:1012F800C0F2C08501362EE2182200210CA808F0A1
:10130800A8FE6B78252B59D06A1C174612F8013BAA
:101318002B2B00F08B8079D8202B00F08C80232B8E
:1013280000F08E809DF8383003F04402442A03D13F
:101338006FF386138DF838309DF838300A9743F0EC
:1013480080038DF838303B782A2B7ED19DF83930D0
:1013580043F001038DF839307B1C0A931A782E2A42
:101368009DF839200CBF0121002161F341028DF85D
:1013780039200BD15A1C0A925A782A2A7BD19DF817
:10138800392042F004028DF839200233194611F849
:10139800010B6C2800F0CF807DD8682800F084808D
:1013A8006A2800F0D2804C2800F0D6809DF83920B9
:1013B8006FF3C6028DF83920194680E0AA1C029204
:1013C8008DF83B309DF83930DF0740F1788154F8CB
:1013D80004BBBBF1000F07DA9DF8382042F0040285
:1013E8008DF83820CBF1000B580740F1718154F883
:1013F800048BB8F1000F80F270819DF839306FF3DB
:1014080041038DF839304FF0FF3866E12D2B06D0B7
:10141800302B87D19DF8383043F0400303E09DF826
:10142800383043F004038DF838306EE79DF83830D3
:1014380043F00803F7E79DF8383043F01003F2E76C
:101448009DF8383043F02003EDE70AA803F092FC3A
:101458000A9BBB4281D09DF838700F90C7F34001BA
:1014680041EAD072520062F07F0207F07D010A4320
:101478008DF8382071E70AA803F07CFC9DF8383015
:101488001090C3F3400242EAD07060F341038DF834
:1014980038300A9B7AE774289DF8392059D07A2881
:1014A80084D11346062241E05A78682A9DF83920EB
:1014B8003AD1012161F3C6028DF83920991C0B46F7
:1014C80013F8012B0293782A8DF83B2000F2CD8087
:1014D800572A55D8412A04D0A2F14503022B00F21D
:1014E800C4809DF83A30042161F302038DF83A3044
:1014F80002F0DF03A3F141089DF83920D8F1000379
:1015080043EB080363F3C7128DF83920D3B21206F0
:1015180000F1D38003F07802182A40F0A3806FF31B
:10152800C6038DF839308AE01346022262F3C603F7
:101538008DF83930C3E75A786C2A9DF8392001D1E3
:101548000421B7E713460322F0E79DF83930052256
:10155800ECE713460722E9E7BDF8383023F4F043F7
:1015680023F0020343F4804343F00203ADF838301C
:10157800A5E700BFAFF300800000000000000008EE
:10158800A2F15803202B70D801A151F823F000BF15
:101598004B16000873160008731600087316000827
:1015A80073160008731600087316000873160008EF
:1015B80073160008EB140008731600084B16000891
:1015C8001D160008EB140008EB140008EB140008C3
:1015D800731600081D160008731600087316000815
:1015E8007316000873160008811600084B160008C9
:1015F800A51600087316000873160008A51600083B
:10160800731600084B1600087316000873160008B6
:101618004B1600089DF83A30012161F302038DF85A
:101628003A309DF8393003F07803402B02BF9DF81B
:10163800381041F001018DF83810632A05D00023D5
:1016480006E09DF83A300221E7E7003B18BF012386
:101658009DF83820C2F340010B4363F341028DF833
:101668003820AFE613F0380FE9D09DF8383043F052
:1016780001038DF83830E2E79DF83A30032262F32F
:1016880002038DF83A309DF8393003F07803A3F15E
:10169800400CDCF1000343EB0C03D9E79DF83A302A
:1016A800032262F302038DF83A309DF8393013F0C3
:1016B800780F14BF01230023CAE70123C8E79DF967
:1016C8003820002AB4BFDDF83CB04FF0FF3B8BE672
:1016D80099077FF598AEDDF840809DF83910002312
:1016E800CDE90F339DF83A3003F00702042A09D1F7
:1016F8008A0707D49DF93920002AB4BF4FF00D0896
:101708004FF0060803F00703012BC1F3C30137D1DB
:10171800CB1E042B21D8DFE803F0030909202000A1
:1017280054F8043BDA17CDE90C3206E0073424F00C
:101738000704F4E80223CDE90C239DF83870BB07B1
:1017480054D0029B2A465146484607F023FA0028FF
:10175800C0F290830644029DBEE554F8043B01297B
:101768004FEAE372CDE90C3205D19DF830300C9385
:1017780000230D93E1E70229DFD1BDF93030D1E72D
:10178800022B23D1CB1E042B13D8DFE803F0030A66
:101798000A12120020680C900022231D0D921C468C
:1017A800CBE7E31D23F00703B3EC027B8DED0C7B45
:1017B800F5E754F8043B0C9301294FF000030D930F
:1017C800D3D00229B9D1BDF83030D0E7042B07D1E6
:1017D800073424F00704F4E80223CDE90C23ACE72E
:1017E800032B04BF54F8043B0C93A6E79DF83B2059
:1017F800782AB0D8572A00F28C80252A00F0D480A5
:10180800242AA8D9412A03D0A2F14503022BA2D841
:10181800DDE90C13002BC0F2B781380700F1B6815F
:1018280017F0100718BF2027C3F30A55C3F3130393
:10183800CDE90813002D40F0AB8151EA030014BF35
:1018480001200020DB0243EA5153C902462A45EA37
:10185800010E43EAE57C08BF66225EEA0C0CCDE97E
:10186800081300F00382002840F0CB81DDE908016D
:101878004FF0000C41F00041A5F2FE350991634696
:101888004FF0050E15F1020FC0F2C281BCF1000F36
:1018980001D0CDE90801002DDDE9080100F3CD8173
:1018A80009980899C5F1040C1C3500FA05F5ACF146
:1018B800200E21FA0CF120FA0EFE294341EA0E010E
:1018C80020FA0CF0CDE9081002F0DF01472940F0BA
:1018D800D481DD1C02DB984580F2CB81023AB8F155
:1018E800000FD2B201DD08F1FF389DF838108806E4
:1018F80000F1C381B8F1000FD4BF00210121662A8D
:10190800039140F0BC8113EB080140F1BA8100213A
:10191800BAE1A2F15803202B3FF61DAF01A050F801
:1019280023F000BF331B00085F1700085F1700088B
:101938005F1700085F1700085F1700085F170008A7
:101948005F1700085F170008191800085F170008DC
:10195800DD190008D31A000819180008191800081A
:10196800191800085F170008D31A00085F17000845
:101978005F1700085F1700085F170008691B000859
:10198800331B0008371B00085F1700085F170008A3
:10199800B71900085F170008331B00085F17000815
:1019A8005F170008331B0008514610469EE4B8F143
:1019B800000F0C9A09DB41461046039208F064FBBD
:1019C800039A0027151862B9C5E610460392FFF777
:1019D8004BFAF5E70C9B8DF84C3000270DF14D05BF
:1019E80013AAAB1A07B101339DF83A00C10640F1BA
:1019F800358202330F9940060B4444BF10995B1897
:101A0800BBF1000F23DDABEB030B9DF83830590712
:101A1800C3F380081BD4580640F13682002F00F02B
:101A28003682514638460392C8470028C0F22282BF
:101A3800039A474601364FF030085E445B46002B58
:101A4800A6EB0B000BF1FF3B00F30C82064647B1F7
:101A5800514638460392C8470028C0F20B82039AC1
:101A680001369DF83A30590640F165829DF93930C2
:101A7800002BA6EB020680F219821746B846F31926
:101A880017F8010B702840F00582109F1E461F446E
:101A9800BB1B002B00F348822B4642465146484662
:101AA80007F078F80028C0F2E58130440646834400
:101AB800ABEB0603002B7FF74EAE51462020C847FC
:101AC8000028C0F2D7810136F2E73D072BD417F082
:101AD800100718BF2027DDE90C23002B05DA524236
:101AE80063EB4303CDE90C232D270DF16503009328
:101AF8000EAADDE90C0113AB03F052F90246B8F166
:101B0800000F0DF16505FFF65EAF9DF83810AB1AB2
:101B18006FF3861198458DF838107FF654AFA8EB0F
:101B280003030F934FE72B27D5E70027DDE70C9832
:101B3800002800F08F810DF1650300930EAA13AB06
:101B4800002103F02DF9BDF83A3003F0EF0343F418
:101B5800F04343F010030246ADF83A300027CEE7D1
:101B68000C9B07293FF6F7ADDFE801F00C04060CE3
:101B780008080C0C1E70EEE51E80ECE5F217C3E9B0
:101B88000062E8E51E60E6E52D274DE62B274BE6CB
:101B980040F2FF70854231D10132B948D2B20B43CD
:101BA800125C02F003021BD1012A11D149238DF8DE
:101BB8004C304E238DF84D3046238DF84E309DF82D
:101BC80038306FF386138DF838300DF14F0507E77D
:101BD80069238DF84C306E238DF84D306623ECE781
:101BE800012A07BF4E2341226E2361220CBF8DF8C4
:101BF8004C308DF84C308DF84D20DEE7002021E682
:101C0800013D49185B41002BFADACDE908132DE6AE
:101C1800400840EAC1704908B1F1333FAC4605F1CC
:101C28000105F5D20EFB01F5A0FB0E012944013B8D
:101C38000CF102054FF0010C24E6023041F10001DD
:101C4800CDE9080108A8CDE9032306F074FF049B39
:101C5800039ADDE90810013D013349184041002885
:101C680005F1FF35F9DACDE9081014E600231D4621
:101C780016E6A8EB0308662237E600213FE608F1DE
:101C880001011029A8BF10218DED0A8B10200790A3
:101C98000D46DDE90A01A5B9089D4019099D41EBEA
:101CA8000501B1F1805F1BD2CDE90801662A40F039
:101CB8009980002B23DC30218DF84C100DF14D0557
:101CC8002FE0400840EAC1704908CDE90A010AA896
:101CD800CDE90423013D06F02EFFDDE90423D8E712
:101CE800400840EAC1704908CDE9080108A8CDE9D3
:101CF800042306F020FF059B049A0133D6E713ADB1
:101D0800079900290BDD07A908A8CDE9042306F0E7
:101D18002AFF059B05F8010B013B049AF0D10F93AC
:101D280000239DF83810890602D4B8F1000F1DDD94
:101D38002E2105F8011B9BB1B8F1000F16DD5942A1
:101D48004145A8BF41469DF83A000F910029A8EBEC
:101D58000108D4BF0021012161F345108DF83A0034
:101D6800B8F1000F02DD0799002956DC0399002914
:101D780063D1CDF8408002F0DF01452921D1002B45
:101D88002946B8BF5B4201F8022BB4BF2D222B2293
:101D9800632B6A7009DD642093FBF0F202F1300CCA
:101DA800E91C85F802C000FB12330A200D4693FB9C
:101DB800F0F200FB123302F1300C303305F802CB9D
:101DC8004B700F9B002B43DC109B002BD4BF0023D0
:101DD80001239DF83A2063F3861200238DF83A20F8
:101DE8002B70FDE507A908A8CDE9042306F0BBFE82
:101DF800DDE904239DF838108DF84C00302818BF11
:101E080003F1FF33880602D4B8F1000F12DD2E214A
:101E18008DF84D100DF14E05A2E707A908A8CDE9E8
:101E2800042306F0A0FE08F1FF38DDE9042305F8D5
:101E3800010B95E70DF14D0598E700211091284613
:101E480015F8011D3029FAD02E2918BF054692E74A
:101E58000123BEE70B4D07466A1FC2E5010748BFCD
:101E68000133C7E5514640460392C8470028039A04
:101E7800BFF6E4AD1BB0BDEC028BBDE8F08F00BF30
:101E8800B7BC00081CB500084FF02008D5E54FF096
:101E98003008D2E55146C8470028BFF6EFADE9E75C
:101EA80051460392C8470028039AE3DB1078374B62
:101EB800C35C5B07174606EB020802F10102EFD488
:101EC8009DF83A300F9E990607D4B044002EA8EB2F
:101ED800060206F1FF360FDC904638782E2808D126
:101EE8005146C8470028C5DB002E08F1010809DC67
:101EF8000137A8EB07060EE051463020C8470028F6
:101F0800E4DAB7E751463020C847013EEAE75146D0
:101F1800C8470028AEDB1D4AB846F31917F8010B6D
:101F2800125C5207F3D4B0E551463020C847002868
:101F3800A0DB0136ACE5D80601D4190707D5514610
:101F480030200392C847002894DB039A01369DF895
:101F58003A30DB0608D59DF83B0003925146C84746
:101F6800002887DB039A01360F9F3744BB1B002BE1
:101F780001DC2B4692E5514630200392C8470028E1
:101F8800FFF678AF039A0136F0E700BFB8BC000847
:101F980051EC100B204A21F00043934220DD00B59C
:101FA8001E4A934285B009DD10EE102A0B46FEF753
:101FB800EBF841EC100B05B05DF804FB684600F047
:101FC800BFFF00F0030001289DED021B9DED000BF3
:101FD8000AD0022816D090B1012001F045FFEAE7A7
:101FE8009FED0B1B01F0D4B901F03EFF53EC102B11
:101FF80003F1004300EE903A05B05DF804FB01F0F0
:10200800C7F9D8E701F0C4F9F0E700BFAFF30080E3
:102018000000000000000000FB21E93FFFFFEF7F08
:1020280051EC100B204A21F00043934227DD00B504
:102038001E4A934285B009DD10EE102A0B46FEF7C2
:10204800A3F841EC100B05B05DF804FB684600F0FE
:1020580077FF00F0030001289DED021B9DED000BAA
:1020680012D0022817D090B101F092F953EC102B3E
:1020780003F1004300EE903A05B05DF804FB9FEDD4
:10208800081B002001F0F0BE01F082F9DBE7012017
:1020980001F0EAFED7E7012001F0E6FEE6E700BF1F
:1020A8000000000000000000FB21E93FFFFFEF7F78
:1020B800F8B52DED028B57EC106B55EC114B00F079
:1020C800A3F9634BB0EE408AF0EE608A93F90030D2
:1020D80001332AD022462B4620462946FEF77CFEAD
:1020E80018BB32463B4630463946FEF775FE002897
:1020F80044D10022002330463946FEF73BFED8B1D2
:102108000022002320462946FEF734FE00283DD150
:1021180045EC104B06F050F938B12046294600220C
:102128000023FEF731FE00285CD1B0EE480AF0EE3D
:10213800680ABDEC028BF8BDB0EE480AF0EE680AFA
:1021480006F03AF958B351EC180B00220023FEF7B9
:1021580011FE0028E9D047EC106B06F02DF9002895
:10216800E3D045EC104B06F027F90028DDD007F046
:102178001BFA22239FED2E8B0360D6E720462946C3
:1021880000220023FEF7F6FD0028CED09FED2A8B13
:10219800B0EE480AF0EE680ABDEC028BF8BD47ECD9
:1021A800106B06F009F90028CDD045EC104B06F06D
:1021B80003F90028C7D053EC182B18EE100A19465B
:1021C800FEF70AFE20BB07F0EFF9034622221A6049
:1021D8003046394600220023FEF7D6FD48B99FED68
:1021E800188BA2E707F0E0F921239FED178B036016
:1021F8009BE745EC104B06F0EBF8224651EC100B30
:102208002B46FEF7B7FD0028E9D19FED0F8B8CE731
:1022180007F0CAF90022002321210160104619465F
:10222800FEF794FA41EC180B7FE700BFAFF300808C
:102238000000000000000000000000000000F03F67
:10224800000000000000F07F000000000000F0FF28
:10225800600000200000000051EC110B43422DE902
:10226800F0470343644E21F0004E4EEAD373B34265
:1022780055EC104B3ED86342234325F0004A4AEA06
:10228800D373B342A94635D801F1404303F580130F
:1022980003433ED08F1707F002075AEA040347EAC0
:1022A800D5772FD05EEA000337D0B64544D0B24583
:1022B80033D0AAEB0E0EBEF1747F4FEA2E5338DAF4
:1022C800002945DA3C3343DA9FED3D0B012F5DD001
:1022D800022F4AD0A7B151EC100B3BA3D3E900233E
:1022E800FDF752FF3AA3D3E90023FDF74DFF41EC78
:1022F800100B05E022462B46FDF748FF41EC100B7A
:10230800BDE8F087022F0ED0032FF9D19FED320BD5
:10231800F6E7BDE8F04701F067BEB9F1000F05DB4D
:102328009FED2F0BECE79FED2A0BE9E79FED2E0BB6
:10233800E6E79FED2B0BC9E7F24507F1FF372ED0F3
:10234800022F34D82D4B03EBC70797ED000BD7E7C7
:1023580002460B4620462946FEF7F8F941EC100BD9
:1023680006F020F801F040FEB0E717A3D3E90023F8
:1023780051EC100BFDF708FF02460B4614A1D1E9FA
:102388000001FDF701FF41EC100BB9E710EE901AC0
:1023980053EC102B01F1004343EC102BB0E7022F54
:1023A80008D8174B03EBC70797ED000BA8E79FED7D
:1023B800040BA5E79FED0E0BA2E700BFAFF300806B
:1023C8000000000000000000075C143326A6A13CB2
:1023D800182D4454FB210940182D4454FB2109C0F1
:1023E800182D4454FB21F93F182D4454FB21F9BF03
:1023F800182D4454FB21E93F0000F07FF0A40008A9
:10240800D8A40008000000002DE9F04F57EC116B2C
:102418002DED0C8B27F0004A5AEA060287B03DD012
:1024280055EC104B724925F00048884510EE102AEB
:10243800A9462CDC11EE103ABB4636D08A4526DC7C
:102448006B498A4521D0B9F1000F39DB0021009191
:10245800002B51D1664B9A4500F0A280654B9A45F6
:1024680000F0B080BBF1804F00F0C084624B9B4508
:1024780042D1B9F1000F3FDB45EC104B07B0BDEC82
:102488000C8BBDE8F04F05F0C5BE002BDBD008F182
:10249800404808F5801858EA020309D19FED500B0F
:1024A80007B0BDEC0C8BBDE8F08F0CB9C245C7DD99
:1024B800524807B0BDEC0C8BBDE8F04F01F0B0BF3F
:1024C8004F498A4500F38580A1F154718A450FDD93
:1024D8004FEA2A51A1F2FF31142940F39B84C1F13C
:1024E800340123FA01F000FA01F1994200F0ED8479
:1024F80000210091002BB1D045EC104B029205F061
:1025080051FF029A5ABBB8F1000F04D0394B29F099
:1025180040429A4223D1BBF1000F07DA53EC102B4B
:1025280034490020FEF712F941EC100BB9F1000F05
:10253800B6DA009B08F1404808F5801858EA03030A
:1025480040F08D8453EC102B10461946FDF71CFE05
:1025580002460B46FEF7FAF841EC100BA0E7009A8A
:102568004FEAD973013B0493134335D0254B9A4561
:102578004CDD03F104739A45234B40F3DB83984504
:1025880040F36083BBF1000F40F3608316A3D3E9E7
:10259800002310461946FDF7AFFF41EC100B7FE70B
:1025A80008F1404303F5801313433FF477AF164B0C
:1025B800984540F37A83BBF1000FC0F2478347EC9C
:1025C800106B6DE7BBF1000FC0F21A8445EC104B9D
:1025D80066E7022100913BE722462B46B4E700BF9D
:1025E800000000000000F03F9C7500883CE4377E46
:1025F8000000F07F0000F03F0000E03F44B3000817
:10260800FFFF3F430000E041FFFFEF3FE44B09EAD3
:102618000303002253B951EC100BE24BFDF76CFF9A
:1026280041EC100B10EE908A6FF034024FEA2853F9
:10263800A3F2FF339A18DC4B0592C8F3130848F04D
:102648007F54984544F4401407DDD84B984540F32F
:10265800148401320592A4F580149FEDB96B9FEDA7
:10266800BA7B53EC162BB0EE47CAF0EE67CA0025CA
:10267800B0EE47DAF0EE67DA5BEC10ABA3465046F3
:10268800594643EC1A2BFDF77FFD53EC1A2B804675
:10269800894650465946FDF779FD02460B4600200B
:1026A800C349FEF753F841EC1B0B404653EC1B2B78
:1026B8004946FDF721FF41EC180B0A460146CDE9D2
:1026C80002120021029164104BEC19AB44F0005443
:1026D800DDE902AB04F500230020591904460D4634
:1026E80002460B4650465946FDF706FF02460B4682
:1026F80040464946FDF748FD53EC1A2B804689466B
:1027080020462946FDF740FD02460B4651EC190BC1
:10271800FDF73AFD52465B46FDF7EEFE02460B46D4
:1027280040464946FDF730FD53EC1B2BFDF7E4FE10
:1027380053EC182B41EC190B51EC180BFDF7DCFE90
:1027480083A3D3E9002304460D46FDF7D5FE82A3F3
:10275800D3E90023FDF71AFD22462B46FDF7CCFEF0
:102768007FA3D3E90023FDF711FD22462B46FDF791
:10277800C3FE7DA3D3E90023FDF708FD22462B46BF
:10278800FDF7BAFE7AA3D3E90023FDF7FFFC224642
:102798002B46FDF7B1FE78A3D3E90023FDF7F6FC3D
:1027A8002246804689462B4620462946FDF7A4FE48
:1027B80002460B4640464946FDF79EFE52460446F1
:1027C8000D465B4651EC180BFDF7E0FC53EC192B5A
:1027D800FDF792FE22462B46FDF7D8FC524680466E
:1027E80089465B4650465946FDF786FE02460B462B
:1027F80043EC1A2B6F4B0022FDF7C8FC42464B46B0
:10280800FDF7C4FC00240D4622462B465046594687
:10281800FDF772FE674B82468B460022204629460A
:10282800FDF7B2FC53EC1A2BFDF7AEFC02460B4643
:1028380040464946FDF7A8FC53EC182BFDF75CFE13
:1028480022462B4604460D4651EC190BFDF754FE63
:1028580002460B4620462946FDF798FC80468946E5
:1028680042464B4650465946FDF790FC44A3D3E9EF
:102878000023002004460D46FDF73EFE524641EC7B
:10288800190B5B4620462946FDF77EFC02460B469F
:1028980040464946FDF778FC3BA3D3E90023FDF702
:1028A8002BFE02460B462046294614461D4638A3F1
:1028B800D3E90023FDF720FE02460B4620462946B1
:1028C800FDF764FC53EC1D2BFDF760FC8046059872
:1028D8008946FDF7A7FD424682468B464B4651EC9A
:1028E800190BFDF753FC53EC1C2BFDF74FFC52461C
:1028F8005B46FDF74BFC52465B46002004460D46FE
:10290800FDF742FC53EC1C2BFDF73EFC53EC192B56
:10291800FDF73AFC02460B4640464946FDF734FCB3
:10292800009B049A013B134382468B4640F0B681D4
:102938009FED197BB0EE478AF0EE678A3CE000BF56
:10294800000000000000F03F000000000000000050
:10295800EF4E454A287ECA3F65DBC9934A86CD3F7C
:1029680001411DA96074D13F4D268F515555D53F62
:10297800FFAB6FDBB66DDB3F033333333333E33FFA
:10298800000000E009C7EE3FFD033ADC09C7EE3F4F
:10299800F5015B14E02F3EBE000000000000F0BF10
:1029A8000000F07F000040438E98030079B60B00CA
:1029B8000000F03F000008400023CDE900670093C5
:1029C800DDE90089304642464B463946FDF7DCFBD7
:1029D80022462B46FDF790FD32463B4606460F46FB
:1029E80050465946FDF788FD02460B4630463946A3
:1029F800FDF7CCFB42464B4606460F462046294685
:102A0800FDF77AFD04460D462B46304639462246E8
:102A1800FDF7BCFBC24B9942804689468A4640F383
:102A2800188101F13F4303F5E003034340F00782B7
:102A3800A3A3D3E9002330463946FDF7A7FB024696
:102A48000B46404649469046994622462B46FDF796
:102A58009BFB02460B4640464946FEF7B3F9002861
:102A680040F0ED81CAF30A534FF48012A3F2FE330B
:102A780042FA03F35344AB49C3F30A52A2F2FF32BA
:102A880041FA02FCC3F3130141F48011C2F11402AC
:102A980041FA02F2002023EA0C01BAF1000F009279
:102AA8000B46024602DA009949420091204629461F
:102AB800FDF76AFB009B1B05029302460B46044682
:102AC8000D4630463946FDF761FB89464FF0000850
:102AD8007DA3D3E9002340464946FDF70DFD224674
:102AE8002B4682468B4640464946FDF74DFB02463B
:102AF8000B4630463946FDF747FB75A3D3E900235B
:102B0800FDF7FAFC74A3D3E9002304460D464046BA
:102B18004946FDF7F1FC02460B4620462946FDF7DB
:102B280035FB06460F4632463B4650465946FDF7AA
:102B38002DFB52465B4604460D46FDF725FB024633
:102B48000B4630463946FDF71FFB2246804689462C
:102B58002B4620462946FDF7CFFC61A3D3E9002385
:102B680006460F46FDF7C8FC5FA3D3E90023FDF72F
:102B78000BFB32463B46FDF7BFFC5DA3D3E90023C0
:102B8800FDF704FB32463B46FDF7B6FC5AA3D3E9F2
:102B98000023FDF7F9FA32463B46FDF7ADFC58A392
:102BA800D3E90023FDF7F2FA32463B46FDF7A4FCD1
:102BB80002460B4620462946FDF7E6FA06460F462A
:102BC80032463B4620462946FDF796FC02460B4610
:102BD8003046394616461F4600224FF08043FDF71F
:102BE800D3FA02460B4630463946FDF7AFFD42465A
:102BF80006460F464B4620462946FDF77DFC4246D1
:102C08004B46FDF7C3FA02460B4630463946FDF7F8
:102C1800BBFA22462B46FDF7B7FA02460B460020C0
:102C28004149FDF7B1FA029A0B461344B3F5801FE8
:102C3800C0F24381194653EC182BFDF75DFC41ECBB
:102C4800100B2DE4BBF1000FFFF6A0AC9FED2E0B8F
:102C580026E4DFF8DCC021F00043634540F3E78059
:102C6800324B0B4403430AD122462B46FDF78CFA1C
:102C780032463B46FEF79CF800283FF4F3AE24A307
:102C8800D3E9002351EC180BFDF736FC20A3D3E958
:102C98000023FDF731FC41EC100B01E49FED1E7B96
:102CA800B0EE478AF0EE678A86E6BBF1000FCDDA10
:102CB80007F1004300EE106A00EE903AFFF7F0BB10
:102CC800FE822B654715973C00000000432EE63F27
:102CD800EF39FAFE422EE63F396CA80C615C20BE43
:102CE800D0A4BE726937663EF16BD2C541BDBB3E0A
:102CF8002CDE25AF6A56113F93BDBE166CC1663FE8
:102D08003E5555555555C53F0000000000000000D0
:102D180059F3F8C21F6EA501000000000000F03F43
:102D2800FFFF8F40FFFF0F000000F03F00346F3FB0
:102D3800FFCB9040984585DB7D4B98453FF722AC0B
:102D480051EC100B7A4B0022FDF71EFA68A3D3E969
:102D5800002304460D46FDF7CFFB67A3D3E9002304
:102D680082468B4620462946FDF7C6FB714B41EC4F
:102D7800180B002220462946FDF7BEFB02460B46EB
:102D88005FA1D1E90001FDF7FFF922462B46FDF7C7
:102D9800B3FB02460B4600206749FDF7F5F92246CA
:102DA800804689462B4620462946FDF7A5FB024664
:102DB8000B4640464946FDF79FFB53A3D3E9002342
:102DC800FDF79AFB02460B4651EC180BFDF7DCF9B0
:102DD8008046894642464B4650465946FDF7D6F945
:102DE800002052465B4604460D4691E522462B4696
:102DF80020462946FDF780FB41EC100BFFF750BB3E
:102E08004B49002022462B46FDF7A0FC41EC100B55
:102E1800FFF746BB002B44D1C1F114014AFA01F077
:102E280000FA01F151455AD00093FFF717BB424A07
:102E380093425BDCDDE900120291009146E634A37F
:102E4800D3E9002351EC180BFDF756FB30A3D3E967
:102E58000023FDF751FB41EC100BFFF721BB009B52
:102E6800012B7FF41DAB10EE901A10EE102A01F121
:102E7800004343EC102BFFF713BB9FED277BB0EE0D
:102E880047CAF0EE67CA9FED267BB0EE47DAF0EE50
:102E980067DA9FED257B4FF4802553EC172BFFF75E
:102EA800EBBB45EC104B009205F07CFA009A002A27
:102EB8007FF492AB0092FFF726BB41EC100B009811
:102EC80001F0B6FA51EC100BB5E600F00100C0F1C4
:102ED80002010091002B3FF4C1AAFFF70DBB00F0DF
:102EE8000100C0F102030093FFF7B8BA1B15BBE558
:102EF800000000604715F73F44DF5DF80BAE543E15
:102F0800555555555555D53FFE822B654715F73F05
:102F18009C7500883CE4377E0000004003B8E23F1F
:102F280006D0CF43EBFD4C3E000000000000F83F08
:102F38000000F03F0000D03F0000E03F000000002C
:102F48002DE9F04F53EC102B2DED048B9E4923F007
:102F580000458D4289B0044640F388809B498D42E4
:102F68001F462BDC002F194610EE100A8CA3D3E95C
:102F7800002340F3B881FDF707F9954B9D42804641
:102F8800894600F08B8088A3D3E90023FDF7FCF87D
:102F980002460B46C4E9002340464946FDF7F4F8CB
:102FA80081A3D3E90023FDF7EFF8C4E90201012664
:102FB800304609B0BDEC048BBDE8F08F85498D42E1
:102FC80040F38E8084498D425DDC2E15A6F21646AC
:102FD80010EE100AA5EB065190468946FDF712FF40
:102FE800FDF720FA02460B4640464946CDE9022342
:102FF800FDF7CAF8794B0022FDF77EFA894680462C
:10300800FDF700FF0546FDF70DFA02460B46404660
:103018004946CDE90423FDF7B7F8704B0022FDF7C8
:103028006BFA02460B46CDE9062300220023FDF782
:10303800A1FE002800F05581002D0CBF01230223BA
:10304800674A0192022200922146324602A800F005
:10305800DFFA002F0646ABDA6268E36802F1004245
:1030680003F100436260E3604642A1E700200021CB
:103078000026C4E90201304684ED000B09B0BDEC1E
:10308800048BBDE8F08F10EE100A1946FDF77CF8A6
:103098000026C4E90201C4E9000189E744A3D3E991
:1030A8000023FDF771F844A3D3E90023804689463D
:1030B800FDF76AF802460B46C4E900234046494634
:1030C800FDF762F83CA3D3E90023FDF75DF801267C
:1030D800C4E90201304609B0BDEC048BBDE8F08FAD
:1030E80005F060F959EC108B10EE100A34A3D3E9FF
:1030F80000234946FDF700FA3A4B0022FDF746F84F
:10310800FDF780FE0646FDF78DF902460B4643ECB7
:10311800182B23A3D3E90023B0EE489AF0EE689A5F
:10312800FDF7EAF902460B4640464946FDF72CF8FA
:103138001DA3D3E9002382468B4651EC180BFDF7FB
:10314800DBF91F2E41EC180B50DC02460B465046AB
:103158005946FDF719F8244B721E804653F8223061
:10316800AB4289464AD042464B46C4E9008950469C
:103178005946FDF709F853EC182BFDF705F8002F11
:10318800C4E90201BFF614AF09F10043C4E90083A2
:1031980001F10043C4E90203764209E7AFF3008076
:1031A80000004054FB21F93F3163621A61B4D03DFD
:1031B8000000601A61B4D03D7370032E8A19A33BD6
:1031C80083C8C96D305FE43FFB21E93F7BD90240EA
:1031D800FB21F93FFB213941FFFFEF7F00007041E0
:1031E800C8B300080000E03F48B3000802460B4699
:1031F80050465946FCF7C8FF80468946C9F30A532A
:10320800C3EB1553102B4FEA2555ACDD56A3D3E974
:10321800002351EC190BFDF76FF9804689464246A9
:103228004B4650465946FCF7AFFF02460B46504600
:10323800594692469B46FCF7A7FF42464B46FCF789
:10324800A3FF4BA3D3E900238046894651EC190B11
:10325800FDF752F942464B46FCF796FF0B460246ED
:103268005946504643EC182BFCF78EFFC1F30A531E
:10327800ED1A312D804689467FF775AF3FA3D3E914
:10328800002351EC190BFDF737F980468946424671
:103298004B4650465946FCF777FF02460B465046C8
:1032A800594692469B46FCF76FFF42464B46FCF751
:1032B8006BFF34A3D3E900238046894651EC190BF0
:1032C800FDF71AF942464B46FCF75EFF02460B46ED
:1032D8005046594643EC182BFCF756FF8046894662
:1032E80041E70323ACE6FCF751FF234B9D428046A0
:1032F800894616D01AA3D3E90023FCF747FF0246F4
:103308000B46C4E9002340464946FCF73DFF14A399
:10331800D3E90023FCF73AFF4FF0FF36C4E9020176
:1033280046E611A3D3E90023FCF730FF10A3D3E945
:10333800002380468946FCF729FF02460B46C4E96C
:10334800002340464946FCF71FFF09A3D3E90023A1
:10335800FCF71CFF4FF0FF36C4E9020128E600BF66
:103368003163621A61B4D03D0000601A61B4D03D87
:103378007370032E8A19A33BFB21F93F0000002E2E
:103388008A19A33BC14920259A837B390000000094
:103398002DE9F84F57EC106B27F00049B9F1795F28
:1033A8002DED048B5BEC11AB71DA10EE100A394687
:1033B800FDF728FD002800F0F68032463B463046EF
:1033C8003946FDF799F87CA3D3E9002304460D4656
:1033D800FDF792F87AA3D3E90023FCF7D7FE22463B
:1033E8002B46FDF789F878A3D3E90023FCF7CCFE38
:1033F80022462B46FDF780F875A3D3E90023FCF796
:10340800C5FE22462B46FDF777F873A3D3E90023C0
:10341800FCF7BAFE22462B46FDF76EF870A3D3E9F7
:103428000023FCF7B3FE22462B46FDF765F841EC76
:10343800180B714B002220462946FDF75DF853EC26
:10344800182B8046894620462946FDF755F85246EE
:103458005B4604460D4630463946FDF74DF80246B0
:103468000B4620462946FCF78FFE02460B4640468F
:103478004946FCF789FE02460B4600205F49FCF7E7
:1034880083FEBDEC048B41EC100BBDE8F88F10EE09
:10349800102A10EE100A3B463946FDF72DF846A3D0
:1034A800D3E9002304460D46FDF726F844A3D3E9E3
:1034B8000023FCF76BFE22462B46FDF71DF842A3BE
:1034C800D3E90023FCF760FE22462B46FDF714F8EB
:1034D8003FA3D3E90023FCF759FE22462B46FDF70C
:1034E8000BF83DA3D3E90023FCF74EFE22462B46FA
:1034F800FDF702F83AA3D3E90023FCF747FE2B4671
:103508002246FCF7F9FF3E4B994541EC180B90DD3C
:103518003C4B99453CDC0022A9F5001337490020B3
:1035280090469946FCF730FE41EC190B324B0022CD
:1035380020462946FCF7E0FF42464B46FCF724FEAE
:1035480053EC182B8046894620462946FCF7D4FFC1
:1035580052465B4604460D4630463946FCF7CCFFDA
:1035680002460B4620462946FCF70EFE02460B464D
:1035780040464946FCF708FE02460B4651EC190B3B
:10358800FCF702FEBDEC048B41EC100BBDE8F88F94
:103598009FED157BDFF87090B0EE479AF0EE679AD2
:1035A8004FF00008C2E7BDEC048B9FED110BBDE89E
:1035B800F88F00BFAFF30080D43888BEE9FAA8BD01
:1035C800C4B1B4BD9EEE213EAD529C804F7E923E6A
:1035D8009015CB19A001FA3E7751C1166CC1563F20
:1035E8004C5555555555A53F000000000000E73FD4
:1035F800000000000000F03F0000E03F0000F03F46
:103608003233D33F0000E93F0000D23F0000000002
:103618002DE9F04FADF5197D1C4608930B91BB4B76
:10362800A299049053F821100591631E12F1140F0A
:103638000393C0F24F83B649D31E81FB0301DB1706
:10364800C3EBA10307930133A3EB8303DB00D31878
:103658000693079A039BD41A059AD6181AD40136EA
:10366800A39F264420AD4FF000084FF0000908E062
:1036780057F82400FCF7D6FE0134B442E5E802010D
:1036880008D0002CF4DA013440464946B442E5E853
:103698000201F6D1059B002BC0F2CA83089BDDF816
:1036A8000C90DA000292059A1A440192049A20A911
:1036B80001EBC30A0DF5E07B02EBC308039B002B6B
:1036C800C0F2AC81049E57460024002577E9022306
:1036D800F6E80201FCF710FF02460B462046294691
:1036E800FCF754FD464504460D46EFD1019B09F110
:1036F80001099945EBE802450AF1080ADED1049A66
:10370800029B13449B46059B0BA901EB83020CA962
:103718000A921A4601EB8303083B09930192019A26
:1037280098A901EBC203002A53E9284529DD0DF5C4
:10373800E07A0AEBC2080DF13009764B00222046E8
:103748002946FCF7D9FEFDF75DFBFCF76BFE724BD3
:10375800002206460F46FCF7CFFE02460B462046DF
:103768002946FCF711FDFDF74DFB78E9022349F8DE
:10377800040B39463046FCF709FDD04504460D4692
:10378800DBD1DDF8189045EC104B484600F050FEB0
:1037980055EC104B00224FF07F5310EE100A2946CB
:1037A800FCF7AAFE41EC100B00F0B6FD5B4B51ECA8
:1037B800100B0022FCF7A0FE02460B4620462946C5
:1037C800FCF7E2FC0D460446FDF71CFB8046FCF7BF
:1037D80029FE0B46024629462046FCF7D5FC4B46F7
:1037E800002B06460F4640F39B80019A511E0CAAF7
:1037F800C9F1180352F8212042FA03F000FA03F342
:10380800D31AC9F117050CAA43FA05F5002D42F899
:103818002130804400F38E80002200233046394650
:10382800FDF7A8FA002800F05F82019B059A03F1D2
:10383800FF3A524510DC03F180430CAA013B0A9879
:1038480002EB8303002253F80419834242EA01027F
:10385800F9D1002A40F0E580059B0CAA013B52F8FB
:103868002330002B40F0D580099A012352F804191F
:1038780001330029FAD0019AD3180293531C9946B0
:10388800019A08990A449046079A02EB030A0AF13A
:10389800804AA39A0AF1FF3A02EB8A0A20AA02EBAD
:1038A800C80870AA02EBC30301935AF8040FFCF787
:1038B800B9FD0B46039902460029C8E9002347468B
:1038C80008F108081EDB049E0024002501E077E9C2
:1038D8000223F6E80201FCF70FFE02460B462046DB
:1038E8002946FCF753FC5E4504460D46EFD1019B83
:1038F800E3E802450193029B09F101099945D4DDEA
:1039080001930CE700240025F1E700BFD0B40008BC
:10391800ABAAAA2A0000703E0000704100002040B7
:103928006ED1019B0CAA013B52F82350ED15002DD6
:103938007FF772AF019B002B08F1010840F3D28199
:103948000C9C002C59D1019B012B28D00CA90122D9
:1039580051F8044F531C44B9019A9A421FD051F8A8
:10396800044F1A46531C002CF6D00CA9C4F18074DD
:1039780041F822400199994210DD0CAA0CA852F88E
:10398800232000EB830300EB81006FF07F4100E010
:103998001A688A1A43F8042B8342F9D10124069B3A
:1039A800002B0EDD012B00F06881022B09D1019B51
:1039B8005A1E0CAB0CA953F82230C3F3150341F877
:1039C8002230022D7FF428AF32463B46B44900200E
:1039D800FCF7DAFB06460F46002C3FF41DAF0698AD
:1039E8009FEDAB0B00F024FD3046394653EC102B0D
:1039F800FCF7CAFB06460F460EE701230022B4E790
:103A0800A84B0022FDF7D4F9002840F05181054663
:103A180002E7019B01339946029331E70024002510
:103A280064E6069B0495A3F118020CABCDF81C8044
:103A380053F82A30069273B9019B03F18043023B85
:103A48000CA901EB830353F804190AF1FF3A183A59
:103A58000029F8D006929FED8E0B069800F0E8FC3E
:103A6800BAF1000F55EC104BC0F2D88170AB03EBE4
:103A7800CA0B0CAA0AF10103089302EB8306DFF8CC
:103A880028924FEACA0306930BF108074FF0000883
:103A980056F8040DFCF7C6FC22462B46FCF72CFD15
:103AA8004B4667E90201424620462946FCF724FDB9
:103AB8000CAB9E4204460D46EAD148ABCDE9023331
:103AC800CDF804B0CDF824A0D346DDF814A04FF00B
:103AD8000009BAF1000FC0F202816FA3D3E90023F5
:103AE800DFF8C881019F00260024002503E04E4529
:103AF80010DCF8E80223F7E80201FCF7FDFC0246B7
:103B08000B4620462946FCF741FB0136B2450446E0
:103B18000D46ECDA029BE3E802450293019B0BF1A8
:103B2800FF3B083BBBF1FF3F09F101090193D0D1ED
:103B3800A29BDDF824A0022B1EDC002B00F30A81D7
:103B480013D1069C039D08342C440020002174E9FD
:103B58000223FCF71BFBAC42F9D1049B13B101F122
:103B6800004319460B9BC3E90001079B03F00700BC
:103B78000DF5197DBDE8F08FA29B032BF5D1BAF1A5
:103B8800000F00F06781039A069BD318D3E900451C
:103B980002EBCA0B7BE902672046294632463B46C0
:103BA800FCF7F4FAA046A94604460D4622462B46E1
:103BB80030463946FCF7E8FA4B464246FCF7E6FA47
:103BC800039B5B45CBE90201CBE90045E2D1BAF1A1
:103BD800010F40F33F81039A069B0AF1005A0AF14C
:103BE800FF3A13444FEACA01D3E9004501F1080A34
:103BF800019192440DF5947B7AE9026720462946A3
:103C080032463B46FCF7C2FAA046A94604460D4692
:103C180022462B4630463946FCF7B6FA42464B4612
:103C2800FCF7B4FAD345CAE90201CAE90045E3D171
:103C3800019C039B10341C4403F110050020002153
:103C480074E90223FCF7A2FAA542F9D1039BD3E950
:103C58000067D3E90245049B002B40F0B9800B9B19
:103C6800C3E90401C3E90067C3E90245079B03F000
:103C780007000DF5197DBDE8F08F019B5A1E0CABAE
:103C88000CA953F82230C3F3160341F8223098E602
:103C9800000000000000F03F00000040FB21F93F59
:103CA8000000F03F0000E03F0000703E10A5000853
:103CB800019B002B08F10108C8BF02253FF740AE61
:103CC80032463B4665490020FCF75EFA0225064667
:103CD8000F46A1E500216FF017030791B7E4002410
:103CE800002517E700245AE647EC106B069E04955A
:103CF8007042CDF81C8000F09BFB55EC104B584BE4
:103D080010EE100A00222946FDF752F8002855D077
:103D1800544B019F00221836204629460696FCF788
:103D2800EBFBFDF76FF80646FCF77CFB4C4B0022DB
:103D3800FCF7E2FB0B46024629462046FCF724FA2C
:103D4800FDF760F807F1010A0CAB43F8270043F8C8
:103D58002A6080E6039D089A002005EBC204002132
:103D680074E90223FCF712FAA542F9D1049B002B4F
:103D780044D10B9BC3E900010B4603990246D1E9E4
:103D88000001FCF701FABAF1000F0DDD4AAD01247C
:103D9800F5E802230134FCF7F9F9A245F8DA049BA7
:103DA80013B101F1004319460B9BC3E90201079BBC
:103DB80003F007000DF5197DBDE8F08F2046294670
:103DC800FDF720F8019B0CAA9A4642F8230042E628
:103DD80032460B9E07F10043C6E9002305F1004374
:103DE800F36001F100437361079B3061224603F0E1
:103DF8000700B2600DF5197DBDE8F08F0B9A01F14F
:103E0800004353600B46039910600246D1E9000154
:103E1800FCF7BAF9BAF1000FB8DCC2E7A29B022B93
:103E28000ADC002B11DC7FF4A0AE0020002194E610
:103E3800089BDB00029362E4A29B032B7FF495AE00
:103E480048AB00200021039300E748AB0020002185
:103E580003938BE700200021F8E600BF0000F03F45
:103E6800000070410000703E2DE9F04F55EC104BFA
:103E780085B025F00043B3F1795F8DED001B039009
:103E880007DA10EE100A2946FCF7BCFF002800F0FC
:103E9800898022462B4620462946FCF72DFB0646FC
:103EA8000F4632463B4620462946FCF725FB43A3EE
:103EB800D3E9002382468B4630463946FCF71CFB83
:103EC80040A3D3E90023FCF75FF932463B46FCF7F1
:103ED80013FB3EA3D3E90023FCF758F932463B46CF
:103EE800FCF70AFB3BA3D3E90023FCF74DF9324664
:103EF8003B46FCF701FB39A3D3E90023FCF746F95D
:103F0800039B80468946ABB3DDE900012A4B0022BA
:103F1800FCF7F2FA42464B468046894650465946D7
:103F2800FCF7EAFA02460B4640464946FCF72CF9EC
:103F380032463B46FCF7E0FADDE90023FCF724F9BA
:103F48001BA3D3E9002306460F4650465946FCF703
:103F5800D3FA02460B4630463946FCF717F90246B3
:103F68000B4620462946FCF70FF941EC100B05B02B
:103F7800BDE8F08F02460B4630463946FCF7BCFADE
:103F88000BA3D3E90023FCF7FFF852465B46FCF786
:103F9800B3FA22462B46FCF7F9F841EC100B05B0B2
:103FA800BDE8F08F45EC104B05B0BDE8F08F00BFC1
:103FB800495555555555C53F0000E03F7CD5CF5A6A
:103FC8003AD9E53DEB9C2B8AE6E55A3E7DFEB15792
:103FD800E31DC73ED561C119A0012A3FA6F81011FB
:103FE8001111813F000000002DE9F84F55EC104BEE
:103FF800BF4B25F000469E42AA4617DDBD4B9E42A8
:104008000ADC07D0BAF1000F40F3CC809FED9C0B7F
:10401800BDE8F88F002CF5D022462B4620462946CD
:10402800FCF7B4F841EC100BBDE8F88FB24B9E4298
:1040380000F3BC80A3F1DE739E4240F3A1804FF0F1
:10404800FF3B22462B4620462946FCF755FA0246F6
:104058000B4680468946FCF74FFA8BA3D3E9002329
:1040680006460F46FCF748FA89A3D3E90023FCF774
:104078008DF832463B46FCF73FFA87A3D3E9002385
:10408800FCF784F832463B46FCF736FA84A3D3E9BA
:104098000023FCF77BF832463B46FCF72DFA82A357
:1040A800D3E90023FCF772F832463B46FCF724FAC2
:1040B8007FA3D3E90023FCF769F842464B46FCF797
:1040C8001BFA7DA3D3E9002380468946304639464A
:1040D800FCF712FA7AA3D3E90023FCF755F8324625
:1040E8003B46FCF709FA78A3D3E90023FCF74CF820
:1040F80032463B46FCF700FA75A3D3E90023FCF7E8
:1041080043F832463B46FCF7F7F973A3D3E900239B
:10411800FCF73AF832463B46FCF7EEF902460B4606
:1041280040464946FCF732F822462B46FCF7E4F9AC
:10413800BBF1FF3F02460B465BD0704A704B02EB67
:10414800CB0203EBCB0BD2E90023FCF71DF8224688
:104158002B46FCF719F802460B46DBE90001FCF791
:1041680013F8BAF1000F41EC100BBFF65DAF10EE7B
:10417800901A024601F1004343EC102BBDE8F88F7A
:1041880057A3D3E9002310EE100A2946FBF7FEFFD8
:104198005C4B0022FCF716FE00283FF450AF45ECBC
:1041A800104B41E79FED500BBDE8F88F04F0FAF88B
:1041B800554B9E4255EC104B23DCA3F550239E42F1
:1041C8004EDC10EE102A2B4610EE100A2946FBF79B
:1041D800DDFF4C4B0022FBF7D7FF02460B4620467B
:1041E800294614461D464FF0000B00224FF080432D
:1041F8001FE020462946FBF7C7FF41EC100BBDE83E
:10420800F88F424B9E421FDA414B0022294610EE9E
:10421800100AFBF7B9FF02460B462046294614460A
:104228001D4600223A4B4FF0020BFCF765F9354B5F
:104238000022FBF7ABFF02460B4620462946FCF757
:1042480085FA04460D46FCE62B46324910EE102A44
:104258000020FCF77BFA4FF0030B04460D46F0E60E
:10426800284B0022294610EE100AFBF78DFF024664
:104278000B46204629464FF0010B14461D46D6E74B
:10428800182D4454FB21F93F11DA22E33AAD903F4F
:10429800EB0D76244B7BA93F513DD0A0660DB13F75
:1042A8006E204CC5CD45B73FFF8300922449C23FDD
:1042B8000D5555555555D53F2F6C6A2C44B4A2BFA2
:1042C8009AFDDE522DDEAD3F6D9A74AFF2B0B33F6A
:1042D800711623FEC671BC3FC4EB98999999C93FE2
:1042E8009C7500883CE4377E182D4454FB21F9BFA7
:1042F800FFFF0F440000F07FFFFFDB3F68A50008C9
:1043080048A500080000F03FFFFFF23F008003408F
:104318000000F83F0000F0BF51EC100BF8B5C1F3F6
:104328000A53A3F2FF35132D10EE106A0C4630DC49
:10433800002D1EDB384F2F4101EA070303432DD020
:1043480033A3D3E90023FBF721FF00220023FCF766
:1043580039FD48B1002C04DA4FF4801343FA05F50F
:104368002C4424EA070400262346324643EC102B4B
:10437800F8BD27A3D3E90023FBF708FF0022002399
:10438800FCF720FD0028EFD0002C29DB002634465E
:10439800EAE7332D05DDB5F5806F19D041EC100B38
:1043A800F8BDA3F213434FF0FF37DF400742F5D0C3
:1043B80017A3D3E90023FBF7E9FE00220023FCF74B
:1043C80001FD0028D0D0002C13DB26EA0706CBE736
:1043D80010EE102A0B46FBF7D9FE41EC100BF8BD86
:1043E80024F000430D4A1E43002E18BF1446002631
:1043F800BAE7142D08D00123C5F1340503FA05F5F1
:10440800AE1928BFE418E0E70134DEE7AFF3008017
:104418009C7500883CE4377EFFFF0F000000F0BF6A
:104428009FED010B704700BF000000000000F87FFF
:1044380038B553EC102BC3F30A5104469C4689BB8C
:1044480010EE101A23F0004C5CEA010129D019463D
:1044580000223D4B3D4D10EE100AFCF74DF8AC42E2
:1044680002460B4616DB8C46C1F30A513639214405
:1044780040F2FE70814221DC002947DC11F1350F42
:1044880034DA4CF250318C4218DC002B26A1D1E9E9
:10449800000144DB24A3D3E90023FCF72DF841EC09
:1044A800100B38BD40F2FF708142E0D110EE100AC7
:1044B8001946FBF76BFE41EC100B38BD002B1CA115
:1044C800D1E9000107DB1AA3D3E90023FCF714F8AC
:1044D80041EC100B38BD18A1D1E9000114A3D3E9B0
:1044E8000023FCF709F841EC100BF3E72CF0FF4C24
:1044F8002CF4E00C36314CEA0153104619460022E0
:10450800134BFBF7F9FF41EC100B38BD2CF0FF4CB7
:104518002CF4E00C4CEA015343EC102B38BD08A1F5
:10452800D1E90001B6E700BF59F3F8C21F6EA50133
:104538009C7500883CE4377E9C7500883CE437FE17
:1045480059F3F8C21F6EA58100005043B03CFFFF2D
:104558000000903C2DE9F04F0568D3005B1903601B
:1045680028BF4368DFB024BF0133436000F128034C
:104578000C9300F14003044689461646C5F3C50569
:104588000D93C5F14007B7420C9B28BF37464946F3
:1045980058193A463D4405F04EFD402DB944A6EB66
:1045A800070640F0A1800EAB2246194692F82B0070
:1045B800087092F82A00487092F82900887092F8DA
:1045C8002800C8700D980432904201F10401EDD121
:1045D800A2680192E26802922269039262690492D7
:1045E800A2690592E2690692226A07921EA9626A86
:1045F800089208460022013253F8045B40F8045B35
:10460800102AF8D18B6B0F464FEAF34080EA7340CB
:1046180080EA93207B6A3F6851F8045F3B44184462
:104628004FEAB54383EAF51383EAD503013203441D
:10463800402ACB63E6D1334B0B93DDE90272DDE907
:1046480006EC049B019DDDF820B005980A934FF015
:1046580000080B9B53F8041B0B934FEAF02383EAE3
:10466800B01383EA706A1EAB53F8283019440AEB7A
:1046780001032CEA000A00EA0E018AEA0101194442
:1046880087EA020359442B404FEA753A07EA020BBE
:1046980083EA0B0B8AEAB50A0A9B0A928AEAB55A98
:1046A80008F10108DA440B44B8F1400F099351446A
:1046B800E3461FD1019B0B44A360029B2B44E3609C
:1046C800039B3B442361049B13446361099A059B44
:1046D8001344A361069B0344E361079B734423626D
:1046E800089B634463620025002E7FF44AAF5FB0E5
:1046F800BDE8F08F3A46F4462F4686460D4609989F
:10470800A7E700BF98A500082DE9F04FFBB0DFF838
:10471800C4A2AD4DAD4C01F043F9EB780027C6B209
:104728002F700F2B22D8DFE813F01200120051006F
:1047380061006D0073007A00810088009A00B00063
:10474800C600D600160116015701EA70E1E7FD2EF2
:1047580031D10223EB700023E3702B7BA67023F08A
:1047680001032B734FF0FF33237063702A78012AFB
:1047780006D1A3796B712B8903B96B8101332B8126
:10478800E3788DF8C730022A4FF00003AB7040F091
:104798002082B4F81431ADF8C43001220023FD2E74
:1047A800AA702B70D1D10222E3704FF0FF33EA7068
:1047B80023706370ADE7FE2ED8D10223EB7000237F
:1047C800E3702B7BA67043F00103CAE77F48E670CD
:1047D80031462F7103F096FE2B7BDA0703D527713C
:1047E8006771052300E00323EB70BFE710F0FE0FAD
:1047F800267101D00123F7E77448314603F082FEA1
:104808000423F1E771486671314603F07BFEE8E75F
:104818006E48A671314603F075FE0623E4E76B483F
:10482800E671314603F06EFE0723DDE7674826721E
:10483800314603F067FE0823D6E700236348A372D6
:104848003146E372667203F05DFE2B7BDB0704D50D
:10485800E378002B3DD00B23C6E70923C4E7A27AEF
:10486800637A43EA0223E27A000243EA024380B20F
:1048780018436372C0F30723000CE07231465348B3
:10488800A37203F03FFE0A23AEE7A27A637A43EAF3
:104898000223E27A000443EA024300F47F0018434B
:1048A800000C6372E072C3F307234848A3723146D1
:1048B80003F028FECCE72B7944485A1C23443146A0
:1048C8001E732A7103F01EFE2A79E3789A427FF458
:1048D8004DAF0C2388E7A37A617A3D4F41EA032163
:1048E800E37AD62041EA03414FF00C0C00231A1852
:1048F800013252080CFB02FE57F80EE0714527D230
:10490800501E9842F3D80C225343FA18FB582F48EC
:1049180099420BBF174600273979394603F0F2FD53
:10492800238884F81461DBB29E4214BF0E230D2342
:10493800EB70002F3FF41AAF2B79BA799342BFF48A
:1049480015AF0C30D21A0021184405F082FB0DE790
:104958001346D8D9D5E70E2B16D02388B6EB132FDC
:1049680014BF0223012322792B70D70784F815611D
:104978000CD50F22EA70022B4FF00D026A733FF438
:10498800F5AE00232B70F1E60223ECE72B692BB17F
:104998001A6B62B92B78022B40F0188101230B495E
:1049A800EB7040F2231231A805F045FBDEE6A17A50
:1049B800637A054843EA0123E17A43EA01419047D3
:1049C8000028EBD1E6E700BF481500204818002072
:1049D80098A6000867E6096A6F7BE31B013FFFB2F0
:1049E80083F823616F73002F7FF4C0AED5F8108071
:1049F800B8F1000F00F0C6807B4A7C4B7C497D48AB
:104A0800D5F81490CDF864A0CDE91A237A4BCDE9F6
:104A18001C137A4BCDE91E0303F17453A3F523034A
:104A2800A3F69243202208F1100117A82093CDE99C
:104A38001777FFF78FFDE27871490A3217A8FFF759
:104A480089FD7049022217A8FFF784FD6E490722E5
:104A580017A8FFF77FFD179B4FEAD30B3946802332
:104A68004722CBF1770B0DF111000BF03F0B8DF8BE
:104A7800103005F0EEFA179A04AB5B44110A1A726B
:104A8800D971110C120E5A71189A9971110A1A716A
:104A9800D970110C120E99705A7004A90BF1090201
:104AA80017A8FFF757FD9DF867308DF800309DF87F
:104AB80066308DF801309DF865308DF802309DF82C
:104AC80064308DF803309DF86B308DF804304F4911
:104AD8009DF86A308DF805300622684605F09BFA85
:104AE8000746002864D100220023CDE90223484963
:104AF80094F816B1062202A805F09DFAB9F1000F44
:104B080056D0B9F8003094F807C0217A4A46B8B2AE
:104B180083420BD9D078604505D11079884202D1FB
:104B28009078584530D001370932F0E72CD10F2B57
:104B38003ED8DDE902023749401842F1000ED8E9B3
:104B4800021288427EEB020232D307EBC7024A44C4
:104B5800013382F803C0217A117182F802B0A9F8F2
:104B6800003007EBC707781D29490622484405F09D
:104B780062FADDE90203D8E9021281429A4101D2C0
:104B8800C8E90203012322E007EBC7010023002242
:104B98000531CDE904234944062204A805F04BFA5F
:104BA800DDE90213DDE90402884272EB0303D8D37E
:104BB8002B691A6B52B1A17A637A174843EA012329
:104BC800E17A43EA014190470028DBD103232B70A7
:104BD800E4E6032A3FF4E1AD002A3FF49AAD31A898
:104BE80003F09EFC93E500BF85AE67BB72F36E3C95
:104BF8003AF54FA58C68059B7F520E51ABD9831FA0
:104C08004A1800205C1900205E1900206519002050
:104C18005F190020808D5B00481500202DE9F043C6
:104C2800A9B001238DF87C3002238DF89030314BE8
:104C38002593314B2693314B27934FF0000800F012
:104C4800BFFE4FF0000900246FF00803CDE90334DC
:104C58002B492C4B2C4800944FF48062CDE90689EF
:104C6800CDE9014402F070FC224621460AA805F06D
:104C780023F9264E264D00220023304602F0DCFCA4
:104C8800044668B1007919AB00EB80001422214674
:104C980003EB800005F0CFF9204605F049F9EAE773
:104CA80023A91EA8FCF7F0F923A91EA810EE107A74
:104CB800FCF7E2F8384610EE104AFBF7C5FB02464F
:104CC8000B462046CDE90823FBF7BEFBDDE90823A8
:104CD800CDE90001284603F059FC41F28832CDE9BC
:104CE800008900230AA803F09FF90AA803F0EAF94B
:104CF800C1E700BF582A5642FAC21F4100002041AE
:104D0800001D00201147000808020020F4010020BF
:104D1800E6B400080B6801330B60014B1B681847A9
:104D280000000020014B1860704700BF0000002001
:104D380007B50B46002102460191034801A9FCF77B
:104D4800BFFA03B05DF804FB1D4D000830B585B00F
:104D5800CDE901010446002501A905480395FCF7A2
:104D6800AFFADDE902309842B8BF255405B030BD2E
:104D78006F850008F0B5094E016802460A27002031
:104D88000C46013123789D5D6D0701D41460F0BD98
:104D980007FB0033A3F13000F2E700BFB8BC0008FE
:104DA8002DE9F84F15469A46D378224A13F802B0EF
:104DB8006F2B80460F460BF0030B29D024D8582BB5
:104DC80014BF0A261026DDF82890324600234046F4
:104DD8003946FBF7F3FD092AD4B21ED83034B04562
:104DE800E4B277F1000309F8014D01D3D14511D898
:104DF8002B789B0605D5082E15D1AB7843F0080310
:104E0800AB704846BDE8F88F03F0F703702BD7E77F
:104E18000826D8E780460F46D7E7BBF1010F0CBF3D
:104E280037345734DBE7102EEBD1AB7843F010035F
:104E3800E6E700BFB8BC00084FF01002EFF311839B
:104E480082F31188BFF36F8F83F31188BFF36F8FDD
:104E5800024B034A1A600020704700BF540000202C
:104E68000024F40030B51049104889B0002205F03C
:104E780023F80F4D0F4900220023CDE90623002413
:104E88000E23CDE90334CDE901440B4B00944FF4D4
:104E98004072284602F058FB0849284604F027FECD
:104EA800204609B030BD00BFC94E0008C802002026
:104EB8000003002080210020995200081DB5000839
:104EC800014802F0EBBB00BFE4010020F0B5054645
:104ED8000F4E002003460246012715F8014B0CB17E
:104EE8008B4200D3F0BD252C02D182F00102F4E7F9
:104EF800002AF2D014F806C01CF0030FEDD0732C72
:104F080004BF07FA03F2104301330022E5E700BFAC
:104F1800B8BC000810B50B4B00221A700A4B0B4A9C
:104F28001A604FF47A7000F0C7FC00F075FA084870
:104F380003F04CFEBDE8104006490748202328220C
:104F480004F08ABDD51C002004000020138C000842
:104F5800B415002080330020BC15002010B54FF098
:104F68001003EFF3118483F31188BFF36F8F0448A4
:104F780003F03CFE84F31188BFF36F8F10BD00BFB0
:104F8800B4150020064BBFF35B8F53E8002F0132A6
:104F980043E800210029F8D1BFF35B8F704700BFB9
:104FA800AC1500200020064BBFF35B8F024653E888
:104FB800000F43E800210029F9D1BFF35B8F704748
:104FC800AC150020F8B5FFF7EDFF0A4C0A4D2D1B74
:104FD80007462D110026AE4200DBF8BD63685B79F9
:104FE8002BB123681B6913B139462046984701360F
:104FF8001034F0E718A4000828A40008044A054B58
:105008009B1AB1EBD30F34BF52F831000020704720
:10501800F0A3000818A40008094A4368801A10B5CC
:105028000011084C19600130012218715A71237857
:1050380013B9054802F032FB0123237010BD00BFED
:1050480018A40008D41C0020E401002070B5124BFD
:10505800BFF35B8F53E8005F6A1C43E80021002917
:10506800F8D1BFF35B8F2DB90C4C0D4E361B3611A2
:10507800B54200DB70BD237B53B123689B690BB13C
:10508800204698476368042219682046FFF7C4FF42
:1050980001351034ECE700BFB015002018A4000853
:1050A80028A40008174B984273B5044602D3164B40
:1050B800984221D315480022002301A902F0E4F9FF
:1050C8000546E0B90122019BBFF35B8F53E8001F3F
:1050D80043E800200028F9D1BFF35B8F019E331D00
:1050E8001F221846214604F0BCFF7E22034686F89C
:1050F800232086F824501C46204602B070BD044B7D
:10510800F9E700BFB0A00008B8BD0008BC15002032
:1051180025B5000850B1064B984206D303F5A063A5
:1051280098422CBF0020012070470020704700BF24
:10513800803300202DE9F04F474B1B7885B004469B
:1051480003B900B3FFF70AFF054678B1BFF35B8FD9
:10515800424B53E8002F013A43E800210029F8D1D7
:10516800BFF35B8F9CB1284603F047FE2CB93C4B3C
:105178001B68002B01DDFFF725FF3A4803F034FDDB
:10518800041E18BF0124204605B0BDE8F08F364B39
:105198001B78E3B92B7ADB0719D403F041FE0746E5
:1051A800284603F008FE01463846FFF78FFEDFF871
:1051B800D8802E4BDFF8D4B0A3EB0803DB080393A9
:1051C8002B4BA3EB080306464FEAD30A36B9294E00
:1051D800294FBF1B3F114FF000083AE0B6FA86F19D
:1051E800C1F11F094946284603F0E8FD234B9842C0
:1051F800014602D3224A90421AD30846FFF78AFF93
:105208000246A8B91F4B994212D06B890399C3F380
:1052180089138B4238BF58F833204FEA8A1343F07A
:105228000103ADF8003049463B46584603F036FDC9
:10523800012303FA09F126EA0106C7E773685B79D7
:1052480023B1336829465B683046984708F101085E
:105258001036B845F2DB86E7D41C0020A8150020DC
:10526800AC150020B4150020D51C002018A4000897
:10527800F0A3000818A4000828A40008B0A000089B
:10528800B8BD000825B50008F0A300083FB5000820
:1052980010B5FFF7DBFE02F0E7FC0C4B186030B1ED
:1052A8000B4B1B68092B02DD0A4802F0F7F9094C81
:1052B8000020FFF73FFF0028FAD14FF0FF324FF0F0
:1052C800FF33204602F00AFAF2E700BFDC1500209F
:1052D800A8150020E4010020294B37B51B6841813F
:1052E80004469847E0604FF01003EFF3118583F30D
:1052F8001188BFF36F8F2348214603F06BFC85F3B9
:105308001188BFF36F8FBFF35B8F1F4B53E8002FDC
:10531800013243E800210029F8D1BFF35B8F1B4A13
:10532800127882B14FF01003EFF3118483F31188E0
:10533800BFF36F8F0020FFF7FDFE84F31188BFF3E2
:105348006F8F03B030BD124A1B681268002AF8D06C
:10535800012B0AD100220023CDE900230D4842F297
:105368001072002302F060FEEBE70A2BE9D109482E
:1053780004F0AEFD084803B0BDE8304002F08EB935
:1053880004000020B4150020A8150020D51C00201A
:10539800DC150020C8020020E4010020F8B50E4FFB
:1053A8003D7875B90D4C0E4EFFF750FE361B361181
:1053B800B54207DB0020FFF7BDFE0028FAD1012324
:1053C8003B70F8BD63685B791BB1236820465B6955
:1053D800984701351034EBE7D51C002018A40008C5
:1053E80028A4000807B504380190BFF35B8F50E884
:1053F800003F5A1E40E800210029F8D1BFF35B8F17
:10540800012B03D1034801A904F042FB03B05DF866
:1054180004FB00BFBC1500202023024902481A469D
:1054280004F01ABB80380020E015002037B50023AF
:10543800094D01930120FFF77DFE0446FFF7A2FD09
:105448000022002301A9284602F01EF808B1002C0A
:10545800F0D1019803B030BDE015002007B5002356
:10546800019307480022002301A902F00DF810B1AA
:10547800FFF7DCFF0190019803B05DF804FB00BF63
:10548800E0150020F0B5037A85B0DC0701901ED442
:10549800457A2D091BD0002426460198314603F091
:1054A8008DFC0746FFF736FE70B134B9019B2946DB
:1054B8001869FFF70BFD044648B124FA06F3D9072B
:1054C80002D53846FFF78EFF0136AE42E5D3019B81
:1054D8001A7A920704D55B69084C0393039B2BB98E
:1054E800064801A904F0D4FA05B0F0BD1D6803A967
:1054F800204604F0CDFA0395F0E700BFE015002040
:105508000EB403B503AB014653F8042B04480193CA
:10551800FBF7D6FE02B05DF804EB03B0704700BF9E
:10552800DD9100082DE9F0471D46089B1746DA066D
:1055380004460E4605D499064CBF2B492B49FFF764
:10554800DFFFDFF8B0904FF00008A8452DDBDFF84B
:10555800A880DFF8A890DFF89CA00025BD4232D2D1
:10556800725D49462046FFF7CBFF0135102D23D148
:105578001F49DFF88080DFF88890DFF888A0204690
:10558800FFF7BEFF0025AF4229D9725D12F8093036
:1055980013F0970F08BF2E2251462046FFF7B0FFA1
:1055A8000135102D14D1BDE8F08749462046FFF794
:1055B800A7FF08F10108C8E76A07CFD1514620467E
:1055C800FFF79EFFCAE741462046FFF799FFCCE761
:1055D8006B07D8D141462046FFF792FFD3E74146F3
:1055E8002046FFF78DFFDBE783B5000882B500088A
:1055F8008FB500088DB500088BB5000885B5000883
:10560800B8BC000891B500082DE9F04F87B011F03B
:1056180002069DF84080BDF948900592074601F0C2
:10562800010A01F0080507D011F0440F39D13449B7
:105638001A46FFF765FF0646BAF1000F0AD0314B4C
:10564800314953F82820314B3846002A08BF1A46FA
:10565800FFF756FF3DB12E4B2E4953F82820384608
:10566800FFF74EFF0546B9F1000F16DB059B002B2F
:1056780043D0012303FA08F8274B284C18F0100FE1
:1056880018BF1C4649469DF84400FFF7B7FC214661
:1056980002463846FFF734FF0544A81907B0BDE8AD
:1056A800F08F1F4A116831B31E4A4FF461661468BF
:1056B800B3FBF4F34FF47A7BB3FBF1F4B4FBF6F2EB
:1056C80006FB124601FB14340BFB04F44FF03C0CB0
:1056D800B4FBF1FEB6FBFCF301FB1E440CFB1366A6
:1056E8000BFB04F40096B4FBF1F1CDE901E10E499E
:1056F800FFF706FF9FE708469DE7084CC2E700BF93
:10570800A2B50008ACB00008C7B5000894B50008F9
:10571800C0B00008CAB500089EB5000899B50008D1
:105728000016002004160020ABB5000838B50C465A
:10573800E107054603D5084A0849FFF7E1FEE206F6
:1057480008D4A30628464CBF05490649BDE8384099
:10575800FFF7D6BE38BD00BF94B50008C7B500082E
:1057680083B5000882B500082DE9F0478B7A13F05D
:1057780007088AB005460E46174622D00A7A498994
:10578800C3F3C203C1F38911D243CDE90083029167
:10579800F36802F001023946FFF736FF8146347A92
:1057A800E44314F001040ED02946304603F0A8FB68
:1057B800B8F1000F2BD0424639462846FFF7B6FF0E
:1057C80025E0C146EBE7B8F1000F26D12746EB6884
:1057D800069306AA3B46A968304603F07DFB069A65
:1057E8006B681A603AB1AB68134413F8014CA4F122
:1057F8000A035C425C41284603F0DFFC069B1F4419
:10580800002BE4D11CB114492846FFF779FE28463D
:105818000AB0BDE8F04703F0D0BC304603F000FB07
:105828000E4902462846FFF76BFE4FF0100A05AAFC
:10583800234606A93046CDF814A003F04DFB059A7F
:10584800002AB8D04B46009706A92846FFF76AFEFB
:10585800059B1C44EBE700BFD0B50008C7B500089E
:1058680073B542F20F738B4228BF0B4605680F4A87
:1058780004460521684602F096FE63680C495B6899
:1058880006460B22284603F02EFB6368324669461B
:1058980028465B6803F027FB636806495B681B22A0
:1058A800284603F020FB02B070BD00BFE6BB00082D
:1058B8000EB60008F2B50008084A10B50123084CD6
:1058C80013600021A04204D801B11360054B186091
:1058D80010BD40085B000121F4E700BF041600205A
:1058E80040420F0000160020F8B5074F0D46044649
:1058F8004618B44201D12846F8BD386814F8011B8F
:1059080083685B689847F4E71C160020014803F099
:1059180054BC00BFF0B000080148FFF7A1BF00BFAA
:10592800F0B0000808B5034801F026FC024B1860E7
:1059380008BD00BF1AB600081C16002010B508469E
:105948000C4603F02BFA054821460F22FFF70CFFFF
:105958002046BDE8104003F050BA00BFF0B0000880
:10596800024610B5084699B100244FF0FF33C2E94A
:105978000F4313628B681160C2E90544C2E90D4404
:10598800D46143B19B6C33B104499847204610BD9C
:105998006FF01200FBE71846F9E700BF9D92000878
:1059A80007B501220DF10701044803F0CBFC0028DC
:1059B800A8BF9DF8070003B05DF804FB201600207F
:1059C80038B50E4801F0D8FB014605460C48FFF7EC
:1059D800C7FF044660B9AB689B6C5BB109490848CE
:1059E800102203F03FFD08490548102203F021FD6D
:1059F800204638BD6FF08504FAE700BF1AB60008E4
:105A080020160020E71C0020D71C002038B5044CC5
:105A1800044DAC4200D338BD54F8043B9847F8E72E
:105A2800F0A30008F0A3000838B5054C256804EB7E
:105A3800850405B938BD54F80439013D9847F8E79D
:105A4800E8A300080A4B70B5C6B21B680446304686
:105A5800984701280AD00A2C064D03D128680D2141
:105A680003F012FD2868314603F00EFD204670BD94
:105A7800080000206416002008B5064801F07CFBE9
:105A8800054B1860054801F001F80448FFF74AF98A
:105A9800002008BD1AB60008641600204D5A0008F8
:105AA8002DE9F8430D4F04460E4615464FF0010800
:105AB80002F10409B44201DBBDE8F8837A6908FA07
:105AC80004F333EA020207D17B6155F834301BB185
