:020000040800F2
:100000002012002089170008D33C0008B51700080B
:10001000B5170008B5170008B51700080000000064
:10002000000000000000000000000000ED150008C6
:10003000B51700080000000099150008A513000876
:1000400061170008611700086117000861170008B0
:1000500061170008611700086117000861170008A0
:100060006117000861170008611700086117000890
:100070006117000861170008611700086117000880
:100080006117000861170008611700086117000870
:100090006117000861170008611700086117000860
:1000A0006117000861170008611700086117000850
:1000B0006117000861170008611700086117000840
:1000C0006117000861170008611700086117000830
:1000D0006117000861170008611700086117000820
:1000E0006117000861170008611700086117000810
:1000F0006117000861170008611700086117000800
:1001000061170008611700086117000861170008EF
:1001100061170008611700086117000861170008DF
:1001200061170008611700086117000861170008CF
:1001300061170008611700086117000861170008BF
:1001400061170008611700086117000861170008AF
:10015000611700086117000861170008611700089F
:10016000611700086117000861170008611700088F
:10017000611700086117000861170008611700087F
:10018000611700086117000861170008611700086F
:10019000611700086117000861170008611700085F
:1001A000611700086117000861170008611700084F
:1001B000611700086117000861170008611700083F
:0401C00061170008BB
:1001C40053B94AB9002908BF00281CBF4FF0FF31BA
:1001D4004FF0FF3000F078B9ADF1080C6DE904CEB2
:1001E40000F006F8DDF804E0DDE9022304B070470E
:1001F4002DE9F047089D0E4604468E46002B4CD14F
:100204008A42944667D9B2FA82F252B101FA02F3F1
:10021400C2F1200120FA01F10CFA02FC41EA030EBA
:1002240094404FEA1C48210CBEFBF8F61FFA8CF7E9
:1002340008FB16E341EA034306FB07F199420AD996
:100244001CEB030306F1FF3080F01E81994240F25B
:100254001B81023E63445B1AA4B2B3FBF8F008FBB3
:10026400103344EA034400FB07F7A7420AD91CEB06
:10027400040400F1FF3380F00981A74240F20681B3
:1002840064440238E41B40EA064000211DB1D44016
:100294000023C5E90043BDE8F0878B4208D9002D4F
:1002A40000F0EF800021C5E900060846BDE8F087AC
:1002B400B3FA83F1002949D1B34202D3824200F256
:1002C400FF80841A66EB030301209E46002DE2D0D2
:1002D400C5E9004EDFE702B9FFDEB2FA82F2002A76
:1002E40040F08E80A1EB0C064FEA1C471FFA8CF3FA
:1002F4000121B6FBF7FE07FB1E60260C46EA00460A
:1003040003FB0EF0B04208D91CEB06060EF1FF38D1
:1003140002D2B04200F2D080C646361AA4B2B6FB6E
:10032400F7F007FB106644EA064400FB03F3A3421C
:1003340008D91CEB040400F1FF3602D2A34200F2F8
:10034400B8803046E41A40EA0E409FE7C1F1200726
:1003540022FA07F48B40234306FA01FC26FA07F439
:1003640020FA07F646EA0C064FEA134900FA01F8A8
:10037400B4FBF9FE300C1FFA83FC09FB1E4440EA6F
:1003840004440EFB0CF0A04202FA01F20AD91C1933
:100394000EF1FF3A80F08B80A04240F28880AEF1EB
:1003A400020E1C44241AB6B2B4FBF9F009FB104443
:1003B40046EA044400FB0CFCA44507D91C1900F1CF
:1003C400FF3670D2A4456ED902381C4440EA0E4070
:1003D400A0FB02E6A4EB0C04B442F446B14659D3A4
:1003E40056D0002D6ED0B8EB0C0364EB0904CB405F
:1003F40004FA07F71F43CC40C5E9007400214AE71B
:10040400C2F1200024FA00F10CFA02FC06FA02F30D
:1004140026FA00F04FEA1C4741EA0306B0FBF7F165
:100424001FFA8CF307FB110E300C40EA0E4001FB5F
:1004340003FE864504FA02F408D91CEB000001F11E
:10044400FF3832D2864530D902396044A0EB0E0021
:10045400B6B2B0FBF7FE07FB1E0046EA00460EFBF1
:1004640003F0B04209D91CEB06060EF1FF3818D28E
:10047400B04216D9AEF1020E6644361A4EEA014174
:1004840037E72946284606E70646E4E61846F9E62D
:10049400F045A6D2BEEB020C66EB03030138994685
:1004A4009FE7C646E9E7304690E74146CEE7D646A1
:1004B40078E76444023845E7AEF1020E66442CE75F
:1004C400084603E72946E6E6704700BF70B50022F8
:1004D40090B0114602A804F064F80D4E0D4D0E4C78
:1004E400304603F056F82946204603F08CF80022E3
:1004F4000023CDE9002302A84DF2D862002302F0C4
:10050400ADFF02A802F0FAFF044802F075FBE7E72A
:10051400E0030020464C0008584C0008F803002073
:10052400074B10B5014603600446064803F06BF818
:100534004FF0FF320021201D03F045FF204610BD7F
:10054400304A00086A4C0008F0B5A5B000F0F2FC8F
:100554004C4802F013F9002608AD4FF48373C5E943
:10056400016604460896ADF82830474802F006F9BB
:10057400464A0D954FF480732025CDE90B2308904E
:100584000EAB324600950BA9204603F01DF80E99D8
:100594003F4803F038F80BA900950EAB2046012222
:1005A40003F012F8DDE90E233A4803F02CF80EAB01
:1005B400009503220BA9204603F006F80E9936484D
:1005C40003F021F80EAB042200950BA9204602F09B
:1005D400FBFF0E9D3148294603F015F8A9054CBFD1
:1005E4002F48304803F00FF8EB044CBF2E482F4837
:1005F40003F009F8202300930BA90EAB2046062232
:1006040002F0E2FFDDF839209DF838102848130E77
:100614001202521843F10003002402F0F4FF0026F2
:1006240000276FF00803CDE90243CDE90044214BD4
:10063400214904944FF4FA62CDE906671F48204D1E
:1006440002F0A8F92246214616A803F0AAFF1D4C81
:100654002946204602F0D7FF4DF2D862002316A89F
:10066400CDE9006702F0FAFE2946204602F0CBFFEE
:1006740016A802F043FF144802F0BEFA134802F031
:1006840088FFE5E77F4C0008854C000880EE3600C3
:100694008B4C0008A34C0008BC4C0008D44C000848
:1006A400E34C0008F54C0008084D00081A4D0008FA
:1006B4002D4D0008D1040008200600205802002017
:1006C4003C4D0008584C0008E4030020F4030020CB
:1006D40070B50B4C0B4E0C4D2046FFF721FF204606
:1006E4000A4C3246294603F0F9FA2046FFF718FF70
:1006F400324629462046BDE8704003F0EFBA00BFF9
:10070400F40300204C04002095350008E003002089
:100714000B6801330B60014B1B681847A0000020D5
:10072400014B1860704700BFA000002007B50B46BE
:10073400002102460191034801A900F005F803B025
:100744005DF804FB150700082DE9F04F91B08B46C6
:10075400029092461C4600259AF8000008B92846E3
:100764005DE325280AF1010707D0029B5946984703
:100774000028C0F25483013512E2182200210AA88D
:1007840003F0F8FA9AF80130252B78D000221046AD
:10079400964694461646394617F8013B2B2B00F033
:1007A4009D8000F29480202B00F09B80232B00F08E
:1007B4009B802EB19DF8306046F004068DF83060C1
:1007C400BCF1000F05D09DF8306046F008068DF8A6
:1007D4003060BEF1000F05D09DF8306046F0100681
:1007E4008DF8306028B19DF8300040F020008DF87D
:1007F40030002AB19DF8302042F040028DF83020BC
:100804009DF8302002F04400442803D16FF386128F
:100814008DF830209DF830202A2B42F080028DF88C
:1008240030207BD19DF8312042F001024B1C8DF821
:1008340031201A782E2A9DF831200CBF0121002185
:1008440061F341028DF8312074D15A782A2A6AD092
:10085400013300210A26184610F8012BA2F13007B3
:10086400092F40F28E809DF830200E91C2F3400093
:1008740040EAD17161F341028DF830205AE00AF167
:1008840002078DF833309DF83130D90740F14981A2
:1008940054F8049BB9F1000F07DA9DF8302042F0B8
:1008A40004028DF83020C9F100095A0740F1428151
:1008B40054F8048BB8F1000F80F241819DF8313077
:1008C4006FF341038DF831304FF0FF3837E12D2BB2
:1008D4000CD0302B7FF46DAF01225CE74FF0010C9C
:1008E40059E74FF0010E56E7012054E7012652E77D
:1008F4000CFB0202303A33461E4616F8010BA0F1F7
:100904003007092FF4D9994293D09DF830100D92F5
:10091400D20F62F341018DF830108AE70B460022B2
:100924004FF00A0CE8E79DF8312042F004028DF8FC
:10093400312002331F4617F8012B6C2A41D025D8E9
:10094400682A2BD06A2A46D04C2A4CD01F4617F866
:10095400012B9DF831308DF83320782A00F2D980AC
:10096400572A4DD8412A03D0453A022A00F2D180B1
:100974009DF83230042262F302038DF832300123F1
:100984009EE006FB01213039034664E7742A26D031
:100994007A2ADBD19DF8313006220DE05A78682A94
:1009A4009DF8312006D1012161F3C6028DF8312072
:1009B4009F1CCCE71346022262F3C6038DF8313044
:1009C400C5E75A786C2A9DF8312001D10421EBE760
:1009D40013460322F0E79DF831300522ECE79DF839
:1009E40031300722E8E7BDF8303023F4F04323F038
:1009F400020343F4804343F00203ADF83030A6E72A
:100A0400A2F15801202900F2848001A050F821F0BD
:100A1400D90A0008170B0008170B0008170B000869
:100A2400170B0008170B0008170B0008170B00081A
:100A3400170B000875090008170B0008D90A0008ED
:100A4400990A000875090008750900087509000865
:100A5400170B0008990A0008170B0008170B000869
:100A6400170B0008170B0008E10A0008D90A000850
:100A7400FD0A0008170B0008170B0008FD0A000800
:100A8400170B0008D90A0008170B0008170B0008F9
:100A9400D90A00089DF83210012003F0780360F3AE
:100AA4000201402B8DF8321002BF9DF8301041F046
:100AB40001018DF83010632A31D1003B18BF0123A6
:100AC4009DF83020C2F340010B4363F341028DF8DB
:100AD4003020D8E69DF832100220DEE79DF832205F
:100AE40003F07803A3F14000032161F302024342BF
:100AF4008DF832204341E3E79DF83220032113F0BF
:100B0400780F61F302028DF8322014BF0123002311
:100B1400D6E79DF8303043F001038DF830300023E0
:100B2400CEE79DF93020002AB4BFDDF834904FF0B1
:100B3400FF39BAE69B077FF5C7AEDDF838809DF82C
:100B440031100023CDE90D339DF8323003F0070353
:100B5400012BC1F3C30138D1CB1E042B22D8DFE80B
:100B640003F003090921210054F8043BDA17CDE905
:100B74000A3206E0073424F00704F4E80223CDE93E
:100B84000A239DF8303013F0030654D002983B46F4
:100B94005246594602F02CFF0028C0F24081054419
:100BA400BA46D9E554F8043B01294FEAE372CDE98A
:100BB4000A3205D19DF828300A9300230B93E0E70D
:100BC4000229DED1BDF92830D0E7022B23D1CB1E78
:100BD400042B13D8DFE803F0030A0A121200226878
:100BE4000A920023201D0B930446CAE7E01D20F05F
:100BF4000700F0E80223CDE90A23F5E754F8043BA3
:100C04000A9301294FF000030B93D3D00229B8D1E2
:100C1400BDF82830D0E7042B07D1073424F00704AB
:100C2400F4E80223CDE90A23ABE7032B04BF54F80D
:100C3400043B0A93A5E79DF833007828B0D86228CE
:100C440022D825283FF491AD5828A9D10DF12603C7
:100C54000093DDE90A0104AB0CAA02F083FE82468C
:100C6400B8F1000F0DF126000CDB9DF83020A0EB4D
:100C74000A036FF3861298458DF8302002D9A8EB49
:100C840003030D9380463DE06338152888D801A2FC
:100C940052F820F0190D00087D0D0008A50B00087E
:100CA400A50B0008A50B0008A50B00087D0D000886
:100CB400A50B0008A50B0008A50B0008A50B000850
:100CC400D70D0008A50D0008A90D0008A50B000804
:100CD400A50B0008F10C0008A50B0008A50D0008E1
:100CE400A50B0008A50B0008A50D0008B8F1000F1E
:100CF400DDF828A00ADB4146504602F0FBFF0AEB70
:100D040000080026BAF1000F0CD149E7504602F062
:100D1400EAFFF4E70A9B8DF8103000260DF1100A63
:100D24000DF11108A8EB0A0306B101339DF8322036
:100D3400D00668D5023352060D9948BF0E9A0B446B
:100D440048BF9B18B9F1000F76DD9DF83020A9EB60
:100D54000309C2F38003039353076DD4500661D58E
:100D640046B1029B594630469847002857DB039BFF
:100D740001351E46302356E01E070FD413F010062B
:100D840018BF2026DDE90A23002BBFF65FAF5242CD
:100D940063EB4303CDE90A232D2657E72B26F1E71E
:100DA400002653E70A9840B30DF1260300930CAADA
:100DB40004AB002102F0D6FDBDF8323003F0EF039E
:100DC40043F4F04343F010038246ADF8323000267A
:100DD40046E70A9B07293FF6E3AEDFE801F00C047F
:100DE400060C08080C0C1D70DAE61D80D8E6EA171C
:100DF400C3E90052D4E61D60D2E6DFF8C8A0064677
:100E04000AF105088EE7110748BF013393E7184636
:100E140003935946029B98470028039B04DA11B0B8
:100E2400BDE8F08F20234D444A46002AA5EB090172
:100E340009F1FF39EBDC0D4636B1029B59463046C9
:100E440098470028EBDB01359DF83230D90601D4F0
:100E54001A0706D5029B5946302098470028DEDB46
:100E640001359DF83230DB0607D59DF83300029B2F
:100E7400594698470028D2DB01350D9E2E44731B3A
:100E8400002B16DC029843465246594602F0B0FD48
:100E94000028C4DB0544A944A9EB0503002B7FF714
:100EA4007FAE029B5946202098470028B7DB0135C6
:100EB400F2E7029B5946302098470028AFDB013502
:100EC400DDE700BF414D00084FF01002EFF311833E
:100ED40082F31188BFF36F8F83F31188BFF36F8F91
:100EE400024B034A1A600020704700BF2C01002007
:100EF4000024F400024610B5084699B100244FF0CE
:100F0400FF33C2E90F4313628B681160C2E90544E1
:100F1400C2E90D44D46143B19B6C33B10449984791
:100F2400204610BD6FF01200FBE71846F9E700BF3A
:100F3400B13A000838B50E4801F020FC01460546D8
:100F44000C48FFF7D7FF044660B9AB689B6C5BB1F4
:100F540009490848102202F01AFE084905481022DF
:100F640002F0FCFD204638BD6FF08504FAE700BFAF
:100F7400474D00080804002004060020F405002062
:100F840038B5044C044DAC4200D338BD54F8043B8E
:100F94009847F8E7704900087449000838B5054CCB
:100FA400256804EB850405B938BD54F80439013DBE
:100FB4009847F8E7684900080A4B70B5C6B21B6841
:100FC40004463046984701280AD00A2C064D03D11E
:100FD40028680D2102F0F1FD2868314602F0EDFD8C
:100FE400204670BDA40000205004002010B507481E
:100FF400074C01F0C3FB074B1860204600F0DEFDF0
:101004002046FFF78DFB002010BD00BF474D0008B0
:10101400BD0F0008500400202DE9F8430D4F04468D
:101024000E4615464FF0010802F10409B44201DBF3
:10103400BDE8F8837A6908FA04F333EA020207D1B7
:101044007B6155F834301BB159F834102046984769
:101054000134EBE7003C0140044A0123116883405A
:101064000B431360024B185600F0CEBA003C01400B
:101074006C4D00081F2807DC044901220B6802FAA2
:1010840000F023EA00000860704700BF003C014004
:1010940003290FD8DFE801F0020F1723154B0122B3
:1010A400996802FA00F021EA00019960DA6822EAFC
:1010B4000000D8607047012303FA00F00D4B9A68D2
:1010C40002439A60F2E7012303FA00F0094BDA685D
:1010D4000243DA609A6822EA0000986070470123AC
:1010E40003FA00F0034B9A6802439A60DA681043EB
:1010F400DFE700BF003C0140074B10B5044653F83E
:10110400300028B943F8341003EBC4035A6010BD0F
:101114006FF00F00FBE700BF58040020034B0022D0
:1011240043F8302003EBC0035A6070475804002092
:101134000B6886B0062B39D8DFE803F00410242EA0
:1011440038381A001B4A4B68116B19431163126B30
:1011540013400193019B002006B07047154A4B6869
:10116400516B19435163526B13400293029BF2E794
:10117400104A4B68916B19439163926B134003932C
:10118400039BE8E70B4A4B68116C19431164126C1A
:1011940013400493049BDEE7064A4B68516C1943E1
:1011A4005164526C13400593059BD4E76FF085009E
:1011B400D2E700BF00380240084B09681B680629C3
:1011C40009D8DFE801F005050405080805005B08F7
:1011D4001360002070476FF0850070472C010020D9
:1011E40030B587B000234FF48052CDE9003202932A
:1011F40000F070F803A802F056FD184B1A68910726
:1012040006D41A6842F001021A601A689207FCD5E3
:10121400124CA36823F00303A360A36823F0F00334
:10122400A360A56815F00C05FBD123680C4823F0D6
:1012340080732360636823F0706343F0006363602A
:1012440003AA6B46012101F03FFA236823F001034E
:10125400236002F031FD284607B030BD003802405B
:1012640000127A000B6882B0062B2DD8DFE803F059
:10127400040D1E252C2C1400154A4968136B23EA0F
:1012840001031363002002B07047114A4968536B8D
:1012940023EA01035363F5E70D4A4B68916B194345
:1012A4009163926B13400193019BEBE7084A4968F1
:1012B400136C23EA01031364E4E7054A4968536C99
:1012C40023EA01035364DDE76FF08500DBE700BF29
:1012D40000380240064B1A6C42F080521A641B6CB0
:1012E40082B003F080530193019B02B0704700BFAA
:1012F400003802402DE9F84F0F4611B90020BDE82F
:10130400F88F0026DFF85890041DB34654F8045CA7
:1013140015F0F00F1ED1226842F0200BC5F3033301
:10132400012159F823804046C5F3072A00F0E0FC68
:101334000028E4D1EBB2B8F1000F05D05A460AF008
:101344000F01404602F09AFD0136B74204F1080449
:10135400DCD1D3E7EBB2102B08BF4FF0300BDDE745
:10136400444A00084FF0E02310B59A691969986956
:10137400094B11F4803F094901D1824206D21A680F
:101384000C6822441A604FF0E02212691B680A6854
:101394001344181A10BD00BF2405002020050020A6
:1013A40008B5FFF7DFFF0C4B0C4A186811680844B6
:1013B400106000221A600A4A13684FF41651C01ACA
:1013C400B0FBF1F001FB0033136001F0A9FFBDE8AD
:1013D400084000F0D9BA00BF240500201C050020F5
:1013E40018050020094B102283F82320084B42F2F1
:1013F4007F521A60074B002018604FF0E0235A61B7
:1014040098611A6942F007021A61704700ED00E022
:101414002005002024050020F8B5324D59B1431CA5
:1014240009D14FF0E022136923F0010313614FF057
:101434007F432B60F8BD40F2D263B0F1FF3F08BF99
:101444001846441E002C2F6832DD9C42A8BF1C465F
:101454004FF01003EFF3118683F31188BFF36F8FFE
:10146400FFF780FF20494FF0E0230022D3F818C093
:101474000B6818441D4B08601A601D4B1B68C21A88
:1014840018D54FF480632B604FF0E0222C689369E9
:101494009C4538BFBC44013CACEB030C5461604434
:1014A40000249461086086F31188BFF36F8FC1E74D
:1014B4000024CDE74FF4165E0EFB042404F5155406
:1014C4001B1A3F34B4FBFEF40EFB0434B4F5806FF6
:1014D40004D9084B9C42D6D82C60D5E74FF48064DD
:1014E400FAE700BF200500201C0500202405002089
:1014F4001805002000C3FF0010B54FF01003EFF3F0
:10150400118483F31188BFF36F8FFFF72BFF074B11
:10151400074A1B6812689B1A034484F31188BFF3BB
:101524006F8F4FF41650B3FBF0F010BD1C05002074
:101534001805002010B54FF01003EFF3118483F366
:101544001188BFF36F8FFFF70DFF044B1B6818441E
:1015540084F31188BFF36F8F10BD00BF1C050020FA
:10156400094A0A49936809689967094958674B68A1
:1015740043F080534B60002383F31188BFF36F8FD4
:101584009368986F704700BFB80500203C4C000872
:1015940000ED00E012498A684FF030001044EFF388
:1015A400098C80E8F01F102080F31188BFF36F8F3F
:1015B4000C4F4FF000660A6A8A603E60506F002349
:1015C400536780F3118804B5104600F015FABDE89E
:1015D400044002F1300090E8F01F8CF30988704752
:1015E400B805002004ED00E01EF0040F0CBFEFF37B
:1015F4000880EFF30980816911F8021C0229FFD0E9
:1016040001B502F060FB01BD43B2002B08DB0122EF
:1016140000F01F0002FA00F05B09024A42F82300BE
:10162400704700BF00E100E043B2002BA8BF03F104
:10163400604301F10101B8BF064B4FEA0111ACBF91
:1016440003F5614300F00F00C9B2B4BF195483F825
:101654000013704714ED00E042F8203C009B42F870
:101664001C3C0A49019B42F8183C029B42F8143C7A
:1016740021F001014FF0807342F8043C42F8081C49
:101684000023203A02654367704700BF25360008EF
:10169400094A0346906870B113F1160F406E05D0E5
:1016A400A0F120029A4205D8834203D2814228BF86
:1016B4000020704700207047B805002008B5094B8A
:1016C40098600D46144600F097F9204685F3098882
:1016D400002163B681F31188BFF36F8F00220023CA
:1016E40001F09EFFB8050020014910220A607047EE
:1016F40010ED00E072B6404080F31188BFF36F8FA5
:10170400BFF34F8F30BF62B6BFF36F8F704700BF18
:1017140030BFFFF7FDBF00BF0E4A08B50E4B22F0E5
:101724007F029A60BFF34F8FBFF36F8FD3F8882087
:1017340022F47002C3F88820EFF3148323F0040327
:1017440083F3148801F044F801F00AFD00F02AF94B
:1017540001F066F80000000800ED00E001B5EFF3C9
:101764000580A0F110004FEAC0000449014409C9F2
:101774009847BDE801400249084700006046000858
:101784008D190008102080F3118808484FF4026175
:10179400401880F30988EFF314800221084380F392
:1017A4001488BFF36F8FFFF7B7FF0000A01300206A
:1017B400EFF30880EFF3098101B5724600F056F8A3
:1017C40001BD00BF38B5194B14469A6A9A6A9A6AE1
:1017D4000546900719D5586B9A6A120615D519B1A2
:1017E4009A6A22F080029A629A6A9A6A9A6AD1067E
:1017F4000ED49B6A9A070BD400200C4A936A43F0D8
:10180400FF0393620023237038BD6FF01500EBE7EC
:10181400064B5B681B05EFD52946FFF739FF002807
:10182400EAD080F309880220E7E700BF00ED00E07A
:101834000D4B9A6A9A6A9A6A920508D59A6B9A6AC3
:10184400120404D518B19A6A22F400429A62064B33
:101854009A6A9A6AD20558BF9A6A9A6A002042F430
:101864007F429A620870704700ED00E070B5414B0A
:101874005B688AB00E46C3F30803002585F311881C
:10188400BFF36F8F02F07F41B1F17F4F11D102F0AE
:101894000C0108290DD0110701D4064601250022A8
:1018A400033B8DF80720032B5DD8DFE803F00447E2
:1018B4004B4F2E46F3E72F4BDC6A14F0020452D14F
:1018C400DA6A520022D593F828203AB10DF10702C2
:1018D40001213046FFF776FF044617E093F82920EC
:1018E4002AB10DF107010120FFF7A2FFF4E75A8D99
:1018F40092B25AB19A6A9A6A9A6A9A6A9A6A9A6A7D
:101904009A6A6FEA02426FEA12429A629DF80730BD
:1019140093B92022314602A802F001FA099B25B3AB
:10192400C3F3080222B96FEA53236FEA43230993EE
:1019340002A9204602F0C5F90AB070BD0DF10702F4
:101944000021C6E70DF107010020CDE7094B9A6A93
:101954009A6A9A6A9A6A9A6A9A6A9A6A6FEA0242CE
:101964006FEA12429A620024D0E723F4FF7323F053
:101974000103DCE700ED00E0024A536943F0100381
:101984005361704700ED00E0044B9968186A88427F
:1019940003D003494FF080520A607047B805002015
:1019A40004ED00E0044800231021C2180133612B28
:1019B40082F80013F9D1704700E100E0064B9B6800
:1019C400834207D1EFF3058323B1044A536843F0FC
:1019D4008053536001F072BBB805002000ED00E0B5
:1019E400024B034A0348012100F06EB800000220B4
:1019F40000000020704A0008426E054B203A1A602D
:101A0400044A2021C3E901121846012100F066B8F6
:101A14002805002000000B15F0B51F4F00268E424C
:101A240001DB1046F0BD44689CB353B104F1FF3CA4
:101A340014EA0C0F18D11F2C16D905681CEA050FDF
:101A440012D1202C0568D0F808C0D2B20FD9B4F155
:101A5400004F0ED8013CB4FA84F4C4F11F046400AE
:101A6400072A4CEA040406D96FF01502D9E70824C2
:101A7400F6E73E24F4E725F01F05154345F010056D
:101A840044F00104C7F89820C7F89C500132C7F805
:101A9400A04001360C30C2E700ED00E0044B052203
:101AA400C3F89420BFF34F8FBFF36F8F704700BF0D
:101AB40000ED00E0BFF35F8F024B0022C3F89420D7
:101AC400704700BF00ED00E010B5034C01232278FD
:101AD400FFF7A2FF207010BD1406002008B5094AC4
:101AE40000231278FFF798FF10F1160F02D0064A70
:101AF400072800DD08BDC2F89800C2F8A030013004
:101B0400F6E700BF1406002000ED00E01449086861
:101B1400082810B521D8FFF7CDFF124C49680022E0
:101B2400904201F10C0105D10F4B1870FFF7B6FF7D
:101B3400002010BDC4F8982051F80C3C23F01F037A
:101B4400134343F01003C4F89C3051F8043C43F0B1
:101B54000103C4F8A0300132E2E74FF0FF30E8E7B8
:101B64007C4A000800ED00E01406002010B5064C85
:101B740080222146A01801F0A2FE04F18C0002F09C
:101B84001BFC002010BD00BF0000002070B50446FF
:101B9400094E06F18C054FF0FF324FF0FF33284613
:101BA40000F070FF214606F1800001F072FE284625
:101BB400BDE8704000F0DEBF00000020014B18605B
:101BC400704700BFBC00002070B50546074C204696
:101BD40002F0A7FB30B1A368294620461B68BDE884
:101BE400704018476FF0120070BD00BF380100202C
:101BF400F7B50C461146B1F5005F476802691E4609
:101C040023D104F0030304339A000F23934043EADF
:101C14009403DAB23349023251F82220190C02EA51
:101C2400134391FAA1F2B2FA82F2D340BA689A420B
:101C340009D12046FFF71EFA2046FFF76FFA00216C
:101C44002046FFF725FA00253EE0B1F5804F42D04B
:101C540025492046FFF750FA054600283ED1234A7D
:101C6400BF6892E803006B4683E803001846FFF759
:101C7400ABFFC0B904F0030104318B000F2199407C
:101C840041EA9401CAB2920002F1804202F59C3208
:101C94000B0C906893FAA3F3B3FA83F320EA11418F
:101CA4009F400F439760B6F5802F10D0B6F5C02F34
:101CB4000FD0B6F5003F14BF002102212046FFF7E4
:101CC400E7F92046FFF7C8F9284603B0F0BD012123
:101CD400F4E70321F2E76FF08505F5E76FF00F05F0
:101CE400F2E700BF003801405B3E0008004A0008EC
:101CF40070B544680C3421B12046BDE87040FFF74C
:101D040063BF074D284602F00CFB30B1AB68214697
:101D140028465B68BDE8704018476FF0120070BD3C
:101D24003801002070B5066945680E4C204602F063
:101D3400F8FA10B96FF0040070BDA36820461B6860
:101D44002946984704460028F4D1D5E90301AA6836
:101D5400FFF7D0FA0028EFDB304602F08BF920467B
:101D6400EAE700BF380100202DE9F04F1F46436821
:101D740004699E688DB005468846914612B9002FC5
:101D840000F04E81B8F804305B044BD44FF0FF32BE
:101D94004FF0FF3304F1080000F04EFFC4F8048054
:101DA400DFF884C26B680193BCE80F00D5F810B06B
:101DB40004AD0FC59CE80F0085E80F00DBF8003088
:101DC400984500F0A480B8F80430C3F34513082BF9
:101DD40002D0102B40F02C81019B9D68DFF84CA2AF
:101DE400504602F09EFA002800F01881DAF8083014
:101DF400DB68002B00F01281019903AA5046984732
:101E04000028C0F20B81039AD8F80010012322FAAB
:101E140003F0884240F2E3810133092BF7D16FF0DC
:101E24001507FDE02369002BB0D163689845ADD157
:101E3400B6E72A6842F002022A602A6858074CBFB3
:101E440042F0010222F001022A602A6822F444428C
:101E54002A602A68D9064CBF42F0800222F0800230
:101E64002A602A6822F400522A60D8F808202968D7
:101E740003F001005AB141F400712960696821F04E
:101E84000401696068B9296841F482710CE021F4A5
:101E94000071002800F0BA802960696821F004010B
:101EA4006960296821F482712960C3F34513082B02
:101EB4002B680CBF23F4006343F400632B606B684E
:101EC40023F010036B60CBF8008002B31068F0B10C
:101ED400117A537AD0F810E0D0F80880DEF8005078
:101EE400DA0754BF43F4B05383F4D0534FF0010CDA
:101EF40023F480520CFA01FCDB074CBF45EA0C05C5
:101F040025EA0C05D8F80030CEF800509847B9F10E
:101F1400000F00F09080D9F80030D9F80420E36273
:101F240022631A685B68E2632364002F00F08880F0
:101F34003B687A686363A2631A685B686264A3643B
:101F44003368002243F04003A2620121336020463B
:101F540002F06BF823689B8813F0010140F0B08015
:101F6400B2689007FCD5C3F34513082BE26B72D11A
:101F740012B1236C03B11178C9B23173236C83B1EC
:101F8400013B2364002B60D1236B013B2363002BB3
:101F94005FD0E36A03F10802E2629A68DB68E263F5
:101FA4002364B368D907FCD522689288C2F345122A
:101FB400082AD4E91131F2686AD10BB101B11A705F
:101FC400A36C93B1013BA364002B40F0CB80A36BC3
:101FD400013BA363002B00F0CA80636B03F108028A
:101FE40062639A68DB686264A364B36813F4B87FBD
:101FF40000F0C580B3685D0605D5F3680393039BC1
:10200400B3680393039B6FF00407C0E041F480219D
:102014002960696841F00401696034E76FF00407DE
:1020240038460DB0BDE8F08F084A0008380100209A
:102034006FF08507F4E7C4E90B99C4E90F9974E7D5
:10204400C4E90D77C4E911777AE7E36B002BA8D0D4
:102054000133E363A5E7236C0AB103B11188B181AD
:10206400002B9ED0013B23646BB9236B013B23639C
:10207400002BEED0E36A03F10802E2629A68DB689F
:10208400E2635B088CE7002A8BD00232E26388E7C4
:102094000BB101B11A80A36C002BA6D0013BA36441
:1020A400002B66D1A36B013BA363002B5FD0636B52
:1020B40003F1080262639A68DB6862645B0893E771
:1020C400B268920749D5216C002946D0C3F3451361
:1020D400082BE26B2BD113783373236C9BB1013B38
:1020E400236463B9236B013B23635BB1E36A03F1AC
:1020F4000802E2629A68DB68E263236403E0E36B4C
:102104000BB10133E363B368DF077FF56EAF636C34
:10211400002B3FF46AAFA26C002A3FF466AF22683A
:102124009288C2F34512082AF268B3D147E71388AC
:10213400B3810139216469B9236B013B2363002B0B
:10214400E0D0E36A03F10802E2629A68DB68E263C2
:102154005B08D2E70232E263D5E7736823F08003B9
:102164007360D0E7636C002B3FF43FAF01336364CB
:102174003BE7636C002B3FF438AF0233F7E7236C83
:10218400002B7FF4E7AEA76C002F7FF4E3AE0022B0
:102194001146204601F049FF336803F48273B3F516
:1021A400827F02D1B3681806FCD4B368990606D5B9
:1021B400B3680493049B336823F0400333603368AB
:1021C40023F04003336023689B8813F480437FF437
:1021D40027AF636004F1080000F00EFD20E72A68D1
:1021E4000CA922F040022A6001EB83032A6853F809
:1021F400243C22F0380213432B60B8F804309A07C9
:102204003FF517AE2A6822F0020215E643681B6800
:102214005A6942F001025A610F4A934213D0A2F55F
:102224004C4293420FD002F5806293420BD002F5E8
:102234008062934207D002F58062934203D002F594
:102244004442934203D11A6942F040021A61DA68A7
:1022540042F48072DA6070470010014043681B68E2
:102264005A6922F001025A610F4A934213D0A2F52F
:102274004C4293420FD002F5806293420BD002F598
:102284008062934207D002F58062934203D002F544
:102294004442934203D11A6922F040021A61DA6877
:1022A40022F48072DA607047001001402DE9F8438F
:1022B4004768D0F810802C4CB946064659F80C5B98
:1022C400C8F80440204602F02CF818B96FF0040056
:1022D400BDE8F883A36820461B684946984704462E
:1022E4000028F3D17368D7E907011A68FFF702F8E9
:1022F4000028EDDBEB6823F40053EB60EB6843F05C
:102304000C03EB60BB69022B23D0012B26D02346A0
:102314002046EA68034322F4B0521343EB602B696E
:1023240023F440532B613B7D2BB173681A685369C6
:1023340043F440735361D8F80010304601F081FF34
:10234400EB6843F40053EB603046BB6898470020C9
:10235400BEE74FF480534FF48060DAE74FF48053C4
:102364004FF4C060D5E700BF380100202DE9F047E5
:102374000A79436806691C68012A0D4600F08980C1
:10238400022A0CBF4FF48061002195F8059095F85E
:1023940006E0B9F1020F96BF424B4FF4005833F8F0
:1023A4001980BEF1040F77D0002A0CBF00234FF42C
:1023B4008053EF79A2F1030A012F14BF4FF0000CF0
:1023C4004FF4407CBAF1010F69D912B1BEF1040F88
:1023D40065D019F0FD0F62D0BEF1020F5FD9BEF1D6
:1023E400040F5CD0C7B1304A944213D0A2F54C42DA
:1023F40094420FD002F5806294420BD002F58062C1
:10240400944207D002F58062944203D002F544421C
:10241400944244D1012F42D1E26822F40052E26096
:10242400E26802F4C06291421FBFE76827F4C06704
:102434000F43E760226902F4405290451FBF2169AF
:1024440021F4405141EA08012161E268296802F45B
:10245400805293421FBFE26822F480521A43E26022
:10246400636903F440739C451FBF636923F440739D
:1024740043EA0C0363613368994203D001F0E1FE3F
:102484002B683360E36843F40053E3600020BDE845
:10249400F0874FF4C06178E74FF4805389E76FF019
:1024A4008500F4E7404C00080010014030B50A4CA8
:1024B40041EA82116568094A2A4011430143616077
:1024C400626822F440321A436260626822F0E04299
:1024D4001343636030BD00BF003802400080BFFF7B
:1024E400084B19681A681B6801F0007102F0005269
:1024F4000A4314BF0120002013F0006F18BF01200D
:10250400704700BF0038024000284CD0424B1B6883
:1025140003F44043B3F5404F10D103F10F6303F5C7
:102524008C5398423D4A44D83D4B984271D89042CE
:102534003DD83C4B984203D8002340E0002344E0BC
:10254400022342E0384A904209D9344A002B08BF9A
:102554000423904249D8334A904246D903E0314A91
:10256400904242D91BB1012B38BF012340E0022322
:102574003EE02C4A904203D9002B46D1022302E0CC
:102584002A4A904241D82A490A6822F00F021A4383
:102594000A600A6802F00F02934206D00A6802F049
:1025A4000F02934201D0012070470020704703239B
:1025B40005E00523904202D81A4A904202D81B4AE9
:1025C400904202D9012B38BF0123134A126802F446
:1025D4004042B2F5004F0BD102F10F6202F5A34263
:1025E4009042AFD9002B08BF0523104A9042BAD8B5
:1025F400094A126802F44042B2F5804FC3D1074A37
:102604009042B6D9002B08BF0323012B38BF012306
:10261400B9E70423CEE700BF00700040804A5D059F
:10262400000E270700879303001BB70080C3C9016E
:10263400003C02400B68214AC3F3031370B5D35C1A
:102644001F4E20FA03F43368A3420D4627D31D4BD3
:102654001A6842F080721A601A689201FCD59A686E
:10266400296822F0F0020A439A609A6822F0030271
:1026740042F002029A60134B9A6802F00C02082A94
:10268400FAD19A68696822F4E0520A439A609A6817
:10269400A96822F460420A439A60002004E02046BC
:1026A400FFF732FF0028D2D03368A34202D9204674
:1026B400FFF72AFF00B9346070BD00BFCE4D00089B
:1026C4002C01002000380240F8B505460F46144698
:1026D4001E46FFF705FF60BB21686268A368164CBD
:1026E40001F03F00B5FBF0F0C2F308054543180CB8
:1026F40001304000B5FBF0F5206880030FD420685A
:10270400012F0CBF40F4802020F48020206020683A
:1027140040F480302060084C20688003FCD54FF4DE
:102724008000FFF7C3FE31462846BDE8F840FFF7B6
:1027340081BF0120F8BD00BF003802400E4B70B5C8
:1027440053F82040013053F82060A64200D870BDF1
:10275400D4E900352846984765B1EB6830B10028C4
:10276400B8BF4042FF28A8BFFF2018705A7842F033
:1027740001025A700834E8E7284C000870B5054691
:1027840010B90024204670BD0378002BF9D00E4CFC
:102794000E4EB44208D10C4CB442F2D0204601F0A3
:1027A400C0FD50B91834F7E7204601F0BAFD10B166
:1027B4002368AB42E6D01834EBE72168284601F0E1
:1027C400A2FA0028EED1DDE73801002058020020EB
:1027D4000248034A0021121A01F0CCBA5802002020
:1027E4001C06002008B50C4B012202201A70FFF7CA
:1027F400A5FF00F0AFFEFEF7D1FBFEF7C1FB0320FF
:10280400FFF79CFF00F0F2F8FDF79EFE034A137BEE
:1028140023F00103137308BD15060020580300209C
:102824002DE98048DFF8E090A7B089F30888374D98
:10283400374E6B69DFF8DCA0374F43F40073002494
:102844006B61F02385F82230EC772C766C76AC76CD
:102854006B6A43F4E0236B62FFF78EF8FEF744FFE4
:102864004FF0FF33AB62EB62FFF750F92B4DFFF7EC
:10287400B7F840F20113ADF8243006ABAB60CDE9F4
:102884001F4401F04DFD2046FFF758FF0120FFF7DC
:1028940055FF4FF0010B00F0FFFB214B2E62214945
:1028A40005934FF480625346CDE9034BCDE90144CF
:1028B4000094304600F03CF8737B804623F0040318
:1028C4003046737301F0F3FD0F23CDE9024316493B
:1028D400164B4FF4A072CDE904B4CDE90054384648
:1028E40000F026F87B7BEF6023F004037B7305F193
:1028F4001803C5E906332C75C5F8049052464146C1
:102904003046FEF7DBFE00BFC01B002000ED00E0F8
:1029140058030020E9270008D8020020B805002049
:102924003C4D0008200E0020401200209543000872
:102934002DE9FF410E9E0673042646730D9E867391
:1029440000F158050F46D61DC0E916550C9A00250E
:1029540026F007062037C0E90655C0E919768560D8
:10296400C573C56606F1200802920B9A0192884449
:102974000A9A009242460446FEF76EFE044B6565D1
:102984009B6803B11B6F2367404604B0BDE8F08128
:10299400B8050020F0B587B000270597109F04976D
:1029A4000F9F03970E9F0297DDE912650D9F019714
:1029B4000C9F00970446FFF7BBFFB5F1FF3F08BF2C
:1029C400B6F1FF3F05D055EA060305D1204600F0D5
:1029D400FDFA204607B0F0BD034932462B4604F108
:1029E400180000F023FCF4E7D3440008F0B5224CAF
:1029F400224D87B02646AE4204F130040BD300F0DA
:102A040093F91D4C1E4F0A26AC4220D307B0BDE8F3
:102A1400F04000F00FBA54F8043C059354F8103C0D
:102A2400049354F8143C039354F8183C029354F858
:102A34001C3C019354F8203C009354E90C0154E9E4
:102A44000A23FFF775FF54F8303C5E65D2E7626AEB
:102A5400531C09D022EAE27282FB062352EA0301E4
:102A6400206803D100F0B2FA3034CDE7394618308B
:102A740000F0DCFBF8E700BF5802002058020020F9
:102A8400D34400082DE9F341044617461E464FF08F
:102A94001003EFF3118883F31188BFF36F8FC368BA
:102AA400324A6BB180689168884219D057EA0603AC
:102AB40018D188F31188BFF36F8F6FF00F000CE00B
:102AC400916891F90E1021610133E3609368A3606A
:102AD40088F31188BFF36F8F002002B0BDE8F08146
:102AE4002169F0E791F90E1090F90E309942A8BFD0
:102AF40019466FF07E029142B8BF11468B422EDD1B
:102B040001F052FC0546CDE90076194822464146BB
:102B140000F07CF90028E0D04FF01003EFF31186A9
:102B240083F31188BFF36F8F236821699C420AD015
:102B34004BB193F90E309942A8BF19466FF07E034A
:102B44009942B8BF1946A06801F02EFC00B945B1FE
:102B54000748314600F0D6F86FF00A00BDE70025BB
:102B6400D1E786F31188BFF36F8FF5E7B80500202E
:102B74001606002038B583680446002B32D01C4A60
:102B84009268934231D1DA7B013ADA73C368012B3C
:102B940005D0013BC36000F04DF9002038BD4FF073
:102BA4001003EFF3118583F31188BFF36F8F01696D
:102BB400806801F0F9FB204601F0ABFCA06058B13D
:102BC40090F90E2022610022826701F070FC09480E
:102BD400294600F097F8DEE7E06085F31188BFF33B
:102BE4006F8FD8E76FF01500D8E74FF0FF30D5E7C7
:102BF400B80500201606002038B504464FF010032F
:102C0400EFF3118583F31188BFF36F8F01F081FC1B
:102C140048B10022826701F04AFC29460548BDE814
:102C2400384000F06FB8D4E902329A4218BF013339
:102C3400A360F2E71706002013B54FF01004EFF37A
:102C4400118184F31188BFF36F8F846844B1013C10
:102C5400846081F31188BFF36F8F002002B010BD30
:102C640052EA030406D181F31188BFF36F8F6FF02A
:102C74000F00F3E7CDE900230246024800F0C6F84E
:102C8400ECE700BF1706002010B5084C23685BB1C1
:102C9400FEF732FC03462068054A0344BDE81040B1
:102CA4001361002101F063BC10BD00BFEC050020DE
:102CB400B805002010B54FF01003EFF3118483F32F
:102CC4001188BFF36F8F0C4B00221A6190424FF0B2
:102CD4000A030A4A00FB03F309DC1360084B19607A
:102CE400FFF7D2FF84F31188BFF36F8F10BD022B5F
:102CF400B8BF0223F1E700BFB8050020EC050020AF
:102D0400E805002049B9EFF3058030B9054B1A6A8C
:102D14009B689A4201D0FEF723BC81F31188BFF36C
:102D24006F8F7047B80500204FF01003EFF3118147
:102D340083F31188BFF36F8F044B9A68D37B013BF5
:102D4400D37381F31188BFF36F8F7047B8050020E8
:102D540038B502460C480D4D01F079FB044600B924
:102D6400EC68AB684AB95A7BD20606D1A26922B98B
:102D7400DA897F2A01D92B6238BD9C4201D0FFF742
:102D840083FF2C62F8E700BFDC050020B8050020B3
:102D940008B590F90D20437B002A014604DA03F0BC
:102DA4007F03437301F01BFB044B9868431A58429A
:102DB4005841BDE80840FFF7CBBF00BFB80500206D
:102DC4002DE9F041064615461C464FF01003EFF37B
:102DD400118783F31188BFF36F8F01F03EFB87F3F4
:102DE4001188BFF36F8FB4F1FF3F08BFB5F1FF3F08
:102DF40008D02A46234606F118000349BDE8F041ED
:102E040000F014BABDE8F081D344000810B5074BB4
:102E14009868074B0C4618601146DDE90223FFF75A
:102E2400CFFF2046BDE81040FEF79ABBB80500204E
:102E3400E405002010B54FF01003EFF3118483F381
:102E44001188BFF36F8F084B9A68D37B0133D37318
:102E54000020FFF77DFF84F31188BFF36F8FBDE877
:102E6400104001F0EABA00BFB805002070B590F92F
:102E74000D20437B002A014604DA03F07F034373E9
:102E840001F0ADFA4B7B154A63F07F034B73D2E933
:102E9400093402F12405AB421BD0D3B191F90E6081
:102EA40093F90E0086420FD0801B00280CDD586871
:102EB400C1E90030016059609068431A5842BDE886
:102EC40070405841FFF744BFA34202D01B68002B57
:102ED400E6D1C1E9005421609162EDE7B805002014
:102EE40038B501464FF01003EFF3118483F31188D2
:102EF400BFF36F8F154B164A98681568A84206D120
:102F0400FFF7C2FE84F31188BFF36F8F38BD00252D
:102F14001560104A1268BAB1C2897F2A14D8427B5C
:102F2400D20611D10C4A90F90E50126895420BDB6F
:102F34000A4A904208D01A698A4202DCFFF796FFD7
:102F4400DEE7521A1A61DDE70022FBE7B80500202C
:102F5400E4050020EC050020E8050020D80200204C
:102F640070B490F90D20437B002A2ADBDA0628D1BD
:102F7400826932BB144A63F07F034373D2E9093494
:102F840002F12405AB4217D0B3B190F90E6093F966
:102F94000E108E420BD0891B002908DD5A68C0E947
:102FA40000321060586070BC0020FFF7D1BEA3420D
:102FB40002D01B68002BEAD1C0E900542060906263
:102FC400F1E770BC704700BFB805002010B54FF0A2
:102FD4001002EFF3118482F31188BFF36F8F427BE9
:102FE400510704D484F31188BFF36F8F10BD22F00E
:102FF40004024273FFF7B4FF21460248BDE81040C3
:10300400FFF780BE18060020F8B504464FF0100301
:10301400EFF3118683F31188BFF36F8F437BDA06D6
:1030240049B233D182698ABB03F07F03437301F051
:10303400D6F9437B174A817363F07F0343731046C9
:1030440050F8243F83421BD0D3B1976A93F90E50B2
:10305400A94210D06D1A002D0DDD5A68C4E9003262
:1030640014605C600120FFF773FE012086F3118871
:10307400BFF36F8FF8BDBB4202D01B68002BE5D1B4
:10308400936AC4E900031C609462EBE7A173002017
:10309400ECE700BFB8050020044B002103F1240233
:1030A400C3E909220846FFF705BE00BFB8050020A2
:1030B400014B9868704700BFB80500202DE9F04126
:1030C40004464FF01003EFF3118683F31188BFF326
:1030D4006F8F437B1A0705D586F31188BFF36F8F73
:1030E400BDE8F08123F0200242F00801D20920D18A
:1030F4004173A36813B1204601F079F904F1180073
:1031040001F01FFA04F158074FF00008A56DBD4205
:1031140000D0B5B90120FFF71BFE104B9B68A342FA
:10312400DAD1EFF30583002BD6D13046FEF718FA37
:10313400D2E703F05F0343F00803437301F04FF950
:10314400D7E7284601F053F905F1180001F0F9F921
:10315400C5F878802846FFF703FFD7E7B8050020B5
:1031640008B50648064A0749121A00F0D8FDBDE81A
:103174000840054A0549064800F0D1BD000000207A
:1031840058020020244E000800000000244E0008CD
:1031940000000020034B1B680BB9FEF7ADB90020FB
:1031A400704700BFF0050020114B10B51C689C420D
:1031B40008BF0024FFF7EEFF03466CB1D4E9040214
:1031C400C01A62EBE373012873F100020DDBB0F166
:1031D400004F73F1000301DB6FF00040054B1B69E6
:1031E40013B19842A8BF184610BD0020F6E700BFEF
:1031F40030010020B805002030B5036868B10A4AE0
:103204005268904209D043B1D3E90421D0E904457E
:10321400121941EB0501C3E90421426813605A60A5
:103224000023C0E9003330BD30010020B3F1FF3F7B
:1032340008BFB2F1FF3FF8B504461F46154667D0F4
:1032440081604FF01003EFF3118683F31188BFF30D
:103254006F8F6FF00102531B4FF0FF3C6CEB0703C1
:10326400002B1BDB2B4BD3E90013521A6CEB03032B
:10327400551B63EB0703012D73F10002BCBF01254D
:103284000023C0E904532448D0E9003C834218D108
:10329400C4E9000CCCF80040446026E0FFF77AFF54
:1032A400013547F100072D1847EBE077C4E90457CF
:1032B400E9E7521A65EB07056345C4E90425E7D03D
:1032C4001B68002BE4D0D3E90417D4E904258A420F
:1032D40075EB070EEDDA8A1A67EB0505C3E90425D9
:1032E4005A68C4E9003214605C60036883420BD0FE
:1032F4009C4209D1FFF758FF18B1084B1B69834260
:1033040002D00021FEF788F886F31188BFF36F8F8F
:10331400F8BD00BFD803002030010020B80500200C
:103324002DE9F8430546FFF7DBFD4FF01003EFF3FB
:10333400118483F31188BFF36F8F244EDFF89080DC
:103344003560244DD8F8000032684045D5E9001EA8
:103354004FEAE2770BD050B1D0E9043C9A4277EBC4
:103364000C0916DA9B1A6CEB070CC0E9043C5218E2
:103374004EEB0707C5E9002700253560FFF714FF6A
:103384002946FEF749F884F31188BFF36F8FBDE82F
:10339400F88359184EEBE377D31A336000220023E5
:1033A400C0E90423C5E90017FFF726FF84F3118859
:1033B400BFF36F8F836898474FF01003EFF31184C6
:1033C40083F31188BFF36F8FBCE700BFF0050020C3
:1033D40030010020D803002038B5044678B1FEF748
:1033E400A9F805460648074AA4FB00010023FCF798
:1033F400E7FE0446FEF79EF8431BA342FAD338BD0A
:1034040000D8B80540420F0038B5D0E90A3201337C
:1034140042F10002022B72F10003044604D3D0E906
:103424000A230D49FFF702FF236B01332363236A49
:103434000BB12046984754F8185FA5420AD04DB105
:10344400284600F0DEFF0023AB672846BDE838407D
:1034540001F02DB838BD00BF0D3400082DE9F0414E
:10346400114605461846B0F1FF3F08BFB1F1FF3FD2
:10347400DDE90623884607463CD0B3F1FF3F08BF89
:10348400B2F1FF3F14461E4613D01A4311D06FF019
:103494000102121B4FF0FF3262EB0302002A08DA2A
:1034A400013C63F10006012C76F10003BCBF01244A
:1034B40000266FF001035B1A4FF0FF3363EB000348
:1034C400002B08DA4A1E60F10007002F9046BCBFAB
:1034D4004FF000084746284601F033F800232B63D9
:1034E400C5E90A4642463B4628460349BDE8F04141
:1034F400FFF79CBEBDE8F0810D34000813B5044607
:103504004FF01003EFF3118183F31188BFF36F8F32
:10351400006BA8B923689BB14FF0FF334FF0FF3223
:10352400CDE900230A4804F11802FFF76FFC4FF0BD
:103534001003EFF3118183F31188BFF36F8F206BB6
:103544000023236381F31188BFF36F8F02B010BD92
:1035540019060020024A0349034800F054B800BF8A
:10356400694C0008DE4D0008FA4D000838B5064CD9
:10357400064DAC4201D3002038BDD4E901122046E7
:1035840001F01BF81834F4E7580200205802002018
:10359400704708B54FF0FF324FF0FF330430FFF7A8
:1035A4004BFB012008BD0430FFF726BB10B50446D1
:1035B40000F001FB204610BD21EAE1710A2281FBE3
:1035C40002230430FFF738BB30B58DB001AD0A9348
:1035D4009DF8403002950B9302AD02238DF8042030
:1035E400049501220025079308ABCDE90852039204
:1035F40005920693836804AA1C6806ABA0470DB025
:1036040030BD002070470FB407B504A951F8040B6E
:103614000191FDF78BF803B05DF804EB04B070473B
:10362400044608B5084611461A46A047FFF740FD70
:10363400FEF7C4F9836800EBC101B3F5004F2CBF5A
:1036440051F8220031F81200704700EBC101806884
:10365400B0F5004F2CBF41F8223021F812307047EA
:1036640008B50122FFF7E6FFD04008BD8368B3F533
:10367400004F00EBC10108D34B681AB143F00103BA
:103684004B60704723F00103FAE74B881AB143F00B
:1036940001034B80704723F00103FAE75300012232
:1036A400FFF7D3BFB0F5004F2CBF08200420013131
:1036B4000830A1EBD000B0FA80F0C0F11F007047D1
:1036C4002DE9F041174603220E460446FFF7B2FFE8
:1036D4008642054607F104080BD1012303FA07F7D4
:1036E400E36823EA0703E360002344F82830BDE8D5
:1036F400F081314602222046FFF79CFF2B46064606
:10370400014644F8285020460322FFF79EFF334623
:10371400294620460222BDE8F041FFF796BF70B566
:1037240086680D460446FFF79BFFB6F5004F014639
:1037340001D3012809D03046FFF7B4FF29460246D9
:103744002046BDE87040FFF7BBBF70BD2DE9F041D6
:10375400164604460F46FFF783FF314605462046CA
:10376400FFF77EFF05442A4639462046FFF796FFB9
:1037740031462046FFF774FF2B46311800222046BD
:10378400BDE8F041FFF761BF2DE9F04186680D46C1
:103794000446FFF765FFB6F5004F014601D3012843
:1037A40033D03046FFF77EFF04EB800216699EB9E2
:1037B400012303FA00F0E3680343E360294615613B
:1037C4002B4602222046FFF740FF032229462046CB
:1037D400BDE8F041FFF739BF022231462046FFF72A
:1037E40029FF2946034607462046FFF72EFF0322FA
:1037F400334629462046FFF728FF39462B46204604
:10380400FFF723FF02223146E1E7BDE8F081F8B576
:103814000C460546FFF724FF2618012231462846A8
:10382400FFF708FFC3070CD431462846FFF777FF9C
:1038340021462846FFF714FF214622182846FFF7A1
:1038440085FF002221462846FFF7F4FE271A0122AD
:1038540039462846FFF7EEFE10EA020613D1394630
:103864002846FFF75CFF214632462846FFF7E2FE72
:103874002246211A2846FFF769FF21463246284688
:10388400FFF7D8FE241A21462846BDE8F840FFF782
:103894007BBF10B591B100688368B3F5004F2CBFAE
:1038A400082404240C1B241AE40821460022FFF7F0
:1038B400DDFE2146BDE81040FFF7A9BF10BDB2F5FB
:1038C400802FF8B52CBF08240424141BCE1D0C44EF
:1038D40026F0070624F00704A41BE408002306606E
:1038E4002146B460F3602046FFF7DCFE85001B35FB
:1038F400411CED0806F1100218468B422EDB2A46C5
:1039040030460021FFF7CAFE00231A461946304606
:10391400FFF79BFE671B194630460122FFF7A6FE00
:103924003A462946FFF7BAFE2B460022294630467E
:10393400FFF78BFE21463046FFF7B0FE3B4621469B
:1039440030460022FFF781FE214630460122FFF770
:103954008DFE2946BDE8F840FFF716BF42F8040B78
:103964000133CAE72DE9F84F9A46D3786F2B804686
:103974000F461546A3F1410B29D024D8582B14BF68
:103984000A261026DDF828903246002340463946A0
:10399400FCF716FC092AD4B21ED83034B045E4B280
:1039A40077F1000309F8014D01D3D14511D82B78E3
:1039B4009B0605D5082E15D1AB7843F00803AB70F0
:1039C4004846BDE8F88F03F0F703702BD7E70826C5
:1039D400D8E780460F46D7E7BBF1190F94BF3734B9
:1039E4005734DBE7102EEBD1AB7843F01003E6E756
:1039F4002DE9F0410746884615461E461446B44252
:103A0400A4EB050002D33EB923782BB114F8010BC3
:103A14004146B8470028F2DABDE8F081704700203B
:103A2400704783681B6A03B11847704770B5044632
:103A34000D4600F1240600F0A5FC20BB226C531CAB
:103A440022D022EAE2720A2382FB03233046FFF7E4
:103A5400F3F8002816DB4FF01003EFF3118283F321
:103A64001188BFF36F8FE18FA06B4B1C984298BFF6
:103A74000023A08F984209D182F31188BFF36F8F7E
:103A84006FF01B0070BD00221346DFE7606B4554E6
:103A9400E38782F31188BFF36F8F20688368DB6943
:103AA40013B198470020EDE71846EBE773B50546D8
:103AB4000C4683685B6C03B19847AB685B6BBBB91E
:103AC400261DAB689B69BBB101220DF10701284695
:103AD400984788B1E28BA169531C994298BF00238F
:103AE400A18B994218D17E212046FFF79FFFE8E77A
:103AF400284698470028E3D1AB685B6A63B328463D
:103B0400984748B3A38FE28F9A420ED1284602B059
:103B1400BDE87040FFF785BF61699DF807008854D0
:103B2400E3833046FFF768F8CBE75A1CA287AA68FC
:103B3400616B56691EB1012219442846B047A36B34
:103B4400A28F9A4224BF0023A38704F1240002B069
:103B5400BDE87040FFF750B802B070BD70B50446C0
:103B64000E46006815468368DB6A03B19847C4E9CA
:103B7400056555B14FF0FF320021201D00F023FCF4
:103B8400206883689B6A03B19847002070BD70B5B4
:103B940004460E4615460068FFF743FFC4E90D6569
:103BA4004FF0FF32A91804F1240000F00CFC0020AF
:103BB40070BD00207047FDF7E9BF83685B68184754
:103BC40000207047002208B511460620FDF72CFDA1
:103BD400002211460720FDF727FD00221146082088
:103BE400FDF722FD002211460920FDF71DFD0022EC
:103BF40011460A20FDF718FD002211461720FDF793
:103C040013FD002211462820FDF70EFD0022114667
:103C14000120FDF709FD002211462A20FDF704FDCD
:103C2400002211460220FDF7FFFC0022114603206A
:103C3400FDF7FAFC002008BD026917211620FDF7E4
:103C4400EBB9026916211520FDF7E6B902691321C3
:103C54001220FDF7E1B9026911211020FDF7DCB94A
:103C6400026910210A20FDF7D7B902690A2105204B
:103C7400FDF7D2B9026905210420FDF7CDB9026927
:103C840004210320FDF7C8B9026903210220FDF7CE
:103C9400C3B9026902210120FDF7BEB902690121FD
:103CA4000020FDF7B9B94FF4C0730822C0E900231E
:103CB4004FF480338360704770470021012000F087
:103CC40000B800F044BB0146006800F040BB08B5F2
:103CD400FDF71EFDBDE80840FDF756BE0B46014644
:103CE4001846FFF766BF034600201A5C02B9704706
:103CF4000130FAE7034600201A5C0AB1884200D179
:103D040070470130F8E7431E013913F8012F11F809
:103D1400010F824201D1002AF7D1101A7047F0B581
:103D240081EA0004A50703460BD0013B0A449142F3
:103D34001BD1F0BD002AFCD011F8014B03F8014B54
:103D4400013A9C07F6D122F003041D1F96080F19AF
:103D5400B94205D16FF0030505FB06222344E4E7CD
:103D640051F804CB45F804CFF2E711F8014B03F8FE
:103D7400014FDCE770B5C9B20446A30711D141EA8B
:103D8400012343EA034522F00303960823449C429B
:103D94000DD16FF0030404FB06221A44934209D1A7
:103DA40070BD002AFCD004F8011B013AE5E744F891
:103DB400045BECE703F8011BF0E74FF0FF307047BA
:103DC40043685B681B690B600020704743685B684D
:103DD400586942400A4042405A6100207047436893
:103DE4005B6800209961704743685B6809049961C6
:103DF4000020704743685A6853694B405361002060
:103E040070470369986830B558B10024814212D1D3
:103E14000868DD6854B98D42986000D1D8600020EC
:103E240008606AB9002030BD2846EFE78D42206063
:103E340008BFDC60F3E705680446002DF4D13AB10D
:103E4400D8689A680A6099600028EBD1D960EAE7DB
:103E54006FF01500E7E70B46896870B569B1012575
:103E64005E680C6885408A682A4002D04B683046F8
:103E7400984714B121462468F5E770BD4068F0B551
:103E84004468012067688840C2F3801627EA000767
:103E94008E403E43666090FAA0F7B7FA87F7D4F8ED
:103EA40008C04FF0030E7F000EFA07F72CEA070C48
:103EB40090FAA0F7B7FA87F7C2F3C1167F00BE40A5
:103EC40046EA0C06A66090FAA0F6B6FA86F6E7680B
:103ED40076000EFA06F627EA060790FAA0F6B6FA76
:103EE40086F602F030057600C2F34122B2403A432E
:103EF400202DE26015D107292CDC90FAA0F2216A6A
:103F040032B3B2FA82F292000F2606FA02F221EAE2
:103F1400020190FAA0F2B2FA82F2920093400B43AB
:103F2400236290FAA0F3B3FA83F3226890FAA0F024
:103F340003215B00B0FA80F02D0901FA03F340007D
:103F440022EA030305FA00F0184320600020F0BDC4
:103F54002A46D8E7020A666A92FAA2F181B1B1FA56
:103F640081F189000F2792FAA2F2B2FA82F207FADB
:103F740001F1920026EA010193400B436362D0E70A
:103F84002946EEE738B50D4691050446134619D582
:103F94009A0710D5580730D55022D9060DD542F4CA
:103FA400007219051ED4580515D50121A9402046D3
:103FB400FFF71AFF0FE01022EFE79806F1D542F45D
:103FC4008062EEE7D10513D5DA0613D413F020028C
:103FD40018BF4FF48062002329462046FFF74EFFA6
:103FE400002038BD616801234968AB408B61F2E76A
:103FF4003022F0E74FF40072EDE76FF08500F0E750
:10400400026901215060FDF773BE012303FA01F137
:1040140003691B68194218BF82F0010212B1836858
:10402400DB68184783681B69FBE738B505680446F5
:10403400FDB1AB68EBB11868D8B151B1197A01225E
:10404400FFF7E3FF23689B685868BDE83840FFF733
:10405400C3B912B9AA8892040BD45868FFF7BCF903
:1040640023689B680022197A1868BDE83840FFF776
:10407400CCBF38BD10B5012200210446FFF7D5FF9F
:10408400236933B9636004F10800BDE81040FEF70A
:10409400B3BD10BD08B50069FFF7ECFF002008BDF3
:1040A40082B003680193019B43680193019B02B0B2
:1040B400704708B54368186803681A0701D5FFF705
:1040C400EFFF03689B0643BF43680B7000204FF06B
:1040D400FF3008BD43681B681A681206FCD56FF0F0
:1040E40040021A605960704708B54368186802684E
:1040F4000368DB070368C2F3C00248BF42F0020250
:10410400990748BF42F00402D30701D5FFF7C8FF5F
:10411400910701D5FFF7C4FF530701D5FFF7C0FF8F
:10412400FFF7BEFF104608BD436830B51C68002386
:10413400D8B2151A002D04DD25682D0603F10103FC
:1041440000D430BD085C6060F2E738B543681C6891
:104154000025E8B2131A002B02DD23689B0600D465
:1041640038BD63680B542368180702D52046FFF74F
:1041740097FF0135EDE743681A68D36843F04003BD
:10418400D360704743681A68D36823F04003D36050
:10419400704743681B68186810F080001CBFD8681B
:1041A400C0F38010704743681B681868C0F3801020
:1041B400704743681A68D36843F02003D36070479C
:1041C40043681A68D36823F02003D36070474368B8
:1041D4001B681868C0F34010704743681B681A686E
:1041E400910602D5DA68920607D4186810F04000E8
:1041F40004D0D868C0F380107047012070470120B4
:1042040070470369C3E902127047026993680BB1EE
:10421400D1681847704708B5002225201146FDF7DC
:1042240003FABDE808402520FDF7EEB908B50022E1
:1042340026201146FDF7F8F9BDE808402620FDF7D1
:10424400E3B9F7B5036947685E6857F80C4B0D4648
:10425400304600F066F808B3B368DB68F3B101AA2E
:10426400394630469847002818DBE368019823F460
:1042740000431921E360AA00AB0FA0FB0101FBF787
:104284009FFF6422B0FBF2F102FB11031B013233E6
:10429400B3FBF2F303EB01139BB2A36003B0F0BDD5
:1042A40003691B680B6043681A68D36803F4C0632E
:1042B400B3F5806F29D0A3F5C06CDCF1000343EBA8
:1042C4000C030B71136903F44053B3F5805F1ED0E4
:1042D400B3F5405F1DD0002B14BF032301234B71A2
:1042E400D068D368C00403F4C06314D5002B14BF92
:1042F400032304238B71536903F44073A3F54072C1
:1043040053425341CB71002070470223D9E7002365
:10431400E5E70223E3E7002B0CBF03230223E9E7CD
:10432400704738B1C3681888C0F30800A0F58073DB
:104334005842584170474FF01002EFF3118382F353
:104344001188BFF36F8FFEE708B5FFF7F4FFF8B5E8
:1043540005460E464FF01003EFF3118783F31188DF
:10436400BFF36F8FFEF7A4FE314604462846FFF7DD
:10437400EBFF87F31188BFF36F8F2046BDE8F84049
:10438400FDF71CBBEFF30580003818BF0120704710
:1043940008B54FF01002EFF3118382F31188BFF3D5
:1043A4006F8FFDF7A7F9F4E790F90E308B4201D037
:1043B400FEF72ABE0020704703460020C3E902002E
:1043C400C3E9003370473AB18A4205D3C0E9021207
:1043D400C0E90000002070476FF015007047D0E975
:1043E400003213605A600023C0E90033704708B5F7
:1043F400FFF7F5FF437B23F002034373002383603D
:1044040008BD08B54FF01003EFF3118183F3118851
:10441400BFF36F8FFFF7EBFF81F31188BFF36F8F4B
:1044240008BD034620B9EFF305820AB9FDF798B831
:1044340083F31188BFF36F8F70474FF01003EFF3CE
:10444400118083F31188BFF36F8FFFF7EABF034630
:104454000068834208BF0020704738B504460D4603
:10446400FEF796FC637B43F00203637395B12B68FC
:10447400A5609D4215D0A3B194F90E1093F90E20B6
:10448400914208D0521A002A05DD5A68C4E9003264
:1044940014605C6038BD6A68934202D01B68002BCC
:1044A400ECD16B68C4E900531C606C60F2E710B592
:1044B4004FF01003EFF3118483F31188BFF36F8F70
:1044C400FEF74EFD84F31188BFF36F8F10BD10B556
:1044D40001464FF01003EFF3118483F31188BFF307
:1044E4006F8F10F80B3C13F0280F0DD151F8103CCE
:1044F40018380BB1FFF77BFF11F80B3C23F01403C2
:1045040001F80B3CFEF72CFD84F31188BFF36F8F89
:1045140010BD38B54FF01003EFF3118583F3118804
:10452400BFF36F8FFFF793FF044620B1FFF75FFFE0
:10453400183000F006F885F31188BFF36F8F20461A
:1045440038BD10B54FF01002EFF3118482F31188D7
:10455400BFF36F8F03683BB1FEF74EFE002084F378
:104564001188BFF36F8F10BD6FF01500F7E770B5BA
:1045740004460D464FF01003EFF3118683F31188C0
:10458400BFF36F8FFEF710FE012805DDA04203DBA9
:1045940029462046FCF740FF86F31188BFF36F8F4E
:1045A40070BD0023C0E9081200F11802C0E9062218
:1045B400C0E9003303634363704710B400F10C0493
:0C45C400C0E9034410BCFFF77AB970474F
:0845D00024BCFF7F0100000084
:1045D800CD0E000800000000233A0008000000008B
:1045E800E5110008380100207135000800000000BE
:1045F800C93B000850010020B122000868010020D2
:10460800B122000880010020F10F0008000000001E
:10461800E91300089801002005400008B0010020B7
:1046280005400008C801002005400008E0010020FE
:1046380005400008F801002005400008100200208D
:104648000540000828020020291D0008400200201B
:08465800711B000800000000C6
:1046600000000000BF3C0008500100205B3C000837
:1046700050010020473C0008500100203D3C00084C
:1046800000000000BF3C000800000000BF3C000824
:1046900050010020A13C000850010020973C000878
:1046A000500100208D3C000850010020833C000890
:1046B00050010020793C000800000000BF3C0008C9
:1046C00000000000BF3C000800000000BF3C0008E4
:1046D00000000000BF3C000800000000BF3C0008D4
:1046E00000000000BF3C000800000000BF3C0008C4
:1046F00000000000BF3C000800000000BF3C0008B4
:1047000000000000BF3C000800000000BF3C0008A3
:1047100000000000BF3C0008500100206F3C000872
:1047200000000000BF3C000800000000BF3C000883
:1047300000000000BF3C000800000000BF3C000873
:1047400000000000BF3C000800000000BF3C000863
:1047500000000000BF3C000800000000BF3C000853
:1047600000000000BF3C000800000000BF3C000843
:1047700000000000BF3C000800000000BF3C000833
:1047800000000000BF3C0008800100200F4200082C
:10479000680100200F42000800000000BF3C000834
:1047A00050010020653C000800000000BF3C0008EC
:1047B00050010020513C000800000000BF3C0008F0
:1047C00000000000BF3C000800000000BF3C0008E3
:1047D00000000000BF3C000800000000BF3C0008D3
:1047E00000000000BF3C000800000000BF3C0008C3
:1047F00000000000BF3C000800000000BF3C0008B3
:1048000000000000BF3C000800000000BF3C0008A2
:1048100000000000BF3C000800000000BF3C000892
:1048200000000000BF3C000800000000BF3C000882
:1048300000000000BF3C000800000000BF3C000872
:1048400000000000BF3C000800000000BF3C000862
:1048500000000000BF3C000800000000BF3C000852
:1048600000000000BF3C000800000000BF3C000842
:1048700000000000BF3C000800000000BF3C000832
:1048800000000000BF3C000800000000BF3C000822
:1048900000000000BF3C000800000000BF3C000812
:1048A00000000000BF3C000800000000BF3C000802
:1048B00000000000BF3C000800000000BF3C0008F2
:1048C00000000000BF3C000800000000BF3C0008E2
:1048D00000000000BF3C000800000000BF3C0008D2
:1048E00000000000BF3C000800000000BF3C0008C2
:1048F00000000000BF3C000800000000BF3C0008B2
:1049000000000000BF3C000800000000BF3C0008A1
:1049100000000000BF3C000800000000BF3C000891
:1049200000000000BF3C000800000000BF3C000881
:1049300000000000BF3C000800000000BF3C000871
:1049400000000000BF3C000800000000BF3C000861
:1049500000000000BF3C000800000000BF3C000851
:0849600000000000BF3C00084C
:08496800000000000000000047
:04497000D506000860
:104974000A000100FF7FFF7FFF7FFF7FFF7FFF7F34
:10498400FF7FFF7FFF7F0100FF7FFF7FFF7FFF7FB0
:104994000100FF7FFF7FFF7FFF7F0100FF7FFF7F1D
:1049A400FF7FFF7F0100FF7FFF7FFF7FFF7F01000D
:1049B400FF7FFF7FFF7FFF7F0100FF7FFF7FFF7F80
:1049C400FF7FFF7FFF7FFF7F0100FF7FFF7FFF7F70
:1049D400FF7FFF7FFF7FFF7F0100FF7FFF7FFF7F60
:1049E400FF7FFF7FFF7FFF7FFF7FFF7FFF7FFF7FD3
:0A49F400FF7FFF7FFF7FFF7FFF7F43
:0249FE00FFFFB9
:104A0000030000000040000000000000080000005B
:104A10001000000018000000200000002800000026
:104A2000300000003800000000000000000000001E
:104A300097350008BD350008AB35000895350008EE
:104A4000B13500082802002010020020F8010020E3
:104A5000E0010020C801002000000000000000006C
:104A6000B001002000000000000000000000000075
:104A7000000000200000000000000B060200000003
:104A8000844A0008000000089A4D0008240002072C
:104A900000000020A24D000820000B11FFFF0000C5
:104AA00000000240000000000000000001000000C3
:104AB000FFFF0000000402400100000000000000B1
:104AC00002000000FFFF000000080240020000009A
:104AD0000000000004000000FFFF0000000C024086
:104AE000030000000000000008000000FFFF0000BD
:104AF0000010024004000000000000001000000050
:104B0000FFFF0000001C0240070000000000000042
:104B100080000000893F0008C53D0008D13D000825
:104B2000E33D0008ED3D0008F93D0008F51B0008D5
:104B3000073E0008000000006D1D000899400008B5
:104B400005040000000200000505000080050000CB
:104B50000506000000040000050700000004000036
:104B6000030000000010000000300140404B00082E
:104B7000040000000709000000020000070A00000E
:104B80000000000007020000000200000703000010
:104B90000000000000100140000000001B4200085F
:104BA00003000000100000000000000000000000F2
:104BB000744B0008020000000044004000000000A8
:104BC0003142000802000000000002000000000066
:104BD00000000000844B000802000000B7400008FD
:104BE000D9400008ED40000871230008A5420008E4
:104BF0002D4100084F4100087B4100088941000811
:104C000097410008B7410008C5410008AB410008C2
:104C1000D34100081122000861220008DF4100088A
:104C20000342000807420008D8450008184600085B
:104C3000204600085846000860460008F5FFFFFFC0
:104C4000001000000030636F6F705F746872656100
:104C5000645F656E7472790025733A2048656C6CE8
:104C60006F20576F726C64210A004372656174652E
:104C70002073656D6170686F72652025700A00533E
:104C800050495F31004750494F4200476F742044FC
:104C900057313030302044455649443A202530328F
:104CA000580A00476F742044573130303020455542
:104CB00049443A202530326C6C580A00476F742002
:104CC0004457313030302050414E49443A2025304D
:104CD00032580A007379735F6366673A202530386B
:104CE000580A00484952515F504F4C20656E61622E
:104CF0006C65640A00484952515F504F4C2064690A
:104D00007361626C65640A004449535F44525842BF
:104D100020656E61626C65640A004449535F4452C9
:104D200058422064697361626C65640A0053595388
:104D30005F54494D453A20256A580A006D61696EF5
:104D400000286E696C2900554152545F3100696E2C
:104D5000746572727570742D636F6E74726F6C6CA3
:104D60006572403430303133633030000607080953
:104D70000A171717171728282828282801FF2AFF9D
:104D8000FF02037263634034303032333830300016
:104D90007379735F636C6F636B00464C4153485F7C
:104DA00030005352414D5F30004750494F48004753
:104DB00050494F45004750494F44004750494F43E1
:104DC000004750494F4100554152545F32000000A6
:104DD0000000000000000102030406070809763203
:104DE0002E362E302D7263322D39302D67366166A6
:104DF000303632663836373531002A2A2A20426F5B
:104E00006F74696E67205A6570687972204F5320FD
:104E10006275696C64202573202573202A2A2A0A6A
:044E2000000000008E
:104E2400000000000000000000000000000000007E
:104E3400000000000000000000000000000000006E
:104E4400000000000000000000000000000000005E
:104E5400000000000000000000000000000000004E
:104E6400000000000000000000000000000000003E
:104E7400000000000000000000000000000000002E
:104E8400000000000000000000000000000000001E
:104E9400000000000000000000000000000000000E
:104EA40000000000000000000000000000000000FE
:104EB40000000000000000000000000000000000EE
:104EC40007360008C53B00083511000869120008C0
:104ED40000000000BD11000800000000BF3D0008F4
:104EE4000000000000000000C8000020C8000020EE
:104EF4000000000001000000D8000020D8000020BD
:104F0400000000000100000000000000000000009C
:104F1400000000000000000000000000000000008D
:104F240000000000000000000000000000C20100BA
:104F340000000000000000000000000000C20100AA
:104F44000000000000000000000000000024F40045
:084F54003001002030010020B3
:104F5C00834D000800000000A80000201005002070
:104F6C0000000000F44900084E4D0008000000004D
:104F7C00000000005404002058040020EC490008F4
:104F8C00C74D0008B84B0008DC4B0008B0050020EA
:104F9C001C010020DC490008474D0008944B000818
:104FAC00DC4B0008B40500200C010020CC490008A3
:104FBC00904D0008000000000000000014050020C7
:104FCC0000000000C6490008A94D0008004B00086D
:104FDC00144B00083C0500209C050020BC4900082F
:104FEC00AF4D0008EC4A0008144B000838050020AF
:104FFC008C050020B2490008B54D0008D84A0008BD
:10500C00144B0008340500207C050020A84900083A
:10501C00BB4D0008C44A0008144B00084005002092
:10502C006C0500209E490008854C0008B04A000819
:10503C00144B0008480500205C050020944900082A
:10504C00C14D00089C4A0008144B00084405002080
:10505C004C0500208A4900087F4C0008604B000872
:10506C00384B0008AC050020C00000207449000833
:04000005080017894F
:00000001FF
