:020000040800F2
:10000000803800203D3D0008C9730008693D0008A4
:10001000693D0008693D0008693D000800000000D6
:10002000000000000000000000000000E1390008AE
:10003000693D000800000000513900085D370008E4
:10004000153D0008153D0008153D0008153D000848
:10005000153D0008153D0008153D0008153D000838
:10006000153D0008153D0008153D0008153D000828
:10007000153D0008153D0008153D0008153D000818
:10008000153D0008153D0008153D0008153D000808
:10009000153D0008153D0008153D0008153D0008F8
:1000A000153D0008153D0008153D0008153D0008E8
:1000B000153D0008153D0008153D0008153D0008D8
:1000C000153D0008153D0008153D0008153D0008C8
:1000D000153D0008153D0008153D0008153D0008B8
:1000E000153D0008153D0008153D0008153D0008A8
:1000F000153D0008153D0008153D0008153D000898
:10010000153D0008153D0008153D0008153D000887
:10011000153D0008153D0008153D0008153D000877
:10012000153D0008153D0008153D0008153D000867
:10013000153D0008153D0008153D0008153D000857
:10014000153D0008153D0008153D0008153D000847
:10015000153D0008153D0008153D0008153D000837
:10016000153D0008153D0008153D0008153D000827
:10017000153D0008153D0008153D0008153D000817
:10018000153D0008153D0008153D0008153D000807
:10019000153D0008153D0008153D0008153D0008F7
:1001A000153D0008153D0008153D0008153D0008E7
:1001B000153D0008153D0008153D0008153D0008D7
:0401C000153D0008E1
:0401C400FFFFFFFF3B
:1001C80081F0004102E000BF83F0004330B54FEA00
:1001D80041044FEA430594EA050F08BF90EA020F6D
:1001E8001FBF54EA000C55EA020C7FEA645C7FEA00
:1001F800655C00F0E2804FEA5454D4EB5555B8BF23
:100208006D420CDD2C4480EA020281EA030382EA93
:10021800000083EA010180EA020281EA0303362D25
:1002280088BF30BD11F0004F4FEA01314FF4801CF8
:100238004CEA113102D0404261EB410113F0004F0A
:100248004FEA03334CEA133302D0524263EB4303C1
:1002580094EA050F00F0A780A4F10104D5F1200E5F
:100268000DDB02FA0EFC22FA05F2801841F10001BA
:1002780003FA0EF2801843FA05F359410EE0A5F18E
:1002880020050EF1200E012A03FA0EFC28BF4CF0BF
:10029800020C43FA05F3C01851EBE37101F0004575
:1002A80007D54FF0000EDCF1000C7EEB00006EEB82
:1002B8000101B1F5801F1BD3B1F5001F0CD349080C
:1002C8005FEA30004FEA3C0C04F101044FEA445263
:1002D80012F5800F80F09A80BCF1004F08BF5FEAEA
:1002E800500C50F1000041EB045141EA050130BDCA
:1002F8005FEA4C0C404141EB0101013C28BFB1F5DC
:10030800801FE9D291F0000F04BF01460020B1FA26
:1003180081F308BF2033A3F10B03B3F120020CDAF9
:100328000C3208DD02F1140CC2F10C0201FA0CF0D7
:1003380021FA02F10CE002F11402D8BFC2F1200C3C
:1003480001FA02F120FA0CFCDCBF41EA0C019040F2
:10035800E41AA2BF01EB0451294330BD6FEA04043B
:100368001F3C1CDA0C340EDC04F11404C4F1200226
:1003780020FA04F001FA02F340EA030021FA04F338
:1003880045EA030130BDC4F10C04C4F1200220FA8F
:1003980002F001FA04F340EA0300294630BD21FACD
:1003A80004F0294630BD94F0000F83F4801306BF93
:1003B80081F480110134013D4EE77FEA645C18BF87
:1003C8007FEA655C29D094EA050F08BF90EA020F1E
:1003D80005D054EA000C04BF1946104630BD91EA16
:1003E800030F1EBF0021002030BD5FEA545C05D119
:1003F8004000494128BF41F0004130BD14F5800458
:100408003CBF01F5801130BD01F0004545F0FE41CB
:1004180041F470014FF0000030BD7FEA645C1ABF00
:10042800194610467FEA655C1CBF0B46024650EA37
:10043800013406BF52EA033591EA030F41F4002163
:1004480030BD00BF90F0000F04BF0021704730B5E9
:100458004FF4806404F132044FF000054FF00001BE
:1004680050E700BF90F0000F04BF0021704730B57F
:100478004FF4806404F1320410F0004548BF404254
:100488004FF000013EE700BF42004FEAE2014FEAA9
:1004980031014FEA02701FBF12F07F4393F07F4F84
:1004A80081F06051704732F07F4208BF704793F087
:1004B8007F4F04BF41F40021704730B54FF460749A
:1004C80001F0004521F000411CE700BF50EA01029D
:1004D80008BF704730B54FF000050AE050EA010246
:1004E80008BF704730B511F0004502D5404261EBB6
:1004F80041014FF4806404F132045FEA915C3FF4F7
:10050800D8AE4FF003025FEADC0C18BF03325FEA93
:10051800DC0C18BF033202EBDC02C2F1200300FA44
:1005280003FC20FA02F001FA03FE40EA0E0021FA69
:1005380002F11444BDE600BF70B54FF0FF0C4CF457
:10054800E06C1CEA11541DBF1CEA135594EA0C0F09
:1005580095EA0C0F00F0DEF82C4481EA030621EA44
:100568004C5123EA4C5350EA013518BF52EA03357F
:1005780041F4801143F4801338D0A0FB02CE4FF031
:100588000005E1FB02E506F00042E0FB03E54FF061
:100598000006E1FB03569CF0000F18BF4EF0010E59
:1005A800A4F1FF04B6F5007F64F5407404D25FEA55
:1005B8004E0E6D4146EB060642EAC62141EA555108
:1005C8004FEAC52040EA5E504FEACE2EB4F1FD0C4A
:1005D80088BFBCF5E06F1ED8BEF1004F08BF5FEAC8
:1005E800500E50F1000041EB045170BD06F000467A
:1005F80046EA010140EA020081EA0301B4EB5C0427
:10060800C2BFD4EB0C0541EA045170BD41F480111E
:100618004FF0000E013C00F3AB8014F1360FDEBF43
:10062800002001F0004170BDC4F10004203C35DA1F
:100638000C341BDC04F11404C4F1200500FA05F3A2
:1006480020FA04F001FA05F240EA020001F0004243
:1006580021F0004110EBD37021FA04F642EB0601B9
:100668005EEA430E08BF20EAD37070BDC4F10C04E3
:10067800C4F1200500FA04F320FA05F001FA04F2A7
:1006880040EA020001F0004110EBD37041F1000193
:100698005EEA430E08BF20EAD37070BDC4F120059E
:1006A80000FA05F24EEA020E20FA04F301FA05F206
:1006B80043EA020321FA04F001F0004121FA04F2AE
:1006C80020EA020000EBD3705EEA430E08BF20EA7E
:1006D800D37070BD94F0000F0FD101F000464000B8
:1006E80041EB010111F4801F08BF013CF7D041EA3A
:1006F800060195F0000F18BF704703F0004652003E
:1007080043EB030313F4801F08BF013DF7D043EA0E
:100718000603704794EA0C0F0CEA135518BF95EAC4
:100728000C0F0CD050EA410618BF52EA4306D1D14B
:1007380081EA030101F000414FF0000070BD50EA6A
:10074800410606BF1046194652EA430619D094EAF4
:100758000C0F02D150EA013613D195EA0C0F05D1DE
:1007680052EA03361CBF104619460AD181EA030132
:1007780001F0004141F0FE4141F470014FF00000EA
:1007880070BD41F0FE4141F4780170BD70B54FF085
:10079800FF0C4CF4E06C1CEA11541DBF1CEA135505
:1007A80094EA0C0F95EA0C0F00F0A7F8A4EB0504E7
:1007B80081EA030E52EA03354FEA013100F08880DE
:1007C8004FEA03334FF0805545EA131343EA1263A7
:1007D8004FEA022245EA111545EA10654FEA00265C
:1007E8000EF000419D4208BF964244F1FD0404F515
:1007F800407402D25B084FEA3202B61A65EB030571
:100808005B084FEA32024FF480104FF4002CB6EB2D
:10081800020E75EB030E22BFB61A754640EA0C00AD
:100828005B084FEA3202B6EB020E75EB030E22BFED
:10083800B61A754640EA5C005B084FEA3202B6EB2E
:10084800020E75EB030E22BFB61A754640EA9C00ED
:100858005B084FEA3202B6EB020E75EB030E22BFBD
:10086800B61A754640EADC0055EA060E18D04FEA7B
:10087800051545EA16754FEA06164FEAC30343EA1B
:1008880052734FEAC2025FEA1C1CC0D111F4801FE8
:100898000BD141EA00014FF000004FF0004CB6E7E1
:1008A80011F4801F04BF01430020B4F1FD0C88BF80
:1008B800BCF5E06F3FF6AFAEB5EB030C04BFB6EB8B
:1008C800020C5FEA500C50F1000041EB045170BD7E
:1008D8000EF0004E4EEA113114EB5C04C2BFD4EBAB
:1008E8000C0541EA045170BD41F480114FF0000E2F
:1008F800013C90E645EA060E8DE60CEA135594EAAB
:100908000C0F08BF95EA0C0F3FF43BAF94EA0C0FAD
:100918000AD150EA01347FF434AF95EA0C0F7FF422
:1009280025AF104619462CE795EA0C0F06D152EA76
:1009380003353FF4FDAE1046194622E750EA41065A
:1009480018BF52EA43067FF4C5AE50EA41047FF46B
:100958000DAF52EA43057FF4EBAE12E74FEA4102CE
:10096800B2F1E04324BFB3F5001CDCF1FE5C0DD905
:1009780001F0004C4FEAC0024CEA5070B2F1004F4F
:1009880040EB830008BF20F00100704711F0804F52
:1009980021D113F13872BCBF01F00040704741F417
:1009A80080114FEA5252C2F11802C2F1200C10FA1B
:1009B8000CF320FA02F018BF40F001004FEAC123FF
:1009C8004FEAD32303FA0CFC40EA0C0023FA02F3A3
:1009D8004FEA4303CCE77FEA625307D150EA013379
:1009E8001EBF4FF0FE4040F44000704701F0004049
:1009F80040F0FE4040F40000704700BF53B94AB9C8
:100A0800002908BF00281CBF4FF0FF314FF0FF300E
:100A180000F078B9ADF1080C6DE904CE00F006F8E5
:100A2800DDF804E0DDE9022304B070472DE9F04762
:100A3800089D0E4604468E46002B4CD18A429446A9
:100A480067D9B2FA82F252B101FA02F3C2F1200177
:100A580020FA01F10CFA02FC41EA030E94404FEA35
:100A68001C48210CBEFBF8F61FFA8CF708FB16E3AE
:100A780041EA034306FB07F199420AD91CEB030339
:100A880006F1FF3080F01E81994240F21B81023E40
:100A980063445B1AA4B2B3FBF8F008FB103344EAD2
:100AA800034400FB07F7A7420AD91CEB040400F132
:100AB800FF3380F00981A74240F20681644402387E
:100AC800E41B40EA064000211DB1D4400023C5E9DB
:100AD8000043BDE8F0878B4208D9002D00F0EF8075
:100AE8000021C5E900060846BDE8F087B3FA83F19E
:100AF800002949D1B34202D3824200F2FF80841A0E
:100B080066EB030301209E46002DE2D0C5E9004EA6
:100B1800DFE702B9FFDEB2FA82F2002A40F08E80E7
:100B2800A1EB0C064FEA1C471FFA8CF30121B6FB18
:100B3800F7FE07FB1E60260C46EA004603FB0EF094
:100B4800B04208D91CEB06060EF1FF3802D2B042BB
:100B580000F2D080C646361AA4B2B6FBF7F007FBFF
:100B6800106644EA064400FB03F3A34208D91CEBD1
:100B7800040400F1FF3602D2A34200F2B8803046E6
:100B8800E41A40EA0E409FE7C1F1200722FA07F471
:100B98008B40234306FA01FC26FA07F420FA07F6ED
:100BA80046EA0C064FEA134900FA01F8B4FBF9FECD
:100BB800300C1FFA83FC09FB1E4440EA04440EFB78
:100BC8000CF0A04202FA01F20AD91C190EF1FF3A00
:100BD80080F08B80A04240F28880AEF1020E1C4467
:100BE800241AB6B2B4FBF9F009FB104446EA0444EF
:100BF80000FB0CFCA44507D91C1900F1FF3670D284
:100C0800A4456ED902381C4440EA0E40A0FB02E617
:100C1800A4EB0C04B442F446B14659D356D0002D87
:100C28006ED0B8EB0C0364EB0904CB4004FA07F769
:100C38001F43CC40C5E9007400214AE7C2F12000F7
:100C480024FA00F10CFA02FC06FA02F326FA00F084
:100C58004FEA1C4741EA0306B0FBF7F11FFA8CF391
:100C680007FB110E300C40EA0E4001FB03FE8645DF
:100C780004FA02F408D91CEB000001F1FF3832D263
:100C8800864530D902396044A0EB0E00B6B2B0FBFD
:100C9800F7FE07FB1E0046EA00460EFB03F0B042D3
:100CA80009D91CEB06060EF1FF3818D2B04216D946
:100CB800AEF1020E6644361A4EEA014137E729467C
:100CC800284606E70646E4E61846F9E6F045A6D2C1
:100CD800BEEB020C66EB0303013899469FE7C64654
:100CE800E9E7304690E74146CEE7D64678E76444E0
:100CF800023845E7AEF1020E66442CE7084603E7E2
:100D08002946E6E6704700BF10F8012B11F8013BB1
:100D1800012A28BF9A42F7D0D01A7047034613F821
:100D2800012B002AFBD1181A013870470000000077
:100D380038B52DED028B1E4B1A7804460D4622B9A4
:100D480002289EBF18701B4B58702869FFF78AFB52
:100D5800194B0022FFF71AFDFFF700FE08EE900A74
:100D6800E868FFF77FFB10A3D3E90023FFF70EFD28
:100D7800FFF7F4FD08EE100AA868FFF773FB0AA353
:100D8800D3E90023FFF702FDFFF7E8FDB0EE681A8C
:100D9800F0EE480ABDEC028B00EE100A2046BDE8D2
:100DA800384001F053B800BF00000000D012634182
:100DB800711A0020FE1E002000408F400000000035
:100DC8002DE9F04F2DED028B9FEDAB8B9BB081464B
:100DD8008A4615461C460026287810B9304600F089
:100DE800C9BD6B1C2528029306D05146C847002868
:100DF800C0F2C08501362EE2182200210CA807F0A7
:100E0800AAFB6B78252B59D06A1C174612F8013BB0
:100E18002B2B00F08B8079D8202B00F08C80232B93
:100E280000F08E809DF8383003F04402442A03D144
:100E38006FF386138DF838309DF838300A9743F0F1
:100E480080038DF838303B782A2B7ED19DF83930D5
:100E580043F001038DF839307B1C0A931A782E2A47
:100E68009DF839200CBF0121002161F341028DF862
:100E780039200BD15A1C0A925A782A2A7BD19DF81C
:100E8800392042F004028DF839200233194611F84E
:100E9800010B6C2800F0CF807DD8682800F0848092
:100EA8006A2800F0D2804C2800F0D6809DF83920BE
:100EB8006FF3C6028DF83920194680E0AA1C029209
:100EC8008DF83B309DF83930DF0740F1788154F8D0
:100ED80004BBBBF1000F07DA9DF8382042F004028A
:100EE8008DF83820CBF1000B580740F1718154F888
:100EF800048BB8F1000F80F270819DF839306FF3E0
:100F080041038DF839304FF0FF3866E12D2B06D0BC
:100F1800302B87D19DF8383043F0400303E09DF82B
:100F2800383043F004038DF838306EE79DF83830D8
:100F380043F00803F7E79DF8383043F01003F2E771
:100F48009DF8383043F02003EDE70AA801F006FCCD
:100F58000A9BBB4281D09DF838700F90C7F34001BF
:100F680041EAD072520062F07F0207F07D010A4325
:100F78008DF8382071E70AA801F0F0FB9DF83830A9
:100F88001090C3F3400242EAD07060F341038DF839
:100F980038300A9B7AE774289DF8392059D07A2886
:100FA80084D11346062241E05A78682A9DF83920F0
:100FB8003AD1012161F3C6028DF83920991C0B46FC
:100FC80013F8012B0293782A8DF83B2000F2CD808C
:100FD800572A55D8412A04D0A2F14503022B00F222
:100FE800C4809DF83A30042161F302038DF83A3049
:100FF80002F0DF03A3F141089DF83920D8F100037E
:1010080043EB080363F3C7128DF83920D3B21206F5
:1010180000F1D38003F07802182A40F0A3806FF320
:10102800C6038DF839308AE01346022262F3C603FC
:101038008DF83930C3E75A786C2A9DF8392001D1E8
:101048000421B7E713460322F0E79DF8393005225B
:10105800ECE713460722E9E7BDF8383023F4F043FC
:1010680023F0020343F4804343F00203ADF8383021
:10107800A5E700BFAFF300800000000000000008F3
:10108800A2F15803202B70D801A151F823F000BF1A
:101098004B11000873110008731100087311000840
:1010A8007311000873110008731100087311000808
:1010B80073110008EB0F0008731100084B110008AA
:1010C8001D110008EB0F0008EB0F0008EB0F0008DC
:1010D800731100081D11000873110008731100082E
:1010E8007311000873110008811100084B110008E2
:1010F800A51100087311000873110008A511000854
:10110800731100084B1100087311000873110008CF
:101118004B1100089DF83A30012161F302038DF864
:101128003A309DF8393003F07803402B02BF9DF820
:10113800381041F001018DF83810632A05D00023DA
:1011480006E09DF83A300221E7E7003B18BF01238B
:101158009DF83820C2F340010B4363F341028DF838
:101168003820AFE613F0380FE9D09DF8383043F057
:1011780001038DF83830E2E79DF83A30032262F334
:1011880002038DF83A309DF8393003F07803A3F163
:10119800400CDCF1000343EB0C03D9E79DF83A302F
:1011A800032262F302038DF83A309DF8393013F0C8
:1011B800780F14BF01230023CAE70123C8E79DF96C
:1011C8003820002AB4BFDDF83CB04FF0FF3B8BE677
:1011D80099077FF598AEDDF840809DF83910002317
:1011E800CDE90F339DF83A3003F00702042A09D1FC
:1011F8008A0707D49DF93920002AB4BF4FF00D089B
:101208004FF0060803F00703012BC1F3C30137D1E0
:10121800CB1E042B21D8DFE803F0030909202000A6
:1012280054F8043BDA17CDE90C3206E0073424F011
:101238000704F4E80223CDE90C239DF83870BB07B6
:1012480054D0029B2A465146484605F0FBFC00282C
:10125800C0F290830644029DBEE554F8043B012980
:101268004FEAE372CDE90C3205D19DF830300C938A
:1012780000230D93E1E70229DFD1BDF93030D1E732
:10128800022B23D1CB1E042B13D8DFE803F0030A6B
:101298000A12120020680C900022231D0D921C4691
:1012A800CBE7E31D23F00703B3EC027B8DED0C7B4A
:1012B800F5E754F8043B0C9301294FF000030D9314
:1012C800D3D00229B9D1BDF83030D0E7042B07D1EB
:1012D800073424F00704F4E80223CDE90C23ACE733
:1012E800032B04BF54F8043B0C93A6E79DF83B205E
:1012F800782AB0D8572A00F28C80252A00F0D480AA
:10130800242AA8D9412A03D0A2F14503022BA2D846
:10131800DDE90C13002BC0F2B781380700F1B68164
:1013280017F0100718BF2027C3F30A55C3F3130398
:10133800CDE90813002D40F0AB8151EA030014BF3A
:1013480001200020DB0243EA5153C902462A45EA3C
:10135800010E43EAE57C08BF66225EEA0C0CCDE983
:10136800081300F00382002840F0CB81DDE9080172
:101378004FF0000C41F00041A5F2FE35099163469B
:101388004FF0050E15F1020FC0F2C281BCF1000F3B
:1013980001D0CDE90801002DDDE9080100F3CD8178
:1013A80009980899C5F1040C1C3500FA05F5ACF14B
:1013B800200E21FA0CF120FA0EFE294341EA0E0113
:1013C80020FA0CF0CDE9081002F0DF01472940F0BF
:1013D800D481DD1C02DB984580F2CB81023AB8F15A
:1013E800000FD2B201DD08F1FF389DF838108806E9
:1013F80000F1C381B8F1000FD4BF00210121662A92
:10140800039140F0BC8113EB080140F1BA8100213F
:10141800BAE1A2F15803202B3FF61DAF01A050F806
:1014280023F000BF331600085F1200085F1200089F
:101438005F1200085F1200085F1200085F120008C0
:101448005F1200085F120008191300085F120008F5
:10145800DD140008D3150008191300081913000833
:10146800191300085F120008D31500085F1200085E
:101478005F1200085F1200085F1200086916000872
:1014880033160008371600085F1200085F120008BC
:10149800B71400085F120008331600085F1200082E
:1014A8005F12000833160008514610469EE4B8F152
:1014B800000F0C9A09DB41461046039207F066F8C4
:1014C800039A0027151862B9C5E610460392FFF77C
:1014D80025FCF5E70C9B8DF84C3000270DF14D05E8
:1014E80013AAAB1A07B101339DF83A00C10640F1BF
:1014F800358202330F9940060B4444BF10995B189C
:10150800BBF1000F23DDABEB030B9DF83830590717
:10151800C3F380081BD4580640F13682002F00F030
:101528003682514638460392C8470028C0F22282C4
:10153800039A474601364FF030085E445B46002B5D
:10154800A6EB0B000BF1FF3B00F30C82064647B1FC
:10155800514638460392C8470028C0F20B82039AC6
:1015680001369DF83A30590640F165829DF93930C7
:10157800002BA6EB020680F219821746B846F3192B
:1015880017F8010B702840F00582109F1E461F4473
:10159800BB1B002B00F348822B4642465146484667
:1015A80005F050FB0028C0F2E5813044064683442C
:1015B800ABEB0603002B7FF74EAE51462020C84701
:1015C8000028C0F2D7810136F2E73D072BD417F087
:1015D800100718BF2027DDE90C23002B05DA52423B
:1015E80063EB4303CDE90C232D270DF1650300932D
:1015F8000EAADDE90C0113AB01F0C6F80246B8F1FA
:10160800000F0DF16505FFF65EAF9DF83810AB1AB7
:101618006FF3861198458DF838107FF654AFA8EB14
:1016280003030F934FE72B27D5E70027DDE70C9837
:10163800002800F08F810DF1650300930EAA13AB0B
:10164800002101F0A1F8BDF83A3003F0EF0343F4AC
:10165800F04343F010030246ADF83A300027CEE7D6
:101668000C9B07293FF6F7ADDFE801F00C04060CE8
:1016780008080C0C1E70EEE51E80ECE5F217C3E9B5
:101688000062E8E51E60E6E52D274DE62B274BE6D0
:1016980040F2FF70854231D10132B948D2B20B43D2
:1016A800125C02F003021BD1012A11D149238DF8E3
:1016B8004C304E238DF84D3046238DF84E309DF832
:1016C80038306FF386138DF838300DF14F0507E782
:1016D80069238DF84C306E238DF84D306623ECE786
:1016E800012A07BF4E2341226E2361220CBF8DF8C9
:1016F8004C308DF84C308DF84D20DEE7002021E687
:10170800013D49185B41002BFADACDE908132DE6B3
:10171800400840EAC1704908B1F1333FAC4605F1D1
:101728000105F5D20EFB01F5A0FB0E012944013B92
:101738000CF102054FF0010C24E6023041F10001E2
:10174800CDE9080108A8CDE9032305F04CFA049B6C
:10175800039ADDE90810013D01334918404100288A
:1017680005F1FF35F9DACDE9081014E600231D4626
:1017780016E6A8EB0308662237E600213FE608F1E3
:1017880001011029A8BF10218DED0A8B10200790A8
:101798000D46DDE90A01A5B9089D4019099D41EBEF
:1017A8000501B1F1805F1BD2CDE90801662A40F03E
:1017B8009980002B23DC30218DF84C100DF14D055C
:1017C8002FE0400840EAC1704908CDE90A010AA89B
:1017D800CDE90423013D05F006FADDE90423D8E745
:1017E800400840EAC1704908CDE9080108A8CDE9D8
:1017F800042305F0F8F9059B049A0133D6E713ADE5
:10180800079900290BDD07A908A8CDE9042305F0ED
:1018180002FA059B05F8010B013B049AF0D10F93DE
:1018280000239DF83810890602D4B8F1000F1DDD99
:101838002E2105F8011B9BB1B8F1000F16DD5942A6
:101848004145A8BF41469DF83A000F910029A8EBF1
:101858000108D4BF0021012161F345108DF83A0039
:10186800B8F1000F02DD0799002956DC0399002919
:1018780063D1CDF8408002F0DF01452921D1002B4A
:101888002946B8BF5B4201F8022BB4BF2D222B2298
:10189800632B6A7009DD642093FBF0F202F1300CCF
:1018A800E91C85F802C000FB12330A200D4693FBA1
:1018B800F0F200FB123302F1300C303305F802CBA2
:1018C8004B700F9B002B43DC109B002BD4BF0023D5
:1018D80001239DF83A2063F3861200238DF83A20FD
:1018E8002B70FDE507A908A8CDE9042305F093F9B5
:1018F800DDE904239DF838108DF84C00302818BF16
:1019080003F1FF33880602D4B8F1000F12DD2E214F
:101918008DF84D100DF14E05A2E707A908A8CDE9ED
:10192800042305F078F908F1FF38DDE9042305F808
:10193800010B95E70DF14D0598E700211091284618
:1019480015F8011D3029FAD02E2918BF054692E74F
:101958000123BEE70B4D07466A1FC2E5010748BFD2
:101968000133C7E5514640460392C8470028039A09
:10197800BFF6E4AD1BB0BDEC028BBDE8F08F00BF35
:1019880052A20008839900084FF02008D5E54FF0CF
:101998003008D2E55146C8470028BFF6EFADE9E761
:1019A80051460392C8470028039AE3DB1078374B67
:1019B800C35C5B07174606EB020802F10102EFD48D
:1019C8009DF83A300F9E990607D4B044002EA8EB34
:1019D800060206F1FF360FDC904638782E2808D12B
:1019E8005146C8470028C5DB002E08F1010809DC6C
:1019F8000137A8EB07060EE051463020C8470028FB
:101A0800E4DAB7E751463020C847013EEAE75146D5
:101A1800C8470028AEDB1D4AB846F31917F8010B72
:101A2800125C5207F3D4B0E551463020C84700286D
:101A3800A0DB0136ACE5D80601D4190707D5514615
:101A480030200392C847002894DB039A01369DF89A
:101A58003A30DB0608D59DF83B0003925146C8474B
:101A6800002887DB039A01360F9F3744BB1B002BE6
:101A780001DC2B4692E5514630200392C8470028E6
:101A8800FFF678AF039A0136F0E700BF53A20008CB
:101A98002DE9F04F0568D3005B19036028BF436840
:101AA800DFB024BF0133436000F128030C9300F139
:101AB8004003044689461646C5F3C5050D93002E16
:101AC80000F0BA80C5F14007B7420C9B28BF3746E3
:101AD800494658193A463D4406F02FFD402DB94471
:101AE800A6EB0706EBD10EAB2246194692F82B005F
:101AF800087092F82A00487092F82900887092F8C5
:101B08002800C8700D980432904201F10401EDD10B
:101B1800A2680192E26802922269039262690492C1
:101B2800A2690592E2690692226A07921EA9626A70
:101B3800089208460022013253F8045B40F8045B1F
:101B4800102AF8D18B6B0F464FEAF34080EA7340B6
:101B580080EA93207B6A3F6851F8045F3B4418444D
:101B68004FEAB54383EAF51383EAD5030132034408
:101B7800402ACB63E6D1324B0B93DDE90272DDE9F3
:101B880006EC049B019DDDF820B005980A934FF000
:101B980000080B9B53F8041B0B934FEAF02383EACE
:101BA800B01383EA706A1EAB53F8283019440AEB65
:101BB80001032CEA000A00EA0E018AEA010119442D
:101BC80087EA020359442B404FEA753A07EA020BA9
:101BD80083EA0B0B8AEAB50A0A9B0A928AEAB55A83
:101BE80008F10108DA440B44B8F1400F0993514455
:101BF800E3461AD1019B0B44A360029B2B44E3608C
:101C0800039B3B442361049B13446361099A059B2E
:101C18001344A361069B0344E361079B7344236257
:101C2800089B63446362002549E73A46F4462F4619
:101C380086460D460998ACE75FB0BDE8F08F00BF57
:101C4800B88A00082DE9F04FDFF8FC91044699F8AE
:101C58000C0010F00200A3B0904614D1D9F810304F
:101C6800002B5FD01D7805F00105FD23A37004F15A
:101C78001E02122312F8016D1EB9013BDBB2012BC3
:101C8800F8D10A2704E0FE23A370062700251223B3
:101C9800E3701923E1712372002D45D125710023CA
:101CA800637199F80630A371013389F80630A37877
:101CB8008DF81430E378A27A8DF81530637AA67916
:101CC80043EA0223E27A43EA0242DBB278B31922FA
:101CD8008DF816608DF817108DF818208DF81930CA
:101CE8004FF6FF73ADF82030BEB20DF1150A013E74
:101CF8001AF8010B08A9B6B204F073FB012EF6D14D
:101D0800BDF82030E678ADF8063004F10C0AD34669
:101D18000DF106010EB31BF8010B013E04F061FB47
:101D2800B6B2F5E70546A0E701232371B7E72079A6
:101D38008DF816008DF8191060798DF81B3019216F
:101D4800131212148DF817008DF818608DF81A10F8
:101D58008DF81C308DF81D20C2E7404604F041FB89
:101D6800E278BDF806300AF80230E2785244190ADF
:101D780051702380002D55D0D9F81050002D51D026
:101D88002B78DB074ED56B7884F81631D5E902231A
:101D980002A9CDE9022304F21710062294F8038061
:101DA80006F0CBFBD5E90232013342F10002C5E966
:101DB80002321E4A1E4B1F491F48CDE90A231F4BFA
:101DC800CDE90C131E4BCDE90E031E4B109303F106
:101DD80074532022A3F52303A3F692430DEB0200CC
:101DE80005F110011193CDE90866FFF751FE3A4657
:101DF80005A908A8FFF74CFE4246514608A8FFF778
:101E080047FE02220AEB080108A8FFF741FE04F585
:101E18008B7108A80722FFF73BFE04F21D1108A8E2
:101E280004F058FB23B0BDE8F08F00BF67E6096AED
:101E380085AE67BB72F36E3C7F520E513AF54FA5E3
:101E48008C68059BABD9831FCC15002010B50446C0
:101E58002DED048B1420B0EE409AF0EE608AB0EEBF
:101E6800418A06F0EEFA047180ED029AC0ED038A09
:101E780080ED048ABDEC048B0146BDE810400148A2
:101E880006F035B9540200202DE9F0410F4680468E
:101E9800FEF744FF05460A2806464FF01400A8BF7F
:101EA8000A2506F0CEFA2A4604464146043006F0D2
:101EB80044FB092EDEBF2D1900232B712146276113
:101EC8000248BDE8F04106F012B900BF68020020E0
:101ED8002DE9F04F8046A3B0D8F808305B6C83BB7F
:101EE800D8F808301B6C002B32D1D8F808305B6B5F
:101EF800002B32D1D8F808309B6933B301220DF199
:101F080007014046984700B3AB4D9DF80760EB7852
:101F1800AA4C00272F700F2B51D8DFE813F041008F
:101F280041008C009C00AB00B100B800BF00C600A7
:101F3800D800ED0001011101600160019801EA700B
:101F4800CAE7404698470028CAD123B0BDE8F08FB9
:101F5800404698470028C8D1F7E7404698470446C6
:101F68000028C7D1D8F808305B6A002BEDD040466E
:101F780098470028E9D0924D924E2A88002A00F00E
:101F88003182D8F808305B691BB131684046984700
:101F98000446336828882344041B33602C809BE75D
:101FA800FD2E2B7B3DD10222EA700022E270A67042
:101FB80023F001032B734FF0FF33237063702978EC
:101FC800012906D12B89A2796A7103B96B81013382
:101FD8002B817D487D4AE378C370EB78D3702B79E9
:101FE80013716B79013353712B891381AB7853814A
:101FF8002B7B137302294FF00003AB7040F0E9818B
:10200800B4F81431038001220023FD2EAA702B702E
:1020180095D10222E3704FF0FF33EA7023706370AA
:102028005AE7FE2ECBD10222EA700022E270A67097
:1020380043F00103BEE76148E6702F71314604F0B2
:10204800DEF92B7BDA0703D527716771052300E0DA
:102058000323EB70B3E716F0FE0F267104D0AB78BC
:102068000133AB700123F4E75448314604F0C7F953
:102078000423EEE751486671314604F0C0F9E5E7FC
:102088004E48A671314604F0BAF90623E1E74B48F9
:10209800E671314604F0B3F90723DAE747482672B8
:1020A800314604F0ACF90823D3E70023A372E372A6
:1020B80042486672314604F0A2F92B7BDB0704D54F
:1020C800E378002B3AD00B23C3E70923C1E7A27AB0
:1020D800637A3A4843EA0223E27A43EA024343EA4C
:1020E80006226372C2F30723120CA372E27231460E
:1020F80004F085F90A23ACE7A27A637A2F4843EA09
:102108000223E27A43EA024343EA06426372C3F3D4
:102118000723A372130CE372314604F070F9CFE77A
:102128002B7926485A1C23442A711E73314604F021
:1021380066F92A79E3789A427FF441AF0C2388E75D
:10214800A37A617A224841EA0321E37AD62741EA51
:1021580003414FF00C0C0023DA19013252080CFB32
:1021680002FE50F80EE0714536D2571E9F42F3D852
:102178000C225343C718C3581048994216BF00276A
:102188003979394604F03BF9238884F81461DBB2C5
:102198009E4214BF0E230D23EB70002F3FF40FAFA8
:1021A8002B79BA799A427FF60AAF0A48D21A0021E7
:1021B800184406F0D0F902E7CC150020721A002066
:1021C8005819002000000020061F00202C160020AF
:1021D800B88B00087E1A00201346C9D9C6E70E2B13
:1021E80016D02388B6EB132F14BF022301232279BC
:1021F8002B70D70784F815610CD50F22EA70022BD3
:102208004FF00D026A733FF4DAAE00232B70D6E666
:102218000223ECE72B692BB11A6B62B92B78022BDE
:1022280040F0D48001237349EB7040F223127248C6
:1022380006F083F9C3E6A17A637A704843EA01237A
:10224800E17A43EA014190470028EBD1E6E76B7B4E
:10225800E21A013BDBB282F823616B73002B7FF437
:10226800AEAED5F81090B9F1000F00F08B80CDE933
:102278000833634A634B64496448D5F814A0CDE930
:102288000A23634BCDE90C13624BCDE90E03624B75
:10229800109303F174532022A3F52303A3F692436A
:1022A8000DEB020009F110011193FFF7F1FBE27841
:1022B8005A490A3208A8FFF7EBFB5949022208A835
:1022C800FFF7E6FB0722574908A8FFF7E1FB02A939
:1022D80008A804F0FFF85449062202A806F01DF9E0
:1022E8000746002864D100220023CDE904234F4982
:1022F80094F816B1062204A806F01FF9BAF1000FE7
:1023080056D0BAF8003094F807C0217A5246B8B2CD
:1023180083420BD9D078604505D11079884202D123
:102328009078584530D001370932F0E72CD10F2B7F
:102338003ED8049A3E4912EB010ED9E90201059AEA
:1023480042F1000286458A4132D307EBC702524464
:10235800013382F803C0217A117182F802B0AAF819
:10236800003007EBC707781D30490622504406F0B5
:10237800E4F8DDE90403D9E9021281429A4101D265
:10238800C9E90203012322E007EBC7010023002269
:102398000531CDE906235144062206A806F0CDF8FA
:1023A800049B069A9A42059B079A72EB0303D8D3BB
:1023B8002B691A6B52B1A17A637A104843EA012358
:1023C800E17A43EA014190470028DBD103232B70CF
:1023D80028E703293FF417AE00293FF47DAD04F048
:1023E800BAF879E5134B3360134B186803F0F4FF20
:1023F80072E500BF721A0020061F0020CC150020CD
:1024080067E6096A85AE67BB72F36E3C7F520E5170
:102418003AF54FA58C68059BABD9831F741A002029
:10242800861B0020881B00208F1B0020891B002092
:10243800808D5B005A190020C81500202DE9F04155
:102448000E4E05460C46338823B10021322003F096
:1024580005FDF8E70A4F22462946384606F06DF88A
:10246800084B34801F60084B18688368DB6913B118
:10247800BDE8F0411847BDE8F08100BF58190020B9
:102488005A19002000000020C815002030B5D7B028
:1024980005460C4614220021684606F05CF805F053
:1024A8005DFF0A220023FEF7A9FA1C4A1368C2E955
:1024B8000001C31A28460093FEF730FC0A2802469A
:1024C8002946A8BF0A2202A806F037F8144B01943F
:1024D8001D78009B02A90A2207A8CDE9053406F059
:1024E8002CF805A9122210A806F027F86FF00302AD
:1024F80000238DF83D2029462C220DA88DF83E306A
:102508008DF83F30FFF79EFB0DA905A803F089FF62
:10251800014605A8FFF792FF57B030BD40030020E1
:10252800711A0020F0B5002291B0114602A805F0FA
:1025380045FF0F4D0026002741F28832CDE900679C
:10254800002302A803F08EFE00220023284603F091
:1025580067F9044638B101690430FFF797FF204650
:1025680005F068FFF0E702A803F0CAFEE4E700BF41
:102578006802002030B593B0294802F005FF0446F0
:1025880028B9284813B0BDE8304004F057B82648A9
:1025980004F054F825480121FFF776FC4B2301226B
:1025A800212102A80294ADF80C3003F0F5FF0022B7
:1025B800114604A805F002FF00240025002304A802
:1025C800CDE9004541F2883203F04CFE012202A811
:1025D800212103F0E1FF002102A803F0FBFF0146DF
:1025E8001348FFF751FC012102A803F0F3FF01464D
:1025F8001048FFF749FC022102A803F0EBFF01464F
:102608000D48FFF741FC212102A803F0E3FF014632
:102618000A48FFF739FC04A803F072FECEE700BFB2
:102628000299000808990008259900083E990008B1
:10263800439900084A990008539900085C990008D2
:1026480010B58AB005F08AFE0A220023FEF7D6F9F3
:10265800224BC3E900012248224C02F095FE20607B
:1026680083681B690BB108A998474FF4E1332068C8
:1026780008938368DB680BB108A9984720688368CA
:10268800DB6A03B19847206803F0A6FE20688368D8
:1026980023B19B6C13B114490022984720688368C2
:1026A8009B6A03B19847114803F0C8FF0022002332
:1026B800CDE9062300236FF00702CDE90323CDE916
:1026C800013300930A490B4B0B484FF4805203F037
:1026D8002FF80AB0BDE81040FFF74CBF40030020B8
:1026E80065990008C8150020D91E00086C990008D3
:1026F800802000202D250008800200200B6801336F
:102708000B60014B1B68184704000020014B186040
:10271800704700BF0400002007B50B4600210246A1
:102728000191034801A9FEF74BFB03B05DF804FBD8
:102738000527000830B585B0CDE90101044600251C
:1027480001A905480395FEF73BFBDDE902309842F5
:10275800B8BF255405B030BD1F660008F0B5094E56
:10276800016802460A2700200C46013123789D5D46
:102778006D0701D41460F0BD07FB0033A3F13000EE
:10278800F2E700BF53A200082DE9F84F15469A4614
:10279800D378224A13F802B06F2B80460F460BF00D
:1027A800030B29D024D8582B14BF0A261026DDF88D
:1027B80028903246002340463946FEF71FF9092A79
:1027C800D4B21ED83034B045E4B277F1000309F82A
:1027D800014D01D3D14511D82B789B0605D5082E7C
:1027E80015D1AB7843F00803AB704846BDE8F88FC5
:1027F80003F0F703702BD7E70826D8E780460F4683
:10280800D7E7BBF1010F0CBF37345734DBE7102E85
:10281800EBD1AB7843F01003E6E700BF53A2000802
:102828004FF01002EFF3118382F31188BFF36F8F1B
:1028380083F31188BFF36F8F024B034A1A6000209D
:10284800704700BFA00000200024F40030B51049F4
:10285800104889B0002205F0B1FD0F4D0F49002244
:102868000023CDE9062300240E23CDE90334CDE966
:1028780001440B4B00944FF44072284602F058FF75
:102888000849284605F0B5FB204609B030BD00BF11
:10289800B1280008480300208003002000310020F0
:1028A8007D2C000884990008014802F0EBBF00BFA6
:1028B80044020020F0B505460F4E002003460246AC
:1028C800012715F8014B0CB18B4200D3F0BD252C24
:1028D80002D182F00102F4E7002AF2D014F806C00F
:1028E8001CF0030FEDD0732C04BF07FA03F210435A
:1028F80001330022E5E700BF53A2000810B50B4BD7
:1029080000221A700A4B0B4A1A604FF47A7000F0D2
:10291800C5FC00F073FA084804F0B0F9BDE81040AF
:10292800064907480423282205F018BB2A2000205E
:1029380008000020C36C0008501600200043002047
:102948005816002010B54FF01003EFF3118483F3ED
:102958001188BFF36F8F044804F0A0F984F311883D
:10296800BFF36F8F10BD00BF50160020064BBFF39A
:102978005B8F53E8002F013243E800210029F8D18A
:10298800BFF35B8F704700BF481600200020064B3E
:10299800BFF35B8F024653E8000F43E8002100298C
:1029A800F9D1BFF35B8F704748160020F8B5FFF7E1
:1029B800EDFF0A4C0A4D2D1B07462D110026AE428D
:1029C80000DBF8BD63685B792BB123681B6913B121
:1029D80039462046984701361034F0E7B489000894
:1029E800C4890008044A054B9B1AB1EBD30F34BFC6
:1029F80052F831000020704774890008B489000833
:102A0800094A4368801A10B50011084C1960013052
:102A1800012218715A71237813B9054802F032FF60
:102A28000123237010BD00BFB489000829200020AD
:102A38004402002070B5124BBFF35B8F53E8005F70
:102A48006A1C43E800210029F8D1BFF35B8F2DB938
:102A58000C4C0D4E361B3611B54200DB70BD237B86
:102A680053B123689B690BB12046984763680422D9
:102A780019682046FFF7C4FF01351034ECE700BFA2
:102A88004C160020B4890008C4890008174B9842E6
:102A980073B5044602D3164B984221D31548002239
:102AA800002301A902F0E4FD0546E0B90122019BDB
:102AB800BFF35B8F53E8001F43E800200028F9D1DB
:102AC800BFF35B8F019E331D1F221846214605F078
:102AD8004AFD7E22034686F8232086F824501C46A9
:102AE800204602B070BD044BF9E700BFB48500086A
:102AF80054A30008581600208C99000848B1054BCB
:102B0800984205D3A03398422CBF0020012070477B
:102B180000207047004300202DE9F04F474B1B78F9
:102B280085B0044603B900B3FFF70CFF054678B13A
:102B3800BFF35B8F424B53E8002F013A43E8002173
:102B48000029F8D1BFF35B8F9CB1284604F0ADF99A
:102B58002CB93C4B1B68002B01DDFFF727FF3A48D7
:102B680004F09AF8041E18BF0124204605B0BDE8F9
:102B7800F08F364B1B78E3B92B7ADB0719D404F0B6
:102B8800A7F90746284604F06EF901463846FFF7CC
:102B980091FEDFF8D8802E4BDFF8D4B0A3EB080302
:102BA800DB0803932B4BA3EB080306464FEAD30A33
:102BB80036B9294E294FBF1B3F114FF000083AE0A4
:102BC800B6FA86F1C1F11F094946284604F04EF9C4
:102BD800234B9842014602D3224A90421AD3084610
:102BE800FFF78CFF0246A8B91F4B994212D06B8998
:102BF8000399C3F389138B4238BF58F833204FEA3F
:102C08008A1343F00103ADF8003049463B46584665
:102C180004F09CF8012303FA09F126EA0106C7E744
:102C280073685B7923B1336829465B6830469847F7
:102C380008F101081036B845F2DB86E729200020A4
:102C48004416002048160020501600202A20002094
:102C5800B48900088C890008B4890008C489000870
:102C6800B485000854A300088C99000874890008EA
:102C7800A699000810B5FFF7DDFE03F007F90C4B25
:102C8800186030B10B4B1B68092B02DD0A4802F0B3
:102C9800F9FD094C0020FFF73FFF0028FAD14FF05B
:102CA800FF324FF0FF33204602F00CFEF2E700BF80
:102CB800781600204416002044020020294B37B51E
:102CC8001B68418104469847E0604FF01003EFF31A
:102CD800118583F31188BFF36F8F2348214603F0D2
:102CE800D1FF85F31188BFF36F8FBFF35B8F1F4B45
:102CF80053E8002F013243E800210029F8D1BFF33F
:102D08005B8F1B4A127882B14FF01003EFF31184E6
:102D180083F31188BFF36F8F0020FFF7FDFE84F364
:102D28001188BFF36F8F03B030BD124A1B68126859
:102D3800002AF8D0012B0AD100220023CDE9002374
:102D48000D4842F21072002303F08CFAEBE70A2BCD
:102D5800E9D1094805F03EFB084803B0BDE830401A
:102D680002F090BD080000205016002044160020F4
:102D78002A20002078160020480300204402002062
:102D8800F8B50E4F3D7875B90D4C0E4EFFF752FE53
:102D9800361B3611B54207DB0020FFF7BDFE0028C1
:102DA800FAD101233B70F8BD63685B791BB12368D6
:102DB80020465B69984701351034EBE72A2000204C
:102DC800B4890008C489000807B504380190BFF326
:102DD8005B8F50E8003F5A1E40E800210029F8D1D7
:102DE800BFF35B8F012B03D1034801A905F0D2F88B
:102DF80003B05DF804FB00BF5816002020230249E9
:102E080002481A4605F0AAB8A04300207C16002004
:102E180037B50023094D01930120FFF77DFE0446D5
:102E2800FFF7A4FD0022002301A9284602F020FC98
:102E380008B1002CF0D1019803B030BD7C160020F9
:102E480007B50023019307480022002301A902F0D7
:102E58000FFC10B1FFF7DCFF0190019803B05DF89B
:102E680004FB00BF7C160020F0B5037A85B0DC07B0
:102E780001901ED4457A2D091BD0002426460198BE
:102E8800314603F0F3FF0746FFF738FE70B134B957
:102E9800019B29461869FFF70DFD044648B124FA3D
:102EA80006F3D90702D53846FFF78EFF0136AE4242
:102EB800E5D3019B1A7A920704D55B69084C039302
:102EC800039B2BB9064801A905F064F805B0F0BDCD
:102ED8001D6803A9204605F05DF80395F0E700BFDB
:102EE8007C1600200EB403B503AB014653F8042B3F
:102EF80004480193FDF764FF02B05DF804EB03B0EA
:102F0800704700BF8D7200082DE9F0471D46089BE9
:102F18001746DA0604460E4605D499064CBF2B49D7
:102F28002B49FFF7DFFFDFF8B0904FF00008A84506
:102F38002DDBDFF8A880DFF8A890DFF89CA000253B
:102F4800BD4232D2725D49462046FFF7CBFF0135BC
:102F5800102D23D11F49DFF88080DFF88890DFF833
:102F680088A02046FFF7BEFF0025AF4229D9725D31
:102F780012F8093013F0970F08BF2E225146204649
:102F8800FFF7B0FF0135102D14D1BDE8F087494691
:102F98002046FFF7A7FF08F10108C8E76A07CFD165
:102FA80051462046FFF79EFFCAE741462046FFF7F5
:102FB80099FFCCE76B07D8D141462046FFF792FF2F
:102FC800D3E741462046FFF78DFFDBE7EA99000883
:102FD800E9990008F6990008F4990008F2990008A0
:102FE800EC99000853A20008F89900082DE9F04F61
:102FF80087B011F002069DF84080BDF9489005920F
:10300800074601F0010A01F0080507D011F0440F46
:1030180039D134491A46FFF765FF0646BAF1000F61
:103028000AD0314B314953F82820314B3846002A11
:1030380008BF1A46FFF756FF3DB12E4B2E4953F8ED
:1030480028203846FFF74EFF0546B9F1000F16DB7A
:10305800059B002B43D0012303FA08F8274B284C83
:1030680018F0100F18BF1C4649469DF84400FFF79A
:10307800B9FC214602463846FFF734FF0544A81933
:1030880007B0BDE8F08F1F4A116831B31E4A4FF4EC
:1030980061661468B3FBF4F34FF47A7BB3FBF1F485
:1030A800B4FBF6F206FB124601FB14340BFB04F4E6
:1030B8004FF03C0CB4FBF1FEB6FBFCF301FB1E44E5
:1030C8000CFB13660BFB04F40096B4FBF1F1CDE99D
:1030D80001E10E49FFF706FF9FE708469DE7084C08
:1030E800C2E700BF099A0008CC9500082E9A00088C
:1030F800FB990008E0950008319A0008059A000835
:10310800009A00089C160020A0160020129A0008B9
:1031180038B50C46E107054603D5084A0849FFF7C4
:10312800E1FEE20608D4A30628464CBF0549064935
:10313800BDE83840FFF7D6BE38BD00BFFB99000890
:103148002E9A0008EA990008E99900082DE9F04745
:103158008B7A13F007088AB005460E46174622D028
:103168000A7A4989C3F3C203C1F38911D243CDE96D
:1031780000830291F36802F001023946FFF736FF37
:103188008146347AE44314F001040ED029463046CF
:1031980003F00EFFB8F1000F2BD0424639462846FF
:1031A800FFF7B6FF25E0C146EBE7B8F1000F26D1DF
:1031B8002746EB68069306AA3B46A968304603F003
:1031C800E3FE069A6B681A603AB1AB68134413F8C9
:1031D800014CA4F10A035C425C41284604F045F81E
:1031E800069B1F44002BE4D11CB114492846FFF765
:1031F80079FE28460AB0BDE8F04704F036B83046F4
:1032080003F066FE0E4902462846FFF76BFE4FF0B4
:10321800100A05AA234606A93046CDF814A003F0E3
:10322800B3FE059A002AB8D04B46009706A928464F
:10323800FFF76AFE059B1C44EBE700BF379A0008BE
:103248002E9A000873B542F20F738B4228BF0B46C3
:1032580005680F4A04460521684603F0FCF96368CF
:103268000C495B6806460B22284603F094FE636807
:103278003246694628465B6803F08DFE6368064956
:103288005B681B22284603F086FE02B070BD00BFB3
:1032980081A10008759A0008599A0008084A10B5D3
:1032A8000123084C13600021A04204D801B1136027
:1032B800054B186010BD40085B000121F4E700BF12
:1032C800A016002040420F009C160020F8B5074FBA
:1032D8000D4604464618B44201D12846F8BD386860
:1032E80014F8011B83685B689847F4E7B816002058
:1032F800014803F0BABF00BF109600080148FFF765
:10330800A1BF00BF1096000808B5034802F03CF8BA
:10331800024B186008BD00BF819A0008B81600204B
:1033280010B508460C4603F091FD054821460F22CA
:10333800FFF70CFF2046BDE8104003F0B6BD00BF04
:103348001096000838B5044C044DAC4200D338BD83
:1033580054F8043B9847F8E7748900087489000812
:1033680038B5054C256804EB850405B938BD54F813
:103378000439013D9847F8E76C89000808B5064804
:1033880002F002F8054B1860054801F027F80448D8
:10339800FFF7BCF9002008BD819A0008BC16002080
:1033A800AD3300080A2838B5074D044604D128680B
:1033B80083680D215B68984728688368E1B25B6879
:1033C8009847204638BD00BFBC1600202DE9F843B9
:1033D8000D4F04460E4615464FF0010802F1040948
:1033E800B44201DBBDE8F8837A6908FA04F333EAEA
:1033F800020207D17B6155F834301BB159F83410FB
:10340800204698470134EBE7003C0140044A012379
:10341800116883400B431360024B185600F0ECBA56
:10342800003C0140B79A00081F2807DC0449012224
:103438000B6802FA00F023EA00000860704700BF3A
:10344800003C014003290FD8DFE801F0020F1723E1
:10345800154B0122996802FA00F021EA00019960EF
:10346800DA6822EA0000D8607047012303FA00F006
:103478000D4B9A6802439A60F2E7012303FA00F0C1
:10348800094BDA680243DA609A6822EA0000986019
:103498007047012303FA00F0034B9A6802439A60CD
:1034A800DA681043DFE700BF003C014010B5074C65
:1034B80054F8303033B944F8301004EBC0041846DF
:1034C800626010BD6FF00F00FBE700BFC41600205C
:1034D800034B002243F8302003EBC0035A607047C7
:1034E800C41600200B6886B0062B39D8DFE803F035
:1034F8000410242E38381A001B4A4B68116B1943E4
:103508001163126B13400193019B002006B07047B2
:10351800154A4B68516B19435163526B1340029320
:10352800029BF2E7104A4B68916B19439163926BC7
:1035380013400393039BE8E70B4A4B68116C19434C
:103548001164126C13400493049BDEE7064A4B682F
:10355800516C19435164526C13400593059BD4E791
:103568006FF08500D2E700BF00380240084B0968B9
:103578001B68062909D8DFE801F0050504050808D5
:1035880005005B081360002070476FF085007047E6
:10359800A000002030B587B000234FF48052CDE959
:1035A8000032029300F070F803A803F0F7FE184BFE
:1035B8001A68910706D41A6842F001021A601A685C
:1035C8009207FCD5124CA36823F00303A360A368F9
:1035D80023F0F003A360A56815F00C05FBD1236860
:1035E8000C4823F080732360636823F0706343F012
:1035F8000063636003AA6B46012101F06BFE236838
:1036080023F00103236003F0D2FE284607B030BD43
:103618000038024000127A000B6882B0062B2DD8C1
:10362800DFE803F0040D1E252C2C1400154A496808
:10363800136B23EA01031363002002B07047114A99
:103648004968536B23EA01035363F5E70D4A4B6856
:10365800916B19439163926B13400193019BEBE7C4
:10366800084A4968136C23EA01031364E4E7054A2E
:103678004968536C23EA01035364DDE76FF0850062
:10368800DBE700BF00380240064B1A6C42F080525C
:103698001A641B6C82B003F080530193019B02B043
:1036A800704700BF003802402DE9F84F0F4611B9A6
:1036B8000020BDE8F88F0026DFF85890041DB346B7
:1036C80054F8045C15F0F00F1ED1226842F0200B6C
:1036D800C5F30333012159F823804046C5F3072A6F
:1036E80000F018FF0028E4D1EBB2B8F1000F05D0C4
:1036F8005A460AF00F01404603F0CBFE0136B742A6
:1037080004F10804DCD1D3E7EBB2102B08BF4FF06B
:10371800300BDDE7209600084FF0E02310B59A69DA
:1037280019699869094B11F4803F094901D182420E
:1037380006D21A680C6822441A604FF0E022126917
:103748001B680A681344181A10BD00BF90170020A0
:103758008C17002008B5FFF7DFFF0C4B0C4A1868E0
:1037680011680844106000221A600A4A13684FF46E
:103778001651C01AB0FBF1F001FB0033136002F0E0
:10378800BBFCBDE8084000F013BD00BF9017002047
:103798008817002084170020094B102283F8232063
:1037A800084B42F27F521A60074B002018604FF016
:1037B800E0235A6198611A6942F007021A6170475A
:1037C80000ED00E08C17002090170020F8B5324D6E
:1037D80059B1431C09D14FF0E022136923F00103CA
:1037E80013614FF07F432B60F8BD40F2D263B0F114
:1037F800FF3F08BF1846441E002C2F6832DD9C424C
:10380800A8BF1C464FF01003EFF3118683F311880D
:10381800BFF36F8FFFF780FF20494FF0E0230022AE
:10382800D3F818C00B6818441D4B08601A601D4B6C
:103838001B68C21A18D54FF480632B604FF0E02242
:103848002C6893699C4538BFBC44013CACEB030C25
:103858005461604400249461086086F31188BFF3C2
:103868006F8FC1E70024CDE74FF4165E0EFB0424EA
:1038780004F515541B1A3F34B4FBFEF40EFB043454
:10388800B4F5806F04D9084B9C42D6D82C60D5E794
:103898004FF48064FAE700BF8C17002088170020D7
:1038A800901700208417002000C3FF0010B54FF0C8
:1038B8001003EFF3118483F31188BFF36F8FFFF7C1
:1038C8002BFF074B074A1B6812689B1A184484F39E
:1038D8001188BFF36F8F4FF41653B0FBF3F010BD90
:1038E800881700208417002010B54FF01003EFF35D
:1038F800118483F31188BFF36F8FFFF70DFF044B1B
:103908001B68184484F31188BFF36F8F10BD00BF84
:1039180088170020094A0A4993680968996709497C
:1039280058674B6843F080534B60002383F311883A
:10393800BFF36F8F9368986F704700BF1819002006
:10394800E498000800ED00E021498A6882F8BDE0AB
:103958004FF030001044EFF3098C80E8F01F1EF0A0
:10396800100F03D102F17C0080EC108A102080F344
:103978001188BFF36F8F174F4FF000660A6A8A608D
:103988003E6092F9BDE0506F0023536780F31188C1
:103998001EF0100F03D00023E1EE103A03E002F10D
:1039A8007C0090EC108AEFF3148323F0040383F374
:1039B8001488BFF36F8F04B5104600F031FCBDE8E2
:1039C800044002F1300090E8F01F8CF3098870473A
:1039D8001819002004ED00E01EF0040F0CBFEFF3EF
:1039E8000880EFF30980816911F8021C0229FFD0D1
:1039F80001B503F0E1FC01BD43B2002B08DB012255
:103A080000F01F0002FA00F05B09024A42F82300A6
:103A1800704700BF00E100E043B2002BA8BF03F1EC
:103A2800604301F10101B8BF064B4FEA0111ACBF79
:103A380003F5614300F00F00C9B2B4BF195483F80D
:103A48000013704714ED00E0017B10B511F002047B
:103A580005D0416E60314166816E6039816642F8F9
:103A6800203C029B42F81C3C0F49039B42F8183C3F
:103A7800049B42F8143C21F001014FF0807342F896
:103A8800043C42F8081C0023203A02654367C0F84A
:103A9800BC301CB9FD2380F8BD3010BD4FF608536B
:103AA800C0F8BC30F9E700BF7966000830B5017B83
:103AB800D0F8BC30174A11F0020F03F0080503D103
:103AC80090F8BD40E40613D4546B44F0804454632A
:103AD8004DB943F00803C0F8BC30436E6033436609
:103AE800836E603B836641F002010173802030BD24
:103AF800516B21F0804151634DB123F00803C0F8A8
:103B0800BC30436E603B4366836E6033836620201F
:103B1800EDE700BF00EF00E00D4B0246986810B5D6
:103B280090B1D0F8BC30406E13F0080F14BF802459
:103B3800202412F1160F04D0031B934205D88242A9
:103B480003D2814228BF002010BD0020FCE700BF3F
:103B58001819002008B514460D460022E1EE102A77
:103B6800EFF3148222F0040282F31488BFF36F8FFC
:103B7800084A906000F054FB204685F3098800212C
:103B880063B681F31188BFF36F8F0022002302F020
:103B98006FFD00BF18190020014910220A60704704
:103BA80010ED00E072B6404080F31188BFF36F8FCC
:103BB800BFF34F8F30BF62B6BFF36F8F704700BF40
:103BC8002DE9F04307468BB00C46002954D02E4B04
:103BD8002E4D2F48DFF8CC90ED1AED08AD0145F0D9
:103BE8000105ADF80050D1E90123096803F0AEF8EA
:103BF800ADF80050D4E90423E168264803F0A6F89C
:103C0800E16925482A4603F071F8A0460026D8ED58
:103C1800087A0296FCEEE77A731CCDED037AD8EDAC
:103C2800097A0493FCEEE77AB31CCDED057AD8ED5A
:103C38000A7A0693FCEEE77AF31CCDED077AD8ED05
:103C48000B7A0893FCEEE77A08222B460DEB02016B
:103C580048460436CDED097A03F097F8102E08F19E
:103C68001008D4D1216E0D482A4603F03FF8A16907
:103C78000B482A4603F03AF8214638460BB0BDE80F
:103C8800F04301F0C3BB00BF748900089C89000899
:103C9800E59A0008149B0008439B0008959B0008C0
:103CA800A49B0008529B000830BFFFF7FDBF00BF70
:103CB800144A08B5144B22F07F029A60BFF34F8F65
:103CC800BFF36F8FD3F8882022F47002C3F88820DE
:103CD800D3F8882042F4A002C3F888204FF040426D
:103CE800C3F83422BFF34F8FBFF36F8F0023E1EE89
:103CF800103A01F0E9FB02F021F900F067FA01F04F
:103D08000BFC00BF0000000800ED00E001B5EFF378
:103D18000580A0F110004FEAC0000449014409C918
:103D28009847BDE80140024908470000648600083A
:103D3800B9410008102080F3118808484FF4026147
:103D4800401880F30988EFF314800221084380F3B8
:103D58001488BFF36F8FFFF7ABFF0000803A002095
:103D6800EFF30880EFF3098101B5724600F04EF9D0
:103D780001BD00BF2DE9F047354B364C364DE41AEE
:103D8800E408A40144F00109074688463348494637
:103D9800164602F09CFFAB6ADB0603D5304849465D
:103DA80002F095FFAB6A180704D52E4844F00101CC
:103DB80002F08DFF284DAB6A990723D46FF01509DF
:103DC800254DAB6ADB0704D5274844F0010102F012
:103DD8007EFFAB6A980604D5244844F0010102F03E
:103DE80076FF1D4B9A6AD10624D49A6A920721D489
:103DF8000020194A936A43F0FF039362002333704B
:103E0800BDE8F08744F0010A1948514602F05FFF07
:103E1800D5F83490AB6A1A06D0D5164852464946AA
:103E280002F064FFB8F1000FCAD0AB6A23F0800338
:103E3800AB62C5E75B681B05DAD539464846FFF72C
:103E48006BFE0028D4D080F309880220D1E700BF98
:103E5800748900089C89000800ED00E0D29B0008E6
:103E6800E89B00081B9C00085C9C00087B9C0008E1
:103E78002E9C0008469C000870B5234B234C244D0B
:103E88002448E41AE408A40144F00106314602F08B
:103E98001EFFAB6A9B0103D51F48314602F017FF8E
:103EA800AB6ADD0104D51D4844F0010102F00FFFA3
:103EB800174DAB6A180304D5194844F0010102F004
:103EC80006FFAB6A590304D5164844F0010102F015
:103ED800FEFE0F4DAB6A9A0304D5134844F0010166
:103EE80002F0F5FEAB6ADB0304D5104844F001018B
:103EF80002F0EDFE064A936A6FEA03436FEA134342
:103F08009362002070BD00BF748900089C89000876
:103F180000ED00E0AA9C0008C29C0008D59C00089F
:103F2800EF9C00080D9D0008329D00084C9D00087C
:103F38002DE9F0412A4B2B4C2B4DE41AE408A4013F
:103F480044F0010807460E462848414602F0BFFEE5
:103F5800AB6AD90403D52648414602F0B8FEAB6ADD
:103F68001A0504D5234844F0010102F0B0FE1E4DA5
:103F7800AB6A9B0512D544F001081F48414602F080
:103F8800A6FEA96BAB6A180408D51C48424602F085
:103F9800ADFE1FB1AB6A23F40043AB62124DAB6AAE
:103FA800590504D5164844F0010102F090FEAB6AA9
:103FB800DA050DD5134844F0010102F088FE0A4ADB
:103FC800936A002043F47F4393623070BDE8F08128
:103FD800AB6A9B04F3D50C4844F00101EDE700BF40
:103FE800748900089C89000800ED00E0779D0008AE
:103FF8008D9D00081B9C00089E9D0008B79D000829
:10400800CC9D0008E79D00087B9C00082DE9F04343
:10401800584B5E689DB0C6F30804002585F31188E7
:10402800BFF36F8F02F07F43B3F17F4F0DD102F0E2
:104038000C03082B0BD15049504B5148C91AC908D9
:10404800890141F0010102F042FE2F4604E0120707
:104058004EBF0F460746012500238DF80730E31EA3
:10406800092B6ED8DFE803F0055C60406D6D6D6D5F
:104078006D64424B404EDFF8FC804248F61AF60861
:10408800B60146F00106314602F021FED8F82C4070
:104098004FF0000914F002048DF8079005D03A4853
:1040A800314602F014FE002421E0D8F82C305B00E1
:1040B8001DD53648314602F00AFE98F8283033B14B
:1040C8000DF1070201213846FFF754FE0EE098F87B
:1040D80029302BB10DF107010120FFF729FF05E079
:1040E800B8F82A309BB213B1FFF7C6FE04469DF814
:1040F800073093B96822394602A804F01EFA099BD2
:104108009DB3C3F3080222B96FEA53236FEA43232E
:10411800099302A92046FFF753FD1DB0BDE8F083BF
:104128000DF107020021CEE70DF107010020D4E7C9
:104138001149124B1648C91AC908890141F00101F1
:10414800AFE70E4A0C4B134813499B1ADB0816F4C9
:10415800F87F4FEA831318BF014643F001030F4865
:10416800A4F1100202F0D9FD9DE723F4FF7323F0B8
:104178000103CDE700ED00E09C8900087489000880
:10418800FF9D00082A9E0008419E0008629E0008C4
:10419800819E0008BA9E0008A59E0008D39E0008CC
:1041A800024A536943F010035361704700ED00E081
:1041B800044B9968186A884203D003494FF080522B
:1041C8000A6070471819002004ED00E00448002335
:1041D8001021C2180133612B82F80013F9D17047FE
:1041E80000E100E0064B9B68834207D1EFF30583AB
:1041F80023B1044A536843F08053536001F04CBE26
:104208001819002000ED00E0024B034A0348012181
:1042180000F092B800000220000000204C96000830
:1042280010B50446FFF742FC626E064B121AC3E94A
:104238000020054A9A60BDE810400121184600F0A8
:1042480085B800BF9417002000000B15F8B52A4F59
:1042580000268E4215DA4468002C49D0CBB104F10F
:10426800FF3C14EA0C0F0ED0244A254B2548D21ADD
:10427800D208920142F00102314602F037FD6FF098
:1042880015021046F8BD1F2CEED905681CEA050F6B
:10429800EAD1202CD5B2D0F808C0026816D9B4F1FA
:1042A800004F15D8013CB4FA84F4C4F11F0464002B
:1042B800072D4CEA04040DD9104A114B1248D21AA2
:1042C800D208920142F001022946D6E70824EFE716
:1042D8003E24EDE722F01F022A4342F0100244F088
:1042E8000104C7F89850C7F89C20C7F8A0406A1C7A
:1042F80001360C30ADE700BF00ED00E094890008FE
:1043080074890008EA9E00080D9F0008044B0522E6
:10431800C3F89420BFF34F8FBFF36F8F704700BF70
:1043280000ED00E0BFF35F8F024B0022C3F894203A
:10433800704700BF00ED00E010B5034C0123227860
:10434800FFF784FF207010BD2C20002008B5094A13
:1043580000231278FFF77AFF10F1160F03D0064BEF
:104368000022072800DD08BDC3F89800C3F8A02084
:104378000130F6E72C20002000ED00E01449086821
:10438800082810B521D8FFF7CDFF124C4968002244
:10439800904201F10C0105D10F4B1870FFF7B6FFE1
:1043A800002010BDC4F8982051F80C3C23F01F03DE
:1043B800134343F01003C4F89C3051F8043C43F015
:1043C8000103C4F8A0300132E2E74FF0FF30E8E71C
:1043D8005896000800ED00E02C200020014B1860E2
:1043E800704700BF2000002013B50190084C2046FC
:1043F80003F0A1FD38B1A36801991B68204602B0FB
:10440800BDE8104018476FF0120002B010BD00BFA1
:10441800AC000020F7B50C461146B1F5005F4768BF
:1044280002691E4623D104F0030304339A000F23C4
:10443800934043EA9403DAB23349023251F8222016
:10444800190C02EA134391FAA1F2B2FA82F2D340AC
:10445800BA689A4209D12046FEF7E6FF2046FFF7E0
:1044680037F800212046FEF7EDFF00253EE0B1F5C4
:10447800804F42D025492046FFF718F80546002806
:104488003ED1234ABF6892E803006B4683E80300E5
:104498001846FFF7A9FFC0B904F0030104318B00E7
:1044A8000F21994041EA9401CAB2920002F1804278
:1044B80002F59C320B0C906893FAA3F3B3FA83F3DA
:1044C80020EA11419F400F439760B6F5802F10D026
:1044D800B6F5C02F0FD0B6F5003F14BF002102215A
:1044E8002046FEF7AFFF2046FEF790FF284603B0B0
:1044F800F0BD0121F4E70321F2E76FF08505F5E748
:104508006FF00F05F2E700BF003801407374000830
:10451800908A000870B544680C3421B12046BDE883
:104528007040FFF761BF074D284603F004FD30B126
:10453800AB68214628465B68BDE8704018476FF0B5
:10454800120070BDAC00002002694368126ADB6883
:10455800C2F34202012A10B504D0022A21D06FF01A
:10456800150010BD5868234AB1FBF2F220F03F0055
:1045780010435860186A013220F03F0002431A6263
:104588001D4AB1FBF2F140F6FC721142DA6922F4DD
:104598004F4208BF042122F0FF020A43DA610020DB
:1045A800DFE75868134AB1FBF2F220F03F001043EE
:1045B8005860186A4FF49674624320F03F004FF435
:1045C8007A74B2FBF4F2013202431A620B4A914246
:1045D80084BF0132B1FBF2F1DA6922F44F428CBF99
:1045E80041F4004148F2010122F0FF021143D96170
:1045F800D5E700BF40420F00400D03007F4F120077
:104608002DE9FF410F464168D0F81080CE6800229E
:1046180004310546039201911D4C204603F08BFCA2
:10462800019978B91B4B1C491C48C91AC90889014A
:1046380041F0010102F04BFB6FF00405284604B07D
:10464800BDE8F081A368DB68002BEBD003AA204605
:1046580098470028E6DBC8F8207008F110084FF0EA
:10466800FF324FF0FF33404601F02CF933680399CD
:1046780023F001033360336823F01A0333602846BC
:10468800FFF762FF0546404601F0FCF8D6E700BF99
:10469800AC000020748900087C8900087A9F000813
:1046A800F7B54668076905464FF0FF3200213846DE
:1046B80003F028FD336828469847D6E90501F268D3
:1046C800FEF7F2FF041E0DDA354A364B3648D21A89
:1046D800D208920142F00102214602F007FB20466F
:1046E80003B0F0BD0122114607F1100003F00AFDE6
:1046F800311D01912D4C204603F01DFC019960B934
:10470800284B27492A48C91AC908890141F00101DB
:1047180002F0DDFA6FF00404E1E7A36820461B68A5
:10472800984704460028EBD13369224A93422FD098
:1047380023D8214A93422DD0204A93422CD0194B9A
:1047480017491F48C91AC908890141F0010102F037
:10475800BEFA0021284641F01001FFF751FF051E5F
:10476800BDDA104B0E491748C91AC908890141F02A
:10477800010102F0ACFA2C46B1E7134A93420DD07E
:1047880002F5C31202F520629342D8D10A21E1E76B
:104798000621DFE70221DDE70421DBE70821D9E76D
:1047A8007C890008748900089D9F0008AC000020DF
:1047B800BB9F000840420F00A0860100801A060037
:1047C800D79F0008F29F000840E1330070B50669E2
:1047D8004468194D284603F0AEFB68B9174B1849D1
:1047E8001848C91AC908890141F0010102F06FFA95
:1047F8006FF00404204670BDAB6828461B6821464C
:10480800984705460028E9D1D4E90301A268FEF7D4
:104818004BFF041E0BDA094B094A0B48D21AD2087F
:10482800920142F00102214602F060FAE2E73046C6
:1048380003F04EFA2C46DDE7AC000020748900082E
:10484800A489000825A0000840A000082DE9F04F21
:104858001F46436804699E688FB00546884691469E
:104868000AB9002F3DD0B8F804305B043DD44FF0AE
:10487800FF324FF0FF3304F1080001F023F8C4F8C9
:104888000480DFF8E8C26B680393BCE80F00D5F832
:1048980010B006AD0FC59CE80F0085E80F00DBF8E7
:1048A8000030984500F0C280B8F80430C3F34513CF
:1048B800082B02D0102B40F06881039B9D68DFF81D
:1048C800B0A2504603F037FBB0B9A24BA249A348A7
:1048D800C91AC908890141F0010102F0F8F96FF01D
:1048E800040738460FB0BDE8F08F2369002BBED10E
:1048F80063689845BBD1C4E7DAF80830DB68002B59
:10490800E3D0039905AA504698470028DDDB059AAD
:10491800D8F80010012322FA03F0884240F20D82F1
:104928000133092BF7D18B488B4B1B1ADB089B01F2
:1049380043F00103ADF800308948130A520802F029
:1049480005FA6FF01507CCE72A6842F002022A60E0
:104958002A6858074CBF42F0010222F001022A607F
:104968002A6822F444422A602A68D9064CBF42F0D9
:10497800800222F080022A602A6822F400522A600B
:10498800D8F80820296803F001005AB141F40071F1
:104998002960696821F00401696068B9296841F4EF
:1049A80082710CE021F40071002800F0CB802960AE
:1049B800696821F004016960296821F4827129601D
:1049C800C3F34513082B2B680CBF23F4006343F48F
:1049D80000632B606B6823F010036B60CBF80080DA
:1049E800002A00F0C7801068002800F0C380117A00
:1049F800537AD0F810E0D0F80880DEF80050DA07D3
:104A080054BF43F4B05383F4D0534FF0010C23F454
:104A180080520CFA01FCDB074CBF45EA0C0525EA7D
:104A28000C05D8F80030CEF800509847B9F1000FBF
:104A380000F0AE80D9F80030D9F80420E362226390
:104A48001A685B68E2632364002F00F0A6803B6865
:104A58007A686363A2631A685B686264A3643368F4
:104A6800002243F04003A26201213360204603F094
:104A78000AF923689B8813F0010140F0CF80B268DF
:104A88009007FCD5C3F34513082BE26B40F09080E8
:104A980012B1236C03B11178C9B23173236C83B19D
:104AA800013B2364002B7DD1236B013B2363002B47
:104AB8007CD0E36A03F10802E2629A68DB68E26389
:104AC8002364B368D907FCD522689288C2F34512DB
:104AD800082AD4E91131F26840F088800BB101B19D
:104AE8001A70A36C93B1013BA364002B40F0E880DB
:104AF800A36B013BA363002B00F0E780636B03F11A
:104B0800080262639A68DB686264A364B26812F49C
:104B1800B87200F0E2800F490F4B12485B1ADB08AD
:104B28009B0143F00103104902F0F7F8B3685D06F2
:104B380005D5F3680593059BB3680593059B6FF04E
:104B48000407D2E041F480212960696841F004013A
:104B5800696023E774890008A48900087A9F00081F
:104B68008FA0000884A00008D1A00008988A000837
:104B7800AC0000207C4B7D497D48C91AC9088901D1
:104B880041F0030102F0A3F850E76FF08507A8E6AB
:104B9800C4E90B99C4E90F9956E7C4E90D77C4E94C
:104BA80011775CE7E36B002B8BD00133E36388E775
:104BB800236C0AB103B11188B181002B81D0013B6C
:104BC80023646BB9236B013B2363002BEED0E36AAC
:104BD80003F10802E2629A68DB68E2635B086FE748
:104BE800002A3FF46EAF0232E2636AE70BB101B10B
:104BF8001A80A36C002B89D0013BA364002B66D1DB
:104C0800A36B013BA363002B5FD0636B03F1080226
:104C180062639A68DB6862645B0876E7B268920749
:104C280049D5216C002946D0C3F34513082BE26B04
:104C38002BD113783373236C9BB1013B236463B985
:104C4800236B013B23635BB1E36A03F10802E26271
:104C58009A68DB68E263236403E0E36B0BB101331A
:104C6800E363B368DF077FF551AF636C002B3FF454
:104C78004DAFA26C002A3FF449AF22689288C2F374
:104C88004512082AF268B3D12AE71388B38101399B
:104C9800216469B9236B013B2363002BE0D0E36AED
:104CA80003F10802E2629A68DB68E2635B08D2E714
:104CB8000232E263D5E7736823F080037360D0E7BC
:104CC800636C002B3FF422AF013363641EE7636C0F
:104CD800002B3FF41BAF0233F7E7236C002B7FF464
:104CE800C8AEA76C002F7FF4C4AE00221146204640
:104CF80002F0C9FF336803F48273B3F5827F02D1EF
:104D0800B3681806FCD4B368990606D5B368069349
:104D1800069B336823F040033360336823F0400375
:104D2800336023689B8813F480437FF4DAAD6360B3
:104D380004F1080000F0A6FDD3E52A680EA922F0C8
:104D480040022A6001EB83032A6853F8243C22F0CE
:104D5800380213432B60B8F804309A073FF5F4ADD6
:104D68002A6822F00202F2E574890008A489000882
:104D78005EA0000843681B685A6942F001025A6144
:104D88000F4A934213D0A2F54C4293420FD002F53A
:104D9800806293420BD002F58062934207D002F5FD
:104DA8008062934203D002F54442934203D11A69C8
:104DB80042F040021A61DA6842F48072DA607047A1
:104DC8000010014043681B685A6922F001025A61C9
:104DD8000F4A934213D0A2F54C4293420FD002F5EA
:104DE800806293420BD002F58062934207D002F5AD
:104DF8008062934203D002F54442934203D11A6978
:104E080022F040021A61DA6822F48072DA60704790
:104E180000100140F7B5036947685E6857F80C4B06
:104E28000D46304603F087F858B91849184B194809
:104E3800C91AC908890141F0010101F048FF03B00E
:104E4800F0BDB368DB68002BEFD001AA39463046C5
:104E580098470028E9DBE368019823F40043192107
:104E6800E360AA00AB0FA0FB0101FBF7C7FD6422BA
:104E7800B0FBF2F102FB11031B013233B3FBF2F377
:104E880003EB01139BB2A360D9E700BFAC8900080C
:104E9800748900087A9F00082DE9F8434668076975
:104EA800DFF8D080B146054659F80C4BC7F80480A6
:104EB800404603F040F818B96FF00400BDE8F883E5
:104EC800D8F8083040461B6849469847804600286D
:104ED800F2D16B68D6E907011A68FEF7E5FB0028EE
:104EE800ECDBE368B16923F40053E360E36802296B
:104EF80043F00C03E3600FD0012930D051B11A4BB5
:104F08001A4A1B48D21AD208920142F0020201F052
:104F1800EDFE4146084603E04FF480514FF48060AF
:104F2800E368014323F4B0531943E160236923F490
:104F380040532361337D2BB16B681A68536943F47E
:104F48004073536139682846FFF764FFE36843F408
:104F58000053E3602846B36898470020AEE74FF453
:104F680080514FF4C060DBE774890008AC89000801
:104F7800E3A00008AC0000202DE9F0470A79436857
:104F880006691C68012A0D4600F08980022A0CBFB8
:104F98004FF48061002195F8059095F806E0B9F185
:104FA800020F96BF424B4FF4005833F81980BEF1F8
:104FB800040F77D0002A0CBF00234FF48053EF79F9
:104FC800A2F1030A012F14BF4FF0000C4FF4407CEC
:104FD800BAF1010F69D912B1BEF1040F65D019F009
:104FE800FD0F62D0BEF1020F5FD9BEF1040F5CD095
:104FF800C7B1304A944213D0A2F54C4294420FD024
:1050080002F5806294420BD002F58062944207D088
:1050180002F58062944203D002F54442944244D19E
:10502800012F42D1E26822F40052E260E26802F401
:10503800C06291421FBFE76827F4C0670F43E7606B
:10504800226902F4405290451FBF216921F4405162
:1050580041EA08012161E268296802F4805293421A
:105068001FBFE26822F480521A43E260636903F4C6
:1050780040739C451FBF636923F4407343EA0C03E4
:1050880063613368994203D0FFF7C4FE2B6833602D
:10509800E36843F40053E3600020BDE8F0874FF471
:1050A800C06178E74FF4805389E76FF08500F4E733
:1050B800FC9800080010014030B50A4C41EA821201
:1050C8006568094929400A4310436060626822F410
:1050D80040321A436260626822F0E0421343636020
:1050E80030BD00BF003802400080BFFF084B196880
:1050F8001A681B6801F0007102F000520A4314BFDD
:105108000120002013F0006F18BF0120704700BF76
:105118000038024000284CD0424B1B6803F440433F
:10512800B3F5404F10D103F10F6303F58C53984248
:105138003D4A44D83D4B984271D890423DD83C4BAB
:10514800984203D8002340E0002344E0022342E0D1
:10515800384A904209D9344A002B08BF04239042A8
:1051680049D8334A904246D903E0314A904242D95D
:105178001BB1012B38BF012340E002233EE02C4A3B
:10518800904203D9002B46D1022302E02A4A9042DA
:1051980041D82A490A6822F00F021A430A600A68AD
:1051A80002F00F02934206D00A6802F00F029342FF
:1051B80001D00120704700207047032305E0052334
:1051C800904202D81A4A904202D81B4A904202D909
:1051D800012B38BF0123134A126802F44042B2F58A
:1051E800004F0BD102F10F6202F5A3429042AFD9F2
:1051F800002B08BF0523104A9042BAD8094A126802
:1052080002F44042B2F5804FC3D1074A9042B6D962
:10521800002B08BF0323012B38BF0123B9E7042360
:10522800CEE700BF00700040804A5D05000E2707EA
:1052380000879303001BB70080C3C901003C0240EC
:105248000B68214AC3F3031370B5D35C1F4E20FAD1
:1052580003F43368A3420D4627D31D4B1A6842F066
:1052680080721A601A689201FCD59A68296822F03F
:10527800F0020A439A609A6822F0030242F002029E
:105288009A60134B9A6802F00C02082AFAD19A68BD
:10529800696822F4E0520A439A609A68A96822F47D
:1052A80060420A439A60002004E02046FFF732FF7C
:1052B8000028D2D03368A34202D92046FFF72AFF3C
:1052C80000B9346070BD00BF27A10008A00000200D
:1052D80000380240F8B505460F4614461E46FFF74B
:1052E80005FF60BB21686268A368164C01F03F00A7
:1052F800B5FBF0F0C2F308054543180C0130400037
:10530800B5FBF0F5206880030FD42068012F0CBF8F
:1053180040F4802020F480202060206840F4803011
:105328002060084C20688003FCD54FF48000FFF70C
:10533800C3FE31462846BDE8F840FFF781BF01208B
:10534800F8BD00BF003802400E4B70B553F820403E
:10535800013053F82060A64200D870BDD4E900356A
:105368002846984765B1EB6830B10028B8BF40427D
:10537800FF28A8BFFF2018705A7842F001025A701F
:105388000834E8E7D098000870B5054610B900243D
:10539800204670BD0378002BF9D00E4C0E4EB44257
:1053A80008D10C4CB442F2D0204602F0C4FD50B9EA
:1053B8001834F7E7204602F0BEFD10B12368AB426F
:1053C800E6D01834EBE721682846FBF79DFC002857
:1053D800EED1DDE7AC0000202C02002010B5044619
:1053E800FDF7CEFC064B07490748C91AC9088901C9
:1053F80041F0010101F06BFC204602F0A6FD00BF60
:10540800748900089C89000837A100082DE9F34138
:1054180006460F464FF01003EFF3118883F3118807
:10542800BFF36F8F00F032FD1F4C204BE41A042E9F
:105438004FEAD40496BF1E4A1E4A52F82620A401F9
:1054480044F001030546ADF800301B4800233146FF
:1054580001F07CFC47B1FB69C3F3080323B117488B
:1054680044F0010101F033FC44F001042DB1284659
:1054780002F0C2FD08B1037803B91148FDF706FB35
:105488002346024629460F4801F047FC3946304674
:10549800FFF7A4FF88F31188BFF36F8F284602B087
:1054A800BDE8F041FEF79EBE9C890008748900089B
:1054B800E898000846A100085CA1000884A100083B
:1054C80054A10008A5A100080248034A0021121AA5
:1054D80003F041B8800200203420002008B50C4BAE
:1054E800012202201A70FFF72FFF00F057FFFDF787
:1054F80037FFFDF727FF0320FFF726FF00F044F9E9
:10550800FDF79EF8034A137B23F00103137308BDCC
:105518002D200020000500202DE98048B7B0FDF7B8
:10552800EDF9DFF8009189F30888364D364E6B693E
:10553800DFF8F4A0354F43F4007300246B61F023C7
:1055480085F82230EC772C766C76AC766B6A43F46F
:10555800E0236B62FEF724FEFEF71EFB4FF0FF33DD
:10556800AB62EB62FEF70AFF294DFEF74DFE40F2F3
:105578000113ADF8243006ABAB60CDE91F4402F04F
:10558800D9FC2046FFF7E0FE0120FFF7DDFE4FF0D3
:10559800010B00F0CFFB1F4B2E621F4905934FF400
:1055A80080625346CDE9034BCDE90144009430466F
:1055B80000F08CF8737B804623F004033046737345
:1055C80002F028FE0F23CDE902431449144B4FF48F
:1055D800A072CDE904B4CDE90054384600F076F85D
:1055E8007B7BEF6023F004037B7305F11803C5E9A7
:1055F80006332C75C5F80490524641463046FEF7EE
:10560800A9FA00BF00ED00E00005002040040020DA
:105618001819002007A20008803400200039002053
:105628000580000800430020E554000870B50E4BC3
:105638000E4CA34201D3002070BDD3E9040141EA16
:10564800000212F003020BD1DD689A61AA4201D16F
:105658002033EEE79E690E60013299610144F5E757
:105668006FF01500E8E700BF2C0200202C02002094
:1056780037B50C464FF01005EFF3118185F311880B
:10568800BFF36F8F85695DB125602B688361C3693E
:105698000133C361002081F31188BFF36F8F11E0DC
:1056A80052EA030C03D125606FF00B00F3E7CDE954
:1056B80000230246083000F00DFA18B9024B9B6827
:1056C8005B69236003B030BD181900202DE9FF4144
:1056D8000E9E06730F46073200F1580522F00702A6
:1056E80004262037C0E91655C0E91972002546730B
:1056F80002F120080D9E0C9A8560C0E90655867354
:10570800C573C56602920B9A019288440A9A009260
:1057180042460446FEF798F9044B65659B6803B159
:105728001B6F2367404604B0BDE8F08118190020BC
:10573800F0B587B000270597109F04970F9F039730
:105748000E9F0297DDE912650D9F01970C9F009748
:105758000446FFF7BBFFB5F1FF3F08BFB6F1FF3FB7
:1057680005D055EA060305D1204600F0C5FA2046C3
:1057780007B0F0BD034932462B4604F1180000F08B
:1057880043FCF4E73D820008F0B5224C224D87B077
:105798002646AE4204F130040BD300F029F91D4C23
:1057A8001E4F0A26AC4220D307B0BDE8F04000F0F7
:1057B800D7B954F8043C059354F8103C049354F8B2
:1057C800143C039354F8183C029354F81C3C01937E
:1057D80054F8203C009354E90C0154E90A23FFF7DC
:1057E80075FF54F8303C5E65D2E7626A531C09D0F5
:1057F80022EAE27282FB062352EA0301206803D1FF
:1058080000F07AFA3034CDE73946183000F0FCFB66
:10581800F8E700BF2C0200202C0200203D8200087F
:1058280037B54FF01001EFF3118581F31188BFF3FD
:105838006F8F04689CB12368426823F00303944285
:10584800036008BF43600121204602F044FC04467F
:1058580085F31188BFF36F8F204603B030BD52EA3D
:105868000301F5D0CDE90023294600F10C020830E8
:1058780000F030F90028EFD1014B9B685C69EBE739
:105888001819002038B504464FF01003EFF31185BE
:1058980083F31188BFF36F8F02F003FD48B1002234
:1058A800826702F0B7FC29460548BDE8384000F099
:1058B8008DB8D4E902329A4218BF0133A360F2E7E7
:1058C8002E20002013B54FF01004EFF3118184F35C
:1058D8001188BFF36F8F846844B1013C846081F301
:1058E8001188BFF36F8F002002B010BD52EA030485
:1058F80006D181F31188BFF36F8F6FF00F00F3E7C4
:10590800CDE900230246024800F0E4F8ECE700BFC6
:105918002E20002070B504464FF01003EFF31185D8
:1059280083F31188BFF36F8F6FF00A06204602F0E9
:10593800B8FC18B1866702F06DFCF7E7A06029464D
:105948000248BDE8704000F041B800BF2E2000209A
:1059580010B5084C23685BB1FDF7A8FF226806491B
:1059680010440861BDE810400021104602F0D7BC81
:1059780010BD00BF501900201819002010B54FF0B5
:105988001003EFF3118483F31188BFF36F8F0C4B6F
:1059980000221A6190424FF00A030A4A00FB03F3FF
:1059A80009DC1360084B1960FFF7D2FF84F31188F4
:1059B800BFF36F8F10BD022BB8BF0223F1E700BF02
:1059C80018190020501900204C19002049B9EFF38C
:1059D800058030B9054B1A6A9B689A4201D0FDF7D9
:1059E80099BF81F31188BFF36F8F70471819002092
:1059F8004FF01003EFF3118183F31188BFF36F8F1A
:105A0800044B9A68D37B013BD37381F31188BFF3AE
:105A18006F8F70471819002038B502460C480D4D95
:105A280002F0C8FB044600B9EC68AB684AB95A7B77
:105A3800D20606D1A26922B9DA897F2A01D92B6256
:105A480038BD9C4201D0FFF783FF2C62F8E700BF06
:105A58003C1900201819002008B590F90D20437B47
:105A6800002A014604DA03F07F03437302F056FB71
:105A7800044B9868431A58425841BDE80840FFF75C
:105A8800CBBF00BF181900202DE9F0410646154686
:105A98001C464FF01003EFF3118783F31188BFF30F
:105AA8006F8F02F08DFB87F31188BFF36F8FB4F10E
:105AB800FF3F08BFB5F1FF3F08D02A46234606F14D
:105AC80018000349BDE8F04100F09EBABDE8F08136
