:020000040800F2
:1000000080490020F162000857C1000829630008F8
:100010002963000829630008296300080000000024
:10002000000000000000000000000000495F000820
:100030002963000800000000B55E0008BD5C0008F0
:10004000C9620008C9620008C9620008C9620008E4
:10005000C9620008C9620008C9620008C9620008D4
:10006000C9620008C9620008C9620008C9620008C4
:10007000C9620008C9620008C9620008C9620008B4
:10008000C9620008C9620008C9620008C9620008A4
:10009000C9620008C9620008C9620008C962000894
:1000A000C9620008C9620008C9620008C962000884
:1000B000C9620008C9620008C9620008C962000874
:1000C000C9620008C9620008C9620008C962000864
:1000D000C9620008C9620008C9620008C962000854
:1000E000C9620008C9620008C9620008C962000844
:1000F000C9620008C9620008C9620008C962000834
:10010000C9620008C9620008C9620008C962000823
:10011000C9620008C9620008C9620008C962000813
:10012000C9620008C9620008C9620008C962000803
:10013000C9620008C9620008C9620008C9620008F3
:10014000C9620008C9620008C9620008C9620008E3
:10015000C9620008C9620008C9620008C9620008D3
:10016000C9620008C9620008C9620008C9620008C3
:10017000C9620008C9620008C9620008C9620008B3
:10018000C9620008C9620008C9620008C9620008A3
:10019000C9620008C9620008C9620008C962000893
:1001A000C9620008C9620008C9620008C962000883
:1001B000C9620008C9620008C9620008C962000873
:0401C000C962000808
:0C01C400FFFFFFFFFFFFFFFFFFFFFFFF3B
:1001D00001F0FF01102A2BDB10F0070F08D010F8F8
:1001E000013B013A8B422DD010F0070F42B3F6D1FC
:1001F000F0B441EA012141EA014122F007047FF015
:1002000000070023F0E80256083C85EA010586EA6B
:10021000010685FA47F5A3FA87F586FA47F6A5FAA7
:1002200087F68EB9EED1F0BC01F0FF0102F00702B3
:1002300032B110F8013B013A83EA010313B1F8D15E
:100240000020704701387047002D06BF354603383F
:10025000073815F0010F07D1013015F4807F02BF78
:10026000013015F4C03F0130F0BC0138704700BFC9
:1002700081F0004102E000BF83F0004330B54FEA57
:1002800041044FEA430594EA050F08BF90EA020FC4
:100290001FBF54EA000C55EA020C7FEA645C7FEA57
:1002A000655C00F0E2804FEA5454D4EB5555B8BF7A
:1002B0006D420CDD2C4480EA020281EA030382EAEB
:1002C000000083EA010180EA020281EA0303362D7D
:1002D00088BF30BD11F0004F4FEA01314FF4801C50
:1002E0004CEA113102D0404261EB410113F0004F62
:1002F0004FEA03334CEA133302D0524263EB430319
:1003000094EA050F00F0A780A4F10104D5F1200EB6
:100310000DDB02FA0EFC22FA05F2801841F1000111
:1003200003FA0EF2801843FA05F359410EE0A5F1E5
:1003300020050EF1200E012A03FA0EFC28BF4CF016
:10034000020C43FA05F3C01851EBE37101F00045CC
:1003500007D54FF0000EDCF1000C7EEB00006EEBD9
:100360000101B1F5801F1BD3B1F5001F0CD3490863
:100370005FEA30004FEA3C0C04F101044FEA4452BA
:1003800012F5800F80F09A80BCF1004F08BF5FEA41
:10039000500C50F1000041EB045141EA050130BD21
:1003A0005FEA4C0C404141EB0101013C28BFB1F533
:1003B000801FE9D291F0000F04BF01460020B1FA7E
:1003C00081F308BF2033A3F10B03B3F120020CDA51
:1003D0000C3208DD02F1140CC2F10C0201FA0CF02F
:1003E00021FA02F10CE002F11402D8BFC2F1200C94
:1003F00001FA02F120FA0CFCDCBF41EA0C0190404A
:10040000E41AA2BF01EB0451294330BD6FEA040492
:100410001F3C1CDA0C340EDC04F11404C4F120027D
:1004200020FA04F001FA02F340EA030021FA04F38F
:1004300045EA030130BDC4F10C04C4F1200220FAE6
:1004400002F001FA04F340EA0300294630BD21FA24
:1004500004F0294630BD94F0000F83F4801306BFEA
:1004600081F480110134013D4EE77FEA645C18BFDE
:100470007FEA655C29D094EA050F08BF90EA020F75
:1004800005D054EA000C04BF1946104630BD91EA6D
:10049000030F1EBF0021002030BD5FEA545C05D170
:1004A0004000494128BF41F0004130BD14F58004AF
:1004B0003CBF01F5801130BD01F0004545F0FE4123
:1004C00041F470014FF0000030BD7FEA645C1ABF58
:1004D000194610467FEA655C1CBF0B46024650EA8F
:1004E000013406BF52EA033591EA030F41F40021BB
:1004F00030BD00BF90F0000F04BF0021704730B541
:100500004FF4806404F132044FF000054FF0000115
:1005100050E700BF90F0000F04BF0021704730B5D6
:100520004FF4806404F1320410F0004548BF4042AB
:100530004FF000013EE700BF42004FEAE2014FEA00
:1005400031014FEA02701FBF12F07F4393F07F4FDB
:1005500081F06051704732F07F4208BF704793F0DE
:100560007F4F04BF41F40021704730B54FF46074F1
:1005700001F0004521F000411CE700BF50EA0102F4
:1005800008BF704730B54FF000050AE050EA01029D
:1005900008BF704730B511F0004502D5404261EB0D
:1005A00041014FF4806404F132045FEA915C3FF44E
:1005B000D8AE4FF003025FEADC0C18BF03325FEAEB
:1005C000DC0C18BF033202EBDC02C2F1200300FA9C
:1005D00003FC20FA02F001FA03FE40EA0E0021FAC1
:1005E00002F11444BDE600BF70B54FF0FF0C4CF4AF
:1005F000E06C1CEA11541DBF1CEA135594EA0C0F61
:1006000095EA0C0F00F0DEF82C4481EA030621EA9B
:100610004C5123EA4C5350EA013518BF52EA0335D6
:1006200041F4801143F4801338D0A0FB02CE4FF088
:100630000005E1FB02E506F00042E0FB03E54FF0B8
:100640000006E1FB03569CF0000F18BF4EF0010EB0
:10065000A4F1FF04B6F5007F64F5407404D25FEAAC
:100660004E0E6D4146EB060642EAC62141EA55515F
:100670004FEAC52040EA5E504FEACE2EB4F1FD0CA1
:1006800088BFBCF5E06F1ED8BEF1004F08BF5FEA1F
:10069000500E50F1000041EB045170BD06F00046D1
:1006A00046EA010140EA020081EA0301B4EB5C047E
:1006B000C2BFD4EB0C0541EA045170BD41F4801176
:1006C0004FF0000E013C00F3AB8014F1360FDEBF9B
:1006D000002001F0004170BDC4F10004203C35DA77
:1006E0000C341BDC04F11404C4F1200500FA05F3FA
:1006F00020FA04F001FA05F240EA020001F000429B
:1007000021F0004110EBD37021FA04F642EB060110
:100710005EEA430E08BF20EAD37070BDC4F10C043A
:10072000C4F1200500FA04F320FA05F001FA04F2FE
:1007300040EA020001F0004110EBD37041F10001EA
:100740005EEA430E08BF20EAD37070BDC4F12005F5
:1007500000FA05F24EEA020E20FA04F301FA05F25D
:1007600043EA020321FA04F001F0004121FA04F205
:1007700020EA020000EBD3705EEA430E08BF20EAD5
:10078000D37070BD94F0000F0FD101F0004640000F
:1007900041EB010111F4801F08BF013CF7D041EA91
:1007A000060195F0000F18BF704703F00046520095
:1007B00043EB030313F4801F08BF013DF7D043EA66
:1007C0000603704794EA0C0F0CEA135518BF95EA1C
:1007D0000C0F0CD050EA410618BF52EA4306D1D1A3
:1007E00081EA030101F000414FF0000070BD50EAC2
:1007F000410606BF1046194652EA430619D094EA4C
:100800000C0F02D150EA013613D195EA0C0F05D135
:1008100052EA03361CBF104619460AD181EA030189
:1008200001F0004141F0FE4141F470014FF0000041
:1008300070BD41F0FE4141F4780170BD70B54FF0DC
:10084000FF0C4CF4E06C1CEA11541DBF1CEA13555C
:1008500094EA0C0F95EA0C0F00F0A7F8A4EB05043E
:1008600081EA030E52EA03354FEA013100F0888035
:100870004FEA03334FF0805545EA131343EA1263FE
:100880004FEA022245EA111545EA10654FEA0026B3
:100890000EF000419D4208BF964244F1FD0404F56C
:1008A000407402D25B084FEA3202B61A65EB0305C8
:1008B0005B084FEA32024FF480104FF4002CB6EB85
:1008C000020E75EB030E22BFB61A754640EA0C0005
:1008D0005B084FEA3202B6EB020E75EB030E22BF45
:1008E000B61A754640EA5C005B084FEA3202B6EB86
:1008F000020E75EB030E22BFB61A754640EA9C0045
:100900005B084FEA3202B6EB020E75EB030E22BF14
:10091000B61A754640EADC0055EA060E18D04FEAD2
:10092000051545EA16754FEA06164FEAC30343EA72
:1009300052734FEAC2025FEA1C1CC0D111F4801F3F
:100940000BD141EA00014FF000004FF0004CB6E738
:1009500011F4801F04BF01430020B4F1FD0C88BFD7
:10096000BCF5E06F3FF6AFAEB5EB030C04BFB6EBE2
:10097000020C5FEA500C50F1000041EB045170BDD5
:100980000EF0004E4EEA113114EB5C04C2BFD4EB02
:100990000C0541EA045170BD41F480114FF0000E86
:1009A000013C90E645EA060E8DE60CEA135594EA02
:1009B0000C0F08BF95EA0C0F3FF43BAF94EA0C0F05
:1009C0000AD150EA01347FF434AF95EA0C0F7FF47A
:1009D00025AF104619462CE795EA0C0F06D152EACE
:1009E00003353FF4FDAE1046194622E750EA4106B2
:1009F00018BF52EA43067FF4C5AE50EA41047FF4C3
:100A00000DAF52EA43057FF4EBAE12E74FEA410225
:100A1000B2F1E04324BFB3F5001CDCF1FE5C0DD95C
:100A200001F0004C4FEAC0024CEA5070B2F1004FA6
:100A300040EB830008BF20F00100704711F0804FA9
:100A400021D113F13872BCBF01F00040704741F46E
:100A500080114FEA5252C2F11802C2F1200C10FA72
:100A60000CF320FA02F018BF40F001004FEAC12356
:100A70004FEAD32303FA0CFC40EA0C0023FA02F3FA
:100A80004FEA4303CCE77FEA625307D150EA0133D0
:100A90001EBF4FF0FE4040F44000704701F00040A0
:100AA00040F0FE4040F40000704700BF53B94AB91F
:100AB000002908BF00281CBF4FF0FF314FF0FF3066
:100AC00000F078B9ADF1080C6DE904CE00F006F83D
:100AD000DDF804E0DDE9022304B070472DE9F047BA
:100AE000089D0E4604468E46002B4CD18A42944601
:100AF00067D9B2FA82F252B101FA02F3C2F12001CF
:100B000020FA01F10CFA02FC41EA030E94404FEA8C
:100B10001C48210CBEFBF8F61FFA8CF708FB16E305
:100B200041EA034306FB07F199420AD91CEB030390
:100B300006F1FF3080F01E81994240F21B81023E97
:100B400063445B1AA4B2B3FBF8F008FB103344EA29
:100B5000034400FB07F7A7420AD91CEB040400F189
:100B6000FF3380F00981A74240F2068164440238D5
:100B7000E41B40EA064000211DB1D4400023C5E932
:100B80000043BDE8F0878B4208D9002D00F0EF80CC
:100B90000021C5E900060846BDE8F087B3FA83F1F5
:100BA000002949D1B34202D3824200F2FF80841A65
:100BB00066EB030301209E46002DE2D0C5E9004EFE
:100BC000DFE702B9FFDEB2FA82F2002A40F08E803F
:100BD000A1EB0C064FEA1C471FFA8CF30121B6FB70
:100BE000F7FE07FB1E60260C46EA004603FB0EF0EC
:100BF000B04208D91CEB06060EF1FF3802D2B04213
:100C000000F2D080C646361AA4B2B6FBF7F007FB56
:100C1000106644EA064400FB03F3A34208D91CEB28
:100C2000040400F1FF3602D2A34200F2B88030463D
:100C3000E41A40EA0E409FE7C1F1200722FA07F4C8
:100C40008B40234306FA01FC26FA07F420FA07F644
:100C500046EA0C064FEA134900FA01F8B4FBF9FE24
:100C6000300C1FFA83FC09FB1E4440EA04440EFBCF
:100C70000CF0A04202FA01F20AD91C190EF1FF3A57
:100C800080F08B80A04240F28880AEF1020E1C44BE
:100C9000241AB6B2B4FBF9F009FB104446EA044446
:100CA00000FB0CFCA44507D91C1900F1FF3670D2DB
:100CB000A4456ED902381C4440EA0E40A0FB02E66F
:100CC000A4EB0C04B442F446B14659D356D0002DDF
:100CD0006ED0B8EB0C0364EB0904CB4004FA07F7C1
:100CE0001F43CC40C5E9007400214AE7C2F120004F
:100CF00024FA00F10CFA02FC06FA02F326FA00F0DC
:100D00004FEA1C4741EA0306B0FBF7F11FFA8CF3E8
:100D100007FB110E300C40EA0E4001FB03FE864536
:100D200004FA02F408D91CEB000001F1FF3832D2BA
:100D3000864530D902396044A0EB0E00B6B2B0FB54
:100D4000F7FE07FB1E0046EA00460EFB03F0B0422A
:100D500009D91CEB06060EF1FF3818D2B04216D99D
:100D6000AEF1020E6644361A4EEA014137E72946D3
:100D7000284606E70646E4E61846F9E6F045A6D218
:100D8000BEEB020C66EB0303013899469FE7C646AB
:100D9000E9E7304690E74146CEE7D64678E7644437
:100DA000023845E7AEF1020E66442CE7084603E739
:100DB0002946E6E6704700BF10F8012B11F8013B09
:100DC000012A28BF9A42F7D0D01A7047034613F879
:100DD000012B002AFBD1181A0138704700000000CF
:100DE00038B52DED028B1E4B1A7804460D4622B9FC
:100DF00002289EBF18701B4B58702869FFF78AFBAA
:100E0000194B0022FFF71AFDFFF700FE08EE900ACB
:100E1000E868FFF77FFB10A3D3E90023FFF70EFD7F
:100E2000FFF7F4FD08EE100AA868FFF773FB0AA3AA
:100E3000D3E90023FFF702FDFFF7E8FDB0EE681AE3
:100E4000F0EE480ABDEC028B00EE100A2046BDE829
:100E5000384001F0EFB800BF00000000D01263413D
:100E600059220020E626002000408F4000000000AC
:100E70002DE9F04F2DED028B9FEDAB8B9BB08146A2
:100E80008A4615461C460026287810B9304600F0E0
:100E9000C9BD6B1C2528029306D05146C8470028BF
:100EA000C0F2C08501362EE2182200210CA80CF0F9
:100EB0003BFC6B78252B59D06A1C174612F8013B76
:100EC0002B2B00F08B8079D8202B00F08C80232BEB
:100ED00000F08E809DF8383003F04402442A03D19C
:100EE0006FF386138DF838309DF838300A9743F049
:100EF00080038DF838303B782A2B7ED19DF839302D
:100F000043F001038DF839307B1C0A931A782E2A9E
:100F10009DF839200CBF0121002161F341028DF8B9
:100F200039200BD15A1C0A925A782A2A7BD19DF873
:100F3000392042F004028DF839200233194611F8A5
:100F4000010B6C2800F0CF807DD8682800F08480E9
:100F50006A2800F0D2804C2800F0D6809DF8392015
:100F60006FF3C6028DF83920194680E0AA1C029260
:100F70008DF83B309DF83930DF0740F1788154F827
:100F800004BBBBF1000F07DA9DF8382042F00402E1
:100F90008DF83820CBF1000B580740F1718154F8DF
:100FA000048BB8F1000F80F270819DF839306FF337
:100FB00041038DF839304FF0FF3866E12D2B06D014
:100FC000302B87D19DF8383043F0400303E09DF883
:100FD000383043F004038DF838306EE79DF8383030
:100FE00043F00803F7E79DF8383043F01003F2E7C9
:100FF0009DF8383043F02003EDE70AA801F090FC9B
:101000000A9BBB4281D09DF838700F90C7F3400116
:1010100041EAD072520062F07F0207F07D010A437C
:101020008DF8382071E70AA801F07AFC9DF8383075
:101030001090C3F3400242EAD07060F341038DF890
:1010400038300A9B7AE774289DF8392059D07A28DD
:1010500084D11346062241E05A78682A9DF8392047
:101060003AD1012161F3C6028DF83920991C0B4653
:1010700013F8012B0293782A8DF83B2000F2CD80E3
:10108000572A55D8412A04D0A2F14503022B00F279
:10109000C4809DF83A30042161F302038DF83A30A0
:1010A00002F0DF03A3F141089DF83920D8F10003D5
:1010B00043EB080363F3C7128DF83920D3B212064D
:1010C00000F1D38003F07802182A40F0A3806FF378
:1010D000C6038DF839308AE01346022262F3C60354
:1010E0008DF83930C3E75A786C2A9DF8392001D140
:1010F0000421B7E713460322F0E79DF839300522B3
:10110000ECE713460722E9E7BDF8383023F4F04353
:1011100023F0020343F4804343F00203ADF8383078
:10112000A5E700BFAFF3008000000000000000084A
:10113000A2F15803202B70D801A151F823F000BF71
:10114000F31100081B1200081B1200081B120008F4
:101150001B1200081B1200081B1200081B120008BB
:101160001B120008931000081B120008F31100085E
:10117000C511000893100008931000089310000890
:101180001B120008C51100081B1200081B120008E2
:101190001B1200081B12000829120008F311000896
:1011A0004D1200081B1200081B1200084D12000807
:1011B0001B120008F31100081B1200081B12000884
:1011C000F31100089DF83A30012161F302038DF814
:1011D0003A309DF8393003F07803402B02BF9DF878
:1011E000381041F001018DF83810632A05D0002332
:1011F00006E09DF83A300221E7E7003B18BF0123E3
:101200009DF83820C2F340010B4363F341028DF88F
:101210003820AFE613F0380FE9D09DF8383043F0AE
:1012200001038DF83830E2E79DF83A30032262F38B
:1012300002038DF83A309DF8393003F07803A3F1BA
:10124000400CDCF1000343EB0C03D9E79DF83A3086
:10125000032262F302038DF83A309DF8393013F01F
:10126000780F14BF01230023CAE70123C8E79DF9C3
:101270003820002AB4BFDDF83CB04FF0FF3B8BE6CE
:1012800099077FF598AEDDF840809DF8391000236E
:10129000CDE90F339DF83A3003F00702042A09D153
:1012A0008A0707D49DF93920002AB4BF4FF00D08F2
:1012B0004FF0060803F00703012BC1F3C30137D138
:1012C000CB1E042B21D8DFE803F0030909202000FE
:1012D00054F8043BDA17CDE90C3206E0073424F069
:1012E0000704F4E80223CDE90C239DF83870BB070E
:1012F00054D0029B2A465146484609F051FA00282C
:10130000C0F290830644029DBEE554F8043B0129D7
:101310004FEAE372CDE90C3205D19DF830300C93E1
:1013200000230D93E1E70229DFD1BDF93030D1E789
:10133000022B23D1CB1E042B13D8DFE803F0030AC2
:101340000A12120020680C900022231D0D921C46E8
:10135000CBE7E31D23F00703B3EC027B8DED0C7BA1
:10136000F5E754F8043B0C9301294FF000030D936B
:10137000D3D00229B9D1BDF83030D0E7042B07D142
:10138000073424F00704F4E80223CDE90C23ACE78A
:10139000032B04BF54F8043B0C93A6E79DF83B20B5
:1013A000782AB0D8572A00F28C80252A00F0D48001
:1013B000242AA8D9412A03D0A2F14503022BA2D89E
:1013C000DDE90C13002BC0F2B781380700F1B681BC
:1013D00017F0100718BF2027C3F30A55C3F31303F0
:1013E000CDE90813002D40F0AB8151EA030014BF92
:1013F00001200020DB0243EA5153C902462A45EA94
:10140000010E43EAE57C08BF66225EEA0C0CCDE9DA
:10141000081300F00382002840F0CB81DDE90801C9
:101420004FF0000C41F00041A5F2FE3509916346F2
:101430004FF0050E15F1020FC0F2C281BCF1000F92
:1014400001D0CDE90801002DDDE9080100F3CD81CF
:1014500009980899C5F1040C1C3500FA05F5ACF1A2
:10146000200E21FA0CF120FA0EFE294341EA0E016A
:1014700020FA0CF0CDE9081002F0DF01472940F016
:10148000D481DD1C02DB984580F2CB81023AB8F1B1
:10149000000FD2B201DD08F1FF389DF83810880640
:1014A00000F1C381B8F1000FD4BF00210121662AE9
:1014B000039140F0BC8113EB080140F1BA81002197
:1014C000BAE1A2F15803202B3FF61DAF01A050F85E
:1014D00023F000BFDB1600080713000807130008FD
:1014E0000713000807130008071300080713000874
:1014F0000713000807130008C113000807130008AA
:10150000851500087B160008C1130008C1130008E8
:10151000C1130008071300087B1600080713000812
:101520000713000807130008071300081117000825
:10153000DB160008DF160008071300080713000871
:101540005F15000807130008DB16000807130008E2
:1015500007130008DB160008514610469EE4B8F158
:10156000000F0C9A09DB4146104603920CF08DF9EE
:10157000039A0027151862B9C5E610460392FFF7D3
:1015800025FCF5E70C9B8DF84C3000270DF14D053F
:1015900013AAAB1A07B101339DF83A00C10640F116
:1015A000358202330F9940060B4444BF10995B18F3
:1015B000BBF1000F23DDABEB030B9DF8383059076F
:1015C000C3F380081BD4580640F13682002F00F088
:1015D0003682514638460392C8470028C0F222821C
:1015E000039A474601364FF030085E445B46002BB5
:1015F000A6EB0B000BF1FF3B00F30C82064647B154
:10160000514638460392C8470028C0F20B82039A1D
:1016100001369DF83A30590640F165829DF939301E
:10162000002BA6EB020680F219821746B846F31982
:1016300017F8010B702840F00582109F1E461F44CA
:10164000BB1B002B00F348822B46424651464846BE
:1016500009F0A6F80028C0F2E5813044064683442C
:10166000ABEB0603002B7FF74EAE51462020C84758
:101670000028C0F2D7810136F2E73D072BD417F0DE
:10168000100718BF2027DDE90C23002B05DA524292
:1016900063EB4303CDE90C232D270DF16503009384
:1016A0000EAADDE90C0113AB01F050F90246B8F1C6
:1016B000000F0DF16505FFF65EAF9DF83810AB1A0F
:1016C0006FF3861198458DF838107FF654AFA8EB6C
:1016D00003030F934FE72B27D5E70027DDE70C988F
:1016E000002800F08F810DF1650300930EAA13AB63
:1016F000002101F02BF9BDF83A3003F0EF0343F479
:10170000F04343F010030246ADF83A300027CEE72D
:101710000C9B07293FF6F7ADDFE801F00C04060C3F
:1017200008080C0C1E70EEE51E80ECE5F217C3E90C
:101730000062E8E51E60E6E52D274DE62B274BE627
:1017400040F2FF70854231D10132B948D2B20B4329
:10175000125C02F003021BD1012A11D149238DF83A
:101760004C304E238DF84D3046238DF84E309DF889
:1017700038306FF386138DF838300DF14F0507E7D9
:1017800069238DF84C306E238DF84D306623ECE7DD
:10179000012A07BF4E2341226E2361220CBF8DF820
:1017A0004C308DF84C308DF84D20DEE7002021E6DE
:1017B000013D49185B41002BFADACDE908132DE60B
:1017C000400840EAC1704908B1F1333FAC4605F129
:1017D0000105F5D20EFB01F5A0FB0E012944013BEA
:1017E0000CF102054FF0010C24E6023041F100013A
:1017F000CDE9080108A8CDE9032308F0A2FF049B66
:10180000039ADDE90810013D0133491840410028E1
:1018100005F1FF35F9DACDE9081014E600231D467D
:1018200016E6A8EB0308662237E600213FE608F13A
:1018300001011029A8BF10218DED0A8B10200790FF
:101840000D46DDE90A01A5B9089D4019099D41EB46
:101850000501B1F1805F1BD2CDE90801662A40F095
:101860009980002B23DC30218DF84C100DF14D05B3
:101870002FE0400840EAC1704908CDE90A010AA8F2
:10188000CDE90423013D08F05CFFDDE90423D8E73E
:10189000400840EAC1704908CDE9080108A8CDE92F
:1018A000042308F04EFF059B049A0133D6E713ADDD
:1018B000079900290BDD07A908A8CDE9042308F042
:1018C00058FF059B05F8010B013B049AF0D10F93DB
:1018D00000239DF83810890602D4B8F1000F1DDDF1
:1018E0002E2105F8011B9BB1B8F1000F16DD5942FE
:1018F0004145A8BF41469DF83A000F910029A8EB49
:101900000108D4BF0021012161F345108DF83A0090
:10191000B8F1000F02DD0799002956DC0399002970
:1019200063D1CDF8408002F0DF01452921D1002BA1
:101930002946B8BF5B4201F8022BB4BF2D222B22EF
:10194000632B6A7009DD642093FBF0F202F1300C26
:10195000E91C85F802C000FB12330A200D4693FBF8
:10196000F0F200FB123302F1300C303305F802CBF9
:101970004B700F9B002B43DC109B002BD4BF00232C
:1019800001239DF83A2063F3861200238DF83A2054
:101990002B70FDE507A908A8CDE9042308F0E9FEAE
:1019A000DDE904239DF838108DF84C00302818BF6D
:1019B00003F1FF33880602D4B8F1000F12DD2E21A7
:1019C0008DF84D100DF14E05A2E707A908A8CDE945
:1019D000042308F0CEFE08F1FF38DDE9042305F802
:1019E000010B95E70DF14D0598E700211091284670
:1019F00015F8011D3029FAD02E2918BF054692E7A7
:101A00000123BEE70B4D07466A1FC2E5010748BF29
:101A10000133C7E5514640460392C8470028039A60
:101A2000BFF6E4AD1BB0BDEC028BBDE8F08F00BF8C
:101A3000010D010856F400084FF02008D5E54FF0DD
:101A40003008D2E55146C8470028BFF6EFADE9E7B8
:101A500051460392C8470028039AE3DB1078374BBE
:101A6000C35C5B07174606EB020802F10102EFD4E4
:101A70009DF83A300F9E990607D4B044002EA8EB8B
:101A8000060206F1FF360FDC904638782E2808D182
:101A90005146C8470028C5DB002E08F1010809DCC3
:101AA0000137A8EB07060EE051463020C847002852
:101AB000E4DAB7E751463020C847013EEAE751462D
:101AC000C8470028AEDB1D4AB846F31917F8010BCA
:101AD000125C5207F3D4B0E551463020C8470028C5
:101AE000A0DB0136ACE5D80601D4190707D551466D
:101AF00030200392C847002894DB039A01369DF8F2
:101B00003A30DB0608D59DF83B0003925146C847A2
:101B1000002887DB039A01360F9F3744BB1B002B3D
:101B200001DC2B4692E5514630200392C84700283D
:101B3000FFF678AF039A0136F0E700BF020D010807
:101B40002DE9F0472DED028B9FED478B484E84B079
:101B500004464FF01003EFF3118783F31188BFF3AE
:101B60006F8FD4F8F8508DB9022104F588700BF00E
:101B700072FD002835D100238DED008B029304F512
:101B8000807239463B4807F0CFFAE2E7D4F8FC20F0
:101B90002B68C4F8F830954201D1C4F8FC30D4F871
:101BA000103143F00203C4F81031EB6823F0040352
:101BB00043F00103EB606B6887F31188BFF36F8F0D
:101BC000284698474FF01003EFF3118883F31188EC
:101BD000BFF36F8FEB68990723F001020BD4EA6023
:101BE0000EE004F584750022012128460BF09EFAD0
:101BF0000028F8D1BFE7306823F00303EB6070B929
:101C0000D4F8103123F00203C4F8103188F311889E
:101C1000BFF36F8FD8059CD407F07AF999E70027B6
:101C2000D0F80090BA4643689D4202460BD1026844
:101C30008FB973683260834200D1726040F808AB9C
:101C400006F0AEFE3A46B9F1000FD9D04846174625
:101C5000D9F80090E7E773683A60834208BF77607D
:101C6000ECE700BFAFF30080FFFFFFFFFFFFFFFFC8
:101C70002C210020802800202DE9F04F0568D3009A
:101C80005B19036028BF4368DFB024BF01334360A2
:101C900000F128030C9300F14003044689461646E0
:101CA000C5F3C5050D93002E00F0BA80C5F14007BD
:101CB000B7420C9B28BF3746494658193A463D441F
:101CC0000BF00AFD402DB944A6EB0706EBD10EAB95
:101CD0002246194692F82B00087092F82A004870A4
:101CE00092F82900887092F82800C8700D98043284
:101CF000904201F10401EDD1A2680192E2680292E2
:101D00002269039262690492A2690592E2690692CD
:101D1000226A07921EA9626A0892084600220132CE
:101D200053F8045B40F8045B102AF8D18B6B0F4624
:101D30004FEAF34080EA734080EA93207B6A3F6871
:101D400051F8045F3B4418444FEAB54383EAF51366
:101D500083EAD50301320344402ACB63E6D1324BF8
:101D60000B93DDE90272DDE906EC049B019DDDF8D1
:101D700020B005980A934FF000080B9B53F8041B02
:101D80000B934FEAF02383EAB01383EA706A1EAB29
:101D900053F8283019440AEB01032CEA000A00EA40
:101DA0000E018AEA0101194487EA020359442B40D3
:101DB0004FEA753A07EA020B83EA0B0B8AEAB50A87
:101DC0000A9B0A928AEAB55A08F10108DA440B44E0
:101DD000B8F1400F09935144E3461AD1019B0B44DB
:101DE000A360029B2B44E360039B3B442361049B61
:101DF00013446361099A059B1344A361069B034442
:101E0000E361079B73442362089B6344636200257C
:101E100049E73A46F4462F4686460D460998ACE710
:101E20005FB0BDE8F08F00BF8CDF00082DE9F04FF8
:101E3000DFF8FC91044699F80C0010F00200A3B002
:101E4000904614D1D9F81030002B5FD01D7805F0E2
:101E50000105FD23A37004F11E02122312F8016D87
:101E60001EB9013BDBB2012BF8D10A2704E0FE23A7
:101E7000A370062700251223E3701923E171237252
:101E8000002D45D125710023637199F80630A371A7
:101E9000013389F80630A3788DF81430E378A27AFC
:101EA0008DF81530637AA67943EA0223E27A43EA91
:101EB0000242DBB278B319228DF816608DF8171044
:101EC0008DF818208DF819304FF6FF73ADF82030DB
:101ED000BEB20DF1150A013E1AF8010B08A9B6B2FF
:101EE00008F04BF8012EF6D1BDF82030E678ADF8B9
:101EF000063004F10C0AD3460DF106010EB31BF8AF
:101F0000010B013E08F039F8B6B2F5E70546A0E747
:101F100001232371B7E720798DF816008DF8191089
:101F200060798DF81B301921131212148DF81700E7
:101F30008DF818608DF81A108DF81C308DF81D2062
:101F4000C2E7404608F019F8E278BDF806300AF812
:101F50000230E2785244190A51702380002D55D086
:101F6000D9F81050002D51D02B78DB074ED56B7867
:101F700084F81631D5E9022302A9CDE9022304F23F
:101F80001710062294F803800BF0A6FBD5E9023265
:101F9000013342F10002C5E902321E4A1E4B1F49BD
:101FA0001F48CDE90A231F4BCDE90C131E4BCDE989
:101FB0000E031E4B109303F174532022A3F5230349
:101FC000A3F692430DEB020005F110011193CDE948
:101FD0000866FFF751FE3A4605A908A8FFF74CFE30
:101FE0004246514608A8FFF747FE02220AEB0801C5
:101FF00008A8FFF741FE04F58B7108A80722FFF738
:102000003BFE04F21D1108A808F030F823B0BDE82B
:10201000F08F00BF67E6096A85AE67BB72F36E3C5E
:102020007F520E513AF54FA58C68059BABD9831FA3
:10203000441A002010B504462DED048B1420B0EE98
:10204000409AF0EE608AB0EE418A0BF099FA047182
:1020500080ED029AC0ED038A80ED048ABDEC048B0A
:102060000146BDE8104001480AF051BFCC030020F2
:102070002DE9F0410F468046FEF7A8FE05460A28E6
:1020800006464FF01400A8BF0A250BF079FA2A463D
:102090000446414604300BF01FFB092EDEBF2D190C
:1020A00000232B71214627610248BDE8F0410AF068
:1020B0002EBF00BFE80300202DE9F04F8046A3B0FB
:1020C000D8F808305B6C83BBD8F808301B6C002B49
:1020D00032D1D8F808305B6B002B32D1D8F80830F9
:1020E0009B6933B301220DF107014046984700B3C5
:1020F000AB4D9DF80760EB78AA4C00272F700F2B93
:1021000051D8DFE813F0410041008C009C00AB0087
:10211000B100B800BF00C600D800ED0001011101F8
:10212000600160019801EA70CAE7404698470028BC
:10213000CAD123B0BDE8F08F404698470028C8D1E7
:10214000F7E74046984704460028C7D1D8F808303A
:102150005B6A002BEDD0404698470028E9D0924DAD
:10216000924E2A88002A00F03182D8F808305B6944
:102170001BB1316840469847044633682888234499
:10218000041B33602C809BE7FD2E2B7B3DD102226C
:10219000EA700022E270A67023F001032B734FF067
:1021A000FF33237063702978012906D12B89A27926
:1021B0006A7103B96B8101332B817D487D4AE378D5
:1021C000C370EB78D3702B7913716B790133537132
:1021D0002B891381AB7853812B7B137302294FF02A
:1021E0000003AB7040F0E981B4F8143103800122A0
:1021F0000023FD2EAA702B7095D10222E3704FF0C0
:10220000FF33EA70237063705AE7FE2ECBD10222AF
:10221000EA700022E270A67043F00103BEE7614855
:10222000E6702F71314607F0B6FE2B7BDA0703D537
:1022300027716771052300E00323EB70B3E716F005
:10224000FE0F267104D0AB780133AB700123F4E7A5
:102250005448314607F09FFE0423EEE7514866716B
:10226000314607F098FEE5E74E48A671314607F083
:1022700092FE0623E1E74B48E671314607F08BFEFC
:102280000723DAE747482672314607F084FE082321
:10229000D3E70023A372E37242486672314607F027
:1022A0007AFE2B7BDB0704D5E378002B3AD00B2397
:1022B000C3E70923C1E7A27A637A3A4843EA0223D3
:1022C000E27A43EA024343EA06226372C2F3072337
:1022D000120CA372E272314607F05DFE0A23ACE7EE
:1022E000A27A637A2F4843EA0223E27A43EA02435E
:1022F00043EA06426372C3F30723A372130CE3722B
:10230000314607F048FECFE72B7926485A1C234474
:102310002A711E73314607F03EFE2A79E3789A420D
:102320007FF441AF0C2388E7A37A617A224841EA1F
:102330000321E37AD62741EA03414FF00C0C002336
:10234000DA19013252080CFB02FE50F80EE071451A
:1023500036D2571E9F42F3D80C225343C718C35896
:102360001048994216BF00273979394607F013FE05
:10237000238884F81461DBB29E4214BF0E230D2320
:10238000EB70002F3FF40FAF2B79BA799A427FF6AA
:102390000AAF0A48D21A002118440BF0C5F902E727
:1023A000441A00205A220020402100200000002072
:1023B000EE260020A41A00208CE0000866220020EF
:1023C0001346C9D9C6E70E2B16D02388B6EB132FB8
:1023D00014BF0223012322792B70D70784F81561DB
:1023E0000CD50F22EA70022B4FF00D026A733FF4F6
:1023F000DAAE00232B70D6E60223ECE72B692BB173
:102400001A6B62B92B78022B40F0D48001237349F8
:10241000EB7040F2231272480BF05EF9C3E6A17A2A
:10242000637A704843EA0123E17A43EA0141904725
:102430000028EBD1E6E76B7BE21A013BDBB282F8C6
:1024400023616B73002B7FF4AEAED5F81090B9F119
:10245000000F00F08B80CDE90833634A634B644979
:102460006448D5F814A0CDE90A23634BCDE90C13D9
:10247000624BCDE90E03624B109303F1745320229B
:10248000A3F52303A3F692430DEB020009F110011B
:102490001193FFF7F1FBE2785A490A3208A8FFF7D7
:1024A000EBFB5949022208A8FFF7E6FB0722574930
:1024B00008A8FFF7E1FB02A908A807F0D7FD5449D7
:1024C000062202A80BF0F8F80746002864D1002283
:1024D0000023CDE904234F4994F816B1062204A83D
:1024E0000BF0FAF8BAF1000F56D0BAF8003094F8B1
:1024F00007C0217A5246B8B283420BD9D0786045E2
:1025000005D11079884202D19078584530D00137F2
:102510000932F0E72CD10F2B3ED8049A3E4912EB3A
:10252000010ED9E90201059A42F1000286458A416D
:1025300032D307EBC7025244013382F803C0217A39
:10254000117182F802B0AAF8003007EBC707781DB6
:102550003049062250440BF0BFF8DDE90403D9E905
:10256000021281429A4101D2C9E90203012322E009
:1025700007EBC701002300220531CDE906235144B2
:10258000062206A80BF0A8F8049B069A9A42059B1F
:10259000079A72EB0303D8D32B691A6B52B1A17A55
:1025A000637A104843EA0123E17A43EA0141904704
:1025B0000028DBD103232B7028E703293FF417AE53
:1025C00000293FF47DAD07F092FD79E5134B3360B0
:1025D000134B186807F0CCFC72E500BF5A220020AC
:1025E000EE260020441A002067E6096A85AE67BB24
:1025F00072F36E3C7F520E513AF54FA58C68059BE5
:10260000ABD9831F5C2200206E23002070230020A2
:102610007723002071230020808D5B004221002061
:10262000401A00202DE9F0410E4E05460C46338835
:1026300023B10021322006F0F3FCF8E70A4F2246CE
:10264000294638460BF048F8084B34801F60084B89
:1026500018688368DB6913B1BDE8F0411847BDE82D
:10266000F08100BF40210020422100200000002016
:10267000401A002030B5D7B005460C461422002180
:1026800068460BF051F80AF0A4FD0A220023FEF779
:102690000DFA1C4A1368C2E90001C31A28460093C8
:1026A000FEF794FB0A2802462946A8BF0A2202A880
:1026B0000BF012F8144B01941D78009B02A90A221A
:1026C00007A8CDE905340BF007F805A9122210A8D8
:1026D0000BF002F86FF0030200238DF83D2029462D
:1026E0002C220DA88DF83E308DF83F30FFF79EFB71
:1026F0000DA905A807F061FC014605A8FFF792FFA8
:1027000057B030BD0005002059220020F0B500224E
:1027100091B0114602A80AF08CFD0F4D002600274B
:1027200041F28832CDE90067002302A806F0A2FE3C
:1027300000220023284606F001F9044638B1016959
:102740000430FFF797FF20460AF013FFF0E702A8D6
:1027500006F0DEFEE4E700BFE8030020F0B593B02A
:10276000214805F015FC044628B9204813B0BDE8FF
:10277000F04007F011BD1E481E4D07F00DFD1E482C
:102780000121FFF775FC00224B23114604A8029497
:10279000ADF80C300AF04DFD184C0026002741F230
:1027A0008832002304A8CDE9006706F063FE00210B
:1027B00002A807F0BDFC01462846FFF759FC01219D
:1027C00002A807F0B5FC01462046FFF751FC0221A4
:1027D00002A807F0ADFC01460948FFF749FC04A830
:1027E00006F096FEDBE700BFDEF30008E4F3000826
:1027F00001F400081FF400081AF4000826F4000889
:102800002FF4000810B58AB00AF0E3FC0A22002376
:10281000FEF74CF9224BC3E900012248224C05F097
:10282000B7FB206083681B690BB108A998474FF478
:10283000E133206808938368DB680BB108A99847E7
:1028400020688368DB6A03B19847206807F090FB33
:102850002068836823B19B6C13B114490022984708
:10286000206883689B6A03B19847114807F094FC7D
:1028700000220023CDE9062300236FF00702CDE9F3
:102880000323CDE9013300930A490B4B0B484FF466
:10289000805205F06BFE0AB0BDE81040FFF75EBF46
:1028A0000005002038F40008401A0020B920000874
:1028B0003FF40008002900200D270008080400202C
:1028C0000B6801330B60014B1B68184704000020A4
:1028D000014B1860704700BF0400002007B50B468D
:1028E000002102460191034801A9FEF7C1FA03B095
:1028F0005DF804FBC128000830B585B0CDE90101C1
:102900000446002501A905480395FEF7B1FADDE963
:1029100002309842B8BF255405B030BD73A10008FD
:10292000F0B5094E016802460A2700200C46013125
:1029300023789D5D6D0701D41460F0BD07FB003363
:10294000A3F13000F2E700BF020D01082DE9F84FB6
:1029500015469A46D378224A13F802B06F2B804668
:102960000F460BF0030B29D024D8582B14BF0A268E
:102970001026DDF828903246002340463946FEF7FF
:1029800095F8092AD4B21ED83034B045E4B277F1B4
:10299000000309F8014D01D3D14511D82B789B06CE
:1029A00005D5082E15D1AB7843F00803AB70484627
:1029B000BDE8F88F03F0F703702BD7E70826D8E7B8
:1029C00080460F46D7E7BBF1010F0CBF37345734B1
:1029D000DBE7102EEBD1AB7843F01003E6E700BF46
:1029E000020D01080B0706D5034BC35C03F003037C
:1029F000012B08BF20307047020D01084FF0100274
:102A0000EFF3118382F31188BFF36F8F83F3118883
:102A1000BFF36F8F024B034A1A600020704700BF5C
:102A2000440100200024F40030B51049104889B05A
:102A300000220AF0FEFB0F4D0F4900220023CDE9D2
:102A4000062300240E23CDE90334CDE901440B4BCA
:102A500000944FF44072284605F088FD0849284646
:102A600005F0D4FC204609B030BD00BF852A00081F
:102A7000080500204005002080390020CD2F0008E7
:102A8000CAF70008014805F08BBF00BFB40300205F
:102A9000F0B505460F4E002003460246012715F803
:102AA000014B0CB18B4200D3F0BD252C02D182F03A
:102AB0000102F4E7002AF2D014F806C01CF0030F5C
:102AC000EDD0732C04BF07FA03F210430133002248
:102AD000E5E700BF020D010838B5154B154A164D44
:102AE00000241C70154B4FF47A701A6000F082FDC0
:102AF00000F030FB124808F058F80423282211494E
:102B000011480AF0FFF81148114A121AD208234658
:102B10000430934200D138BD10F833102C6801F016
:102B2000070124F00704214345F8041B0133F0E7B3
:102B300012280020E9AB00083C0300200800002018
:102B4000C81A002020580020D01A0020B8DD000844
:102B500010DE000810B54FF01003EFF3118483F37B
:102B60001188BFF36F8F044808F02FF884F31188A1
:102B7000BFF36F8F10BD00BFC81A0020064BBFF314
:102B80005B8F53E8002F013243E800210029F8D180
:102B9000BFF35B8F704700BFC01A00200020064BB8
:102BA000BFF35B8F024653E8000F43E80021002982
:102BB000F9D1BFF35B8F7047C01A0020F8B5FFF75B
:102BC000EDFF0A4C0A4D2D1B07462D110026AE4283
:102BD00000DBF8BD63685B792BB123681B6913B117
:102BE00039462046984701361034F0E710DE0008D9
:102BF00020DE0008044A054B9B1AB1EBD30F34BF0B
:102C000052F8310000207047B8DD000810DE0008DF
:102C10002DE9F0478A4616469846C0B9DFF89090ED
:102C2000204FA7EB09073F1104460546BC4202DBD3
:102C30002846BDE8F08709EB04104346324651466A
:102C4000FFF7E6FF854238BF05460134EEE7164B35
:102C5000164C03EBC2031D7943681A79072302EB74
:102C6000420203FA02F1454554F8263028BF454692
:102C700023EA010305F0070101FA02F213430021E0
:102C8000032223FA02F000F00700814202F103025E
:102C900038BF01461E2AF4D123F007030B4344F842
:102CA0002630C5E720DE0008B8DD00083C03002020
:102CB00010DE0008F8B5094C094BE41A06460F4629
:102CC000E4080025A54200D1F8BD00212AB23B4608
:102CD0003046FFF79DFF0135F4E700BF10DE000826
:102CE000B8DD00080C4BC31A70B51B1146680446CA
:102CF00001330D4633711146FFF7DCFF6368074C63
:102D00001D6001225A71237813B9054805F048FE69
:102D10000123237070BD00BF10DE000811280020C1
:102D2000B403002070B5124BBFF35B8F53E8005F14
:102D30006A1C43E800210029F8D1BFF35B8F2DB94D
:102D40000C4C0D4E361B3611B54200DB70BD237B9B
:102D500053B123689B690BB12046984763680422EE
:102D600019682046FFF7BEFF01351034ECE700BFBD
:102D7000C41A002010DE000820DE000863B1002A1B
:102D80000FDB43680849187900EB400351F8220033
:102D9000D84000F007007047044B03EBC2021079E3
:102DA00070470420704700BF3C030020B8DD0008D6
:102DB000174B984273B5044602D3164B984221D361
:102DC00015480022002301A905F0BAFA0546E0B92A
:102DD0000122019BBFF35B8F53E8001F43E80020F3
:102DE0000028F9D1BFF35B8F019E331D1F221846C7
:102DF00021460AF037FD7E22034686F8232086F816
:102E000024501C46204602B070BD044BF9E700BFB9
:102E1000E8D90008380E0108D01A002057F400083D
:102E200048B1054B984205D3A03398422CBF0020EF
:102E30000120704700207047205800202DE9F04FF6
:102E4000534B1B7885B0054603B900B3FFF782FEEC
:102E5000044678B1BFF35B8F4E4B53E8002F013A25
:102E600043E800210029F8D1BFF35B8F9DB12046D4
:102E700007F0B7FF2DB9484B1B68002B01DDFFF7AA
:102E80009DFE464807F09FFE051E18BF01252846F7
:102E900005B0BDE8F08F424B1B78F3B9237ADA070F
:102EA0001BD407F0B1FF0746204607F078FF014624
:102EB0003846FFF7EDFDDFF808813A4BDFF8049163
:102EC000DFF804B1A3EB0803DB080293364BA9EB50
:102ED00003039B080646039346B9344E344FDFF88C
:102EE000C890BF1B3F114FF000084EE0B6FA86F1C4
:102EF000C1F11F0A5146204607F054FF2D4B98425E
:102F0000014602D32C4A90421ED30846FFF788FFA1
:102F10000246C8B9294B994216D063890299C3F376
:102F200089138B4238BF58F83320D9F800305B073B
:102F30000AD0039B9B0143F00103ADF800305146DA
:102F40003B46584607F09EFE012303FA0AF126EAA3
:102F50000106C1E773685A79A2B160891B79A17A29
:102F6000C0F3891003EB430259F82030D34001F03D
:102F7000070103F00703994204D8336821465B68D0
:102F80003046984708F101081036B845E2DB6EE795
:102F900011280020BC1A0020C01A0020C81A0020E6
:102FA0001228002010DE00083C03002010DE00087C
:102FB00020DE0008E8D90008380E010857F40008A0
:102FC000B8DD00084C03002071F4000810B5FFF7CD
:102FD000A9FE06F03DF80C4B186030B10B4B1B6896
:102FE000092B02DD0A4805F0DBFC094C0020FFF745
:102FF00025FF0028FAD14FF0FF324FF0FF33204673
:1030000005F0F4FCF2E700BFF01A0020BC1A002023
:10301000B4030020294B37B51B684181044698470B
:10302000E0604FF01003EFF3118583F31188BFF3D5
:103030006F8F2348214607F0BCFD85F31188BFF34D
:103040006F8FBFF35B8F1F4B53E8002F013243E8B4
:1030500000210029F8D1BFF35B8F1B4A127882B19F
:103060004FF01003EFF3118483F31188BFF36F8FD8
:103070000020FFF7E3FE84F31188BFF36F8F03B0E6
:1030800030BD124A1B681268002AF8D0012B0AD101
:1030900000220023CDE900230D4842F210720023E4
:1030A00006F0E8F9EBE70A2BE9D109480AF0CDF878
:1030B000084803B0BDE8304005F072BC08000020AD
:1030C000C81A0020BC1A002012280020F01A002084
:1030D00008050020B4030020F8B50E4F3D7875B9FF
:1030E0000D4C0E4EFFF71EFE361B3611B54207DBA8
:1030F0000020FFF7A3FE0028FAD101233B70F8BDA2
:1031000063685B791BB1236820465B69984701358A
:103110001034EBE71228002010DE000820DE000843
:1031200007B504380190BFF35B8F50E8003F5A1E8B
:1031300040E800210029F8D1BFF35B8F012B03D1B8
:10314000034801A909F0FAFD03B05DF804FB00BFD4
:10315000D01A00202023024902481A4609F0D2BDA5
:10316000C0580020F41A002037B50023094D019300
:103170000120FFF763FE0446FFF700FD0022002355
:1031800001A9284605F0DCF808B1002CF0D101981F
:1031900003B030BDF41A002007B50023019307489F
:1031A0000022002301A905F0CBF810B1FFF7DCFFE6
:1031B0000190019803B05DF804FB00BFF41A0020F1
:1031C000F0B5037A85B0DC0701901ED4457A2D094D
:1031D0001BD0002426460198314607F0E3FD074640
:1031E000FFF71EFE70B134B9019B29461869FFF73D
:1031F0004FFC044648B124FA06F3D90702D53846F5
:10320000FFF78EFF0136AE42E5D3019B1A7A920793
:1032100004D55B69084C0393039B2BB9064801A9AD
:1032200009F08CFD05B0F0BD1D6803A9204609F02A
:1032300085FD0395F0E700BFF41A00200EB403B536
:1032400003AB014653F8042B04480193FDF710FE2D
:1032500002B05DF804EB03B0704700BFBDB10008D9
:103260002DE9F0471D46089B1746DA0604460E4630
:1032700005D499064CBF2B492B49FFF7DFFFDFF838
:10328000B0904FF00008A8452DDBDFF8A880DFF8EC
:10329000A890DFF89CA00025BD4232D2725D49465D
:1032A0002046FFF7CBFF0135102D23D11F49DFF852
:1032B0008080DFF88890DFF888A02046FFF7BEFF07
:1032C0000025AF4229D9725D12F8093013F0970F2B
:1032D00008BF2E2251462046FFF7B0FF0135102DC2
:1032E00014D1BDE8F08749462046FFF7A7FF08F153
:1032F0000108C8E76A07CFD151462046FFF79EFF75
:10330000CAE741462046FFF799FFCCE76B07D8D1C3
:1033100041462046FFF792FFD3E741462046FFF79C
:103320008DFFDBE765F9000867F50008BEF40008CB
:10333000BCF40008BAF40008B4F40008020D010857
:1033400019FE00082DE9F04F87B011F002069DF834
:103350004080BDF948900592074601F0010A01F04E
:10336000080507D011F0440F39D134491A46FFF748
:1033700065FF0646BAF1000F0AD0314B314953F8C8
:103380002820314B3846002A08BF1A46FFF756FF5F
:103390003DB12E4B2E4953F828203846FFF74EFFFB
:1033A0000546B9F1000F16DB059B002B43D0012326
:1033B00003FA08F8274B284C18F0100F18BF1C46CA
:1033C00049469DF84400FFF715FC21460246384661
:1033D000FFF734FF0544A81907B0BDE8F08F1F4A76
:1033E000116831B31E4A4FF461661468B3FBF4F3FD
:1033F0004FF47A7BB3FBF1F4B4FBF6F206FB124612
:1034000001FB14340BFB04F44FF03C0CB4FBF1FE55
:10341000B6FBFCF301FB1E440CFB13660BFB04F430
:103420000096B4FBF1F1CDE901E10E49FFF706FF8B
:103430009FE708469DE7084CC2E700BFCEF40008AE
:10344000A0EA000880FA0008C0F40008B4EA000806
:10345000F3F40008CAF40008C5F40008141B0020A7
:10346000181B0020D7F4000838B50C46E1070546C4
:1034700003D5084A0849FFF7E1FEE20608D4A3068F
:1034800028464CBF05490649BDE83840FFF7D6BE7F
:1034900038BD00BFC0F4000880FA000865F90008D4
:1034A00067F500082DE9F0478B7A13F007088AB01A
:1034B00005460E46174622D00A7A4989C3F3C2034D
:1034C000C1F38911D243CDE900830291F36802F080
:1034D00001023946FFF736FF8146347AE44314F09F
:1034E00001040ED02946304607F0FEFCB8F1000F6B
:1034F0002BD0424639462846FFF7B6FF25E0C146A5
:10350000EBE7B8F1000F26D12746EB68069306AA31
:103510003B46A968304607F0D3FC069A6B681A60F0
:103520003AB1AB68134413F8014CA4F10A035C42AE
:103530005C41284607F035FE069B1F44002BE4D172
:103540001CB114492846FFF779FE28460AB0BDE8A9
:10355000F04707F026BE304607F056FC0E490246FB
:103560002846FFF76BFE4FF0100A05AA234606A96E
:103570003046CDF814A007F0A3FC059A002AB8D075
:103580004B46009706A92846FFF76AFE059B1C4498
:10359000EBE700BFF9F4000880FA000873B542F2C7
:1035A0000F738B4228BF0B4605680F4A044605215E
:1035B000684606F0FEFD63680C495B680646042217
:1035C000284607F084FC63683246694628465B68F3
:1035D00007F07DFC636806495B681722284607F000
:1035E00076FC02B070BD00BF41FC000833F5000856
:1035F0001BF50008084A10B50123084C1360002190
:10360000A04204D801B11360054B186010BD4008FA
:103610005B000121F4E700BF181B002040420F00AF
:10362000141B002000230428CB604B6098BF044B80
:10363000044A98BF53F820308A600B60704700BF7F
:1036400008EB0008E4EA00080023084A0B60CB609E
:103650004B608A60064B074AD21AB0EB221F3EBF6E
:1036600003EB00139B680B60704700BF48EC000839
:1036700010DE000820DE00082DE9F347114B124C44
:10368000124FDFF84C80DFF84C901B1B82461E1156
:103690000025B54203DB002002B0BDE8F087636877
:1036A00059791B79002914BF3A464246CDE90023D7
:1036B0000021A3684A46504607F0EFFE013510345A
:1036C000E7E700BF20DE000810DE000838F500083C
:1036D00040F5000849F500082DE9F04F244B254C32
:1036E000E41A4B685B7985B005460E46E4081BB9C1
:1036F000214A042107F0D1FE204B214ADFF888A09F
:10370000DFF888B00021284607F0C7FE1D4A0021D7
:10371000284607F0C2FE4FF000080FFA88F7A742CC
:1037200008F1010803D3002005B0BDE8F08F3A4648
:10373000012300213046FFF721FB00233A461946BA
:1037400081463046FFF71AFB394603900020FFF709
:1037500051FA039A5AF8222001925AF8292000922D
:1037600003465A460021284607F097FED5E700BFDA
:10377000B8DD000810DE00086AF500087CF50008D6
:1037800088F50008A6F50008F4EA0008E3F500084B
:1037900010B50023054ACB600C464B608A60014699
:1037A0001846FFF727FA206010BD00BFE4EA0008C2
:1037B0002DE9F04F85B00646019352F8043C184CB1
:1037C0000293184689469046FDF700FB1549029B77
:1037D000091B02464FEA211A0027A346574507DB7B
:1037E000114A0221304607F058FE6FF0070511E03C
:1037F000A1680392184602930AF020F81034DDE91C
:103800000232054650B9019C43464A460BEB07116C
:103810003046A047284605B0BDE8F08F0137DDE708
:1038200010DE000820DE0008F7F5000808B5024B9E
:10383000FFF7BEFF002008BDD9360008014BFFF797
:10384000B7BF00BFF3B10008014BFFF7B1BF00BF26
:10385000FBB10008014BFFF7ABBF00BF5D390008AB
:10386000014BFFF7A5BF00BF4DB2000810B5C369FB
:10387000DB681C792CB9044A022107F00EFE2046B1
:1038800010BD0120FCE700BF0CF600082DE9F04F49
:103890002C4E1F462C4BF61A151E85B04FEAD60645
:1038A00014BF2B46334602934B685B7980468946AA
:1038B0001BB9264A042107F0F0FDDFF89CA0002484
:1038C000029B9C4202DB05B0BDE8F08FBDB357F808
:1038D00024B000239E4207D157F824301C4A02210D
:1038E000404607F0DAFD23E0194600200393FFF776
:1038F00081F94022594609F0A1FF039BD0B91A462D
:1039000000210E9B12B24846FFF782F90E9B8342BC
:1039100083460DD085B921462846FFF76BF903464B
:103920005AF82B20009204210A4A404607F0B5FDC0
:103930000134C5E70133CDE757F82430F0E72246DC
:10394000DEE700BF10DE0008B8DD000830F6000832
:103950005BF6000845F60008F4EA00082DE9F74F89
:10396000D3F804B0DFF850A00646884691461D46BD
:1039700000275AF8041B0422584609F05FFF04464A
:1039800070B10137052FF4D16B680A4A0221304625
:1039900007F083FD6FF00704204603B0BDE8F08F09
:1039A000009705F10803A9F1020241463046FFF7EE
:1039B0006DFFF1E775F60008F4EA000813B5044658
:1039C00004F04CFEC0F307220192C0F307420092BC
:1039D000030E044A2046002107F05FFD002002B0DC
:1039E00010BD00BF1CF8000810B5044609F0F1FB3B
:1039F0000A220023FDF75AF8034A03460021204615
:103A000007F04BFD002010BD35F8000810B5044646
:103A100002F000FA084A03460021204607F03DFD67
:103A2000064A2046002107F038FD0548214604F0EB
:103A3000B5FC002010BD00BF44F8000863F8000882
:103A4000A93A000830B5014687B00446124804F090
:103A5000A5FC124A002312F8011BAA2903D1013345
:103A6000B3F5066FF7D1C3F506604FF40661002584
:103A70006422CDE902300191094B00954243204672
:103A8000B2FBF1F2CDE90412064A294607F005FD22
:103A9000284607B030BD00BF913B0008A04B002076
:103AA000804B00206DF80008F0B587B0D0F8A0700A
:103AB00004460D4609F072F9064605F0C9FA254B91
:103AC0002549264A002E08BF1E46254BCDE9004653
:103AD000844208BF0B462846002107F0DEFCD4E9EB
:103AE0000A23CDE9022394F90E301E4A00930021E7
:103AF000237B284607F0D1FC204604F097FC04F114
:103B0000640306460FCB8DE80F00174A33460021A9
:103B1000284607F0C2FC05A9204609F043F90146F2
:103B200038B10346114A0021284607F0B6FC07B019
:103B3000F0BD059A6423B81ACDE9002043430C4A2E
:103B4000B3FBF7F32846CDE902733B4607F0A5FC2B
:103B5000EDE700BFB3F8000883070108B6F80008D6
:103B6000BCF40008C2F80008ECF8000803F90008EB
:103B700030F9000810B5044602F06AF9034A03461A
:103B80000021204607F089FC002010BD67F90008DD
:103B9000F0B5D0F8A0608BB004460D4609A909F035
:103BA00001F938B10346124A0021284607F075FC96
:103BB0000BB0F0BD0790204609F0F0F8099F0D4AC0
:103BC0000799002818BF0246A6EB070C6423CDE92D
:103BD000002603FB0CF3CDE9027CB3FBF6F3064AA7
:103BE000CDE904632846234607F057FCE0E700BF11
:103BF00003F90008B3F800087DF9000803460068DF
:103C000010B50C46114608B1027822B9024A204686
:103C100005F0EEFF204610BD50FA000810B50C6804
:103C2000D1E90112FFF7EAFF034A034600212046CB
:103C300007F033FC002010BD55FA00082DE9F047CD
:103C40008AB0054601A804F095F9019B1B4ADFF8EC
:103C50007880DFF87890DFF878A0182606FB003629
:103C60000021284607F019FC019CB44203D3002030
:103C70000AB0BDE8F08705AF394614222046FFF7A9
:103C8000BDFF424603460021284607F006FC2046B9
:103C900009F025F80A4A002814BF4B465346002174
:103CA000284607F0FAFB142320460649049302AA8B
:103CB000CDE90257183404F095F9D6E774FA0008F4
:103CC00083FA00081D3C00087EFA000865FA000827
:103CD0006BFA00082DE9F043114BDFF8489053F8D8
:103CE0002140013187B053F8218006460027A045C6
:103CF00003D8384607B0BDE8F083204608F0EFFF50
:103D0000054658B1142201A92046FFF777FF4A461D
:103D100003460021304607F0C0FB2F461834E6E783
:103D200000ED00088AFA000810B51F4A0446002179
:103D300007F0B3FB00212046FFF7CCFF014618B97E
:103D40001A4A204607F0A9FB194A0021204607F02D
:103D5000A4FB01212046FFF7BDFF014618B9134A15
:103D6000204607F09AFB134A0021204607F095FBF6
:103D700002212046FFF7AEFF014618B90B4A204644
:103D800007F08BFB0C4A0021204607F086FB03213D
:103D90002046FFF79FFF014618B9044A204607F066
:103DA0007CFB002010BD00BF90FA00089FFA0008BD
:103DB000A7FA0008B6FA0008C4FA000810B581682E
:103DC0000446083101F082FBA168034A204608310D
:103DD000BDE8104001F002BB21FB0008014907F0DB
:103DE000A4BA00BF65F9000837B504468068D0F86A
:103DF0005C321B060D4605D5002107F0D7FAE068B6
:103E000007F008FFE368DB6863B99DB3A0683E3044
:103E100007F085FAA36878B303F13E0103F59F70BC
:103E200009F004FDA268E0680DF106033E32294660
:103E300007F0F3FE58B9A06800F59F713E3009F015
:103E4000F5FCA0683E3007F06AFAADF8060020469F
:103E500007F0D3FC0A4A0B49606907F066FA20466E
:103E600001F034F8A368BDF806205A871A87204667
:103E700007F06CFC03B030BD83F83E01D2E700BF11
:103E800008FE000880FA000810B5836802221A7143
:103E9000002283F83E209A63D3F85C329B030446E9
:103EA0000BD50421074B084A07F050FDA0686FF4BA
:103EB000003100F5177007F00DFA2046BDE81040FC
:103EC00001F036B92FFB000880FA00082DE9F04F09
:103ED00000239FB0CDE90533836804463E33039346
:103EE00007F091FC204607F01BFC10B96069FFF752
:103EF00075FFA06814220021083009F015FC204647
:103F000000F046FFA168E0680A8F3E31002607F006
:103F1000BBFE204608F06BF84FF0FF38B146B246C2
:103F200011AF02963546B346DDE90532012A00F0AD
:103F3000D6800B2B40F2AE800699022940F0AE806D
:103F4000894B8A4A15E00223039A394606A800F0F5
:103F500003FE7B680393069B2BB96FF00705284689
:103F60001FB0BDE8F08F012B07D130B1804A034666
:103F70000221204607F0EAFCEFE7059B4BB33868C7
:103F800001F0C8FA98B166B1A5680D9608350CAE77
:103F90000FCE0FC533682B602046FFF70FFF0125BA
:103FA000DDE7744A0221204607F0D0FCD5E7059BE7
:103FB0007BB13A682946204601F002FC022800F055
:103FC0008E80032805D0059B0133059301230293BE
:103FD000AAE7BAF1000F05D1396807AA584607F0D9
:103FE00004FB0546043708F1FF38002D40D0029A43
:103FF000EB6842B113B3204607F005FC204607F0FA
:10400000A5FB5D4ACEE7CBB1A368DDF81490AE46C0
:1040100003F1080CBEE80F00ACE80F00DEF800303A
:10402000CCF80030AB684BB96B7CFE2B01BF95F828
:10403000108009F1010308F1FF380593D5F804C099
:10404000BCF1000F08D0AE46BEE80F000CAE0FC6A4
:10405000DEF8003033606646AB46B8F1000F03D19E
:10406000069B022B7FF460AF059B013305935BE752
:10407000059B63B9A368DB690BB1DB683BB93F4BB8
:1040800000933F4A119B0221204607F05FFC4FF04E
:10409000010AE2E7B8F1000F7FF455AF029B4BB184
:1040A000204607F0C8FFA2680C233E3211A905A8DC
:1040B00000F052FD059DA0681EAB03EB85030022B6
:1040C00043F8342C436973B9002E3FF446AFC368FC
:1040D000B3423FF461AF0D9600F1080557E7059B29
:1040E0000B2BDBD928E7037EA5EB0905B3B1417E95
:1040F0004FF6FF72FF2918BF0A469D4202D31344B0
:104100009D420BD983681F4A0221204607F01EFCFE
:104110002046FFF753FE6FF0150520E74FF480317E
:1041200000F5177007F0C7F8A06800F53C7007F0BD
:1041300056F9A36811AA294602EB89025B69204659
:1041400098470546A0684FF0FF324FF0FF3300F567
:104150003C7007F0F7F8A0686FF4803100F5177035
:1041600007F0B8F8FBE600BFE8FB00088CFA00088F
:1041700073FB000887FB0008A5FB0008D4FB0008C0
:10418000A8FE00080CFC00082DE9F04F2DED028B75
:1041900004468068A9B0102100F5177007F08BF86D
:1041A000A3681B79022B40F0048300230993606805
:1041B000036801221D690DF1230109ABA847099B82
:1041C000002B00F0F6829DF923209DF82330002A71
:1041D000EDDBA0684179012900F06F82022900F02F
:1041E0008282002940F0E3820D2BD0F85C221BD0A4
:1041F0000A2B19D061F30F22C0F85C22092B4CD096
:1042000033D8002BD3D0082B00F0C7815A1CB549F6
:10421000D2B2525C12F0970F00F0CB81012107F06F
:10422000C5F89DF82310E1E012F47F4F05D0D0F8D7
:104230005C22C2F307229342E0D1D0F85C22018FC6
:1042400063F30F22C0F85C2259B907F0AFF8E068B9
:1042500007F0E0FC6069FFF7C1FD2046FFF714FEA0
:10426000A5E72046FFF732FEF7E71B2B12D07F2B86
:10427000CCD1D0F85C325F0799D5012107F096F8D0
:10428000A368D3F85C325E0600F18F81204607F008
:104290009DFB8CE70123437189E7D0F85C325D0711
:1042A00085D5012107F082F8A068038FFF2B3FF42A
:1042B0007EAF428F00F13E0100F59F7009F00CFACD
:1042C000A268538F1344002583F83E511BA90C2389
:1042D00002F59F720BA800F03FFC0B990C293FF6EA
:1042E00066AF28AB03EB810343F8345C51B1A3689C
:1042F0005A8F134493F83D207B4BD35C180751D45D
:1043000001294ED100250A950A9B28AA02EB8303B6
:10431000002653F834AC504607F001F8B046814609
:104320000396374616AA3946284600F0D1FC834644
:10433000002843D1012E62D10A9B28AA02EB8303F5
:1043400053F8340C06F0EBFFA268064608324146EB
:10435000284600F0BDFC0546006806F0E0FF8642F6
:1043600006D02968821B92B23144204607F02CFB0C
:10437000A068438F034493F83E205B4BD15C11F05F
:10438000080137D1D0F85C32DA072ED507F018F8DB
:104390002021204600F098FEA068012107F010F8C7
:1043A00005E7013900200CAB009301900AAB1BAA72
:1043B00007F032F905460028A6D1F8E6DBF8000040
:1043C0004A46514609F03AFA68B9DBF80000FCF7B2
:1043D000FDFC039B834238BF03469BB2002E08BFFF
:1043E000B8460393013601379CE72021204600F0B0
:1043F0006BFEDCE60121204607F0DBF9D7E67FF60D
:10440000D6AE0A9B28AA02EB8303C14653F834AC0C
:10441000504606F084FFA3680496A3F830B008EE77
:10442000900ADFF8C8B0A26849460832284600F072
:104430004FFC09F101090746BAF1000F58D13F6856
:10444000002F60D1A2681786049B013B0493EAD138
:104450006069FFF7C3FC204600F06AFE0A9B28AAA9
:1044600002EB830308F1010953F8340C06F057FFFF
:10447000414611AA0746284600F02AFC8046A0685B
:10448000D8F80010FF2200F59F7009F0EBF9D8F87A
:1044900000A04FF6FF7816AA4946284609F1010BFD
:1044A00000F016FC00286BD0A368006803F59F732A
:1044B000002213F801CB815C614505D121B10132A5
:1044C0004FF6FF718A42F4D10FB1BA4208DB424580
:1044D00006F1FF36A8BF4246012E1FFA82F84FD0E0
:1044E000D946D8E7010D0108020D0108BBF4000808
:1044F00000680028A3D018EE902A514609F09EF9D2
:1045000000289CD08FE7584606F009FF039BA1685E
:10451000184482B24B8D07925846069306F0FFFE70
:104520000590384606F0FBFE079A101A83B208EE93
:10453000103AA068DDE90513B0F830C0591A91FBB4
:10454000F2F292B2BCFBF2F102FB11C20CF1010ECD
:1045500092B2A0F830E062B99C4A00975B4607210E
:10456000204607F0F3F918EE101A204600F064FC1C
:104570006AE7974A3B460721204607F0E7F9F2E74A
:10458000B8F1000F3FF413AEA8EB070292B20AEBAA
:104590000701204607F018FA09E6D0F85C325B07FD
:1045A0007FF505AE012106F001FF204607F029FA4C
:1045B000FDE5D0F85C2255077FF5F9AD013B162BE0
:1045C0003FF6F5AD01A252F823F000BF8547000881
:1045D00029460008314600088D4200087947000846
:1045E0004F460008AF410008AF410008AF41000846
:1045F000AF410008574600085F460008AF41000879
:104600007B460008AF41000885460008AF4100081E
:10461000AF410008AF410008AF41000889460008DB
:10462000AF410008AB460008204607F0F3F8BEE5AE
:10463000204607F0E8F8204607F072F810B96069E4
:10464000FFF7CCFBA068012106F0B0FE05E620468E
:1046500007F0E8F8ABE5204607F0EDF8A7E560695C
:104660005C4A5B4906F061FE60695B4A584906F0A6
:104670005CFE204600F05CFD99E500212046FFF736
:10468000B3FB94E50121F9E7204607F0B6F8A068EE
:10469000002380F83E308363012106F087FE4F4AF5
:1046A0004B49606906F041FE81E5204600F078FC48
:1046B000A068012106F07AFE79E55B2B01D1022387
:1046C000E9E5D0F85C22500709D5622B05D14FF0FF
:1046D000FF31204600F0C0FB01E0662BF9D0A36853
:1046E00000225A7163E500224271D0F85C22520721
:1046F0007FF55DAD313B1B2B3FF659AD01A252F862
:1047000023F000BF814700088D4700089F4700083D
:1047100075470008AF410008AF410008AF410008ED
:10472000AF410008AF410008AF410008AF410008A9
:10473000AF410008AF410008AF410008AF41000899
:10474000AF410008854600087B4600084F46000838
:1047500029460008AF41000879470008AF4100082A
:1047600085470008AF410008AF410008AF4100088D
:104770009147000803234371204607F044F816E5EB
:1047800003234371204607F038F810E503234371F3
:10479000D0F85C1201F0010181F00101FEE5032374
:1047A0004371D0F85C325B077FF501AD6EE5002305
:1047B00071E5A0686FF0100100F5177029B0BDEC2D
:1047C000028BBDE8F04F06F085BD00BF27FC000856
:1047D00080FA000811FE00080CFE000808FE000820
:1047E0002DE9F041044680680F46D0F8041388B0E4
:1047F0001E46002975D14FF4427208F095FFA36858
:104800002268E0681A6007F0AAFAA06800F53C7018
:1048100008F004FB4FF428784FF41875A06828447A
:1048200008F087FEA068002243190121404410359A
:1048300008F062FEB5F5287F08F11408EED1A369EF
:10484000A06800221A60202100F5177006F033FDE1
:10485000A068042100F5177006F02DFDA0686FF028
:10486000080100F5177006F035FDA068402100F53D
:10487000177006F020FDA3681B4A9A62186806F0BC
:104880004EFDA368022183F82C0003F5177006F093
:1048900012FD6068154A036839461D682346A8471B
:1048A0000546D0B9A36801221A71D4E90A01002291
:1048B0000023CDE906230E2303930E9B0495CDE937
:1048C000016300940A4B4FF4006203F04FFEA368AB
:1048D000616AC3F8040303F099FD284608B0BDE8F7
:1048E000F0816FF07705F8E71800500049B3000831
:1048F0004149000810B5044680680379012B19D19D
:104900004FF0FF324FF0FF3300F53C7006F01AFD18
:104910000021204600F0E2FA0849606906F005FD32
:104920002046FFF7B1FAA06800F53C7006F057FD8D
:10493000002010BD6FF08500FBE700BF64F90008A0
:104940002DE9F34104464068019203680D469B68D7
:104950000021984700284DD125B1019AE0692146F0
:1049600007F0A8FA2046FFF7C5FF002842D1DFF87C
:104970009880224F224EA06800F528704FF0FF3239
:104980004FF0FF33032104F0EFFD0546A0684FF020
:10499000FF324FF0FF3300F53C707DB106F0D2FCE2
:1049A0002046184A2B46022106F0D0FFA06800F5E9
:1049B0003C7002B0BDE8F04106F011BD06F0C2FC4B
:1049C000606803685B6903B198474246204602214C
:1049D00006F08FFC3A462046002106F08AFC20466D
:1049E0003246012106F085FCA06800F53C7006F017
:1049F000F6FCC0E702B0BDE8F08100BF89410008C5
:104A0000E3B300082DFC00085DB3000810B50D4AA3
:104A10000446002106F041FD20460B4A002106F025
:104A20003CFD2046094A002106F037FD2046084A91
:104A3000002106F032FD2046064A002100F0CEFC9F
:104A4000002010BD44FC000882FC0008E1FC0008C6
:104A500035FD0008CFFD00082DE9F04716461F463A
:104A60002B4ADFF8B880DFF8B890DFF8B8A00B4623
:104A70000021044606F011FD0025AF4234D9735DD4
:104A80004A460021204606F008FD0135102D23D1AD
:104A9000204ADFF89080DFF89090DFF890A00021A6
:104AA000204606F0FAFC0025BD422BD2735D13F8B8
:104AB000092012F0970F08BF2E23524600212046EE
:104AC00006F0EBFC0135102D14D12046124ABDE84A
:104AD000F047002106F0E1BC15F00701CDD15246A8
:104AE000204606F0DAFCC8E742460021204606F0E0
:104AF000D4FCCAE715F00701D6D14246204606F09D
:104B0000CCFCD1E742460021204606F0C6FCD9E79E
:104B1000E5FD0008BEF40008ECFD0008BAF400084A
:104B2000B4F40008BCF40008020D010819FE0008E6
:104B300010B5044613460A4601460648FCF798F9A4
:104B400023691B7923B12046BDE8104006F0C8BC9C
:104B500010BD00BFF9B400082DE9F74F1F46DFF87C
:104B60006C81002305460E46144603609A4699461A
:104B70002378002B00F0A58013F8083013F0080309
:104B800002D004F8019BF3E729684A1CBA422A6064
:104B900046F8214000F095809A4694F800B0BBF1A9
:104BA000000FE5D0BAF1000F77D1BBF1270F05D088
:104BB000BBF15C0F79D0BBF1220F67D1204606F024
:104BC000B7FC611C0246204608F094FDDA46E4E793
:104BD000204606F0ADFC611C0246204608F08AFD26
:104BE0004FF0000AD9E7302926D14FF0000B0223FD
:104BF000E15CA1F130005FFA80FCBCF1070FDAB292
:104C000018D8013340EACB0B052B5FFA8BFBEFD1B1
:104C10001A46511E214420460192009106F088FC5C
:104C2000019A00990230821A204608F063FD04F8C8
:104C300001BBB2E7022AECD178292CD14FF0000B4E
:104C40000223E25CA2F130015FFA81FCBCF1090FA2
:104C5000D8B209D841EA0B12032B5FFA82FB01D1CB
:104C60000422D6E70323ECE7A2F16101052903D86A
:104C7000573A42EA0B12EFE7A2F14101052901D8A8
:104C8000373AF6E7022806D00322C2E718F80B30BD
:104C90001B073FF56DAF01347FE7D34598D0BBF1DB
:104CA0005C0FF8D161788A459DD1204606F040FC22
:104CB00004F1010B02465946204608F01BFD5C46F4
:104CC0006BE7504603B0BDE8F08F00BF020D01084E
:104CD00010B50B46144650B90E490F4A521AB3EBA1
:104CE000D20F0FD201EBC3014C68204610BD816882
:104CF00041B14A68097839B118462146904723687E
:104D0000002BF2D10024F0E714204343D418D358E9
:104D1000F6E700BF50DE000898DE00082DE9F843F2
:104D2000064606F005FC054656BBBDE8F8834CB1C7
:104D30006A1C9BB20130D21A304408F0DBFC2D1BF8
:104D4000ADB24C460137BBB26A1E93421846ECDA4C
:104D5000325C12F808201207F4D501339BB29AB2E4
:104D60009542EFD9F25C18F8022012F0080906EB20
:104D7000030103F1010CDAD00134A4B26346EEE77B
:104D80000027DFF808803C46DDE700BF020D010880
:104D9000F8B5846894F83E30054653B9AB681A8F6D
:104DA0005A87F8BD013A92B222872AB984F83E2088
:104DB000F4E7114E04F13E00228F831813F8013CF2
:104DC0009B5D13F00803EDD183549FB210FA83F179
:104DD00010F807C016F80CC01CF0080F03F101030F
:104DE000F3D1002FDAD0268F731CDA1BF61B08F0E4
:104DF00081FC2687D2E700BF020D0108014906F0B9
:104E00006CBC00BF65F90008014A024906F065BCA8
:104E100023FE000880FA000859B1002981EAE172F6
:104E2000A2EBE17240690349CCBF4123422306F063
:104E300054BC704715FE000859B1002981EAE1729F
:104E4000A2EBE17240690349CCBF4323442306F03F
:104E500044BC704715FE000800292DE9F8430646BA
:104E60002FDA494209B24FF0FF35DFF85C808CB28F
:104E7000AFB21EE0B3685A8FB3F838E003F13E0CCE
:104E800000201346991A09B213B9B5F1FF3F0BD0B0
:104E90009E4501D1012D07D01CF8039019F8089008
:104EA00019F0070F09D148B1304606F082FC013CE9
:104EB000A4B2002CDED1BDE8F88301203B449BB2B4
:104EC000E0E70125D1E700BF020D01088268024931
:104ED00040693E3206F001BC80FA000807B58368DD
:104EE00093F82E208A421FD083F82E10F9B11B238D
:104EF0008DF800305B238DF8013031238DF80230BE
:104F00003B238DF8033033232F318DF804306D238C
:104F10008DF805108DF806300949406900236A466E
:104F20008DF8073006F0D9FB03B05DF804FB054AA5
:104F30000349406903B05DF804EB06F0CEBB00BF47
:104F400080FA00081CFE000837B50D4609780446B3
:104F5000FFF7C4FF6B78F3B1A26892F82F10994263
:104F600019D01B218DF800105B218DF80110342120
:104F70008DF8021003F12F018DF803106D2182F8D6
:104F80002F308DF8041000218DF805106069034959
:104F90006A4606F0A2FB03B030BD00BF80FA0008ED
:104FA0008368F7B51A8F0546002A48D0588F002825
:104FB00045D03D30184403F13E060346C41AB342BF
:104FC000A4B219460DD311F80179202F35D0194616
:104FD000013B0878202804D001349E42A4B219462F
:104FE000F5D94B1C601C121B01441846019308F0B4
:104FF00081FBA9680A8F121B92B20A870A44002615
:10500000614282F83E60284609B206F0D2FB686928
:105010000C4A0D4906F061FB3146019B0A4A2846BD
:1050200006F094FC6869FFF7EFFE084A06496869D4
:1050300003B0BDE8F04006F050BB0B46BEE703B03E
:10504000F0BD00BF27FE000880FA000820FE00081F
:105050002DE9F04104460D46174612B14069FFF7AD
:10506000D3FEA368D3F85C22588FC2F3C0013E3050
:10507000120703441FD51846FBF7A8FEDFF844804B
:10508000064696B9A3681A8F5A87204606F032FB67
:1050900020B107B115B16069FFF7B0FE6942204643
:1050A00009B2BDE8F04106F084BB6069414606F0F4
:1050B00014FB013EE5E7024A204606F047FCE1E723
:1050C00080FA00088307010813B583688DF807107C
:1050D000D3F85C220446D00721D5598F1A8F8A4213
:1050E0001DD0481C19449DF80720588781F83E20A0
:1050F000D3F85C12490710D5D3F85C3260690B49CC
:1051000013F0080F18BF2A2206F0E7FA204606F02F
:1051100007FB10B16069FFF771FE02B010BD0122FC
:105120000DF10701204606F01EFCF6E719FE000807
:1051300083680A4A1B6810B50446032106F006FC82
:10514000A368D3F85C325B0707D52046FFF7BEFEA5
:105150002046BDE8104006F009BB10BD80FA0008EB
:1051600010B50C46416808688360C0E90042886851
:1051700006F07EFCC86806F07BFC0B680022DA6053
:10518000A3682BB19B6C1BB10A4620460449984783
:10519000A3689B6A0BB120469847002010BD00BF52
:1051A000D551000807B5094802F0F2FE014650B19A
:1051B00004230093012306481A46FFF711FB002041
:1051C00003B05DF804FB6FF01200F9E72AFE000857
:1051D00020DE00082DE9F74F83460D4683685B6C9F
:1051E00003B19847DBF808305B6B002B31D1DFF857
:1051F000F0903A4EDFF8ECA0A9EB0606B608B6012F
:105200004FF0000846F00206E86801A9026905F0BF
:10521000E3FA0746002844D0DBF808309C69002CEC
:105220003DD0024601995846A047041E2146E86831
:1052300018BF4FF0010805F0EBFA0CB1A742E3D01C
:10524000B8F1000F09D02B680020D3E90121904765
:1052500003E0584698470028C9D1DBF808305B6A5C
:10526000D3B158469847B8B1A86801A9026905F0BA
:10527000FBFA044660B3DBF808305B6933B301998D
:105280000246584698470146A86805F009FB2B6876
:105290000120D3E90121904703B0BDE8F08F2046FB
:1052A000C3E7D9F8003013F0060F03D0314650465B
:1052B00005F0A9FCDBF808309C69002CBDD0012268
:1052C0000DF103015846A0470446B6E71946DBE74F
:1052D000584606F0A7FB2B68DC60D8E73C030020AB
:1052E0005C03002031FE0008014906F0FDBB00BF51
:1052F00065F900082DE9F047044690460E4600295E
:1053000067D0DFF8D4900025735D13F809301A07D1
:105310001ED43046FBF75AFDA3685A8D80B2401B5D
:10532000A2EB0803984206EB050A13D95146002761
:1053300011F8010B19F800C01CF0080F02D00A2860
:105340002FD03B4608EB0700824229D90137EFE70F
:105350000135D9E753460027B84216D013F8012B80
:105360000A2A05EB070919D1606906F0B9F8514618
:105370003A46204606F083FA6069FFF7B5FF4146DA
:10538000204609F10105FFF757FD6069711906F024
:10539000ABFB6069BDE8F047FFF7A6BF0137DBE76D
:1053A0001F46606906F09CF83A465146204606F0D2
:1053B00066FA3D44735D19F803301B0707D4606932
:1053C000FFF792FF41462046FFF736FDA1E7013582
:1053D000F0E7BDE8F08700BF020D01082DE9F04FAE
:1053E0000F4600218DB0044616460D4607AA3846E2
:1053F00001F10108FFF76CFC0146B0B995B11EB18F
:105400003246204606F0A2FADFF8B480DFF8B4A0F6
:10541000DFF8B4B000214B1C07AA38460293FFF70F
:1054200057FC60B90DB0BDE8F08F086810B1FBF70C
:10543000CDFC80B2854238BF05464146D6E7D0E96B
:1054400000694046FBF7C2FC039016B3327802B302
:105450003046FBF7BBFC281A83B2202204938DF858
:105460001B204346009652460021204606F06EFA65
:10547000002304999AB28A420DD343465A4600212A
:10548000204606F063FAB9F1000F0ED16069FFF70C
:105490002BFF0299BFE701220DF11B012046059366
:1054A00006F0EDF9059B0133E3E7039B6A1C02EB71
:1054B000430292B249462046FFF71CFFE9E700BFCE
:1054C00085FE000828FC000873FE0008F7B50646B4
:1054D00008680D46B8B1FBF779FC84B20B4F38462B
:1054E000FBF774FC2B680A4A0097044400213046FD
:1054F00006F02CFAA4B269682246304603B0BDE833
:10550000F040FFF7F7BE0446E8E700BF81FE000861
:1055100028FC000810B507490446FBF74DFC38B1DC
:1055200005492046FBF748FCB0FA80F0400910BD61
:105530000120FCE777FE00087AFE000810B504465B
:105540000549064A406906F0E0FA6069044A0249E2
:1055500006F0DBFA002010BD80FA0008DD02010829
:10556000D802010810B50446044A0549406906F00E
:10557000CCFAA368034A9A62002010BDCC0201084D
:1055800080FA00081800500008B58369034A1B68B8
:10559000002105F082FF002008BD00BF88FE000842
:1055A000F0B5104F85B004460025A268E0680DF103
:1055B0000E0302F59F72012106F02FFBBDF80E00CD
:1055C000A36858B103F59F7300936E1C2B463A46AF
:1055D0000021204605F061FF3546E6E783F83E01ED
:1055E00005B0F0BD97FE0008022907B50CD153683D
:1055F00001930D4B009313680C4A05F04EFF6FF0BA
:10560000150003B05DF804FB8368094AD3F85C32E7
:1056100013F0040F4FF00001064B18BF1346064A63
:1056200005F03BFF0020ECE7AEFE0008A5FE0008F9
:105630003DFA0008A1FE0008C3FE0008F0B50129EC
:1056400085B005460DD053680193554B0093136800
:10565000544A022105F021FF6FF01504204605B0E1
:10566000F0BD514A5149406906F04FFA6FF0F90117
:105670002846FFF7D1FBFA212846FFF7DDFBA86893
:1056800000244FF48072214600F59F708DF80B4086
:1056900008F04AF84649686906F037FA686905F083
:1056A0001FFF4FF47A766868036801221F690DF1C5
:1056B0000B0103ABB847039B53B9013E4FF47A701B
:1056C000B6B203F095FE002EEDD16FF0850434E004
:1056D0009DF80B30A9681B2B56D091F83E211B2A50
:1056E000E1D1522B50D10C44002384F83E3191F883
:1056F0003F215B2A50D101F5A0741F46022614F801
:10570000010B32463B2806F10106B6B227D1B6F5A9
:10571000807FDAD002F23F1211FA82F2002312F8EF
:10572000014B34BBFA2B28BFFA23FA2F4B853B469B
:1057300028BFFA2381F83E410B851E4A1B49686940
:1057400006F0E3F9002C89D0AB681B4A9A62042169
:105750001A4A284605F0A1FE6FF007047EE707EB22
:10576000870300EB4303303BB6F5807F9FB2C6D181
:10577000ABE703EB8303013604EB4304B6B2303CE2
:10578000FF2EA3B2CBD9A0E70A190134A4B2092C89
:1057900082F83E3187D9002381F83E3195E700BF7A
:1057A000AEFE0008A5FE0008D502010880FA000838
:1057B000E1020108D202010818005000D4FE0008DE
:1057C0002DE9F04F074689B01546894621B90324D3
:1057D000204609B0BDE8F08F104606F0F4FB002823
:1057E000F5D04FF000084146022426E05C463EE03A
:1057F00029460AF59F7008F054F80646002850D054
:10580000FBF7E4FA04F1010C80B2421C314606EBCE
:105810000C0007F06FFF22465946304607F05CFF48
:105820004FF020033355BAF83C0004440134AAF881
:105830003C4008F10108002401994B1C03AA48468A
:105840000193FFF745FA0646F8B131680022284671
:1058500005F0A5F90028EFD1D6F800B0D7F808A0D8
:10586000BBF1000FC2D05846FBF7B0FA84B2BAF8C9
:105870003C2001322244B2F5807FB9DD0A4A2B4632
:105880000421384606F062F80124B8F1000F9FD0D9
:10589000B8682A4600F13C0100F59F7005F07EFED5
:1058A00096E70224F1E700BFE602010838B5044C90
:1058B000044DAC4200D338BD54F8043B9847F8E798
:1058C000B8DD0008B8DD000838B5054C256804EBE4
:1058D000850405B938BD54F80439013D9847F8E707
:1058E000B0DD000808B5064802F052FB054B186011
:1058F000054801F013F90448FCF7EAFF002008BD51
:105900002AFE0008581E00200D5900080A2838B544
:10591000074D044604D1286883680D215B689847C9
:1059200028688368E1B25B689847204638BD00BFAD
:10593000581E00202DE9F8430D4F04460E4615462B
:105940004FF0010802F10409B44201DBBDE8F8831D
:105950007A6908FA04F333EA020207D17B6155F849
:1059600034301BB159F83410204698470134EBE726
:10597000003C0140044A0123116883400B4313603B
:10598000024B185600F0F0BA003C014056030108E3
:105990001F2807DC044901220B6802FA00F023EA01
:1059A00000000860704700BF003C014003290FD889
:1059B000DFE801F0020F1723154B0122996802FA64
:1059C00000F021EA00019960DA6822EA0000D8605C
:1059D0007047012303FA00F00D4B9A6802439A6066
:1059E000F2E7012303FA00F0094BDA680243DA60B8
:1059F0009A6822EA000098607047012303FA00F0D9
:105A0000034B9A6802439A60DA681043DFE700BFED
:105A1000003C014010B5074C54F8303033B944F81D
:105A2000301004EBC0041846626010BD6FF00F0028
:105A3000FBE700BF601E0020034B002243F830202C
:105A400003EBC0035A607047601E00200B6886B0ED
:105A5000062B39D8DFE803F00410242E38381A005A
:105A60001B4A4B68116B19431163126B134001936E
:105A7000019B002006B07047154A4B68516B1943D3
:105A80005163526B13400293029BF2E7104A4B683A
:105A9000916B19439163926B13400393039BE8E767
:105AA0000B4A4B68116C19431164126C1340049338
:105AB000049BDEE7064A4B68516C19435164526CF3
:105AC00013400593059BD4E76FF08500D2E700BF34
